:020000040800F2
:1000000000C00020C51C0008990700089B070008D5
:100010009D0700089F070008A107000800000000D6
:10002000000000000000000000000000A30700081E
:10003000A507000800000000A7070008A90700089E
:10004000151D0008151D0008151D0008151D0008C8
:10005000151D0008151D0008151D0008151D0008B8
:10006000151D0008151D0008151D0008151D0008A8
:10007000151D0008151D0008151D0008151D000898
:10008000151D0008151D0008151D0008151D000888
:10009000151D0008151D0008151D0008151D000878
:1000A000151D0008151D0008151D0008151D000868
:1000B000151D0008151D0008151D0008151D000858
:1000C000151D0008151D0008151D0008151D000848
:1000D000151D0008B1070008151D0008151D0008B2
:1000E000151D0008151D0008151D0008151D000828
:1000F000151D0008151D0008151D0008151D000818
:10010000151D0008151D0008151D0008151D000807
:10011000151D0008151D0008151D0008151D0008F7
:10012000151D0008151D0008151D0008151D0008E7
:10013000151D00080000000000000000151D00084B
:10014000151D0008151D0008151D0008151D0008C7
:10015000151D0008151D0008151D0008151D0008B7
:10016000151D0008151D0008151D0008151D0008A7
:10017000151D0008151D000800000000000000000B
:04018000151D000841
:1001840053B94AB9002908BF00281CBF4FF0FF31FA
:100194004FF0FF3000F00CB8ADF1080C6DE904CE5F
:1001A40001F0E4FDDDF804E0DDE9022304B070476A
:1001B400704700BF0348044B834202D0034B03B192
:1001C400184770470C0000200C00002000000000BD
:1001D4000548064B1B1AD90F01EBA301491002D0A5
:1001E400034B03B1184770470C0000200C0000209B
:1001F4000000000010B5064C237843B9FFF7DAFF7E
:10020400044B13B10448AFF300800123237010BDE5
:100214000C000020000000002420000808B5054B55
:100224001BB105490548AFF30080BDE80840FFF75E
:10023400CFBF00BF000000001000002024200008F1
:1002440072B6FEE700B593B03022002106A801F093
:1002540060FD002301930293039304930593022307
:1002640006930122099210220A920C930D220E92F7
:10027400C3220F9210930423119306A800F0B2FB3B
:1002840098B90F23019302230293002303934FF49D
:10029400A05304934FF480530593032101A800F065
:1002A400E5FD20B913B05DF804FBFFF7C9FFFFF7C4
:1002B400C7FF08B500F06AFBFFF7C4FF00F010F8B1
:1002C40000F058F800F072F800F010F900F0C6F9E8
:1002D40000F0DEF901F0C0FB00F028F9FEE70000B1
:1002E40030B58BB0002405940694079408940994BF
:1002F40001941E4B1A6B42F004021A631A6B02F04B
:1003040004020192019A02941A6B42F080021A6369
:100314001A6B02F080020292029A03941A6B42F062
:1003240001021A631A6B02F001020392039A049405
:100334001A6B42F002021A631B6B03F0020304936C
:10034400049B0B4D224643F23301284600F0F2FF92
:1003540043F233030593012306930794089405A9F4
:10036400284600F0E3FE0BB030BD00BF0038024069
:100374000008024008B50B480B4B03601023436090
:1003840000238360C360036143610376437683760D
:10039400C3760377437700F02DFA00B908BDFFF761
:1003A4004FFFFBE7540000200064004008B50B48F1
:1003B4000B4B03601023436000238360C36003611D
:1003C4004361037643768376C3760377437700F0FD
:1003D40011FA00B908BDFFF733FFFBE72C0000203A
:1003E4000068004000B58BB0002305930693079383
:1003F400089309930368374A934205D0364A9342D7
:100404002FD00BB05DF804FB344A1368013313603A
:10041400012B19D000230193314B1A6B42F00102D6
:100424001A631B6B03F001030193019B4FF4C05348
:10043400059302230693032308930923099305A92B
:10044400284800F073FEDCE700230093244B1A6C69
:1004540042F000721A641B6C03F000730093009B5B
:10046400D8E7002302931E4B1A6C42F080621A6490
:100474001B6C03F080630293029B184A13680133D8
:100484001360012B19D000230493154B1A6B42F00F
:1004940002021A631B6B03F002030493049B4FF4E0
:1004A40040530593022306930323089309230993D6
:1004B40005A90D4800F03AFEA3E700230393084B77
:1004C4001A6C42F000721A641B6C03F000730393FD
:1004D400039BD8E700640040006800402800002027
:1004E40000380240000002400004024008B50D48F4
:1004F4000D4B03604FF48273436000238360C36039
:10050400036143614FF400728261C3610362436219
:1005140083620A23C36200F070FF00B908BDFFF7CD
:100524008FFEFBE7D40000200030014008B50D48E1
:100534000D4B03604FF48273436000238360C360F8
:10054400036143614FF400728261C36103624362D9
:1005540083620A23C36200F050FF00B908BDFFF7AD
:100564006FFEFBE77C00002000380040F0B58BB044
:100574000023059306930793089309930368314A6C
:10058400934204D0304A934224D00BB0F0BD0021F2
:1005940000912E4B5A6C42F480525A645A6C02F405
:1005A40080520092009A01911A6B42F001021A6380
:1005B4001B6B03F001030193019BE02305930223CA
:1005C4000693032308930523099305A9204800F003
:1005D400ADFDDAE7002402941C4B1A6C42F480420D
:1005E4001A641A6C02F480420292029A03941A6BFF
:1005F40042F004021A631A6B02F004020392039A93
:1006040004941A6B42F002021A631B6B03F0020398
:100614000493049B0C23059302270697032608964C
:100624000525099505A90B4800F080FD4FF480636A
:100634000593069707940896099505A9064800F0BE
:1006440075FDA2E700300140003800400038024048
:1006540000000240000802400004024008B50A48B5
:100664000A4B03604FF4E133436000238360C360AB
:1006740003610C2242618361C36100F0EDFF00B9A4
:1006840008BDFFF7DDFDFBE7740100200010014009
:1006940008B50A480A4B03604FF4E1334360002372
:1006A4008360C36003610C2242618361C36100F013
:1006B400D3FF00B908BDFFF7C3FDFBE72C01002001
:1006C4000044004010B58AB00023059306930793B5
:1006D4000893099303682B4A934204D02A4A93420D
:1006E4002DD00AB010BD00240194284B5A6C42F05E
:1006F40010025A645A6C02F010020192019A029498
:100704001A6B42F001021A631B6B03F0010302939C
:10071400029B4FF4C06305930223069303230893BB
:100724000723099305A91A4800F000FD2246214633
:10073400252000F0C9FC252000F0D6FCD1E70021DB
:100744000391124B1A6C42F400321A641A6C02F4CC
:1007540000320392039A04911A6B42F001021A6365
:100764001B6B03F001030493049B0C2305930223E6
:100774000693032308930723099305A9044800F06B
:10078400D5FCAEE7001001400044004000380240B0
:1007940000000240FEE7FEE7FEE7FEE7FEE77047E3
:1007A4007047704708B500F00BF908BD08B502485A
:1007B40001F00EF808BD00BF7401002082B00021D2
:1007C40000910B4B5A6C42F480425A645A6C02F406
:1007D40080420092009A01911A6C42F080521A648D
:1007E4001B6C03F080530193019B02B0704700BF60
:1007F40000380240002800F0A18038B5044690F883
:100804002030D3B12268136843F00103136000F071
:10081400E3F8054623685A6812F0010F10D100F07E
:10082400DBF8401B0A28F5D9636A43F4003363629A
:10083400052384F82030012038BDFFF7D3FDE1E71C
:100844001A6822F002021A6000F0C6F8054623680E
:100854005A6812F0020F0DD000F0BEF8401B0A28AF
:10086400F5D9636A43F400336362052384F82030C6
:100874000120E1E7227E012A3DD01A6822F080029D
:100884001A60637E012B3BD02268136823F0400377
:100894001360A37E012B39D02268136823F0200350
:1008A4001360E37E012B37D02268136843F01003F2
:1008B4001360237F012B35D02268136823F00803CB
:1008C4001360637F012B33D02268136823F0040381
:1008D4001360A368E26813432269134362691343F4
:1008E4006268013A21681343CB61002060620123EE
:1008F40084F82030A0E71A6842F080021A60C0E74A
:100904002268136843F040031360C2E72268136847
:1009140043F020031360C4E72268136823F0100334
:100924001360C6E72268136843F008031360C8E73E
:100934002268136843F004031360CAE70120704778
:1009440010B504460E4B1A784FF47A73B3FBF2F3E6
:100954000C4A1068B0FBF3F000F0D4FB68B90F2C1C
:1009640001D901200AE0002221464FF0FF3000F0B7
:10097400ABFB054B1C60002000E0012010BD00BF54
:1009840000000020080000200400002008B50B4BE4
:100994001A6842F400721A601A6842F480621A609B
:1009A4001A6842F480721A60032000F07BFB0F2067
:1009B400FFF7C6FFFFF702FF002008BD003C02401E
:1009C400034A1168034B1B780B441360704700BF44
:1009D400BC01002000000020014B1868704700BFD4
:1009E400BC010020002800F0C08170B582B004462C
:1009F400036813F0010F2ED0A24B9B6803F00C0385
:100A0400042B1FD09F4B9B6803F00C03082B14D0BE
:100A140022799C4B9A706368002B40D0FFF7DCFF6F
:100A24000546984B1B6813F4003F14D1FFF7D4FF1D
:100A3400401B6428F5D903209EE1924B5B6813F4B4
:100A4400800FE5D08F4B1B6813F4003F03D063681D
:100A5400002B00F08C81236813F0020F49D0894BDE
:100A64009B6813F00C0F2ED0864B9B6803F00C038D
:100A7400082B23D0E368002B62D0834B01221A6039
:100A8400FFF7AAFF05467F4B1B6813F0020F49D1FD
:100A9400FFF7A2FF401B0228F5D903206CE1FFF702
:100AA4009BFF0546774B1B6813F4003FD3D0FFF739
:100AB40093FF401B6428F5D903205DE1714B5B680B
:100AC40013F4800FD6D16F4B1B6813F0020F03D0C1
:100AD400E368012B40F04D816A48036823F0F80372
:100AE4002169F82292FAA2F2B2FA82F291400B43FF
:100AF4000360236813F0080F47D0636993B3624B14
:100B04000122C3F8802EFFF767FF05465D4B5B6F3C
:100B140013F0020F39D1FFF75FFF401B0228F5D90C
:100B2400032029E15748036823F0F8032169F822D8
:100B340092FAA2F2B2FA82F291400B430360D8E730
:100B4400514B00221A60FFF747FF05464D4B1B68C7
:100B540013F0020FCDD0FFF73FFF401B0228F5D959
:100B6400032009E1484B0022C3F8802EFFF734FF2D
:100B74000546444B5B6F13F0020F06D0FFF72CFFC2
:100B8400401B0228F5D90320F6E0236813F0040F74
:100B940059D03C4B1B6C13F0805F2CD10023019384
:100BA400384B1A6C42F080521A641B6C03F0805369
:100BB4000193019B0125354B1A6842F480721A6037
:100BC4001B6813F4807F18D0227A2E4B83F8702090
:100BD400A36833B3FFF700FF06462A4B1B6F13F0DD
:100BE400020F2FD1FFF7F8FE801B41F288339842A1
:100BF400F3D90320C0E00025DDE7244A136843F459
:100C040080731360FFF7E8FE0646204B1B6813F45D
:100C1400807FD9D1FFF7E0FE801B0228F5D903209D
:100C2400AAE0FFF7D9FE0646164B1B6F13F0020F1E
:100C340008D0FFF7D1FE801B41F288339842F3D9E4
:100C4400032099E025BBA369002B00F094800D4A92
:100C5400926802F00C02082A62D0022B1ED00A4BC2
:100C640000221A66FFF7B8FE0446064B1B6813F011
:100C7400007F53D0FFF7B0FE001B6428F5D9032092
:100C84007AE000BF00380240000047420070004094
:100C9400404A136C23F080531364D4E73E4B002284
:100CA4001A66FFF799FE05463A4B1B6813F0007F5E
:100CB40006D0FFF791FE401B6428F5D903205BE0C2
:100CC4003448426822F0746222F45F3222F47F7264
:100CD40022F00302E369216A0B43616A43EA811348
:100CE400E16A43EA0163A16A4908013943EA01431D
:100CF40013434360284B01221A66FFF76DFE044636
:100D0400244B1B6813F0007F06D1FFF765FE001B20
:100D14006428F5D903202FE000202DE000202BE0EB
:100D2400012B2BD01B4B5B6803F48001E2699142D9
:100D340026D103F03F02216A8A4223D1616A47F631
:100D4400C0721A40B2EB811F1ED103F44031A26A73
:100D54005208013AB1EB024F18D103F07063E26A12
:100D6400B3EB026F14D1002006E00120704701208C
:100D740002E0012000E0002002B070BD0120FBE78A
:100D84000120F9E70120F7E70120F5E70120F3E767
:100D94000120F1E7003802400000474208B5314B1A
:100DA4009B6803F00C03082B01D02F4808BD2D4B82
:100DB4005A6802F03F025B6813F4800F2CD0294B71
:100DC4005868C0F388104FEA401CBCEB000C6EEB73
:100DD4000E0E4FEA8E1343EA9C634FEA8C11B1EB7B
:100DE4000C0163EB0E03DB0043EA5173C90011EB02
:100DF400000C43F10003990200234FEA8C2041EADE
:100E04009C51FFF7BDF9174B5B68C3F301430133F2
:100E14005B00B0FBF3F0C9E7124B5868C0F38810CD
:100E24004FEA401CBCEB000C6EEB0E0E4FEA8E1327
:100E340043EA9C634FEA8C11B1EB0C0163EB0E03A4
:100E4400DB0043EA5173C90011EB000C43F10003CA
:100E5400990200234FEA8C2041EA9C51FFF790F954
:100E6400D1E700BF003802400024F400002800F05D
:100E7400A08070B50D460446524B1B6803F00F0367
:100E84008B4208D2CBB24F4A1370136803F00F039E
:100E94008B4240F09080236813F0020F17D013F0B8
:100EA400040F04D0484A936843F4E05393602368E2
:100EB40013F0080F04D0444A936843F460439360EA
:100EC400414A936823F0F003A1680B4393602368BD
:100ED40013F0010F31D06368012B20D0022B25D0F1
:100EE400394A126812F0020F67D037498A6822F033
:100EF400030213438B60FFF76FFD0646324B9B687A
:100F040003F00C036268B3EB820F16D0FFF764FDA5
:100F1400801B41F288339842F0D9032048E02A4AE2
:100F2400126812F4003FE0D1012041E0264A126821
:100F340012F0007FD9D101203AE0224B1B6803F064
:100F44000F03AB4207D9EAB21E4B1A701B6803F0B9
:100F54000F03AB4233D1236813F0040F06D01A4AAF
:100F6400936823F4E053E1680B439360236813F020
:100F7400080F07D0144A936823F46043216943EAB5
:100F8400C1039360FFF70AFF0F4B9B6803F0F00364
:100F9400F02292FAA2F2B2FA82F2D3400B4AD35C64
:100FA400D8400B4B18600B4B1868FFF7C9FC0020A6
:100FB40070BD012070470120FAE70120F8E7012005
:100FC400F6E700BF003C024000380240442000081D
:100FD4000800002004000020014B1868704700BF7F
:100FE4000800002008B5FFF7F7FF074B9B6803F4E0
:100FF400E0534FF4E05292FAA2F2B2FA82F2D340F2
:10100400024AD35CD84008BD003802403C200008A6
:1010140008B5FFF7E1FF074B9B6803F460434FF407
:10102400604292FAA2F2B2FA82F2D340024AD35C4C
:10103400D84008BD003802403C200008002808DBE6
:101044000901C9B200F1604000F5614080F8001365
:10105400704700F00F000901C9B2014B19547047E1
:1010640014ED00E000B500F00700C0F1070CBCF17E
:10107400040F28BF4FF0040C031D062B0FD9C31E09
:101084004FF0FF3E0EFA0CF021EA000199400EFAEF
:1010940003FE22EA0E0241EA02005DF804FB00238B
:1010A400EEE70000074AD36823F4E0631B041B0C3B
:1010B400000200F4E060034343F0BF6343F40033F1
:1010C400D360704700ED00E010B50446054BD868C6
:1010D400C0F30220FFF7C6FF01462046FFF7AEFF2C
:1010E40010BD00BF00ED00E0002807DB00F01F0288
:1010F400400901239340024A42F82030704700BF60
:1011040000E100E00138B0F1807F0BD24FF0E02322
:101114005861054AF02182F82310002098610722C3
:101124001A6170470120704700ED00E070B582B08D
:10113400002365E085685E000324B44025EA0405C5
:10114400CC68B4402C438460456825EA0C054C689F
:10115400C4F300149C402C43446063E0DD0808356C
:1011640050F8254003F0070C4FEA8C0C4FF00F0E9B
:101174000EFA0CFE24EA0E0E0C6904FA0CF444EA8E
:101184000E0440F8254064E0082400E0002404FA3A
:101194000EF42C430CF1020C624D45F82C40624CC9
:1011A400A568D44325EA0206D1F804C01CF4801FC4
:1011B40001D042EA05065C4DAE60ED6804EA05061E
:1011C400D1F804C01CF4001F01D042EA0506564DB4
:1011D400EE606D6804EA0506D1F804C01CF4003F13
:1011E40001D042EA0506504D6E602D682C404E68D1
:1011F40016F4803F01D042EA05044B4A14600133DF
:101204000A6832FA03F400F08A804FF0010C0CFAF9
:1012140003FC1CEA0202F2D04C6804F00304013C13
:10122400012C87D94C6804F00304032C0CD0C46847
:101234005D004FF0030C0CFA05FC24EA0C0C8C68DE
:10124400AC4044EA0C04C4604C6804F00304022C6F
:1012540084D004684FEA430E4FF0030C0CFA0EFCE2
:1012640024EA0C0C4C6804F0030404FA0EF444EA77
:101274000C0404604C6814F4403FC0D00024019472
:101284002A4C656C45F480456564646C04F48044C0
:101294000194019C4FEA930C0CF10205214C54F883
:1012A400255003F0030E4FEA8E0E0F2404FA0EF4B9
:1012B40025EA04051E4CA0423FF468AF04F580649F
:1012C400A0421ED004F58064A0421CD004F58064C2
:1012D400A0421AD004F58064A04218D004F58064BA
:1012E400A04216D004F58064A04214D004F58064B2
:1012F400A04212D004F58064A0423FF445AF092413
:1013040045E7012443E7022441E703243FE704249B
:101314003DE705243BE7062439E7072437E702B015
:1013240070BD00BF00380140003C0140003802405D
:10133400000002400AB1816170470904816170476D
:1013440070B50446866DFFF747FB94F83530DBB281
:10135400022B06D080236365002384F834300120F7
:1013640070BD05462268136823F0160313602268D3
:10137400536923F080035361236CE3B1226813683B
:1013840023F0080313602268136823F00103136039
:1013940023681B6813F0010F11D0FFF71DFB431BDB
:1013A400052BF5D920236365032084F83500002339
:1013B40084F83430D4E7A36C002BDFD1E3E7E26D8B
:1013C4003F239340B360012384F83530002084F830
:1013D4003400C5E790F83530DBB2022B03D080230C
:1013E400436501207047052380F83530026813688F
:1013F40023F0010313600020704700285AD010B571
:101404000446436A33B94368B3F5827F05D00023A9
:10141400C36102E00023036143610023A36294F8E3
:101424005130002B40D0022384F8513022681368D5
:1014340023F040031360636803F48273A26802F428
:1014440004421343E26802F400621343226902F087
:1014540002021343626902F001021343A26902F417
:1014640000721343E26902F038021343226A02F065
:1014740080021343A26A02F40052216813430B60F2
:10148400638B03F00403626A02F0100221681343C1
:101494004B602268D36923F40063D3610020606544
:1014A400012384F8513010BD84F850302046FFF7F2
:1014B4005DF8B8E701207047026802F10C0353E8B5
:1014C400003F23F490730C3242E800310029F3D139
:1014D400026802F1140353E8003F23F001031432BD
:1014E40042E800310029F3D1036B012B05D02023FE
:1014F40080F84230002303637047026802F10C0352
:1015040053E8003F23F010030C3242E80031002975
:10151400F3D1ECE790F84130DBB2212B01D002206B
:1015240070478368B3F5805F17D0036A5A1C026260
:101534001A7803685A60C38C9BB2013B9BB2C38484
:101544004BB90268D36823F08003D3600268D36880
:1015540043F04003D360002070470369002BE4D1BB
:10156400036A1B880268C3F308035360036A0233E7
:101574000362E0E710B504460268136923F440539C
:10158400C1680B431361836802691A4343691A43B0
:10159400C3691A430168CB6823F4164323F00C0390
:1015A4001343CB600268536923F4407381690B438E
:1015B40053610368264A934206D002F5806293423F
:1015C40002D0FFF70FFD01E0FFF722FDE369B3F559
:1015D400004F1DD000EB800202EB820263689B0087
:1015E400B2FBF3F21B48A0FB02314909642303FB5D
:1015F40011231B013233A0FB03035B0903F0F00248
:1016040002EB011203F00F03216813448B6010BD39
:1016140000EB800000EB800063685B00B0FBF3F03C
:101624000C4AA2FB00314909642303FB1103DB00CC
:101634003233A2FB03235B095A0002F4F87202EB73
:10164400011203F00703216813448B60DFE700BF36
:10165400001001401F85EB5160B310B5044690F8AB
:10166400413013B3242384F841302268D36823F42F
:101674000053D3602046FFF77DFF2268136923F4EB
:10168400904313612268536923F02A03536122684B
:10169400D36843F40053D36000206064202384F8AB
:1016A400413084F84230606310BD80F84030FFF769
:1016B40009F8D7E701207047704708B50168CA6880
:1016C40022F04002CA60202280F84120FFF7F4FF94
:1016D400002008BD7047704708B5806B0023C385A0
:1016E400C384FFF7F8FF08BD704790F84230DBB2BF
:1016F400222B69D18368B3F5805F4FD0826AB3F53A
:10170400805F04D0002B56D10369002B53D10368AA
:101714005B681370836A01338362C38D9BB2013BA0
:101724009BB2C385002B51D100B583B00268D36846
:1017340023F02003D3600268D36823F48073D3605A
:101744000268536923F001035361202380F8423077
:1017540000234363036B012B33D10023036302682B
:1017640002F10C0353E8003F23F010030C3242E86B
:1017740000310029F3D103681A6812F0100F06D063
:10178400002201921A6801925B680193019B818D8A
:10179400FFF7AAFF002003B05DF804FB0269002AEA
:1017A400ACD1826A03685B68C3F308031380836A5D
:1017B40002338362B1E703685B6803F07F0313704D
:1017C400A8E7FFF787FFE5E702207047002070478E
:1017D40010B582B0044602681368D068516913F0EA
:1017E4000F0F09D113F0200F0CD010F0200F09D0E7
:1017F4002046FFF77AFF16E011F0010115D110F42D
:10180400907F12D1216B012979D013F0800F03D07E
:1018140010F0800F40F0148113F0400F03D010F04B
:10182400400F40F0118102B010BD13F0010F06D03B
:1018340010F4807F03D0626C42F00102626413F002
:10184400040F04D019B1626C42F00202626413F016
:10185400020F04D019B1626C42F00402626413F006
:10186400080F07D010F0200F00D119B1626C42F0BC
:1018740008026264626C002AD5D013F0200F02D0F3
:1018840010F0200F29D123685B6903F04003626CD8
:1018940012F0080F00D163B32046FFF70DFE236852
:1018A4005B6913F0400F20D0226802F1140353E85F
:1018B400003F23F04003143242E800310029F3D101
:1018C400E36B73B1624A1A65E06BFFF783FD00288E
:1018D400A9D0E06B036D9847A5E72046FFF705FF05
:1018E400D1E72046FFF7F7FE9DE72046FFF7F3FE1A
:1018F40099E72046FFF7EFFE0023636493E713F0B4
:10190400100F82D010F0100F3FF47FAF002301932B
:101914001368019353680193019B536913F0400FBB
:1019240052D0E26B13685B689BB2002B3FF47BAF31
:10193400A18D99427FF677AFE385D369B3F5807FB4
:1019440037D0226802F10C0353E8003F23F480737C
:101954000C3242E800310029F3D1226802F1140369
:1019640053E8003F23F00103143242E80031002918
:10197400F3D1226802F1140353E8003F23F040033B
:10198400143242E800310029F3D1202384F8423094
:1019940000232363226802F10C0353E8003F23F081
:1019A40010030C3242E800310029F3D1E06BFFF759
:1019B400C7FC02236363A18DE38D9BB2C91A89B26C
:1019C4002046FFF791FE2EE7A18DE38D9BB2C91A45
:1019D40089B2E38D9BB2002B3FF425AF00293FF47D
:1019E40022AF226802F10C0353E8003F23F4907302
:1019F4000C3242E800300028F3D1226802F11403CB
:101A040053E8003F23F00103143242E80030002879
:101A1400F3D1202384F8423000232363226802F1A7
:101A24000C0353E8003F23F010030C3242E800306B
:101A34000028F3D1022363632046FFF755FEF2E644
:101A44002046FFF767FDEEE62046FFF736FEEAE69E
:101A5400DD1600087047000008B50B480B4B036007
:101A64000B4B436000238360C3604FF480420261E8
:101A740043618361C361036200F044F800B908BDA7
:101A8400FEF7DEFBFBE700BFC0010020005400406E
:101A9400A086010030B589B0002303930493059315
:101AA400069307930268144B9A4201D009B030BDE3
:101AB40000250195114C236B43F002032363236B30
:101AC40003F002030193019BC023039312230493A5
:101AD400032306930423079303A90948FFF726FB6E
:101AE4000295236C43F400132364236C03F4001362
:101AF4000293029BDAE700BF005400400038024022
:101B040000040240002800F0CC8070B5044690F830
:101B14003D30002B77D0242384F83D3022681368AD
:101B240023F0010313602268136843F40043136035
:101B34002268136823F400431360FFF753FA6268C2
:101B44005A4B9A4264D85A4B98428CBF00230123C3
:101B5400002B40F0A8805749A1FB00318B0C25686D
:101B64006A6822F03F0242EA91426A6021680A6A86
:101B740022F03F0266684D4DAE424FD80133134305
:101B84000B622168CA6922F44F4222F0FF026568A1
:101B9400464B9D424CD8431E6D00B3FBF5F3013315
:101BA40040F6FC70034278D0C3F30B031A43CA61B6
:101BB40021680B6823F0C003E269206A02431343DF
:101BC4000B6021688B6823F4034323F0FF0322692D
:101BD400E068024313438B602168CB6823F0FF0362
:101BE4006269A06902431343CB602268136843F01F
:101BF4000103136000202064202384F83D30206317
:101C040084F83E0070BD80F83C30FFF743FF82E764
:101C1400294B98428CBF0023012399E74FF4967512
:101C240005FB03F3254DA5FB03539B090133A6E7ED
:101C3400A668BEB9431E05EB450CB3FBFCF30133A8
:101C4400C3F30B03B3FA83F35B0943BBC6B9431E67
:101C540005EB4505B3FBF5F30133C3F30B0343F481
:101C64000043A3E7431E05EB850C0CEB8C0CB3FB84
:101C7400FCF30133C3F30B03B3FA83F35B09E4E727
:101C8400431E05EB850505EB8505B3FBF5F3013331
:101C9400C3F30B0343F4404388E7042386E701239B
:101CA40084E7012070470120ACE700BFA086010053
:101CB4007F841E0083DE1B43FF083D00D34D62106A
:101CC400DFF834D0FFF7C6FE0C480D490D4A002357
:101CD40002E0D458C4500433C4188C42F9D30A4ADD
:101CE4000A4C002301E013600432A242FBD300F04B
:101CF40019F8FEF7DEFA704700C00020000000204B
:101D04000C000020642000080C00002014020020B5
:101D1400FEE703460244934200D1704703F8011BD7
:101D2400F9E7000070B500260C4D0D4C641BA4109F
:101D3400A64209D100F074F900260A4D0A4C641B2E
:101D4400A410A64205D170BD55F8043B984701364E
:101D5400EEE755F8043B98470136F2E75C200008AB
:101D64005C2000085C200008602000082DE9F04792
:101D7400089D0E4604468E46002B4CD18A4294465A
:101D8400B2FA82F362D953B102FA03FCC3F120021E
:101D940001FA03FE20FA02F242EA0E0E9C404FEAD8
:101DA4001C47BEFBF7F11FFA8CF607FB11EE01FB93
:101DB40006F0220C42EA0E4290420AD91CEB0202BF
:101DC40001F1FF3E80F00E81904240F20B81023916
:101DD4006244121AB2FBF7F007FB102200FB06F66E
:101DE400A4B244EA0244A6420AD91CEB040400F15A
:101DF400FF3280F0F980A64240F2F6806444023853
:101E040040EA01400021A41B1DB1DC400023C5E9C8
:101E14000043BDE8F0878B4205D90DB1C5E9000147
:101E240000210846F5E7B3FA83F1002942D1B34211
:101E340002D3824200F2EE80841A66EB0302012090
:101E44009646002DE5D0C5E9004EE2E7002B40F0B0
:101E54008C80881A0121170C96B2B0FBF7FE07FBA1
:101E64001E00220C42EA004206FB0EF0904208D902
:101E74001CEB02020EF1FF3802D2904200F2CC8039
:101E8400C646121AB2FBF7F007FB102200FB06F657
:101E9400A4B244EA0244A64208D91CEB040400F1AB
:101EA400FF3202D2A64200F2B2801046A41B40EADE
:101EB4000E40A9E7C1F120078B4022FA07FC4CEA47
:101EC400030C26FA07FA4FEA1C48BAFBF8FE06FA96
:101ED40001F308FB1EAA1FFA8CF620FA07F400FA95
:101EE40001F90EFB06F023431C0C44EA0A44A04209
:101EF40002FA01F20BD91CEB04040EF1FF3A80F054
:101F04008480A04240F28180AEF1020E6444241A1F
:101F140098B2B4FBF8F308FB134403FB06F640EA5B
:101F24000444A64208D91CEB040403F1FF3068D230
:101F3400A64266D9023B644443EA0E40A41BA0FBBC
:101F440002E6B4427346B04652D34FD05DB1B9EB0A
:101F5400030264EB080404FA07F722FA01F31F43AF
:101F6400CC40C5E90074002153E702FA03FCC3F135
:101F74002000C1404FEA1C47B1FBF7FE07FB1E11CE
:101F840024FA00F09E403043020C1FFA8CF642EA19
:101F940001420EFB06F1914204FA03F409D91CEB49
:101FA40002020EF1FF382ED291422CD9AEF1020E6C
:101FB4006244521AB2FBF7F107FB112280B240EAE5
:101FC400024001FB06F2824208D91CEB000001F139
:101FD400FF3814D2824212D902396044801A41EA8D
:101FE4000E413AE77146F4E6104609E7F145ADD2F1
:101FF400BEEB020366EB0C060138B046A6E7414689
:10200400ECE7034698E7C646D3E7D6467FE7644441
:1020140002384BE7084614E7AEF1020E624430E79B
:10202400F8B500BFF8BC08BC9E467047F8B500BFC1
:08203400F8BC08BC9E46704791
:10203C00000000000102030400000000000000008A
:08204C00010203040607080964
:082054001CFDFF7F01000000EC
:04205C002102000855
:04206000F90100087A
:0C20640001000000100000000024F40047
:0400000508001CC50E
:00000001FF
