:020000040800F2
:1000000000280020F5190008DD060008DF060008BA
:10001000E1060008E3060008E5060008000000000D
:10002000000000000000000000000000E7060008DB
:10003000E906000800000000EB060008ED060008D5
:100040003D1A00083D1A00083D1A00083D1A000834
:100050003D1A00083D1A00083D1A00083D1A000824
:100060003D1A00083D1A00083D1A00083D1A000814
:100070003D1A00083D1A00083D1A00083D1A000804
:100080003D1A00083D1A00083D1A00083D1A0008F4
:100090003D1A00083D1A00083D1A00083D1A0008E4
:1000A0003D1A00083D1A00083D1A00083D1A0008D4
:1000B0003D1A00083D1A0008000000003D1A000823
:1000C0003D1A000800000000000000003D1A000872
:1000D000000000003D1A00083D1A00080000000062
:1000E0003D1A00083D1A00083D1A000800000000F3
:1000F0000000000000000000000000000000000000
:0C01000000000000000000005FF808F1A3
:10010C000348044B834202D0034B03B1184770479A
:10011C000C0000200C000020000000000548064BDD
:10012C001B1AD90F01EBA301491002D0034B03B1E9
:10013C00184770470C0000200C0000200000000045
:10014C0010B5064C237843B9FFF7DAFF044B13B113
:10015C000448AFF300800123237010BD0C00002075
:10016C0000000000981A000808B5054B1BB10549A2
:10017C000548AFF30080BDE80840FFF7CFBF00BFD4
:10018C000000000010000020981A000872B6FEE76C
:10019C0000B591B02822002106A801F04AFC0023EA
:1001AC0001930293039304930593012206924FF457
:1001BC00803307930A9202220D920E934FF4E013B0
:1001CC000F9306A800F0F0FB80B90F2301930221D6
:1001DC000291002303934FF480620492059301A8CB
:1001EC0000F014FE20B911B05DF804FBFFF7CEFF50
:1001FC00FFF7CCFF08B500F09DFBFFF7C9FF00F03F
:10020C0009F800F04DF800F00DF900F0A5F900F038
:10021C0001FAFEE730B589B00024049405940694E5
:10022C0007941D4B9A6942F010029A619A6902F088
:10023C0010020092009A9A6942F020029A619A691F
:10024C0002F020020192019A9A6942F004029A612A
:10025C009A6902F004020292029A9A6942F0080228
:10026C009A619B6903F008030393039B0B4D224691
:10027C004FF40051284600F0AFFF4FF400530493A5
:10028C000123059306940223079304A9284600F042
:10029C0099FE09B030BD00BF0010024000100140B3
:1002AC0008B50B480B4B03600B4B4360002383607A
:1002BC00C3604FF48042026143618361C361036296
:1002CC0000F034FA00B908BDFFF760FFFBE700BF90
:1002DC002800002000540040A086010010B586B014
:1002EC00002302930393049305930268154B9A42DF
:1002FC0001D006B010BD144CA36943F00803A361F0
:10030C00A36903F008030093009B4FF4407302931E
:10031C00122303930323059302A90C4800F052FE09
:10032C000B4A536843F0E06343F002035360E36904
:10033C0043F40013E361E36903F400130193019B9D
:10034C00D7E700BF0054004000100240000C0140F1
:10035C000000014082B003680F4A934204D0B3F10D
:10036C00804F0CD002B070470C4B9A6942F400627B
:10037C009A619B6903F400630093009BF2E703F519
:10038C000433DA6942F00102DA61DB6903F001033C
:10039C000193019BE6E700BF002C014000100240D6
:1003AC0000B587B00023029303930493059303686D
:1003BC00194A934205D0B3F1804F17D007B05DF8BE
:1003CC0004FB164B9A6942F004029A619B6903F094
:1003DC0004030093009B4FF4706302930223039376
:1003EC00059302A90E4800F0EDFDE7E703F5043391
:1003FC009A6942F004029A619B6903F00403019329
:10040C00019B0323029302230393059302A904483F
:10041C0000F0D8FDD2E700BF002C014000100240D4
:10042C000008014010B596B0002412941394149453
:10043C0015941094119409940A940B940C940D94A3
:10044C000E940F942022214601A801F0F2FA4048A4
:10045C00404B0360446084604FF6FF73C3600461DB
:10046C004461846101F00EF8002853D14FF480539D
:10047C00129312A9364801F060F900284DD1344886
:10048C0001F058F800284BD1314801F027F800282A
:10049C0049D100231093119310A92D4801F0CCF9E8
:1004AC00002843D16023099300220A920B920C92EC
:1004BC000D920E920F9209A9254801F0C4F800285C
:1004CC0037D1042209A9224801F0BDF8002833D104
:1004DC00082209A91E4801F0B6F880BB0023099335
:1004EC000C2209A91A4801F07FF858BB002301938C
:1004FC0002930393049305934FF4005206920893CE
:10050C0001A9134801F0CAF9F8B91148FFF748FFDF
:10051C0016B010BDFFF73AFEA8E7FFF737FEAEE7BF
:10052C00FFF734FEB0E7FFF731FEB2E7FFF72EFE20
:10053C00B8E7FFF72BFEC4E7FFF728FEC8E7FFF785
:10054C0025FECBE7FFF722FED0E7FFF71FFEDCE727
:10055C00C4000020002C014000B58FB000230A938A
:10056C000B930C930D9308930993019302930393AC
:10057C00049305930693079325484FF0804202603D
:10058C00436083604FF6FF72C2600361836100F0C9
:10059C0079FF58BB4FF480530A930AA91C4801F009
:1005AC00CCF830BB1A4800F0C5FF28BB00230893D9
:1005BC00099308A9164801F03FF900BB6023019389
:1005CC00002202920392059201A9114801F03BF816
:1005DC00C0B904220DEB02010D4801F034F8A0B9AA
:1005EC000B48FFF7DDFE0FB05DF804FBFFF7CEFD07
:1005FC00D0E7FFF7CBFDD5E7FFF7C8FDD6E7FFF750
:10060C00C5FDDBE7FFF7C2FDE3E7FFF7BFFDE7E75B
:10061C007C00002008B50A480A4B03604FF4E13314
:10062C00436000238360C36003610C2242618361D9
:10063C00C36101F0A7F900B908BDFFF7A7FDFBE7FF
:10064C000C0100200038014010B586B00023029345
:10065C0003930493059302681A4B9A4201D006B097
:10066C0010BD03F558439A6942F480429A619A6925
:10067C0002F480420092009A9A6942F008029A6150
:10068C009B6903F008030193019B4023029302230F
:10069C000393032305930C4C02A9204600F092FC13
:1006AC008023029300230393049302A9204600F0B5
:1006BC0089FC064A536843F0E06343F0040353603B
:1006CC00CDE700BF00380140000C014000000140A4
:1006DC00FEE7FEE7FEE7FEE7FEE770477047704770
:1006EC0008B500F039F908BD82B00E4B9A6942F09A
:1006FC0001029A619A6902F001020092009ADA6989
:10070C0042F08052DA61DB6903F080530193019B64
:10071C00054A536823F0E06343F08063536002B0F2
:10072C00704700BF0010024000000140002800F09C
:10073C00CC8070B5044690F83D30002B77D0242344
:10074C0084F83D302268136823F00103136022689B
:10075C00136843F4004313602268136823F40043C6
:10076C00136000F00FFC62685A4B9A4264D85A4BE3
:10077C0098428CBF00230123002B40F0A8805749DE
:10078C00A1FB00318B0C25686A6822F03F0242EA1B
:10079C0091426A6021680A6A22F03F0266684D4DF8
:1007AC00AE424FD8013313430B622168CA6922F45D
:1007BC004F4222F0FF026568464B9D424CD8431EC7
:1007CC006D00B3FBF5F3013340F6FC70034278D0B7
:1007DC00C3F30B031A43CA6121680B6823F0C003EF
:1007EC00E269206A024313430B6021688B6823F48F
:1007FC00034323F0FF032269E068024313438B6039
:10080C002168CB6823F0FF036269A069024313439C
:10081C00CB602268136843F001031360002020644E
:10082C00202384F83D30206384F83E0070BD80F8AE
:10083C003C30FFF753FD82E7294B98428CBF0023D5
:10084C00012399E74FF4967505FB03F3254DA5FBA2
:10085C0003539B090133A6E7A668BEB9431E05EBFB
:10086C00450CB3FBFCF30133C3F30B03B3FA83F373
:10087C005B0943BBC6B9431E05EB4505B3FBF5F35A
:10088C000133C3F30B0343F40043A3E7431E05EB0F
:10089C00850C0CEB8C0CB3FBFCF30133C3F30B0397
:1008AC00B3FA83F35B09E4E7431E05EB850505EB1F
:1008BC008505B3FBF5F30133C3F30B0343F440435A
:1008CC0088E7042386E7012384E701207047012091
:1008DC00ACE700BFA08601007F841E0083DE1B43B3
:1008EC00FF083D00D34D621010B504460E4B1A782C
:1008FC004FF47A73B3FBF2F30C4A1068B0FBF3F0CD
:10090C0000F0C6FC68B90F2C01D901200AE00022C6
:10091C0021464FF0FF3000F0ABFC054B1C60002073
:10092C0000E0012010BD00BF0000002008000020E6
:10093C000400002008B5074A136843F01003136045
:10094C00032000F083FC0F20FFF7CEFFFFF7CCFE57
:10095C00002008BD00200240034A1168034B1B789D
:10096C000B441360704700BF5401002000000020AE
:10097C00014B1868704700BF5401002082B0084B2F
:10098C001B68084AA2FB03235B0A00FB03F30193D9
:10099C0000BF019B5A1E0192002BF9D102B0704787
:1009AC0008000020D34D6210002800F0F18170B5D2
:1009BC0082B00446036813F0010F2CD0994B5B688E
:1009CC0003F00C03042B1DD0964B5B6803F00C0357
:1009DC00082B12D06368B3F5803F41D0002B55D162
:1009EC0003F1804303F504331A6822F480321A6051
:1009FC001A6822F480221A6037E08A4B5B6813F481
:100A0C00803FE7D0874B1B6813F4003F03D063682B
:100A1C00002B00F0BF81236813F0020F75D0814BBF
:100A2C005B6813F00C0F5FD07E4B5B6803F00C031C
:100A3C00082B54D02369002B00F08A807A4B0122BA
:100A4C001A60FFF795FF0546764B1B6813F0020FF3
:100A5C0075D1FFF78DFF401B0228F5D903209EE1CD
:100A6C00704A136843F480331360636843B3FFF731
:100A7C007FFF05466B4B1B6813F4003FCBD1FFF790
:100A8C0077FF401B6428F5D9032088E1B3F5A02F2C
:100A9C0009D0644B1A6822F480321A601A6822F466
:100AAC0080221A60E1E703F18043A3F53C331A6816
:100ABC0042F480221A601A6842F480321A60D4E739
:100ACC00FFF756FF0546574B1B6813F4003FA2D0A7
:100ADC00FFF74EFF401B6428F5D903205FE1514B13
:100AEC005B6813F4803FA5D14E4B1B6813F0020FCB
:100AFC0003D02369012B40F04F814A4A136823F03D
:100B0C00F803616943EAC1031360236813F0080F0B
:100B1C0033D0A369002B5CD0434B0122C3F8802453
:100B2C00FFF726FF05463F4B5B6A13F0020F21D1FE
:100B3C00FFF71EFF401B0228F5D903202FE1394A8D
:100B4C00136823F0F803616943EAC1031360DCE71F
:100B5C00354B00221A60FFF70BFF0546314B1B6823
:100B6C0013F0020FD1D0FFF703FF401B0228F5D979
:100B7C00032014E10120FFF701FF236813F0040F99
:100B8C0000F09680274BDB6913F0805F34D1254B46
:100B9C00DA6942F08052DA61DB6903F08053019329
:100BAC00019B0125214B1B6813F4807F26D0E36841
:100BBC00012B3DD0002B53D103F1804303F50433BB
:100BCC001A6A22F001021A621A6A22F004021A62EC
:100BDC0033E0154B0022C3F88024FFF7C9FE05460D
:100BEC00104B5B6A13F0020FC7D0FFF7C1FE401B1E
:100BFC000228F5D90320D2E00025D3E70B4A13686D
:100C0C0043F480731360FFF7B3FE0646074B1B6873
:100C1C0013F4807FCBD1FFF7ABFE801B6428F5D992
:100C2C000320BCE000100240000042420070004073
:100C3C005F4A136A43F001031362E36833B3FFF7AF
:100C4C0097FE06465A4B1B6A13F0020F2FD1FFF783
:100C5C008FFE801B41F288339842F3D903209EE02B
:100C6C00052B09D0524B1A6A22F001021A621A6A39
:100C7C0022F004021A62E0E74D4B1A6A42F00402B9
:100C8C001A621A6A42F001021A62D6E7FFF770FE86
:100C9C000646474B1B6A13F0020F08D0FFF768FE9D
:100CAC00801B41F288339842F3D9032077E0E5B9F1
:100CBC00E369002B72D03E4A526802F00C02082AFB
:100CCC0056D0022B17D03B4B00221A66FFF750FE72
:100CDC000446374B1B6813F0007F47D0FFF748FEE4
:100CEC00001B0228F5D9032059E0314AD36923F0BF
:100CFC008053D361DCE72F4B00221A66FFF738FED6
:100D0C0005462B4B1B6813F0007F06D0FFF730FE17
:100D1C00401B0228F5D9032041E0236AB3F5803F3C
:100D2C001AD023494B6823F47413226A606A024375
:100D3C0013434B601F4B01221A66FFF719FE044642
:100D4C001B4B1B6813F0007F0ED1FFF711FE001B2D
:100D5C000228F5D9032022E0154A536823F4003306
:100D6C00A1680B435360DCE7002018E0002016E07C
:100D7C00012B16D00E4B5B6803F48031226A914232
:100D8C0011D103F47013626A93420ED1002006E075
:100D9C0001207047012002E0012000E0002002B099
:100DAC0070BD0120FBE70120F9E70120F7E700BF48
:100DBC0000100240000042420F4B5B6803F00C0233
:100DCC00082A01D00D487047C3F383420C49885C54
:100DDC0013F4803F0BD0084B5B68C3F34043094AC4
:100DEC00D35C064A02FB00F0B0FBF3F07047064BF5
:100DFC0003FB00F0704700BF0010024000127A00A5
:100E0C00B41A0008B01A000800093D00002800F0D0
:100E1C00A08070B50D460446524B1B6803F00703C7
:100E2C008B420BD24F4A136823F007030B4313601A
:100E3C00136803F007038B4240F08D80236813F096
:100E4C00020F17D013F0040F04D0474A536843F431
:100E5C00E0635360236813F0080F04D0424A5368D0
:100E6C0043F460535360404A536823F0F003A16885
:100E7C000B435360236813F0010F31D06368012BCF
:100E8C0020D0022B25D0384A126812F0020F64D001
:100E9C0035494A6822F0030213434B60FFF768FDA3
:100EAC000646314B5B6803F00C036268B3EB820FB0
:100EBC0016D0FFF75DFD801B41F288339842F0D9C4
:100ECC00032045E0284A126812F4003FE0D10120CB
:100EDC003EE0254A126812F0007FD9D1012037E09C
:100EEC00204B1B6803F00703AB420AD91D4A136859
:100EFC0023F007032B431360136803F00703AB4283
:100F0C002DD1236813F0040F06D0174A536823F42D
:100F1C00E063E1680B435360236813F0080F07D0BC
:100F2C00114A536823F46053216943EAC1035360A7
:100F3C00FFF742FF0C4B5B68C3F303130B4AD35C04
:100F4C00D8400B4B18600B4B1868FFF7CDFC0020FA
:100F5C0070BD012070470120FAE70120F8E701205D
:100F6C00F6E700BF0020024000100240CC1A000837
:100F7C000800002004000020014B1868704700BFD7
:100F8C000800002008B5FFF7F7FF044B5B68C3F3BC
:100F9C000223034AD35CD84008BD00BF00100240B6
:100FAC00C41A000808B5FFF7E7FF044B5B68C3F3EE
:100FBC00C223034AD35CD84008BD00BF00100240D6
:100FCC00C41A000870B582B00024A44687E07C4D9A
:100FDC00AB4214D00CD8A5F58015AB420FD005F55B
:100FEC007025AB420BD0A5F58015AB4212D106E0B3
:100FFC00744DAB4203D005F58035AB420AD18B68FA
:10100C00002B00F0B580012B00F0AD80426108246C
:10101C0000E0CC68BEF1FF0F00F2AC8006464FEA50
:10102C008C0233680F25954023EA050304FA02F27B
:10103C00134333604B6813F0805F4ED0624B9A6958
:10104C0042F001029A619B6903F001030193019B39
:10105C004FEA9C02951C5D4B53F825600CF0030580
:10106C00AD000F23AB4026EA0306594B984200F023
:10107C00888003F58063984200F0858003F58063D7
:10108C0098427CD00323AB40334302324F4D45F89A
:10109C0022304B6813F4801F77D04E4A936843EA92
:1010AC000E0393604B6813F4001F74D0494AD36845
:1010BC0043EA0E03D3604B6813F4003F71D0454AEA
:1010CC00536843EA0E0353604B6813F4803F6ED0B1
:1010DC00404A136843EA0E0313600CF1010C0B68D1
:1010EC0033FA0CF269D0012202FA0CF203EA020E76
:1010FC0032EA0303F1D14B68122B3FF668AF122B87
:10110C0088D801A555F823F00B1000081F10000813
:10111C00671100087911000821100008211000083F
:10112C0021100008211000082110000821100008CF
:10113C0021100008211000082110000821100008BF
:10114C00211000082110000821100008611100086E
:10115C006D110008CC6804345CE7CC68083459E79E
:10116C00CC680C3456E70261082453E7002451E79D
:10117C0004244FE7061DACF10802920051E702234C
:10118C0081E700237FE701237DE7124A936823EA76
:10119C000E03936086E70F4AD36823EA0E03D360ED
:1011AC0089E70C4A536823EA0E0353608CE7094A1B
:1011BC00136823EA0E0313608FE702B070BD00BF03
:1011CC00000022100000311000100240000001400D
:1011DC0000080140000401400AB101617047090494
:1011EC0001617047002808DB0901C9B200F16040B9
:1011FC0000F5614080F80013704700F00F00090102
:10120C00C9B2014B1954704714ED00E000B500F061
:10121C000700C0F1070CBCF1040F28BF4FF0040C01
:10122C00031D062B0FD9C31E4FF0FF3E0EFA0CF018
:10123C0021EA000199400EFA03FE22EA0E0241EA6D
:10124C0002005DF804FB0023EEE70000074AD368B8
:10125C0023F4E0631B041B0C000200F4E060034366
:10126C0043F0BF6343F40033D360704700ED00E0FC
:10127C0010B50446054BD868C0F30220FFF7C6FF33
:10128C0001462046FFF7AEFF10BD00BF00ED00E0A9
:10129C000138B0F1807F0BD24FF0E0235861054A42
:1012AC00F02182F823100020986107221A61704700
:1012BC000120704700ED00E030B4026A036A23F0AD
:1012CC00010303624568836923F073030C681C43B4
:1012DC0022F002028B6813430B4A904206D0456001
:1012EC0084614A684263036230BC704723F0080390
:1012FC00CA681A4322F0040325F440754A692A434C
:10130C008D691543EBE700BF002C014030B4036A34
:10131C00026A22F4807202624468C26922F073028B
:10132C000D68154323F400738A6843EA02230D4ABF
:10133C00904206D04460C5614A68C263036230BC07
:10134C00704723F40063CA6843EA022323F48063E2
:10135C0024F440544A6944EA02148A6944EA0214A7
:10136C00E8E700BF002C014030B4036A026A22F4A3
:10137C00805202624468C26922F4E6420D6842EA75
:10138C00052223F400538D6843EA0533074DA84228
:10139C0006D04460C2614A680264036230BC704784
:1013AC0024F480444D6944EA8514F2E7002C014092
:1013BC0010B4036A046A24F001040462846924F002
:1013CC00F00C4CEA021223F00A030B438261036215
:1013DC0010BC704710B4036A046A24F01004046251
:1013EC00846924F4704C4CEA023223F0A00343EAE3
:1013FC0001138261036210BC7047836823F0700391
:10140C000B4343F00703836070477047704700003D
:10141C0003681B4A904206D0B0F1804F03D0A2F56E
:10142C009432904203D123F070034A681343144A58
:10143C00904206D0B0F1804F03D0A2F59432904286
:10144C0003D123F44073CA68134323F080034A6921
:10145C00134303608B68C3620B688362084B98422A
:10146C000AD001234361036913F0010F03D0036910
:10147C0023F00103036170470B690363F1E700BFBD
:10148C00002C014040B310B5044690F83D30F3B148
:10149C00022384F83D30214651F8040BFFF7B8FFC6
:1014AC00012384F8463084F83E3084F83F3084F8C9
:1014BC00403084F8413084F8423084F8433084F86A
:1014CC00443084F8453084F83D30002010BD80F85D
:1014DC003C30FEF73FFFDBE70120704740B310B50F
:1014EC00044690F83D30F3B1022384F83D30214698
:1014FC0051F8040BFFF78CFF012384F8463084F875
:10150C003E3084F83F3084F8403084F8413084F821
:10151C00423084F8433084F8443084F8453084F801
:10152C003D30002010BD80F83C30FFF76EFFDBE74C
:10153C000120704740B310B5044690F83D30F3B12C
:10154C00022384F83D30214651F8040BFFF760FF6D
:10155C00012384F8463084F83E3084F83F3084F818
:10156C00403084F8413084F8423084F8433084F8B9
:10157C00443084F8453084F83D30002010BD80F8AC
:10158C003C30FFF743FFDBE70120704730B4036AC0
:10159C00026A22F0100202624468826922F4E64276
:1015AC000D6842EA052223F020038D6843EA0513F7
:1015BC000C4DA84206D0446082614A688263036283
:1015CC0030BC704723F08003CD6843EA051323F049
:1015DC00400324F440644D6944EA85048D6944EA6F
:1015EC008504E8E7002C014090F83C30012B28D012
:1015FC0010B50446012380F83C300C2A1CD8DFE8D7
:10160C0002F0071B1B1B0C1B1B1B111B1B1B1600AF
:10161C000068FFF751FE00200FE00068FFF7B6FFEF
:10162C0000200AE00068FFF771FE002005E000686A
:10163C00FFF79AFE002000E00120002384F83C30E4
:10164C0010BD0220704738B590F83C30012B66D0A5
:10165C0004460D46012380F83C300C2A5AD8DFE8AA
:10166C0002F0075959591B595959305959594400C5
:10167C000068FFF721FE2268936943F00803936129
:10168C002268936923F004039361226893692969A2
:10169C000B43936100203EE00068FFF777FF226860
:1016AC00936943F4006393612268936923F4806324
:1016BC00936122689369296943EA012393610020AD
:1016CC0029E00068FFF722FE2268D36943F0080383
:1016DC00D3612268D36923F00403D3612268D369F0
:1016EC0029690B43D361002015E00068FFF73CFE2D
:1016FC002268D36943F40063D3612268D36923F46D
:10170C008063D3612268D369296943EA0123D361D9
:10171C00002000E00120002384F83C3038BD02207A
:10172C00FCE710B4846824F47F4C42EA03220A4399
:10173C0042EA0C02826010BC704790F83C30012BDE
:10174C0078D010B50446012380F83C30022380F891
:10175C003D300268936823F47F4323F07703936052
:10176C000B68602B4CD023D8402B54D011D8202B95
:10177C0003D00AD80BB1102B05D119462068FFF7FE
:10178C003CFE002028E0012026E0302BF5D0012083
:10179C0022E0502B0AD1CA6849680068FFF708FE9E
:1017AC0050212068FFF729FE002015E0012013E0EE
:1017BC00B3F5805F3AD0B3F5005F14D0702B37D1FE
:1017CC00CB684A6889680068FFF7ABFF22689368AA
:1017DC0043F0770393600020012384F83D3000230D
:1017EC0084F83C3010BDCB684A6889680068FFF704
:1017FC0098FF2268936843F4804393600020EBE7E2
:10180C00CA6849680068FFF7E5FD60212068FFF7AA
:10181C00F4FD0020E0E7CA6849680068FFF7C8FDDE
:10182C0040212068FFF7E9FD0020D5E70020D3E731
:10183C000120D1E70220704790F83C20012A28D0E3
:10184C0010B40346012280F83C20022280F83D208F
:10185C0002685068946820F0700C086840EA0C002C
:10186C0050601A680C48824206D0B2F1804F03D007
:10187C00A0F59430824204D124F0800449682143BD
:10188C009160012283F83D20002083F83C0010BCBD
:10189C0070470220704700BF002C0140024690F8B0
:1018AC003C30012B21D0012380F83C30CB6823F451
:1018BC0040738868034323F480634868034323F42C
:1018CC0000630868034323F480530869034323F43B
:1018DC0000534869034323F48043C9690B431168DF
:1018EC004B64002082F83C007047022070470000D7
:1018FC0010B504460268136923F44053C1680B43C6
:10190C00136183680269134342691A430168CB6807
:10191C0023F4B05323F00C031343CB6002685369D8
:10192C0023F4407381690B4353610268134B9A4251
:10193C0020D0FFF727FB024602EB820202EB820269
:10194C0063689B00B2FBF3F20D48A0FB023149091E
:10195C00642303FB11231B013233A0FB03035B093C
:10196C0003F0F00202EB011203F00F0321681344A1
:10197C008B6010BDFFF716FB0246DDE70038014017
:10198C001F85EB5160B310B5044690F8413013B38A
:10199C00242384F841302268D36823F40053D360A5
:1019AC002046FFF7A5FF2268136923F490431361C7
:1019BC002268536923F02A0353612268D36843F4E5
:1019CC000053D36000206064202384F8413084F8F5
:1019DC004230606310BD80F84030FEF735FED7E72B
:1019EC000120704770470000FFF7FCFF0B480C49C3
:1019FC000C4A002302E0D458C4500433C4188C425F
:101A0C00F9D3094A094C002301E013600432A242C5
:101A1C00FBD300F017F8FEF7EDFB70470000002039
:101A2C000C000020E41A00080C00002058010020D3
:101A3C00FEE703460244934200D1704703F8011BB2
:101A4C00F9E7000070B500260C4D0D4C641BA4107A
:101A5C00A64209D100F01AF800260A4D0A4C641B64
:101A6C00A410A64205D170BD55F8043B9847013629
:101A7C00EEE755F8043B98470136F2E7DC1A00080C
:101A8C00DC1A0008DC1A0008E01A0008F8B500BFE0
:101A9C00F8BC08BC9E467047F8B500BFF8BC08BC43
:041AAC009E4670479B
:101AB0000102000002030405060708090A0B0C0DC9
:101AC0000E0F1010000000000102030400000000CF
:0C1AD000000000000102030406070809E2
:041ADC007501000888
:041AE0004D010008AC
:0C1AE400010000001000000000127A0059
:04000005080019F5E1
:00000001FF
