:020000040800F2
:10000000005000205D210008690400086B0400080E
:100010006D0400086F04000871040008000000006F
:100020000000000000000000000000007304000851
:100030007504000800000000770400087904000837
:10004000A5210008A5210008A5210008A521000878
:10005000A5210008A5210008A5210008A521000868
:10006000A5210008A5210008A5210008A521000858
:10007000A5210008A5210008A5210008A521000848
:10008000A5210008A5210008A5210008A521000838
:10009000A5210008A5210008A5210008A521000828
:1000A000A5210008A5210008A5210008A521000818
:1000B000A5210008A5210008A5210008A521000808
:1000C000A5210008A5210008A5210008A5210008F8
:1000D000A5210008A5210008A5210008A5210008E8
:1000E000A5210008A5210008A521000800000000A6
:1000F0000000000000000000000000000000000000
:0C01000000000000000000005FF808F1A3
:10010C000348044B834202D0034B03B1184770479A
:10011C006800002068000020000000000548064B25
:10012C001B1AD90F01EBA301491002D0034B03B1E9
:10013C00184770476800002068000020000000008D
:10014C0010B5064C237843B9FFF7DAFF044B13B113
:10015C000448AFF300800123237010BD6800002019
:10016C00000000003C34000808B5054B1BB10549E4
:10017C000548AFF30080BDE80840FFF7CFBF00BFD4
:10018C00000000006C0000203C34000830B589B041
:10019C0000240494059406940794214B9A6942F028
:1001AC0010029A619A6902F010020092009A9A6900
:1001BC0042F020029A619A6902F020020192019A9F
:1001CC009A6942F004029A619A6902F0040202925E
:1001DC00029A9A6942F008029A619B6903F008033B
:1001EC000393039B0F4D22464FF40051284601F018
:1001FC00D9FB4FF400530493012305930694022476
:10020C00079404A9284601F041FA032304930594AA
:10021C00079404A9044801F039FA09B030BD00BFB5
:10022C0000100240001001400008014000B583B0EE
:10023C0001904FF6FF73012201A9034801F017FD4D
:10024C00019803B05DF804FB8800002010B586B05F
:10025C000023ADF81430154B1B689B6913F0020F8B
:10026C001CD14FF0FF3302930223019305AB009393
:10027C0001230C226C210D4800F0D8FC38B99DF8F4
:10028C0014209DF8153043EA0223094A13800A20F2
:10029C0000F0C4FE064B188806B010BD034C204677
:1002AC0000F0AAFC204600F0C9FBDAE71801002098
:1002BC008400002072B6FEE708B50A480A4B0360BA
:1002CC000A4B436000238360C3604FF48042026199
:1002DC0043618361C361036200F0B0FB00B908BDE8
:1002EC00FFF7E8FF1801002000540040A086010031
:1002FC0008B50A480A4B03604FF4E133436000230E
:10030C008360C36003610C2242618361C36101F0AD
:10031C007EFC00B908BDFFF7CDFF00BF88000020B0
:10032C000038014000B58BB000230893099301936A
:10033C000293039304930593069307931A481B4A5D
:10034C000260436083604FF6FF72C2600361836199
:10035C0001F000FEF8B900230893099308A912488C
:10036C0001F0C0FEC8B960230193002302930393EC
:10037C000593082201A90C4801F046FE78B90C221D
:10038C0001A9094801F040FE58B9074800F004F9EA
:10039C000BB05DF804FBFFF78DFFFFF78BFFFFF74A
:1003AC0089FFFFF787FF00BFD0000020000400404A
:1003BC0000B591B02822002106A801F0EDFF002322
:1003CC000193029303930493059302230693012351
:1003DC000A9310230B9306A800F04AFE68B90F236A
:1003EC0001930021029103910491059101A801F060
:1003FC0071F820B911B05DF804FBFFF75BFFFFF754
:10040C0059FF000000B583B000F0E4FDFFF7D0FF0A
:10041C00FFF7BCFEFFF750FFFFF76AFFFFF782FF05
:10042C004FF400510A4801F0C3FAFFF70FFF0246E0
:10043C00084B18800849684601F0B0FE684601F088
:10044C0091FF0A2001F0A0FF642000F0E7FDE7E730
:10045C00001001408400002054340008FEE7FEE741
:10046C00FEE7FEE7FEE770477047704708B500F0FF
:10047C00C3FD08BD82B00E4B9A6942F001029A612D
:10048C009A6902F001020092009ADA6942F08052F5
:10049C00DA61DB6903F080530193019B054A5368D1
:1004AC0023F0E06343F00073536002B0704700BF69
:1004BC00001002400000014010B586B000230293EA
:1004CC000393049305930268154B9A4201D006B02E
:1004DC0010BD144CA36943F00803A361A36903F096
:1004EC0008030093009B4FF4407302931223039371
:1004FC000323059302A90C4801F0C8F80B4A536872
:10050C0043F0E06343F002035360E36943F40013E8
:10051C00E361E36903F400130193019BD7E700BF88
:10052C000054004000100240000C0140000001404B
:10053C0002680B4B9A4200D0704710B5094AD36938
:10054C0023F40013D361084C4FF48071204601F062
:10055C00ABF94FF40071204601F0A6F910BD00BFB5
:10056C000054004000100240000C01400268094B8E
:10057C009A4200D0704782B003F50333DA6942F037
:10058C000202DA61DB6903F002030193019B02B002
:10059C00704700BF0004004000B587B000230293F1
:1005AC0003930493059302680D4B9A4202D007B053
:1005BC005DF804FB03F503339A6942F008029A6173
:1005CC009B6903F008030193019B0323029302230D
:1005DC000393059302A9034801F058F8E7E700BF1D
:1005EC0000040040000C014010B586B000230293BB
:1005FC000393049305930268174B9A4201D006B0FB
:10060C0010BD03F558439A6942F480429A619A6985
:10061C0002F480420092009A9A6942F004029A61B4
:10062C009B6903F004030193019B4FF40073029345
:10063C000223039303230593084C02A9204601F0DF
:10064C0025F84FF48063029300230393049302A9CB
:10065C00204601F01BF8D2E70038014000080140A9
:10066C0003685A6912F4806F01D1002070476FF44F
:10067C0080625A6100230363202280F83D2080F8B9
:10068C003E30026C42F00402026480F83C300120DF
:10069C0070472DE9F04106460C46174698463BE05C
:1006AC0000F0B6FC069BC01A404502D8B8F1000F0A
:1006BC0032D1012D18D033689B6924EA03039BB215
:1006CC00B3FA83F35B099F4226D1002333632022C4
:1006DC0086F83D2086F83E30326C42F020023264BF
:1006EC0086F83C30012027E033685B6924EA030379
:1006FC009BB2B3FA83F35B09E5E733685B6924EAE1
:10070C00030C1FFA8CFCBCFA8CFC4FEA5C1C674592
:10071C0011D1B8F1FF3FC3D1C4F30745012DECD083
:10072C0033689B6924EA030C1FFA8CFCBCFA8CFC22
:10073C004FEA5C1CEBE70020BDE8F0812DE9F843A3
:10074C0005460E469046994653E01A6842F40072EC
:10075C001A602B686FF480625A6100232B6320228D
:10076C0085F83D2085F83E302A6C42F004022A645C
:10077C0085F83C3001204AE000F04AFCA0EB09006F
:10078C00404502D8B8F1000F33D1012F17D02B6898
:10079C009B6926EA03039BB2003B18BF012343B3BA
:1007AC0000232B63202285F83D2085F83E302A6CEF
:1007BC0042F020022A6485F83C30012027E02B68A7
:1007CC005B6926EA03039BB2003B18BF0123E6E7F3
:1007DC002B689C6926EA0404A4B2003C18BF0124CF
:1007EC00A4B12B685A6912F4806FAED1B8F1FF3FF7
:1007FC00C2D1C6F30747012FEAD12B685C6926EA00
:10080C000404A4B2003C18BF0124E9E70020BDE8B1
:10081C00F88370B504460D46164623685B6913F0E1
:10082C00800F21D12046FFF71BFFF8B9B5F1FF3F30
:10083C00F3D000F0EDFB801BA84201D8002DECD1C9
:10084C0023685B6913F0800FE7D100232363202218
:10085C0084F83D2084F83E30226C42F02002226461
:10086C0084F83C30012000E0002070BD0120FCE742
:10087C002DE9F04784B004460D46164699460C9F68
:10088C00DDF834800268136843F4806313600368F6
:10089C00196841F480711960CDF800803B46002244
:1008AC004FF00111FFF7F5FE70B95FFA85FA236876
:1008BC0005F0FE051D6143463A4641492046FFF7C7
:1008CC003DFF68B1012008E023681B6813F4807FAA
:1008DC0002D04FF400732364032004B0BDE8F0870A
:1008EC000023039323685A6903929B690393039B28
:1008FC00424639462046FFF78CFF80B9B9F1010F0B
:10090C0018D12368F6B21E61424639462046FFF7DD
:10091C0080FF68B3236C042B24D00120DDE7236C0B
:10092C00042B01D00120D8E72268136843F400732C
:10093C001360F7E72368320A1A61424639462046AB
:10094C00FFF767FF18B92368F6B21E61DCE7236C6A
:10095C00042B01D00120C0E72268136843F4007314
:10096C001360F7E72268136843F400731360D4E74D
:10097C002268136843F480731360CDF800803B4603
:10098C0000224FF001112046FFF783FE68B9226860
:10099C004AF00103136143463A4609492046FFF7E2
:1009AC00CDFE002899D0012097E723681B6813F42B
:1009BC00807F02D04FF40073236403208DE700BFC7
:1009CC000200010070B504460D46164614E06FF0A7
:1009DC0010025A6100232363202284F83D2084F8FE
:1009EC003E30226C226484F83C30012025E02368E0
:1009FC005B6913F0400F10D02368586910F0400F5A
:100A0C001AD1586910F0100FE1D100F001FB801BD6
:100A1C00A842ECD8002DEFD1E9E700232363202274
:100A2C0084F83D2084F83E30226C42F0200222648F
:100A3C0084F83C30012000E0002070BD002800F05C
:100A4C00CC8070B5044690F83D30002B77D0242331
:100A5C0084F83D302268136823F001031360226888
:100A6C00136843F4004313602268136823F40043B3
:100A7C00136000F0EBFD62685A4B9A4264D85A4BF3
:100A8C0098428CBF00230123002B40F0A8805749CB
:100A9C00A1FB00318B0C25686A6822F03F0242EA08
:100AAC0091426A6021680A6A22F03F0266684D4DE5
:100ABC00AE424FD8013313430B622168CA6922F44A
:100ACC004F4222F0FF026568464B9D424CD8431EB4
:100ADC006D00B3FBF5F3013340F6FC70034278D0A4
:100AEC00C3F30B031A43CA6121680B6823F0C003DC
:100AFC00E269206A024313430B6021688B6823F47C
:100B0C00034323F0FF032269E068024313438B6025
:100B1C002168CB6823F0FF036269A0690243134389
:100B2C00CB602268136843F001031360002020643B
:100B3C00202384F83D30206384F83E0070BD80F89B
:100B4C003C30FFF7B9FC82E7294B98428CBF00235D
:100B5C00012399E74FF4967505FB03F3254DA5FB8F
:100B6C0003539B090133A6E7A668BEB9431E05EBE8
:100B7C00450CB3FBFCF30133C3F30B03B3FA83F360
:100B8C005B0943BBC6B9431E05EB4505B3FBF5F347
:100B9C000133C3F30B0343F40043A3E7431E05EBFC
:100BAC00850C0CEB8C0CB3FBFCF30133C3F30B0384
:100BBC00B3FA83F35B09E4E7431E05EB850505EB0C
:100BCC008505B3FBF5F30133C3F30B0343F4404347
:100BDC0088E7042386E7012384E70120704701207E
:100BEC00ACE700BFA08601007F841E0083DE1B43A0
:100BFC00FF083D00D34D6210A8B110B50446242364
:100C0C0080F83D300268136823F001031360FFF78E
:100C1C008FFC0020206484F83D00206384F83E00A3
:100C2C0084F83C0010BD0120704700002DE9F04312
:100C3C0089B004460F4690469946129E00230793AE
:100C4C0000F0E6F9054694F83D00C0B2202804D027
:100C5C000227384609B0BDE8F0830095192301221C
:100C6C0081492046FFF715FD002840F07C8194F85F
:100C7C003C30012B00F07981012384F83C3023684F
:100C8C001A6812F0010F03D11A6842F001021A60BF
:100C9C002268136823F400631360222384F83D3028
:100CAC00402384F83E3000232364109B6362BDF81C
:100CBC0044306385638D23856C4BE362019500960C
:100CCC004B46424639462046FFF7D2FD07460028E0
:100CDC0040F04D81238D5BB9039323685A690392CD
:100CEC009A690392039A1A6842F400721A60F2E04D
:100CFC00012B0FD0022B21D02268136843F48063A0
:100D0C0013600023069323685A6906929B69069325
:100D1C00069BE0E02268136823F48063136072B6CC
:100D2C000023049323685A6904929A690492049AE2
:100D3C001A6842F400721A6062B6CCE0226813683A
:100D4C0043F40063136072B60023059323685A6959
:100D5C0005929A690592059A1A6822F480621A60C3
:100D6C0062B6B8E02A4631462046FFF72BFE002833
:100D7C0040F0FF8023681A69636A1A70636A013352
:100D8C006362238D013B2385638D9BB2013B9BB238
:100D9C006385A0E000953346002235492046FFF7D5
:100DAC0078FC002840F0E9802268136823F4806303
:100DBC00136072B623681A69636A1A70636A013326
:100DCC006362238D013B2385638D9BB2013B9BB2F8
:100DDC006385284B1B68DB08274AA2FB03231B0AED
:100DEC0003EB8303C3EBC3030793079B013B0793FD
:100DFC00079B002B28D023685A6912F0040FF4D0FB
:100E0C001A6842F400721A6023681A69636A1A70CD
:100E1C00636A01336362238D013B2385638D9BB22F
:100E2C00013B9BB2638562B623681A69636A1A70C8
:100E3C00636A01336362238D013B2385638D9BB20F
:100E4C00013B9BB2638546E02363202284F83D205E
:100E5C0084F83E30226C42F02002226462B684F8A0
:100E6C003C300127F5E600BF020010000000FFFF38
:100E7C00040001000800002089B5F8142A46314608
:100E8C002046FFF79FFD002879D123681A69636A11
:100E9C001A70636A01336362228D013A92B2228521
:100EAC00638D9BB2013B9BB263852368596911F03A
:100EBC00040F10D0032A48D023681A69636A1A7089
:100ECC00636A01336362238D013B2385638D9BB27F
:100EDC00013B9BB26385238D002B3BD0032BCDD8DC
:100EEC00012B3FF43FAF022B7FF454AF00953346F8
:100EFC00002224492046FFF7CCFB00283BD172B6D8
:100F0C002268136843F40073136023681A69636AD8
:100F1C001A70636A01336362238D013B2385638DF1
:100F2C009BB2013B9BB2638562B623681A69636A04
:100F3C001A70636A01336362238D013B2385638DD1
:100F4C009BB2013B9BB26385C5E71A6822F48062B1
:100F5C001A60B1E7202384F83D30002384F83E303A
:100F6C0084F83C3075E6022773E6022771E6012708
:100F7C006FE601276DE601276BE6012769E601277D
:100F8C0067E600BF0400010010B504460E4B1A784A
:100F9C004FF47A73B3FBF2F30C4A1068B0FBF3F026
:100FAC0000F066FD68B90F2C01D901200AE000227F
:100FBC0021464FF0FF3000F04BFD054B1C6000202C
:100FCC0000E0012010BD00BF000000200800002040
:100FDC000400002008B5074A136843F0100313609F
:100FEC00032000F023FD0F20FFF7CEFFFFF742FA9E
:100FFC00002008BD00200240034A1168034B1B78F7
:10100C000B441360704700BF6C01002000000020EF
:10101C00014B1868704700BF6C01002038B50446BE
:10102C00FFF7F6FF0546B4F1FF3F02D0044B1B78E7
:10103C001C44FFF7EDFF401BA042FAD338BD00BFA4
:10104C000000002082B0084B1B68084AA2FB032357
:10105C005B0A00FB03F3019300BF019B5A1E019234
:10106C00002BF9D102B0704708000020D34D62105C
:10107C00002800F0F18170B582B00446036813F0CB
:10108C00010F2CD0994B5B6803F00C03042B1DD083
:10109C00964B5B6803F00C03082B12D06368B3F516
:1010AC00803F41D0002B55D103F1804303F504332D
:1010BC001A6822F480321A601A6822F480221A60AC
:1010CC0037E08A4B5B6813F4803FE7D0874B1B6893
:1010DC0013F4003F03D06368002B00F0BF8123683A
:1010EC0013F0020F75D0814B5B6813F00C0F5FD0BF
:1010FC007E4B5B6803F00C03082B54D02369002B48
:10110C0000F08A807A4B01221A60FFF781FF0546B6
:10111C00764B1B6813F0020F75D1FFF779FF401B5C
:10112C000228F5D903209EE1704A136843F48033FA
:10113C001360636843B3FFF76BFF05466B4B1B688B
:10114C0013F4003FCBD1FFF763FF401B6428F5D9A4
:10115C00032088E1B3F5A02F09D0644B1A6822F460
:10116C0080321A601A6822F480221A60E1E703F1D7
:10117C008043A3F53C331A6842F480221A601A6843
:10118C0042F480321A60D4E7FFF742FF0546574B12
:10119C001B6813F4003FA2D0FFF73AFF401B6428F2
:1011AC00F5D903205FE1514B5B6813F4803FA5D167
:1011BC004E4B1B6813F0020F03D02369012B40F038
:1011CC004F814A4A136823F0F803616943EAC1036B
:1011DC001360236813F0080F33D0A369002B5CD085
:1011EC00434B0122C3F88024FFF712FF05463F4B07
:1011FC005B6A13F0020F21D1FFF70AFF401B022894
:10120C00F5D903202FE1394A136823F0F8036169FB
:10121C0043EAC1031360DCE7354B00221A60FFF789
:10122C00F7FE0546314B1B6813F0020FD1D0FFF7C8
:10123C00EFFE401B0228F5D9032014E10120FFF733
:10124C0001FF236813F0040F00F09680274BDB6935
:10125C0013F0805F34D1254BDA6942F08052DA61A9
:10126C00DB6903F080530193019B0125214B1B6823
:10127C0013F4807F26D0E368012B3DD0002B53D193
:10128C0003F1804303F504331A6A22F001021A6257
:10129C001A6A22F004021A6233E0154B0022C3F8DA
:1012AC008024FFF7B5FE0546104B5B6A13F0020F66
:1012BC00C7D0FFF7ADFE401B0228F5D90320D2E0C2
:1012CC000025D3E70B4A136843F480731360FFF7D0
:1012DC009FFE0646074B1B6813F4807FCBD1FFF7AC
:1012EC0097FE801B6428F5D90320BCE00010024057
:1012FC0000004242007000405F4A136A43F0010351
:10130C001362E36833B3FFF783FE06465A4B1B6A3E
:10131C0013F0020F2FD1FFF77BFE801B41F28833B5
:10132C009842F3D903209EE0052B09D0524B1A6A40
:10133C0022F001021A621A6A22F004021A62E0E731
:10134C004D4B1A6A42F004021A621A6A42F0010208
:10135C001A62D6E7FFF75CFE0646474B1B6A13F092
:10136C00020F08D0FFF754FE801B41F288339842DD
:10137C00F3D9032077E0E5B9E369002B72D03E4A3C
:10138C00526802F00C02082A56D0022B17D03B4BA5
:10139C0000221A66FFF73CFE0446374B1B6813F01D
:1013AC00007F47D0FFF734FE001B0228F5D903203D
:1013BC0059E0314AD36923F08053D361DCE72F4BDA
:1013CC0000221A66FFF724FE05462B4B1B6813F010
:1013DC00007F06D0FFF71CFE401B0228F5D9032026
:1013EC0041E0236AB3F5803F1AD023494B6823F4BC
:1013FC007413226A606A024313434B601F4B012231
:10140C001A66FFF705FE04461B4B1B6813F0007FA2
:10141C000ED1FFF7FDFD001B0228F5D9032022E0B9
:10142C00154A536823F40033A1680B435360DCE77F
:10143C00002018E0002016E0012B16D00E4B5B6844
:10144C0003F48031226A914211D103F47013626A61
:10145C0093420ED1002006E001207047012002E0EB
:10146C00012000E0002002B070BD0120FBE701204C
:10147C00F9E70120F7E700BF0010024000004242EC
:10148C000F4B5B6803F00C02082A01D00D48704723
:10149C00C3F383420C49885C13F4803F0BD0084B98
:1014AC005B68C3F34043094AD35C064A02FB00F075
:1014BC00B0FBF3F07047064B03FB00F0704700BF26
:1014CC000010024000127A005C3400085834000806
:1014DC0000093D00002800F0A08070B50D460446C0
:1014EC00524B1B6803F007038B420BD24F4A136815
:1014FC0023F007030B431360136803F007038B42BD
:10150C0040F08D80236813F0020F17D013F0040FF6
:10151C0004D0474A536843F4E0635360236813F0E4
:10152C00080F04D0424A536843F460535360404A56
:10153C00536823F0F003A1680B435360236813F046
:10154C00010F31D06368012B20D0022B25D0384AF3
:10155C00126812F0020F64D035494A6822F0030277
:10156C0013434B60FFF754FD0646314B5B6803F0A9
:10157C000C036268B3EB820F16D0FFF749FD801B9A
:10158C0041F288339842F0D9032045E0284A12688A
:10159C0012F4003FE0D101203EE0254A126812F01F
:1015AC00007FD9D1012037E0204B1B6803F00703E3
:1015BC00AB420AD91D4A136823F007032B4313606F
:1015CC00136803F00703AB422DD1236813F0040F0B
:1015DC0006D0174A536823F4E063E1680B43536069
:1015EC00236813F0080F07D0114A536823F4605393
:1015FC00216943EAC1035360FFF742FF0C4B5B6860
:10160C00C3F303130B4AD35CD8400B4B18600B4B42
:10161C001868FFF7B9FC002070BD0120704701204D
:10162C00FAE70120F8E70120F6E700BF00200240AE
:10163C000010024074340008080000200400002050
:10164C00014B1868704700BF0800002008B5FFF771
:10165C00F7FF044B5B68C3F30223034AD35CD84007
:10166C0008BD00BF001002406C34000808B5FFF73D
:10167C00E7FF044B5B68C3F3C223034AD35CD84037
:10168C0008BD00BF001002406C34000870B582B079
:10169C000024A446A1E07E4DAB4214D00CD8A5F595
:1016AC008015AB420FD005F57025AB420BD0A5F5DC
:1016BC008015AB4210D106E0764DAB4203D005F558
:1016CC008035AB4208D18B68002B50D0012B49D010
:1016DC004261082400E0CC68BEF1FF0F49D80646F1
:1016EC004FEA8C0233680F25954023EA050304FA70
:1016FC0002F2134333604B6813F0805F6BD0664B80
:10170C009A6942F001029A619B6903F0010301930B
:10171C00019B4FEA9C02951C604B53F825600CF022
:10172C000305AD000F23AB4026EA03065C4B984241
:10173C0026D003F58063984200F08C8003F580631B
:10174C00984200F0898003F58063984216D00423F8
:10175C0017E0CC680434BFE7CC680834BCE7CC682D
:10176C000C34B9E702610824B6E70024B4E704247A
:10177C00B2E7061DACF108029200B3E7032300E0C8
:10178C000023AB4033430232444D45F822304B68C2
:10179C0013F4801F62D0434A936843EA0E039360AC
:1017AC004B6813F4001F5FD03E4AD36843EA0E0324
:1017BC00D3604B6813F4003F5CD03A4A536843EA59
:1017CC000E0353604B6813F4803F59D0354A1368AD
:1017DC0043EA0E0313600CF1010C0B6833FA0CF2A4
:1017EC0054D0012202FA0CF203EA020E32EA03038D
:1017FC00F1D14B68122B3FF64EAF122B3FF66CAF6C
:10180C0001A555F823F000BFD3160008E316000815
:10181C006517000877170008E5160008E51600089C
:10182C00E5160008E5160008E5160008E5160008A0
:10183C00E5160008E5160008E5160008E516000890
:10184C00E5160008E5160008E51600085F17000805
:10185C006B170008012394E7022392E7114A93685F
:10186C0023EA0E0393609BE70E4AD36823EA0E0328
:10187C00D3609EE70B4A536823EA0E035360A1E73B
:10188C00084A136823EA0E031360A4E702B070BD84
:10189C000000221000003110001002400000014036
:1018AC00000801400004014000226BE0032500E029
:1018BC00002505FA04F4644542D0FF2B5AD886461D
:1018CC009500DEF800404FF00F0C0CFA05FC24EAF2
:1018DC000C044FF0040C0CFA05FC44EA0C04CEF892
:1018EC000040C46824EA0303C360013231FA02F3F6
:1018FC0046D0012393400B40F7D09608B51C264CDC
:10190C0054F8255002F00304A4004FF00F0C0CFA0D
:10191C0004FE0EEA050C214DA842C9D005F58065E0
:10192C00A84209D005F58065A84207D005F5806569
:10193C00A842BBD00425BCE70125BAE70225B8E7CD
:10194C00174C256825EA03052560656825EA03051B
:10195C006560E56825EA0305E560A56825EA0305E9
:10196C00A5600D4FB41C57F8245025EA0E0547F816
:10197C002450A2E700F1040EA2F10805AD00A0E787
:10198C00F0BD013231FA02F305D0012393400B4034
:10199C00F7D0F0B5B1E770470000014000080140F6
:1019AC00000401400AB101617047090401617047EC
:1019BC00C36801EA030221EA030141EA0241016121
:1019CC0070470000002808DB0901C9B200F1604033
:1019DC0000F5614080F80013704700F00F0009011A
:1019EC00C9B2014B1954704714ED00E000B500F07A
:1019FC000700C0F1070CBCF1040F28BF4FF0040C1A
:101A0C00031D062B0FD9C31E4FF0FF3E0EFA0CF030
:101A1C0021EA000199400EFA03FE22EA0E0241EA85
:101A2C0002005DF804FB0023EEE70000074AD368D0
:101A3C0023F4E0631B041B0C000200F4E06003437E
:101A4C0043F0BF6343F40033D360704700ED00E014
:101A5C0010B50446054BD868C0F30220FFF7C6FF4B
:101A6C0001462046FFF7AEFF10BD00BF00ED00E0C1
:101A7C000138B0F1807F0BD24FF0E0235861054A5A
:101A8C00F02182F823100020986107221A61704718
:101A9C000120704700ED00E0026802F10C0353E8EE
:101AAC00003F23F490730C3242E800310029F3D14B
:101ABC00026802F1140353E8003F23F001031432CF
:101ACC0042E800310029F3D1036B012B05D0202310
:101ADC0080F84230002303637047026802F10C0364
:101AEC0053E8003F23F010030C3242E80031002988
:101AFC00F3D1ECE710B504460268136923F44053A4
:101B0C00C1680B43136183680269134342691A432A
:101B1C000168CB6823F4B05323F00C031343CB6060
:101B2C000268536923F4407381690B435361026863
:101B3C00134B9A4220D0FFF789FD024602EB82023A
:101B4C0002EB820263689B00B2FBF3F20D48A0FB30
:101B5C0002314909642303FB11231B013233A0FB1F
:101B6C0003035B0903F0F00202EB011203F00F0315
:101B7C00216813448B6010BDFFF778FD0246DDE74A
:101B8C00003801401F85EB512DE9F04383B0054629
:101B9C000E4617469946DDF828802B681C6836EAF5
:101BAC0004040CBF01240024BC4228D1B8F1FF3F2F
:101BBC00F3D0FFF72DFAA0EB0900404523D8B8F17C
:101BCC00000F22D02B68DA6812F0040FE5D0802EBB
:101BDC00E3D0402EE1D01A6812F0080FDDD00024BB
:101BEC0001941A6801925B680193019B2846FFF7E8
:101BFC0053FF08236B6485F84040012000E000206F
:101C0C0003B0BDE8F0830320FAE70320F8E760B3E4
:101C1C0010B5044690F8413013B3242384F84130B6
:101C2C002268D36823F40053D3602046FFF762FF89
:101C3C002268136923F4904313612268536923F0DB
:101C4C002A0353612268D36843F40053D360002005
:101C5C006064202384F8413084F84230606310BD06
:101C6C0080F84030FEF7C0FCD7E7012070472DE923
:101C7C00F04182B01E4690F84130DBB2202B56D199
:101C8C0004460D469046002955D00AB901204FE074
:101C9C0000234364212380F84130FFF7B9F907464C
:101CAC00A4F82480A4F82680A368B3F5805F02D042
:101CBC004FF0000814E023692BB34FF000080FE03D
:101CCC00202384F84130032032E038F8023B2268AC
:101CDC00C3F308035360E28C92B2013A92B2E284ED
:101CEC00E38C9BB293B100963B46002280212046A8
:101CFC00FFF74AFF0028E3D1002DE6D015F8012BA1
:101D0C0023685A60E7E7A8460025E9E700963B46BA
:101D1C00002240212046FFF737FF18B9202384F812
:101D2C00413005E0202384F84130032000E00220FC
:101D3C0002B0BDE8F0810120FAE7704710B5034608
:101D4C000C4A0D490D48006840B10C48006803442A
:101D5C00521A934206D8094A136010BD0748084C22
:101D6C000460F2E700F020FB0C2303604FF0FF301F
:101D7C00F3E700BF005000200004000070010020B9
:101D8C00C002002070B50C461646002506E0AFF3E5
:101D9C000080214601F8010B01350C46B542F6DBFB
:101DAC00304670BD70B50C461646002504E014F89C
:101DBC00010BFEF73BFA0135B542F8DB304670BD3E
:101DCC004FF0FF3070474FF400534B6000207047CA
:101DDC00012070470020704730B4026A036A23F078
:101DEC00010303624568836923F073030C681C4389
:101DFC0022F002028B6813430B4A904206D04560D6
:101E0C0084614A684263036230BC704723F0080364
:101E1C00CA681A4322F0040325F440754A692A4320
:101E2C008D691543EBE700BF002C014030B4036A09
:101E3C00026A22F4807202624468C26922F0730260
:101E4C000D68154323F400738A6843EA02230D4A94
:101E5C00904206D04460C5614A68C263036230BCDC
:101E6C00704723F40063CA6843EA022323F48063B7
:101E7C0024F440544A6944EA02148A6944EA02147C
:101E8C00E8E700BF002C014030B4036A026A22F478
:101E9C00805202624468C26922F4E6420D6842EA4A
:101EAC00052223F400538D6843EA0533074DA842FD
:101EBC0006D04460C2614A680264036230BC704759
:101ECC0024F480444D6944EA8514F2E7002C014067
:101EDC0003681F4A90420AD0B0F1804F07D0A2F598
:101EEC009432904203D002F58062904203D123F0E9
:101EFC0070034A681343164A90420AD0B0F1804FDF
:101F0C0007D0A2F59432904203D002F58062904241
:101F1C0003D123F44073CA68134323F080034A6946
:101F2C00134303608B68C3620B688362084B98424F
:101F3C000AD001234361036913F0010F03D0036935
:101F4C0023F00103036170470B690363F1E700BFE2
:101F5C00002C014040B310B5044690F83D30F3B16D
:101F6C00022384F83D30214651F8040BFFF7B0FFF3
:101F7C00012384F8463084F83E3084F83F3084F8EE
:101F8C00403084F8413084F8423084F8433084F88F
:101F9C00443084F8453084F83D30002010BD80F882
:101FAC003C30FEF7E3FADBE70120704730B4036AFC
:101FBC00026A22F0100202624468826922F4E6424C
:101FCC000D6842EA052223F020038D6843EA0513CD
:101FDC000C4DA84206D0446082614A688263036259
:101FEC0030BC704723F08003CD6843EA051323F01F
:101FFC00400324F440644D6944EA85048D6944EA45
:10200C008504E8E7002C014038B590F83C30012BF2
:10201C0066D004460D46012380F83C300C2A5AD871
:10202C00DFE802F0075959591B5959593059595978
:10203C0044000068FFF7D0FE2268936943F0080360
:10204C0093612268936923F0040393612268936976
:10205C0029690B43936100203EE00068FFF7A6FF5F
:10206C002268936943F4006393612268936923F4B3
:10207C008063936122689369296943EA0123936120
:10208C00002029E00068FFF7D1FE2268D36943F0F5
:10209C000803D3612268D36923F00403D361226857
:1020AC00D36929690B43D361002015E00068FFF761
:1020BC00EBFE2268D36943F40063D3612268D369D1
:1020CC0023F48063D3612268D369296943EA01232D
:1020DC00D361002000E00120002384F83C3038BD9F
:1020EC000220FCE790F83C20012A2CD010B40346C7
:1020FC00012280F83C20022280F83D2002685068C2
:10210C00946820F0700C086840EA0C0050601A6863
:10211C000E4882420AD0B2F1804F07D0A0F594301D
:10212C00824203D000F58060824204D124F0800406
:10213C00496821439160012283F83D20002083F8F7
:10214C003C0010BC70470220704700BF002C0140BF
:10215C00FFF7F3FD0B480C490C4A002302E0D4585E
:10216C00C4500433C4188C42F9D3094A094C0023D7
:10217C0001E013600432A242FBD300F01BF9FEF71E
:10218C0041F970470000002068000020C0340008AE
:10219C0068000020C0020020FEE700000EB46FF0C3
:1021AC00004110B500249DB01FAB02900690079122
:1021BC0004910948094953F8042B0591006802A9B8
:1021CC0001931B9400F078F9029B1C701DB0BDE8C4
:1021DC00104003B0704700BF180000200802FFFF3A
:1021EC00002310B50446C0E90033C0E90433836012
:1021FC0081814366C2818361194608225C3000F0FC
:10220C00CBF80D4B246263620C4BA3620C4BE36264
:10221C000C4B23630C4B9C4206D003F16802944296
:10222C0002D0D0339C4205D104F15800BDE81040D7
:10223C0000F0E4B810BD00BF092F00082B2F0008D8
:10224C00632F0008872F000874010020024A0349FD
:10225C00034800F069B800BF0C000020A12E000854
:10226C001C00002041680C4B10B59942044601D06B
:10227C0000F010FEA168094B994202D0204600F0F4
:10228C0009FEE168064B994204D02046BDE8104097
:10229C0000F000BE10BD00BF74010020DC01002066
:1022AC004402002010B50B4B0B4C0C4A20461A6014
:1022BC0004210022FFF794FF04F168000122092198
:1022CC00FFF78EFF04F1D0000222BDE8104012216E
:1022DC00FFF786BFAC0200207401002059220008D1
:1022EC00014800F08CB800BFB1020020014800F09A
:1022FC0087B800BFB102002010B50446FFF7F0FF0D
:10230C00236A1BB1BDE81040FFF7F0BF044B2362FA
:10231C00044B1B68002BF5D1FFF7C4FFF2E700BF9D
:10232C0071220008AC0200202DE9F84307468846CC
:10233C0014460026D4E90195B9F1010905D52468A4
:10234C00002CF7D13046BDE8F883AB89012B07D9B7
:10235C00B5F90E30013303D029463846C047064341
:10236C006835E9E70FB407B5064904AB086853F8BC
:10237C00042B8168019300F0C3F903B05DF804EB02
:10238C0004B0704718000020024B014618688268A0
:10239C0000F01BBF1800002003460244934200D1FA
:1023AC00704703F8011BF9E7014B1868704700BF31
:1023BC001800002070B500260C4D0D4C641BA410A9
:1023CC00A64209D101F034F800260A4D0A4C641BD0
:1023DC00A410A64205D170BD55F8043B98470136B0
:1023EC00EEE755F8043B98470136F2E7B83400089D
:1023FC00B8340008B8340008BC3400087047704783
:10240C0070472DE9F0471F468E688246BE420C4647
:10241C0090460B682DD8B1F90C2012F4906F26D091
:10242C006569096905EB4505A3EB010905EBD57554
:10243C007B1C4B446D109D4238BF1D46530527D560
:10244C00294600F097FA064660B34A46216900F027
:10245C0091FFA38923F4906343F08003A381266149
:10246C004E4426603E466561A5EB0905A560BE425B
:10247C0000D93E4632464146206800F0DAFE002084
:10248C00A3689B1BA360236833442360BDE8F087DB
:10249C002A4600F076FD06460028E0D15046216918
:1024AC0000F076FF0C23CAF80030A3894FF0FF3000
:1024BC0043F04003A381E9E72DE9F04F98468B895F
:1024CC0007461B060D4614469DB010D50B6973B913
:1024DC00402100F04FFA2860286130B90C233B6092
:1024EC004FF0FF301DB0BDE8F08F40236B6100232F
:1024FC00099320238DF8293030234FF00109CDF8B2
:10250C000C80DFF898818DF82A3023469A4613F810
:10251C00012B0AB1252AF9D1BAEB040B0BD05B467F
:10252C00224629463846FFF76CFF013000F0A780A1
:10253C00099A5A4409929AF80030002B00F09F80B7
:10254C0000234FF0FF32CDE905230AF1010A049371
:10255C0007938DF853301A935446052214F8011B37
:10256C004E4800F0F9FE049AD8B9D00644BF202397
:10257C008DF85330110744BF2B238DF853309AF844
:10258C0000302A2B15D0544600204FF00A0C079A25
:10259C00214611F8013B303B092B4BD9B0B10792C6
:1025AC0014E0A0EB080309FA03F31343A2460493C7
:1025BC00D2E7039B191D1B680391002BBBBF5B4229
:1025CC0042F0020207930793B8BF049223782E2B94
:1025DC000AD163782A2B32D1039B02341A1D1B6853
:1025EC00039243EAE3730593DFF8B4A00322504649
:1025FC00217800F0B1FE38B14022049BA0EB0A0018
:10260C00824013430134049314F8011B062225481D
:10261C008DF8281000F0A0FE002836D0224B1BBBF2
:10262C00039B073323F0070308330393099B3344BD
:10263C0009936AE70C4601200CFB0232A8E7002341
:10264C004FF00A0C194601340593204610F8012B63
:10265C00303A092A03D9002BC6D00591C4E70446A9
:10266C0001230CFB0121F0E703AB00932A4638460B
:10267C000E4B04A9AFF30080421C0646D6D1AB89A1
:10268C005B063FF52DAF09982CE703AB00932A4668
:10269C003846064B04A900F05FFAEDE784340008D5
:1026AC008A3400088E340008000000000F24000853
:1026BC00936810B4013B002B936007DA9469A34232
:1026CC0001DB0A2902D110BC00F089BC1368581C2C
:1026DC0010601970084610BC7047F8B506460F46D6
:1026EC001446D518AC4201D1002007E03A463046DA
:1026FC0014F8011BFFF7DCFF431CF3D1F8BD0000FD
:10270C002DE9F04F0D461446984606469DB018B17B
:10271C00036A0BB9FFF7F0FD6B6ED90705D4AB89D3
:10272C009A0502D4A86DFFF76AFEAB891B0701D589
:10273C002B699BB92946304600F090FC70B16B6E4A
:10274C00DC0704D54FF0FF301DB0BDE8F08FAB892E
:10275C009805F7D4A86DFFF753FEF3E70023099310
:10276C0020238DF8293030234FF00109CDF80C804F
:10277C00DFF8A8818DF82A3023469A4613F8012BEE
:10278C000AB1252AF9D1BAEB040B0BD05B462246D1
:10279C0029463046FFF7A1FF013000F0A780099AC7
:1027AC005A4409929AF80030002B00F09F800023C5
:1027BC004FF0FF32CDE905230AF1010A0493079388
:1027CC008DF853301A935446052214F8011B5348C4
:1027DC0000F0C2FD049AD8B9D10644BF20238DF86D
:1027EC005330130744BF2B238DF853309AF8003025
:1027FC002A2B15D0544600204FF00A0C079A21467C
:10280C0011F8013B303B092B4BD9B0B1079214E0C6
:10281C00A0EB080309FA03F31343A2460493D2E78F
:10282C00039B191D1B680391002BBBBF5B4242F03D
:10283C00020207930793B8BF049223782E2B0AD178
:10284C0063782A2B32D1039B02341A1D1B68039226
:10285C0043EAE3730593DFF8C8A0032250462178BE
:10286C0000F07AFD38B14022049BA0EB0A008240B4
:10287C0013430134049314F8011B062229488DF8E4
:10288C00281000F069FD00283FD0274B1BBB039B91
:10289C00073323F0070308330393099B3B44099345
:1028AC006AE70C4601200CFB0232A8E700234FF02C
:1028BC000A0C194601340593204610F8012B303AC6
:1028CC00092A03D9002BC6D00591C4E7044601237D
:1028DC000CFB0121F0E703AB00932A463046134B67
:1028EC0004A9AFF300800746781CD6D16B6ED907CC
:1028FC0005D4AB899A0502D4A86DFFF781FDAB898D
:10290C005B063FF51FAF09981EE703AB00932A4601
:10291C003046064B04A900F01FF9E4E784340008A4
:10292C008A3400088E34000800000000E7260008F6
:10293C0070B50F4E0C463168054611B900F0C8FC55
:10294C0030602146284600F0C3FC431C03D14FF0F5
:10295C00FF34204670BDC41C24F00304A042F8D000
:10296C00211A284600F0B4FC0130F2D1EFE700BF89
:10297C00B40200202DE9F843CD1C25F003050835E1
:10298C000C2D38BF0C25002D064601DBA94204D9BD
:10299C000C2333600020BDE8F883DFF8D48000F00E
:1029AC00A1FAD8F800301C4644BB29463046FFF744
:1029BC00BFFF431C044658D1D8F800402746002FCF
:1029CC0043D1002C4BD023683946304604EB030925
:1029DC0000F07EFC814542D1216830466D1A2946B3
:1029EC00FFF7A6FF01303AD023682B442360D8F8B8
:1029FC0000305A6862BBC8F800700FE02268521BA6
:102A0C0020D40B2A17D96119A342256018BF59602D
:102A1C00636808BFC8F8001062514B60304600F084
:102A2C0067FA04F10B00231D20F00700C21A1CBF2B
:102A3C001B1AA350AFE76268A3420CBFC8F8002072
:102A4C005A60EBE723466468AEE73C467F68B6E71E
:102A5C001A465B68A342FBD100235360DEE70C23CC
:102A6C003046336000F044FA94E70560D6E700BFC7
:102A7C00B80200202DE9F047164698468A680B6983
:102A8C0007469342B8BF1346336091F843200C4677
:102A9C00DDF820900AB1013333602368990642BFF8
:102AAC00336802333360256815F0060506D104F14E
:102ABC00190AE36832689B1AAB422BDC94F843305A
:102ACC002268003B18BF0123920630D44146384699
:102ADC0004F14302C847013023D02368226903F074
:102AEC000603042B14BF002533684FF0000608BF03
:102AFC00E56804F11A0408BFED1A54F8123C08BF3B
:102B0C0025EAE5759342C4BF9B1AED18B5421AD15C
:102B1C00002008E00123524641463846C8470130A0
:102B2C0003D14FF0FF30BDE8F0870135C1E730200D
:102B3C00E11881F843005A1C94F8451022440233E2
:102B4C0082F84310C2E70123224641463846C84763
:102B5C000130E6D00136D9E72DE9FF470F7E9146CB
:102B6C00782F80460C469A460C9E01F1430207D8FA
:102B7C00622F0AD8002F00F0D180582F00F0B880B7
:102B8C0004F1420684F842703AE0A7F16303152B76
:102B9C00F6D801A151F823F0FD2B0008112C0008E8
:102BAC008D2B00088D2B00088D2B00088D2B000819
:102BBC00112C00088D2B00088D2B00088D2B000884
:102BCC008D2B00080F2D00083B2C0008C92C000889
:102BDC008D2B00088D2B0008312D00088D2B000843
:102BEC003B2C00088D2B00088D2B0008D12C0008E5
:102BFC0033681A1D1B68326004F1420684F84230B7
:102C0C0001239CE033682068191D3160060601D54C
:102C1C001D6803E04506FBD5B3F90050002D03DA1F
:102C2C002D236D4284F843300A23584811E0216863
:102C3C003368080653F8045B02D4490648BFADB2AA
:102C4C006F2F336014BF0A2308235048002184F8E7
:102C5C0043106668002EA66005DB21682E4321F028
:102C6C00040121604BD01646B5FBF3F103FB115761
:102C7C00C75D06F8017D2F46BB420D46F4D9082BE3
:102C8C000BD12368DF0708D5236961689942DEBF41
:102C9C00302306F8013C06F1FF36921B22614B46AD
:102CAC0021464046CDF800A003AAFFF7E3FE013011
:102CBC004AD14FF0FF3004B0BDE8F087236843F0F1
:102CCC00200323607827324884F8457023683168E4
:102CDC001F0651F8045B02D45F0648BFADB23160E9
:102CEC00D90744BF43F0200323601DB11023ADE787
:102CFC002648E9E7236823F020032360F6E716460D
:102D0C00BDE733682568181D616930602E061B68A5
:102D1C0001D5196002E06806FBD519800023164620
:102D2C002361BCE7336800211A1D32601E6862689B
:102D3C00304600F011FB08B1801B606063682361B2
:102D4C00002384F84330AAE73246494640462369BB
:102D5C00D0470130ADD023689B0713D4E068039BA8
:102D6C009842B8BF1846A6E701233246494640466A
:102D7C00D04701309DD00135E36803995B1AAB4213
:102D8C00F2DCEBE7002504F11906F5E795340008B1
:102D9C00A6340008B1F90C20F8B5160705460C4608
:102DAC0054D44B68002B02DC0B6C002B48DDE66A1C
:102DBC00002E45D0002312F480522F68216A2B601C
:102DCC0030D0626DA389590705D56368D21A636B3D
:102DDC000BB1236CD21A00232846E66A216AB0474D
:102DEC00431CA38906D129681D292BD8284ACA401F
:102DFC00D60727D5002262602269D904226004D547
:102E0C00421C01D12B6803B96065616B2F60B9B1AD
:102E1C0004F14403994202D0284600F0B9FA002389
:102E2C0063630DE001232846B0470246501CC9D10C
:102E3C002B68002BC6D01D2B01D0162B1DD12F605B
:102E4C00002021E043F040031BB21AE00F69002F71
:102E5C00F6D0930718BF00230E6808BF4B69F61B0A
:102E6C000F608B60002EEBDD33463A462846216A14
:102E7C00D4F828C0E047002807DCB4F90C3043F044
:102E8C0040034FF0FF30A381F8BD0744361AE9E741
:102E9C000100402038B50B6905460C4613B90025D6
:102EAC00284638BD18B1036A0BB9FFF725FAB4F9F7
:102EBC000C30002BF3D0626ED00704D4990502D4E9
:102ECC00A06DFFF79CFA28462146FFF763FF636E5F
:102EDC000546DA07E4D4A3899B05E1D4A06DFFF77E
:102EEC008FFADDE70148FFF78ABA00BFB002002075
:102EFC000148FFF785BA00BFB002002010B50C46A0
:102F0C00B1F90E1000F0D2F90028ABBF636DA389A4
:102F1C001B1823F48053ACBF6365A38110BD2DE94E
:102F2C00F0411F468B890546DB050C46164605D538
:102F3C0002230022B1F90E1000F0A6F9A389324643
:102F4C0023F48053A38128463B46B4F90E10BDE808
:102F5C00F04100F0CDB910B50C46B1F90E1000F0EF
:102F6C0093F9431CA38915BF606523F4805343F484
:102F7C008053A38118BFA38110BDB1F90E1000F0CE
:102F8C00C9B92DE9F041074614460D4621B9114641
:102F9C00BDE8F041FFF7EEBC2AB900F0F9F925467F
:102FAC002846BDE8F08100F03BFA8442064602D880
:102FBC00B4EB500FF4D821463846FFF7DBFC8046C3
:102FCC0008B94546ECE7B4422246294628BF3246AA
:102FDC0000F0D0F92946384600F0DAF9F1E7F8B5F7
:102FEC000E461446054618B1036A0BB9FFF784F96F
:102FFC00A369A360A3891A0701D5236943B92146A4
:10300C00284600F02BF818B14FF0FF373846F8BDC2
:10301C0023682269F6B2981A63693746834205DC45
:10302C0021462846FFF736FF0028EDD1A368013B67
:10303C00A36023685A1C22601E706269431C9A426A
:10304C0004D0A389DB07E1D50A2EDFD1214628461F
:10305C00FFF720FF0028D9D0D6E7000038B5294B60
:10306C00054618680C4618B1036A0BB9FFF744F90A
:10307C00B4F90C30190722D4DA0607D409222A60D5
:10308C0043F040034FF0FF30A38133E0580712D5D3
:10309C00616B41B104F14403994202D0284600F01F
:1030AC0077F900236363A38923F02403A38100230E
:1030BC00636023692360A38943F00803A381236918
:1030CC004BB9A38903F42073B3F5007F03D02146D9
:1030DC00284600F03EF8B4F90C3013F001020AD087
:1030EC000022A26062695242A261226942B913F0C5
:1030FC008000C5D138BD990758BF6269A260F4E75A
:10310C000020F7E71800002070B50C46B1F90E103E
:10311C00154600291E4696B00CDAA389002113F03F
:10312C00800F14BF40234FF48063002031602B606C
:10313C0016B070BD6A4600F0FDF80028EDDB019971
:10314C0001F47041A1F50053594259414FF4806389
:10315C00EBE78B89F7B59D0706460C4607D504F1BE
:10316C004703236023610123636103B0F0BD6A460A
:10317C0001ABFFF7C9FF009F054639463046FFF704
:10318C00F9FB48B9B4F90C309A05EED423F00303DB
:10319C0043F00203A381E2E7A389C4E9040743F0E7
:1031AC008003A381019B20605BB13046B4F90E1003
:1031BC0000F05AF828B1A38923F0030343F001036C
:1031CC00A381A3891D43A581CFE770B50D46144695
:1031DC00064618B1036A0BB9FFF78EF8636ED80771
:1031EC0005D4A389990502D4A06DFFF708F9A3684B
:1031FC00013B002BA36005DAA269934212DBEBB210
:10320C000A2B0FD023685A1C22601D70EDB2636E1E
:10321C00DA0705D4A3899B0502D4A06DFFF7F0F85B
:10322C00284670BD294622463046FFF7D8FE054693
:10323C00EDE7884210B501EB020402D98442234623
:10324C0007D8431EA14208D011F8012B03F8012F17
:10325C00F8E7014602448A4200D110BD13F8014D33
:10326C0002F8014DF7E7000038B50023054D044680
:10327C0008462B60FEF7ACFD431C02D12B6803B152
:10328C00236038BDBC02002038B504460846114600
:10329C000022054D2A601A46FEF79CFD431C02D104
:1032AC002B6803B1236038BDBC02002038B504463E
:1032BC00084611460022054D2A601A46FEF762FDAB
:1032CC00431C02D12B6803B1236038BDBC02002023
:1032DC0038B50023054D044608462B60FEF72EFD3D
:1032EC00431C02D12B6803B1236038BDBC02002003
:1032FC0038B50446084611460022054D2A601A4688
:10330C00FEF750FD431C02D12B6803B1236038BD7E
:10331C00BC02002038B50023054D044608462B603E
:10332C00FEF74EFD431C02D12B6803B1236038BD60
:10333C00BC02002038B50023064D04460846114651
:10334C002B60FEF740FD431C02D12B6803B12360B8
:10335C0038BD00BFBC020020034610B5C9B2024400
:10336C009342184601D1002003E0047801338C42CB
:10337C00F6D110BD0A44914200F1FF3300D17047E1
:10338C0010B511F8014B914203F8014FF9D110BD62
:10339C0038B50546002940D051F8043C0C1F002BD1
:1033AC00B8BFE418FFF79EFD1C4A136833B963607D
:1033BC0014602846BDE83840FFF79ABDA34208D9EF
:1033CC00206821188B4201BF19685B6809182160BD
:1033DC00EDE71A465B680BB1A342FAD91168501895
:1033EC00A0420BD120680144501883421160E0D1F7
:1033FC0018685B68084410605360DAE702D90C2344
:10340C002B60D6E7206821188B4201BF19685B68D6
:10341C000918216063605460CBE738BDB802002006
:10342C0051F8043C181F002BBCBF0B58C018704738
:10343C00F8B500BFF8BC08BC9E467047F8B500BF95
:08344C00F8BC08BC9E46704765
:10345400257500000102000002030405060708099F
:103464000A0B0C0D0E0F10100000000001020304E3
:103474000000000000000000010203040607080920
:10348400232D302B2000686C4C0065666745464749
:1034940000303132333435363738394142434445CC
:1034A400460030313233343536373839616263643B
:0434B4006566000049
:0434B8007501000892
:0434BC004D010008B6
:1034C000010000001000000000127A00000000005F
:1034D00003000000740100201C0000200000000018
:1034E00074010020DC0100204402002000000000E4
:1034F00000000000000000000000000000000000CC
:1035000000000000000000000000000000000000BB
:1035100000000000000000000000000000000000AB
:083520000000000000000000A3
:040000050800215D71
:00000001FF
