:020000040800F2
:1000000000000220C55F00080D1000080F10000856
:10001000111000081310000815100008000000005F
:1000200000000000000000000000000017100008A1
:1000300019100008000000001B1000081D10000827
:1000400015600008156000081560000815600008BC
:1000500015600008156000081560000815600008AC
:10006000156000081560000815600008156000089C
:10007000156000081560000815600008156000088C
:10008000156000081560000815600008156000087C
:10009000156000081560000815600008156000086C
:1000A000156000081560000815600008156000085C
:1000B000156000081560000815600008156000084C
:1000C000156000081560000815600008156000083C
:1000D000156000081560000825100008351000089C
:1000E000156000081560000815600008156000081C
:1000F000156000081560000815600008156000080C
:1001000015600008156000081560000815600008FB
:1001100015600008156000081560000815600008EB
:1001200015600008156000081560000815600008DB
:1001300015600008156000081560000815600008CB
:1001400015600008156000081560000845100008DB
:1001500015600008156000081560000855100008BB
:10016000156000081560000815600008156000089B
:100170001560000815600008156000080000000008
:0801800015600008156000087D
:1001900010F8012B11F8013B012A28BF9A42F7D031
:1001A000D01A7047034613F8012B002AFBD1181A06
:1001B000013870470000000000000000000000004F
:1001C00001F0FF01102A2BDB10F0070F08D010F808
:1001D000013B013A8B422DD010F0070F42B3F6D10C
:1001E000F0B441EA012141EA014122F007047FF025
:1001F00000070023F0E80256083C85EA010586EA7C
:10020000010685FA47F5A3FA87F586FA47F6A5FAB7
:1002100087F68EB9EED1F0BC01F0FF0102F00702C3
:1002200032B110F8013B013A83EA010313B1F8D16E
:100230000020704701387047002D06BF354603384F
:10024000073815F0010F07D1013015F4807F02BF88
:10025000013015F4C03F0130F0BC0138704700BFD9
:1002600053B94AB9002908BF00281CBF4FF0FF311D
:100270004FF0FF3000F00CB8ADF1080C6DE904CE82
:1002800007F018FDDDF804E0DDE9022304B0704753
:10029000704700BF0348044B834202D0034B03B1B5
:1002A000184770478C0000208C00002000000000E0
:1002B0000548064B1B1AD90F01EBA301491002D0C8
:1002C000034B03B1184770478C0000208C000020BE
:1002D0000000000010B5064C237843B9FFF7DAFFA1
:1002E000044B13B10448AFF300800123237010BD09
:1002F0008C00002000000000707F000808B5054B4E
:100300001BB105490548AFF30080BDE80840FFF781
:10031000CFBF00BF0000000090000020707F0008E9
:1003200000B583B001904FF6FF73012201A9034885
:1003300004F0D7F9019803B05DF804FB64050020D0
:1003400000B583B001904FF6FF73012201A9034865
:1003500004F0C7F9019803B05DF804FB1C05002008
:1003600000B583B001904FF6FF73012201A9034845
:1003700004F0B7F9019803B05DF804FBD404002041
:1003800010B508B31D4C4FF48051204603F096FA87
:10039000642003F0C7FB4FF40051204603F08EFAAF
:1003A000642003F0BFFB4FF48041204603F086FA3F
:1003B000642003F0B7FB4FF40041204603F07EFABF
:1003C000642003F0AFFB10BD0C4C00224FF48051B1
:1003D000204603F06DFA00224FF40051204603F04E
:1003E00067FA00224FF48041204603F061FA0022B0
:1003F0004FF40041204603F05BFAE4E7000C0240B2
:1004000030B5C1B00346094A4FF48071684605F023
:10041000B5FE0546002404E01DF80400FFF790FF38
:100420000134AC42F8DB41B030BD00BFE0800008D1
:1004300030B5C1B00346094A4FF48071684605F0F3
:100440009DFE0546002404E01DF80400FFF788FF28
:100450000134AC42F8DB41B030BD00BFE0800008A1
:1004600010B50024094B1C602D20094B1860FFF7C4
:10047000C7FF084B1C602046FFF7DAFF064B1C60E5
:10048000064B1C60064B1C6010BD00BFD400002052
:1004900000000020D0000020CC000020C800002078
:1004A000C400002010B584B004460322984906F029
:1004B00053F8002866D006229649204606F04CF8EC
:1004C000002800F0BC8006229349204606F044F83C
:1004D000002800F0CC8006229049204606F03CF827
:1004E000002800F0DF8006228D49204606F034F80F
:1004F000002800F0F38006228A49204606F02CF8F6
:10050000002800F04D8108228749204606F024F893
:10051000002800F05E8104228449204606F01CF881
:10052000002800F0688105228149204606F014F871
:10053000002800F0668105227E49204606F00CF86E
:10054000002840F068817C4B19687C4805F08CFFDE
:100550007B4B19687B4805F087FF7B4B19687B480C
:1005600005F082FF7A4B19687A4805F07DFF7A4BD7
:1005700019687A4805F078FF794B1968794805F0D1
:1005800073FF12E0764B0393734B0293704B01930E
:100590006D4B00936A4B684A7349201D05F030FE8D
:1005A000062804D0714805F0C7FF04B010BD624CA6
:1005B0006B4B1B680293684B1B680193644B1B6871
:1005C0000093614B1B685E4A12682168684805F019
:1005D0004BFF2368674A1268934201D0654A136053
:1005E000574B1868644B1B6898421ED1564B1868CD
:1005F000624B1B6898421DD1554B1B68604A1268BC
:10060000934201D05E4A1360534B1B685D4A1268E7
:10061000934201D05B4A1360514B1B685A4A1268DF
:100620009342C2D0584A1360BFE7534B1860FFF79C
:10063000E7FEDBE7514B1860FFF7FAFEDCE73E4AC6
:100640005249E01D05F0DCFD012803D0474805F0C4
:1006500073FFAAE7384C21684D4805F005FF236871
:10066000444A12689342A0D0424A13609DE7344A3C
:100670004649E01D05F0C4FD012803D03B4805F0C4
:100680005BFF92E72E4C2168424805F0EDFE2068A2
:10069000394B1B68984288D0FFF7B2FE2268364B70
:1006A0001A6082E7284A3949E01D05F0A9FD0128B2
:1006B00003D02E4805F040FF77E7234C21683648E9
:1006C00005F0D2FE20682D4B1B6898423FF46DAFB9
:1006D000FFF7AEFE2268294B1A6066E71C4A2B49D9
:1006E000E01D05F08DFD012803D0204805F024FF12
:1006F0005BE7174C2168294805F0B6FE2368204ABD
:10070000126893423FF451AF1D4A13604DE700BF9A
:10071000947F0008EC7F000808800008248000080F
:10072000408000085C8000087880000898800008FD
:10073000B8800008D0800008D4000020D8800008CD
:1007400000000020E8800008D0000020F8800008A9
:10075000CC00002008810008C80000201881000893
:10076000C400002028810008987F0008D87F000876
:10077000B07F0008BC000020B8000020B4000020BA
:10078000B0000020AC000020A8000020AC7F0008D2
:10079000F47F0008108000082C80000848800008C2
:1007A0001F4A2049E01D05F02BFD012803D01E48FB
:1007B00005F0C2FEF9E61A4C21681C4805F054FE0B
:1007C00023681B4A126893423FF4EFAE184A136045
:1007D000EBE6184A134904F1090005F011FD012860
:1007E00003D0114805F0A8FEDFE6124B1968124845
:1007F00005F03AFED9E6FFF733FE104805F09CFEFF
:10080000D3E60F4A1368B3FA83F35B0913600D480C
:1008100005F092FEC9E621460B4805F025FEC4E628
:10082000C8000020AC7F0008D87F00086480000862
:10083000AC000020C400002084800008A0800008D4
:10084000C0000020C0800008388100080268264BE4
:100850009A4200D0704710B5244B1B889BB2FE2BE8
:100860003BD822490B889BB25A1C92B20A8020497D
:100870000A78D2B21F48C2540B78DBB20A2B05D0DB
:1008800001221B491C4804F07AF910BD174A13884D
:100890009BB201460020C8541080184C204605F039
:1008A000F1FE21461648FFF773FC70B9154913484D
:1008B000FFF76EFC0028E3D0104C2046FFF7F2FD56
:1008C0002146104805F0DEFEDAE72046FFF7EAFD94
:1008D00021460C4805F0D6FED2E7044B00221A80D0
:1008E000094805F029FECBE700440040D80200206B
:1008F000DC030020DC02002064050020D801002079
:10090000D0800008D80000204881000872B6FEE7B9
:1009100000B595B03022002108A805F015FE00238F
:10092000039304930593069307930193214A116C53
:1009300041F080511164126C02F080520192019AD0
:1009400002931D4B1A6842F480421A601B6803F43C
:1009500080430293029B012308934FF48033099351
:1009600002230E934FF480020F92082210924FF44C
:10097000A872119212930723139308A802F080FA29
:1009800098B90F23039302230493002305934FF494
:10099000A05306934FF480530793052103A802F058
:1009A000D9FC20B915B05DF804FBFFF7AFFFFFF7E6
:1009B000ADFF00BF003802400070004008B503F0F2
:1009C00085F8FFF7A5FF00F029F800F0EBF800F03C
:1009D0003FF900F0BBF900F00FFA00F027FA00F041
:1009E0003FFA00F075FB01220849094804F0C7F8F6
:1009F0000120FFF7C5FC074805F09EFD00F088FBCD
:100A0000054B1868FFF7BCFCF8E700BFDC030020CB
:100A1000640500205C810008C00000202DE9F04F33
:100A20008DB000240794089409940A940B940194BF
:100A3000564B1A6B42F010021A631A6B02F0100246
:100A40000192019A02941A6B42F004021A631A6B23
:100A500002F004020292029A03941A6B42F080029E
:100A60001A631A6B02F080020392039A04941A6BC1
:100A700042F001021A631A6B02F001020492049A16
:100A800005941A6B42F002021A631A6B02F002021A
:100A90000592059A06941A6B42F008021A631B6BC2
:100AA00003F008030693069B394E22460821304680
:100AB00002F0FEFEDFF8E09001221146484602F007
:100AC000F7FEDFF8D88022464FF21001404602F0D0
:100AD000EFFE082707970125089509940A9407A9AE
:100AE000304602F0EFFD0795089509940A9407A98E
:100AF000484602F0E7FD07970227089709940A94F1
:100B00004FF0050ACDF82CA007A9484602F0DAFDFF
:100B100007954FF49019CDF82090099407A91D4826
:100B200002F0D0FD0423079308940994DFF870B015
:100B300007A9584602F0C6FD4FF480630793089753
:100B400009940A94CDF82CA007A9584602F0BAFDE2
:100B50004FF210030793089509940A9407A9404699
:100B600002F0B0FD202307930894099407A940469A
:100B700002F0A8FD0797CDF82090099407A9304608
:100B800002F0A0FD0DB0BDE8F08F00BF00380240BC
:100B9000001002400000024000080240000C024029
:100BA0000004024008B50B480B4B03600B4B43603D
:100BB00000238360C3604FF480420261436183611C
:100BC000C361036202F0C2FF00B908BDFFF79EFED9
:100BD000FBE700BFE003002000540040A0860100B6
:100BE00030B589B0002303930493059306930793CC
:100BF0000268144B9A4201D009B030BD002501951E
:100C0000114C236B43F002032363236B03F00203B5
:100C10000193019B4FF41073039312230493012358
:100C200005930423079303A9084802F04BFD02959E
:100C3000236C43F400132364236C03F40013029326
:100C4000029BD9E7005400400038024000040240F3
:100C500008B50B480B4B03604FF400724260002351
:100C60008360C3600261084A42618361C3610362B9
:100C700003F04AF800B908BDFFF748FEFBE700BFE4
:100C800034040020003C00400077010070B58CB0B7
:100C900000230793089309930A930B9303930493F8
:100CA000059306930268254B9A4201D00CB070BDA3
:100CB00001230393C02304930223059303A802F0A6
:100CC0001FFC002837D1002400941D4B1A6C42F4FD
:100CD00000421A641A6C02F400420092009A0194D5
:100CE0001A6B42F001021A631A6B02F001020192C0
:100CF000019A02941A6B42F004021A631B6B03F010
:100D000004030293029B102307930226089609947A
:100D10000A9406250B9507A90A4802F0D3FC4FF464
:100D2000A4530793089609940A940B9507A90648BB
:100D300002F0C8FCBAE7FFF7E9FDC4E7003C004059
:100D400000380240000002400008024008B50D488B
:100D50000D4B03604FF48273436000238360C360D4
:100D6000036143614FF400728261C36103624362B5
:100D700083620A23C36203F0C5FA00B908BDFFF716
:100D8000C5FDFBE77C0400200030014000B589B0C0
:100D90000023039304930593069307930268144B6F
:100DA0009A4202D009B05DF804FB0021019103F5DD
:100DB00084335A6C42F480525A645A6C02F4805262
:100DC0000192019A02911A6B42F001021A631B6BA5
:100DD00003F001030293029BE02303930223049395
:100DE0000523079303A9034802F06CFCDAE700BF70
:100DF000003001400000024008B50A480A4B036079
:100E00004FF4E133436000238360C36003610C222D
:100E100042618361C36103F0FEFB00B908BDFFF7C7
:100E200075FDFBE7640500200044004008B50A4852
:100E30000A4B03604FF4E133436000238360C360D7
:100E400003610C2242618361C36103F0E4FB00B9DA
:100E500008BDFFF75BFDFBE71C05002000480040D4
:100E600008B50A480A4B03604FF4E133436000239E
:100E70008360C36003610C2242618361C36103F03C
:100E8000FAFB00B908BDFFF741FDFBE7D4040020E1
:100E900000140140F0B58DB0002307930893099327
:100EA0000A930B930368514A934207D0504A9342E6
:100EB0002FD0504A93426DD00DB0F0BD0024009465
:100EC0004D4B1A6C42F400321A641A6C02F4003270
:100ED0000092009A01941A6B42F001021A631B6B94
:100EE00003F001030193019B0C2307930223089352
:100EF00003230A9307230B9307A9404802F0E2FB60
:100F000022462146262002F093FD262002F0A0FD75
:100F1000D2E700240294384B1A6C42F480221A64FF
:100F20001A6C02F480220292029A03941A6B42F025
:100F300002021A631A6B02F002020392039A0494EB
:100F40001A6B42F008021A631B6B03F00803049348
:100F5000049B4FF4006307930227089703260A9621
:100F600007250B9507A9264802F0ACFB4FF48073C8
:100F70000793089709940A960B9507A9214802F050
:100F8000A1FB22462146272002F052FD272002F035
:100F90005FFD91E700240594174B5A6C42F0200244
:100FA0005A645A6C02F020020592059A06941A6B54
:100FB00042F004021A631B6B03F004030693069BC2
:100FC000402307931223089303230A9308230B93C8
:100FD00007A90D4802F076FB22462146472002F081
:100FE00027FD472002F034FD66E700BF00440040C3
:100FF0000048004000140140003802400000024058
:1010000000040240000C024000080240FEE7FEE738
:10101000FEE7FEE7FEE770477047704708B502F04D
:101020006FFD08BD08B5024803F04CFC08BD00BFC9
:101030006405002008B5024803F044FC08BD00BF69
:101040001C05002008B5024801F0B4F808BD00BF37
:101050008809002008B5024803F034FC08BD00BF31
:10106000D404002000B583B0002100910C4B5A6CD1
:1010700042F480425A645A6C02F480420092009A10
:1010800001911A6C42F080521A641B6C03F0805379
:101090000193019B072002F0B9FC03B05DF804FB4B
:1010A0000038024004290CD0052902D0022904D0BE
:1010B0007047064B03221A707047044B02221A70C5
:1010C0007047024B01221A70704700BFAC05002028
:1010D00008B501220B490C4803F0FCFE48B90B4946
:1010E000094803F016FF38B9074803F057FF30B935
:1010F00008BDFFF70BFCF2E7FFF708FCF4E7FFF78A
:1011000005FCF5E7A5100008B00500201000002040
:1011100008B5024803F04CFF08BD00BFB005002031
:1011200070B588B000230393049305930693079347
:101130000368B3F1A04F01D008B070BD0025019540
:101140001A4C236B43F001032363236B03F0010369
:101150000193019B4FF400730393154E03A930468E
:1011600002F0B0FA4FF4E053039302230493059581
:1011700006950A23079303A9304602F0A3FA636B8E
:1011800043F0800363630295636C43F480436364BC
:10119000636C03F480430293029B2A462946432052
:1011A00002F046FC432002F053FCC5E70038024041
:1011B0000000024008B5D0F8DC0304F043F808BD95
:1011C00008B5D0F8DC0304F04EF808BD08B5D0F837
:1011D000DC0304F052F808BD704708B5D0F8DC0312
:1011E00004F039F808BD08B5D0F8DC0304F037F88E
:1011F00008BD000090F8CC33012B01D000207047CF
:1012000010B504460F48C0F8DC43C4F8D0034FF0D3
:10121000A0430360082343710123C371002383713A
:1012200002224272837200F01BF940B9054801F0B6
:10123000A8F80146204604F002F8002010BDFFF790
:1012400065FBF3E78809002008B5D0F8D00301F06A
:101250009DF8012804D0022804D020B1012002E02A
:10126000012000E0022008BD08B5D0F8D00301F04D
:1012700082F808BD08B5D0F8D00301F075F808BDB4
:1012800008B590F8CC33012B04D0C82002F04AFCFA
:10129000002008BD084600F06FF8F6E7D0F8D0331C
:1012A000C1EB011003EB8000C07D38B1C1EB01112F
:1012B00003EB810383F83C2000207047C1EB011150
:1012C00003EB810383F83D20F6E708B502F02AFC22
:1012D00008BD022805D8DFE800F00504020001205F
:1012E00070470220704708B5D0F8D00301F010F81D
:1012F000FFF7EFFF08BD08B5D0F8D00301F01DF8E7
:10130000FFF7E7FF08BD08B5D0F8D00301F027F8D4
:10131000FFF7DFFF08BD10B584B0D0F8D003BDF8EB
:10132000204002949DF81C4001949DF818400094C0
:1013300001F03DF8FFF7CDFF04B010BD08B5D0F8BF
:10134000D00300F07BF8FFF7C4FF08BD10B584B0F0
:10135000D0F8D0039DF824400394BDF820400294B7
:10136000079C01949DF81840009400F0C0F8FFF726
:10137000B0FF04B010BD000008B5024600B1012264
:101380000121024802F094FA08BD00BF00080240A3
:10139000F8B50668346A04F00F07C4F34343C4F396
:1013A0000A14022B00D0F8BD0546002CFBD0C7EB79
:1013B000071300EB8303D96A0029F4D0C7EB0713A6
:1013C00000EB83039A6B22445B6B9A4207D9C7EB0D
:1013D000071700EB8705042385F84C30E3E7224626
:1013E000304601F022F9C7EB071305EB8303DA6AF5
:1013F0002244DA629A6B22449A6306EB4716D6F8C7
:1014000010251B8DA342CED10B4B1340002BCAD00D
:10141000D6F8003523F0804343F00043C6F800358A
:10142000C7EB071305EB830393F83C2082F001021E
:1014300083F83C20B7E700BF0000F81F90F8D433D2
:10144000012B0BD010B50446012380F8D43300687B
:1014500001F0E1FA002084F8D40310BD02207047A7
:10146000002842D030B583B00446056890F8D533E3
:10147000BBB1032384F8D533B5F1A04F16D0206853
:1014800001F06EF8237C8DF80030231D0ECB206810
:1014900001F017F868B1022384F8D533012003B0B6
:1014A00030BD80F8D433FFF73BFEE2E70023A371A1
:1014B000E5E70121206801F0ECF820B1022384F86F
:1014C000D5330120EBE7237C8DF80030231D0ECBB4
:1014D000206801F00FF918B9012384F8D533DEE74D
:1014E000022384F8D5330120D9E70120704738B5AD
:1014F0009DF81040BDF81850C1EB011C00EB8C0C9E
:101500008CF817208CF8263094B9C1EB011C00EB45
:101510008C0C4FF0030E8CF82AE09DF81CE08CF840
:1015200019E0032B00F2B180DFE803F00BA84C7A3E
:10153000C1EB011C00EB8C0C4FF0020E8CF82AE082
:10154000EFE7012C40F0A180F2B935B9C1EB0113EE
:1015500000EB8303012283F83D20C1EB011300EB74
:10156000830393F83D303BB9C1EB011300EB8303D8
:10157000002283F82A2088E0C1EB011300EB8303EB
:10158000022283F82A2080E0C1EB011300EB8303E1
:101590009B7E012B79D1C1EB011300EB830393F800
:1015A0003C303BB9C1EB011300EB8303002283F80D
:1015B0002A206AE0C1EB011300EB8303022283F8C7
:1015C0002A2062E0AAB9C1EB011300EB830393F870
:1015D0003D3033B9C1EB011300EB830383F82A20BC
:1015E00053E0C1EB011300EB8303022283F82A20AE
:1015F0004BE0C1EB011300EB830393F83C303BB9A4
:10160000C1EB011300EB8303002283F82A203CE0A6
:10161000C1EB011300EB8303022283F82A2034E09C
:10162000AAB9C1EB011300EB830393F83D3033B942
:10163000C1EB011300EB830383F82A2025E0C1EB03
:10164000011300EB8303022283F82A201DE0C1EB83
:10165000011300EB830393F83C303BB9C1EB01135A
:1016600000EB8303002283F82A200EE0C1EB011374
:1016700000EB8303022283F82A2006E0C1EB01136A
:1016800000EB8303002283F82A20C1EB011300EB57
:101690008303059ADA625D63002283F84C209A6323
:1016A000597583F84D20C1EB0111890010310144B7
:1016B00082790431006801F03FFA38BD30B583B05B
:1016C00004460568D5F840340193D5F840340093BA
:1016D000009B23F02E030093019B13F0020F07D011
:1016E000019B13F0010F25D1009B43F002030093EF
:1016F000019B13F0080F10D0009B43F008030093E8
:10170000019B13F0040F2DD0637A022B15D0E379DF
:10171000012B22D02046FFF760FD019B13F0200F24
:1017200003D0009B43F020030093009BC5F8403496
:1017300003B030BDFFF744FDD6E7019B03F4C0239F
:10174000B3F5802F04D00121206801F053F8E1E7C0
:101750000221206801F04EF8DCE74EF66022C5F861
:101760000424D7E72046FFF73EFDD6E7F8B5054647
:101770000C460668304600F07FFF10F0040F21D0C1
:1017800006EB44130422C3F80825C4EB041305EB4D
:101790008303072283F84D202146286801F03BF996
:1017A0002146286800F068FF10F4007F6CD02146C5
:1017B000286801F030F906EB44164FF40073C6F8C0
:1017C0000835F8BD2146286800F056FF10F4807FE8
:1017D00011D006EB44134FF48072C3F80825C4EB14
:1017E000041305EB8303082283F84D202146286863
:1017F00001F011F9D4E72146286800F03DFF10F010
:10180000080F10D006EB44130822C3F80825C4EBD8
:10181000041305EB8303062283F84D202146286834
:1018200001F0F9F8BCE72146286800F025FF10F424
:10183000806F11D006EB44134FF48062C3F8082583
:10184000C4EB041305EB8303092283F84D202146E2
:10185000286801F0E0F8A3E72146286800F00CFFB3
:1018600010F0800F9CD006EB44138022C3F80825AB
:10187000C4EB041305EB8303072283F84D202146B4
:10188000286801F0C8F88BE72146286800F0F4FECC
:1018900010F0010F7CD006EB441606F5A06720235C
:1018A000BB60C4EB041305EB8303DB7E012B1DD06F
:1018B000AB794BB1C4EB041305EB83031A6B3969A5
:1018C000C1F31201521A9A63C4EB041305EB8303AC
:1018D000012283F84D2000215964BA6093F8263024
:1018E000032B14D8DFE803F00D250D25C4EB0413FA
:1018F00005EB83030022DA767B6823F480337B6078
:10190000D6E72146286801F086F81023BB60AB7942
:10191000012B20D0C4EB041305EB830393F83C3078
:10192000C4EB041405EB840483F0010384F83C3019
:1019300047E7D6F8003543F00053C6F80035C4EB4E
:10194000041305EB8303012283F84C20214628462B
:10195000FFF742FCDBE7C4EB041205EB8202936B5A
:10196000128D1344013BB3FBF2F313F0010F3FF46C
:1019700028AFC4EB041305EB830393F83C30C4EBAE
:10198000041405EB840483F0010384F83C3018E769
:101990002146286800F070FE10F0200F1ED006EBE4
:1019A00044162023C6F80835C4EB041305EB830363
:1019B0009B7E012B7FF405AFC4EB041305EB83037F
:1019C0000122DA76C4EB041305EB8303032283F8C8
:1019D0004D202146286801F01EF8F2E621462868CD
:1019E00000F04AFE10F0020F00F0228106EB4416D0
:1019F00006F5A06202239360C4EB041305EB830396
:101A000093F84D30013B082B1ED801A151F823F06B
:101A1000351A0008C31700088D1B0008E51B0008D5
:101A2000ED1A00085F1A0008751A0008151C000856
:101A3000751A0008C4EB041305EB8303022283F834
:101A40004D20012283F84C20C4EB041305EB8303E3
:101A500093F84C2021462846FFF7BEFBB1E6C4EBC5
:101A6000041305EB8303022283F84D20052283F83B
:101A70004C20E9E7C4EB041305EB8303022183F850
:101A80004D10596C0131596402291AD9C4EB041361
:101A900005EB8303002159649B7E012B07D0C4EB27
:101AA000041305EB8303042283F84C20CCE73C238A
:101AB00003FB0453D9761977536823F480335360BA
:101AC000EDE7C4EB041305EB8303022283F84C20FB
:101AD00093F826300BB19342B6D1D6F8003523F0F7
:101AE000804343F00043C6F80035ADE7C4EB041370
:101AF00005EB8303022183F84D10DB7E012BA3D17C
:101B0000C4EB041305EB830393F82630032B17D0A3
:101B10003C2303FB0453022283F84C20C4EB041340
:101B200005EB830393F826300BB1022B8CD1D6F84A
:101B3000003523F0804343F00043C6F8003583E7C7
:101B40003C2101FB04518B6C01338B64022B16D9B1
:101B50000B4600219964D9765B6C022B04D83C2398
:101B600003FB045301211977536823F48033536036
:101B70003C2303FB0453042283F84C20CEE73C2390
:101B800003FB0453022283F84C20C7E7C4EB041381
:101B900005EB8303022183F84D10DB7E012B7FF4DC
:101BA00053AFC4EB041305EB830383F84C10516867
:101BB00041F480315160D16841F04001D160D16879
:101BC00021F02001D16093F8263013B1022B7FF46D
:101BD0003BAFD6F8003523F0804343F00043C6F80E
:101BE000003531E7C4EB041305EB8303022283F8CD
:101BF0004D2083F84C2093F8263013B193427FF4A4
:101C000023AFD6F8003523F0804343F00043C6F8F5
:101C1000003519E7C4EB041305EB8303022283F8B4
:101C20004D205A6C01325A64042283F84C200BE791
:101C30002146286800F020FD10F0400F18D006EB78
:101C400044134022C3F80825C4EB041305EB8303B7
:101C5000052283F84D209B7E2BB9C4EB041305EBC2
:101C6000830300225A642146286800F0D4FEA8E5C8
:101C70002146286800F000FD10F0100F3FF4A1ADE0
:101C8000C4EB041305EB830393F82630032B28D011
:101C90000BB1022B18D1C4EB041305EB8303002214
:101CA0005A64AB7933B1C4EB041305EB8303DB7ED9
:101CB000012B09D13C2303FB0453042283F84D205C
:101CC0002146286800F0A7FEC4EB041305EB83034C
:101CD000DB7E012B12D006EB44131022C3F808253B
:101CE0006FE53C2303FB045300225A64042283F86B
:101CF0004D202146286800F08EFEE5E7C4EB041372
:101D000005EB83050023EB7606EB4413D3F804259B
:101D100022F48032C3F80425D3F80C2542F02002C7
:101D2000C3F80C25D7E700BF70B505460C4606681A
:101D3000304600F0A1FC10F0040F10D006EB441662
:101D40000423C6F80835C4EB041305EB830307220C
:101D500083F84D202146286800F05DFE70BD2146C5
:101D6000286800F089FC10F0200F4AD006EB4416DA
:101D70002023C6F80835C4EB041305EB83035B7E10
:101D8000012B2DD0C4EB041305EB83039B7E012BA9
:101D9000E4D1C4EB041305EB8303DB7E002BDDD120
:101DA000C4EB041305EB830393F82630012B05D015
:101DB000C4EB041305EB83030122DA762601C4EB9E
:101DC000041305EB8303032283F84D202146286882
:101DD00000F021FE361B05EB860600237364BDE789
:101DE000C4EB041305EB830300225A76022283F826
:101DF0004C20032283F84D202146286800F00BFE7A
:101E0000C0E72146286800F037FC10F4007F0AD0B4
:101E100006EB44164FF40073C6F8083521462868CF
:101E200000F0F9FD9AE72146286800F025FC10F043
:101E3000010F3BD0C4EB041305EB830300225A646B
:101E40002146286800F018FC10F0400F0AD0C4EBBF
:101E5000041305EB830301225A7606EB4413402258
:101E6000C3F80825C4EB041305EB8303DB7E6BB1D9
:101E7000C4EB041305EB83030022DA7606EB44136C
:101E8000D3F8042522F48032C3F8042506EB441667
:101E90000122C6F80825C4EB041305EB830383F87D
:101EA0004D202146286800F0B6FD57E721462868F6
:101EB00000F0E2FB10F0400F1ED0C4EB041305EB62
:101EC0008303052283F84D209B7E2BB9C4EB0413BA
:101ED00005EB830301225A76C4EB041305EB83035D
:101EE00000225A642146286800F095FD06EB44164E
:101EF0004023C6F8083531E72146286800F0BCFBCE
:101F000010F0080F10D006EB44130822C3F8082580
:101F1000C4EB041305EB8303062283F84D2021460E
:101F2000286800F078FD19E72146286800F0A4FB36
:101F300010F0100F20D0C4EB041305EB8303002234
:101F40005A64042283F84D205B7E5BB9C4EB041312
:101F500005EB83031B7E2BB9C4EB041305EB830352
:101F600001225A762146286800F055FD06EB4413FD
:101F70001022C3F80825F1E62146286800F07CFB12
:101F800010F0800F38D0AB79F3B1C4EB041205EB3D
:101F90008202536C01335364022B20D83C2303FB91
:101FA0000453022283F84C2006EB4412D2F8003589
:101FB00023F0804343F00043C2F8003506EB44139E
:101FC0008022C3F80825C9E63C2303FB04530722FB
:101FD00083F84D202146286800F01DFDEEE73C23E4
:101FE00003FB045300225A64042283F84C20214648
:101FF0002846FFF7F1F8E1E72146286800F03CFBAE
:1020000010F4806F10D03C2303FB0453092283F8A3
:102010004D202146286800F0FEFC06EB44134FF4E7
:102020008062C3F8082599E62146286800F024FB61
:1020300010F0020F3FF492AE06EB441606F5A062D4
:10204000022393603C2303FB045393F84D30013B80
:10205000082B3FF683AE01A151F823F08120000840
:102060005D1D0008EF2000080D2100083721000841
:102070005B2100086F2100085D1D00086F2100082A
:102080003C2303FB0453022283F84D20012283F8F2
:102090004C2093F82630023BDBB2934253D8A97907
:1020A00041B93C2303FB045393F83D2082F0010225
:1020B00083F83D20012946D13C2303FB04535B6B8D
:1020C000002B40D03C2202FB0452128D1344013BF2
:1020D000B3FBF2F313F0010F35D03C2303FB0453A1
:1020E00093F83D2082F0010283F83D202BE03C2351
:1020F00003FB0453022283F84D20DB7E012B22D107
:102100003C2303FB045383F84C201CE03C2303FBDB
:102110000453022183F84D1083F84C10DB7E012B11
:1021200011D13C2303FB04530021D976536823F4D7
:102130008033536007E03C2303FB0453022283F8FF
:102140004D2083F84C203C2303FB045393F84C2090
:1021500021462846FFF740F800E63C2303FB0453E2
:10216000022283F84D20052283F84C20EBE73C2324
:1021700003FB0453022283F84D205A6C01325A6447
:10218000022A08D93C2303FB045300225A64042288
:1021900083F84C20D7E73C2303FB0453022283F847
:1021A0004C20D6F8003523F0804343F00043C6F8B6
:1021B0000035C8E7F8B504460568284600F065FA1A
:1021C000012800D0F8BD206800F052FA0028F9D0AC
:1021D000206800F04DFA10F4001F03D023684FF47C
:1021E00000125A61206800F043FA10F4801F03D0F7
:1021F00023684FF480125A61206800F039FA10F019
:10220000806F03D023684FF080625A61206800F02D
:102210002FFA10F0020F02D0236802225A612068C0
:1022200000F026FA10F0005F08D023684FF000524B
:102230005A61D5F8403413F0010F25D0206800F022
:1022400017FA10F0807F32D1206800F011FA10F0F8
:10225000080F30D1206800F00BFA10F0007F31D168
:10226000206800F005FA10F0100FABD022689369D7
:1022700023F0100393612046FFF78AF822689369E0
:1022800043F0100393619DE71021284600F06EF99A
:10229000284600F090F9637A022B03D02046FEF71F
:1022A00095FFCBE70121206800F0A4FAF6E720466D
:1022B000FFF704FAC8E72046FEF77CFF23680822F0
:1022C0005A61C7E7206800F0A1FB0746002604E03A
:1022D000F1B22046FFF728FD01366379B34212D9E7
:1022E00006F00F0327FA03F313F0010FF4D005EB08
:1022F0004613D3F8003513F4004FE9D0F1B220466D
:10230000FFF734FAE8E723684FF000725A61A7E755
:1023100090F8D433012B0ED010B50446012180F87B
:10232000D413006800F0A6FA206800F013F900202A
:1023300084F8D40310BD0220704790F8D433012BE9
:102340000BD010B50446012380F8D433006800F0A8
:102350004DFD002084F8D40310BD0220704708B55D
:10236000006800F068FA08BDC1EB011100EB8100C4
:1023700090F84C007047C1EB011100EB8100806BBD
:10238000704708B5006800F0A3FA08BD08B50068FA
:1023900000F093FA08BDC1EB011200EB82020020AD
:1023A0009076D07682F8250082F8240070472DE9D7
:1023B000F04F85B01F469DF838A09DF83C90BDF8C1
:1023C00040B090F8D433012B54D005460C46164645
:1023D000D846012380F8D433C1EB011300EB83030B
:1023E00000225A761F75597583F8269006F07F02F1
:1023F0009A75FFF7D0FF16F0800F29D1C4EB0413B4
:1024000005EB83030022DA75286800F056FAB9F16B
:10241000010F24D0C4EB041305EB830383F818A049
:102420001FFA88F3C4EB041205EB820213850293B2
:10243000CDF80490CDF800A03B46324621462868EE
:1024400000F04CFA002385F8D43305B0BDE8F08FD6
:10245000C4EB041305EB83030122DA75D4E7BAF168
:10246000010FD7D10028D5D1BBF1BC0FD2D94FF085
:10247000BC08CFE70220E8E782B000230193019B6C
:1024800001330193019BB3F1706F15D80369002BE1
:10249000F5DA00230193036943F001030361019B13
:1024A00001330193019BB3F1706F08D8036913F0F6
:1024B000010FF4D1002000E0032002B07047032098
:1024C000FBE784B010B5044603A880E80E009DF831
:1024D0001130012B21D1A36B23F48033A363E36874
:1024E00023F4840323F04003E360E36823F4401300
:1024F000E3609DF81830012B0AD02046FFF7BCFF9F
:102500009DF80E30012B1CD0BDE8104004B0704780
:10251000E36843F48013E360EFE7E36843F04003CC
:10252000E3602046FFF7A8FF9DF8153023B9A36BA1
:1025300043F48033A363E3E7A36B23F48033A36303
:10254000DEE7A36843F00603A360A36843F020031B
:10255000A360D9E7836843F00103836000207047DC
:10256000836823F0010383600020704782B000235A
:102570000193019B01330193019BB3F1706F15D857
:102580000369002BF5DA00230193890141F0200152
:102590000161019B01330193019BB3F1706F08D876
:1025A000036913F0200FF4D1002000E0032002B0F3
:1025B00070470320FBE782B000230193019B0133A6
:1025C0000193019BB3F1706F13D80369002BF5DA07
:1025D0000023019310230361019B01330193019BAD
:1025E000B3F1706F08D8036913F0100FF4D1002015
:1025F00000E0032002B070470320FBE710B59DF810
:10260000084084B903334FEA930E4FF0000C08E002
:1026100000EB023303F5805351F8044B1C600CF1BE
:10262000010CF445F4D3002010BD10B584460846D3
:102630004FEA920E02F00302002305E00CF58051F0
:10264000096840F8041B01337345F7D37AB10CF5E0
:10265000805CDCF800400021CBB2DB0024FA03F3FD
:1026600000F8013B0131013A92B2002AF4D110BDC9
:10267000426980691040704700EB411000F5A0638B
:10268000D0F80805DB6818407047406900F0010089
:10269000704738B50546C36823F0C043C3600129BD
:1026A00013D019BBC36843F08043C36000240A20E1
:1026B00001F038FA0A342846FFF7E7FF08B1C72CC3
:1026C000F5D9C82C14D0002038BDC36843F000539E
:1026D000C36000240A2001F025FA0A342846FFF7D7
:1026E000D4FF0128EDD0C72CF4D9EAE70120EBE7AD
:1026F0000120E9E784B038B5044605A880E80E005B
:102700000023C4F8003EA36B43F40013A363A36B40
:1027100023F40023A363A36B23F48023A363E36860
:1027200013F0400F11D19DF81730012B06D0D4F8CB
:10273000003423F00403C4F800340CE0D4F800346F
:1027400043F00403C4F8003405E0D4F8003423F067
:102750000403C4F8003410212046FFF707FF0546A4
:1027600000B101252046FFF726FF00B10125002218
:1027700009E004EB42134FF0FF31C3F808150021C4
:10278000C3F80C1501329DF815309342F1D800239F
:10279000A3614FF0FF336361124B9C4217D080233B
:1027A000636203F5C003A3620F4BC4F800319DF8C8
:1027B00016301BB9A36943F01003A361A2690B4B48
:1027C0001343A3612846BDE8384004B070474FF476
:1027D0000073636203F18073A362054BC4F8003198
:1027E000E5E700BF00000440E0004000080020A32F
:1027F0000003E00000F5806CD0F8003423F0030300
:10280000C0F80034D0F8003401F003021343C0F8DC
:102810000034012907D002290BD141F27073CCF8A2
:102820000430002070474BF68033CCF80430002091
:1028300070470120704730B583B0044600250195EC
:10284000D0F840340193019B23F02E030193019BA8
:1028500043F48073C0F84034642001F063F9019BB5
:1028600023F48073C4F840340A2001F05BF9284651
:1028700003B030BD82B000230193D0F840340193FF
:10288000019B23F02E030193019B13F4805F01D180
:1028900001290CD0019B13F4805F05D021B9019B65
:1028A00023F48053C0F84034002002B07047019BED
:1028B00043F48053C0F84034ECE782B00023019326
:1028C000D0F8403401930198C0F3414002B0704702
:1028D00000F58060806880B2704700002DE9F84301
:1028E00091461C469DF8245000EB411606F5A06366
:1028F0004FF0FF329A60032D7AD8DFE805F0026BC3
:10290000021940F29D42DA6019F0800F04D13E4A6C
:10291000904207D0002712E0DA6842F48072DA6051
:1029200000270CE0DA6842F06002DA60002706E077
:1029300040F29D62DA6019F0800F45D10027002235
:102940005A60DA6842F00202DA60D0F8183401F016
:102950000F0101228A401343C0F81834836943F001
:102960000073836119F0800F44D14FF00008FFF726
:10297000A4FF9DF82030022B3FD00022A30503F0D6
:10298000FE534FEAC92909F4F04943EA0903A904AF
:1029900001F440210B43BDF82810C1F30A010B4399
:1029A00043EA0803134343F48013C6F80035032DAC
:1029B00001D0012D05D1D6F8003543F00053C6F8FB
:1029C00000353846BDE8F883DA6842F48072DA6090
:1029D0000027B4E740F22522DA6019F0800F01D118
:1029E0000027ACE7DA6842F4C072DA600027A6E795
:1029F0000127A4E74FF40048B9E7022802D04FF4BA
:102A00000032BBE70022B9E70000044000F5806017
:102A1000406980B2704770B483B00023019300EB2B
:102A2000411101F5A062D1F80035C3F38143D1F81B
:102A300000555468866816F0200F08D0ED0FE40F9B
:102A40002CB9002D5AD0012B58D0032B56D01BB3D4
:102A5000022B21D0D1F8003543F08043C1F8003576
:102A6000D0F8103413F47F0F4CD1D1F8003523F097
:102A70000043C1F80035D1F8003543F00043C1F8F8
:102A80000035019B01330193019BB3F57A7F35D863
:102A90001368002BF5DB31E0D1F8003543F08043BB
:102AA000C1F80035836813F0200F21D1C36A13F4F5
:102AB0007F0F16D1D1F8003523F00043C1F800355F
:102AC000D1F8003543F00043C1F80035019B0133D4
:102AD0000193019BB3F57A7F10D81368002BF5DBC7
:102AE0000CE0D1F8003543F00043C1F8003505E0B3
:102AF000D1F8003543F00043C1F80035002003B0A1
:102B000070BC7047D1F8003543F00043C1F8003580
:102B1000F4E7000000EB4110064AC0F81025D0F899
:102B2000003523F0804343F00043C0F80035002017
:102B3000704700BF0000088070B584B04B78A34C8C
:102B4000A04216D08C79012C2DD00D6A002D5ED0BC
:102B5000B1F814C005EB0C04013CB4FBFCF4A4B2C6
:102B6000B4F5807F54D94FEA0C24CC614FF48074C3
:102B70004EE0012A07D08C88B4F5807FE2D1194657
:102B8000FFF7C8FF1EE18C7C0CB1022CDAD18C79E6
:102B9000002CD7D100EB4314D4F80C5525F0700568
:102BA000C4F80C55CEE7CC781CB18C8ACC610124DA
:102BB00035E08C7C012C05D0012A21D00C6ACC6137
:102BC00001242CE00C6ABC2C0DD98C8ACC610C62DF
:102BD000CC68013C012C02D90124CC601FE0022406
:102BE000CC6001241BE0CC61CC68013C012C03D9F2
:102BF0000424CC60012412E00324CC6001240EE004
:102C00000D6A8C8AA542D9D9CC61012407E0012440
:102C1000CE78002E60D08D8A04FB05F5CD61CD699C
:102C2000C5F3120C6A4D05EAC4444CEA040C8C7DD1
:102C3000640704F0C04400EB431303F5A06E4CEAB4
:102C40000404CEF8104012B18C69CEF8144000F59F
:102C50008065AC6814F0010F0CBF4FF0010C4FF011
:102C6000000CD3F8004524F00054C3F80045D3F815
:102C7000004544EA4C74C3F800458C79012C2DD0F2
:102C80000024CEF80440D3F800450394039C24F0BC
:102C900080440394CC78002C7DD0039C44F4004401
:102CA0000394039C44F000440394039CC3F8004540
:102CB000002A40F08780CB78002B40F083800B6A9D
:102CC000002B7FD0CA79002A7CD18A7C032A72D853
:102CD000DFE802F066806680CD61A0E74E7C0C7C68
:102CE00044EAC61444F00044CEF80440DEF80C4038
:102CF00044F06004CEF80C40CC79012C12D08C7CCE
:102D0000012C1FD0032C1DD08C7C012CBBD1CC7886
:102D1000002CB8D1CC68013C032CB4D8DFE804F017
:102D20001F262D34CC78002CE9D1DEF8044044F481
:102D30008034CEF80440DEF80C4044F04004CEF875
:102D40000C40DCE7CC79012CDED1CC78012CDBD136
:102D5000DEF8044044F48034CEF80440D4E7DEF8D2
:102D6000044044F40044CEF804408CE7DEF804400C
:102D700044F00E04CEF8044085E7DEF8044044F445
:102D80008044CEF804407EE7DEF8044044F440443A
:102D9000CEF8044077E7039C24F40044039480E7D2
:102DA0000333C26A92B2C3F38F03934203D9836998
:102DB00043F020038361002300930B8C4A788969D8
:102DC000FFF71CFC002004B070BD00BF00000440F1
:102DD0000000F81F03332A6992B2C3F38F039A42AB
:102DE000E9D2836943F080638361E4E730B583B05F
:102DF000044600230193FFF7B3FB10212046FFF7A1
:102E0000B5FB054600B101252046FFF7D4FB00B114
:102E1000012500220AE004EB4211D1F8003523F02D
:102E2000802343F08043C1F8003501320F2AF2D9E4
:102E3000002100E001310F2916D804EB411000F504
:102E4000A062D0F8003523F4004343F04043C0F8BB
:102E50000035019B01330193019BB3F57A7FE9D8DB
:102E60001368002BF5DBE5E74FF0FF33C4F81434AB
:102E700063612046FFF76EFB284603B030BD0000BB
:102E8000002800F0E08170B582B00446036813F0BA
:102E9000010F3BD09F4B9B6803F00C03042B2CD0FD
:102EA0009C4B9B6803F00C03082B21D06368B3F59F
:102EB000803F4FD0B3F5A02F52D0964B1A6822F422
:102EC00080321A601A6822F480221A606368002B2C
:102ED00050D000F021FE05468E4B1B6813F4003FD6
:102EE00014D100F019FE401B6428F5D90320B1E18C
:102EF000884B5B6813F4800FD8D0864B1B6813F4A3
:102F0000003F03D06368002B00F09F81236813F01B
:102F1000020F54D07F4B9B6813F00C0F3ED07D4BBB
:102F20009B6803F00C03082B33D0E368002B68D0B8
:102F3000794B01221A6000F0EFFD0546754B1B68C6
:102F400013F0020F54D100F0E7FD401B0228F5D921
:102F500003207FE16F4A136843F480331360B5E7C1
:102F60006C4B1A6842F480221A601A6842F480326C
:102F70001A60ABE700F0D0FD0546664B1B6813F402
:102F8000003FC3D000F0C8FD401B6428F5D90320E2
:102F900060E1604B5B6813F4800FC6D15D4B1B682A
:102FA00013F0020F03D0E368012B40F05081594A1F
:102FB000136823F0F803216943EAC103136023680F
:102FC00013F0080F42D063696BB3534B0122C3F86F
:102FD000802E00F0A1FD05464E4B5B6F13F0020FF3
:102FE00034D100F099FD401B0228F5D9032031E1CE
:102FF000484A136823F0F803216943EAC1031360C8
:10300000DDE7454B00221A6000F086FD0546414B86
:103010001B6813F0020FD2D000F07EFD401B022887
:10302000F5D9032016E13C4B0022C3F8802E00F0B6
:1030300073FD0546374B5B6F13F0020F06D000F0AF
:103040006BFD401B0228F5D9032003E1236813F030
:10305000040F77D02F4B1B6C13F0805F33D100230C
:1030600001932C4B1A6C42F080521A641B6C03F0D3
:1030700080530193019B0125284B1B6813F4807F2B
:1030800023D0A368012B34D0052B38D0214B1A6FE5
:1030900022F001021A671A6F22F004021A67A3686D
:1030A000002B3DD000F038FD06461A4B1B6F13F085
:1030B000020F46D100F030FD801B41F28833984268
:1030C000F3D90320C6E00025D6E7144A136843F479
:1030D0008073136000F020FD0646104B1B6813F44C
:1030E000807FCED100F018FD801B0228F5D9032087
:1030F000B0E0084A136F43F001031367CFE7054BB5
:103100001A6F42F004021A671A6F42F001021A673E
:10311000C5E700BF00380240000047420070004091
:1031200000F0FAFC0646524B1B6F13F0020F08D05A
:1031300000F0F2FC801B41F288339842F3D903205F
:1031400088E0EDB9A369002B00F08380484A9268BB
:1031500002F00C02082A51D0022B17D0454B002256
:103160001A6600F0D9FC0446414B1B6813F0007F3F
:1031700042D000F0D1FC001B0228F5D9032069E001
:103180003B4A136C23F080531364DBE7394B002276
:103190001A6600F0C1FC0546354B1B6813F0007F32
:1031A00006D000F0B9FC401B0228F5D9032051E0FD
:1031B000E369226A1343626A43EA8213A26A5208ED
:1031C000013A43EA0243E26A43EA0263284A53604F
:1031D000284B01221A6600F09FFC0446244B1B6812
:1031E00013F0007F06D100F097FC001B0228F5D9F0
:1031F00003202FE000202DE000202BE0012B2BD01E
:103200001B4B5B6803F48001E269914226D103F015
:103210003F02216A8A4223D1616A47F6C0721A408E
:10322000B2EB811F1ED103F44031A26A5208013A69
:10323000B1EB024F18D103F07063E26AB3EB026F97
:1032400014D1002006E001207047012002E0012097
:1032500000E0002002B070BD0120FBE70120F9E78B
:103260000120F7E70120F5E70120F3E70120F1E76E
:10327000003802400000474208B5334B9B6803F01A
:103280000C03042B5BD0082B5BD12F4B5A6802F048
:103290003F025B6813F4800F2CD02B4B5868C0F3AF
:1032A00088104FEA401CBCEB000C6EEB0E0E4FEA90
:1032B0008E1343EA9C634FEA8C11B1EB0C0163EB74
:1032C0000E03DB0043EA5173C90011EB000C43F11C
:1032D0000003590200234FEA4C2041EADC51FCF77D
:1032E000BFFF194B5B68C3F3014301335B00B0FBC5
:1032F000F3F008BD144B5868C0F388104FEA401C27
:10330000BCEB000C6EEB0E0E4FEA8E1343EA9C638F
:103310004FEA8C11B1EB0C0163EB0E03DB0043EAC7
:103320005173C90011EB000C43F100039902002313
:103330004FEA8C2041EA9C51FCF792FFD1E7034809
:10334000D7E70348D5E700BF0038024000127A00F3
:103350000024F400002800F09B8070B50D46044660
:103360004F4B1B6803F007038B4208D2CBB24C4A89
:103370001370136803F007038B4240F08B802368BF
:1033800013F0020F17D013F0040F04D0454A9368CE
:1033900043F4E0539360236813F0080F04D0414ACC
:1033A000936843F4604393603E4A936823F0F003CC
:1033B000A1680B439360236813F0010F32D0636858
:1033C000012B21D09A1E012A25D9364A126812F003
:1033D000020F61D033498A6822F0030213438B60E5
:1033E00000F09AFB06462F4B9B6803F00C036268C3
:1033F000B3EB820F16D000F08FFB801B41F28833B5
:103400009842F0D9032042E0264A126812F4003FA5
:10341000E0D101203BE0234A126812F0007FD9D1AD
:10342000012034E01E4B1B6803F00703AB4207D9B1
:10343000EAB21B4B1A701B6803F00703AB422DD195
:10344000236813F0040F06D0164A936823F4E05360
:10345000E1680B439360236813F0080F07D0114A0B
:10346000936823F46043216943EAC1039360FFF743
:1034700003FF0C4B9B68C3F303130B4AD35CD84088
:103480000A4B18600A4B186800F0FAFA002070BD69
:10349000012070470120FAE70120F8E70120F6E754
:1034A000003C0240003802407C8100080C000020F3
:1034B00008000020014B1868704700BF0C00002076
:1034C00008B5FFF7F7FF044B9B68C3F38223034A59
:1034D000D35CD84008BD00BF0038024074810008AA
:1034E00008B5FFF7E7FF044B9B68C3F34233034A79
:1034F000D35CD84008BD00BF00380240748100088A
:1035000030B583B00446036813F0050F06D1236875
:1035100013F0020F2ED1002003B030BD4A4B002221
:103520009A6600F0F9FA0546484B1B6813F0006FE5
:1035300006D000F0F1FA431B022BF5D90320EBE78C
:103540006268A3681B0743EA8213404AC2F88430CA
:103550003D4B01229A6600F0DFFA05463B4B1B68A3
:1035600013F0006FD3D100F0D7FA431B022BF5D92B
:103570000320D1E700230193344B1A6C42F08052B0
:103580001A641B6C03F080530193019B304A13684B
:1035900043F48073136000F0BFFA05462C4B1B68A0
:1035A00013F4807F06D100F0B7FA431B022BF5D944
:1035B0000320B1E7254B1B6F13F4407314D0E2686E
:1035C00002F440729A420FD0204B1A6F22F44072DC
:1035D0001D490120C1F8400E0020C1F8400E1A67B5
:1035E0001B6F13F0010F13D1E36803F44072B2F5BF
:1035F000407F1ED0154A936823F4F8139360134953
:103600000B6FE268C2F30B0213430B67002083E7E2
:1036100000F082FA05460D4B1B6F13F0020FE3D149
:1036200000F07AFA401B41F288339842F3D9032024
:1036300072E706498A6822F4F81223F0704323F4F3
:10364000407313438B60DAE70000474200380240C2
:1036500000700040012801D000207047154B9B6886
:1036600013F4000302D01BB313487047114B5B687F
:1036700013F4800F14D00F4B5A6802F03F020F4B27
:10368000B3FBF2F30B4AD2F88400C0F3881003FBBB
:1036900000F0D2F88430C3F30273B0FBF3F070474C
:1036A000044B5A6802F03F02054BB3FBF2F3E9E723
:1036B00000207047003802400080BB0000127A00F2
:1036C0000024F40000230F2B00F2E98070B582B0D3
:1036D00065E085684FEA430E032404FA0EF425EAF8
:1036E0000405CC6804FA0EF42C438460446824EA90
:1036F00002044A68C2F300129A40224342605CE02E
:10370000DC08083450F8242003F00705AD004FF022
:103710000F0E0EFA05FE22EA0E0E0A69AA4042EAD0
:103720000E0240F824205CE0072200E0002202FAAA
:103730000EF22A4302345A4D45F82420594A94681F
:103740006FEA0C0224EA0C054E6816F4801F01D0C3
:103750004CEA0405534CA560E46802EA04054E688F
:1037600016F4001F01D04CEA04054E4CE560646875
:1037700002EA04054E6816F4003F01D04CEA040545
:10378000484C6560246822404D6815F4803F01D0A4
:103790004CEA0402434C226001330F2B7DD80122F6
:1037A0009A400C6804EA020C32EA0404F4D14C6832
:1037B00004F00304013C012C8BD94A6802F0030297
:1037C000032A09D0C4685D000322AA4024EA020447
:1037D0008A68AA402243C2604A6802F00302022AB1
:1037E0008ED004684FEA430E032202FA0EF224EA56
:1037F00002044A6802F0030202FA0EF22243026057
:103800004A6812F4403FC7D000220192264A546C05
:1038100044F480445464526C02F480420192019A50
:103820009C08A51C1E4A52F8255003F0030E4FEACF
:103830008E0E0F2202FA0EF225EA02051B4A904272
:103840003FF474AF02F5806290421AD002F58062B4
:10385000904218D002F58062904216D002F5806244
:10386000904214D002F58062904212D002F580623C
:10387000904210D002F5806290423FF455AF08228A
:1038800055E7012253E7022251E703224FE70422C2
:103890004DE705224BE7062249E702B070BD7047AD
:1038A00000380140003C0140003802400000024066
:1038B0000AB181617047090481617047436901EA77
:1038C000030221EA030141EA02418161704770B5B8
:1038D0000446866D00F020F994F83530DBB2022BF7
:1038E00006D080236365002384F83430012070BD46
:1038F00005462268136823F0160313602268536993
:1039000023F080035361236CE3B12268136823F032
:10391000080313602268136823F00103136023680F
:103920001B6813F0010F11D000F0F6F8431B052BB4
:10393000F5D920236365032084F83500002384F83B
:103940003430D4E7A36C002BDFD1E3E7E26D3F23F3
:103950009340B360012384F83530002084F83400AC
:10396000C5E790F83530DBB2022B03D080234365E6
:1039700001207047052380F835300268136823F072
:103980000103136000207047002807DB00F01F02CE
:10399000400901239340024A42F82030704700BF9B
:1039A00000E100E0002808DB0901C9B200F1604035
:1039B00000F5614080F80013704700F00F00090126
:1039C000C9B2014B1954704714ED00E000B500F086
:1039D0000700C0F1070CBCF1040F28BF4FF0040C26
:1039E000031D062B0FD9C31E4FF0FF3E0EFA0CF03D
:1039F00021EA000199400EFA03FE22EA0E0241EA92
:103A000002005DF804FB0023EEE70000074AD368DC
:103A100023F4E0631B041B0C000200F4E06003438A
:103A200043F0BF6343F40033D360704700ED00E020
:103A300010B50446054BD868C0F30220FFF7C6FF57
:103A400001462046FFF7AEFF10BD00BF00ED00E0CD
:103A500008B5FFF799FF08BD0138B0F1807F0BD2A0
:103A60004FF0E0235861054AF02182F8231000202E
:103A7000986107221A6170470120704700ED00E04D
:103A800010B504460E4B1A784FF47A73B3FBF2F379
:103A90000C4A1068B0FBF3F0FFF7DEFF68B90F2C9B
:103AA00001D901200AE0002221464FF0FF30FFF744
:103AB000BFFF054B1C60002000E0012010BD00BFCF
:103AC000040000200C0000200800002008B50B4B6B
:103AD0001A6842F400721A601A6842F480621A602E
:103AE0001A6842F480721A600320FFF78FFF0020EB
:103AF000FFF7C6FFFDF7B6FA002008BD003C024004
:103B0000034A1168034B1B780B441360704700BFD6
:103B1000680D002004000020014B1868704700BFAA
:103B2000680D002038B50446FFF7F6FF0546B4F1EE
:103B3000FF3F02D0044B1B781C44FFF7EDFF401BF6
:103B4000A042FAD338BD00BF04000020002800F0D6
:103B5000CC8070B5044690F83D30002B77D02423FC
:103B600084F83D302268136823F001031360226853
:103B7000136843F4004313602268136823F400437E
:103B80001360FFF79DFC62685A4B9A4264D85A4B07
:103B900098428CBF00230123002B40F0A880574996
:103BA000A1FB00318B0C25686A6822F03F0242EAD3
:103BB00091426A6021680A6A22F03F0266684D4DB0
:103BC000AE424FD8013313430B622168CA6922F415
:103BD0004F4222F0FF026568464B9D424CD8431E7F
:103BE0006D00B3FBF5F3013340F6FC70034278D06F
:103BF000C3F30B031A43CA6121680B6823F0C003A7
:103C0000E269206A024313430B6021688B6823F446
:103C1000034323F0FF032269E068024313438B60F0
:103C20002168CB6823F0FF036269A0690243134354
:103C3000CB602268136843F0010313600020206406
:103C4000202384F83D30206384F83E0070BD80F866
:103C50003C30FCF7C5FF82E7294B98428CBF00231C
:103C6000012399E74FF4967505FB03F3254DA5FB5A
:103C700003539B090133A6E7A668BEB9431E05EBB3
:103C8000450CB3FBFCF30133C3F30B03B3FA83F32B
:103C90005B0943BBC6B9431E05EB4505B3FBF5F312
:103CA0000133C3F30B0343F40043A3E7431E05EBC7
:103CB000850C0CEB8C0CB3FBFCF30133C3F30B034F
:103CC000B3FA83F35B09E4E7431E05EB850505EBD7
:103CD0008505B3FBF5F30133C3F30B0343F4404312
:103CE00088E7042386E7012384E701207047012049
:103CF000ACE700BFA08601007F841E0083DE1B436B
:103D0000FF083D00D34D6210002800F0BF8038B599
:103D1000044690F84130002B51D0022284F8412013
:103D20002168CB6923F47B6323F00F03CB61236805
:103D30001A626369934263D0E368002B46D1102571
:103D4000A368202B00D86D000120FFF783FC2369B6
:103D5000B3F5007F3CD0B0FBF5F000EB80004300F2
:103D60006269B3FBF2F30533494AA2FB0323C3F3B1
:103D7000C002C2EBD3035B0811029A1EFD2A41D890
:103D800022690A4321681A430A622168CB6923F435
:103D90007B6323F00F036268A0680243E06802437C
:103DA000A0690243134343F40063CB61236A012BF0
:103DB0002ED000206064012384F8413038BD80F8A3
:103DC0004030344B4363FCF761FFA6E72025B7E79B
:103DD000E36853B1AD00B0FBF5F000EB80004300A9
:103DE0006269B3FBF2F30533BEE7ED00B0FBF5F01B
:103DF00000EB800043006269B3FBF2F30533B3E7E5
:103E00000021BAE7636C43F0100363640120D5E737
:103E1000214B63632268214B9A421FD04FF040220E
:103E2000D36923F47B6323F00F03D36122681B4B18
:103E30009A4215D04FF0402302221A622268174B93
:103E40009A4210D04FF04025EB699BB26268B2F500
:103E5000007F0AD0C2B94FF4807008E0104ADFE753
:103E6000A3F58063E8E70E4DEEE74FF48070B4F8F9
:103E700008C0A189228B40EA0C0001430A43134386
:103E800043F40063EB6194E70020F0E70120704702
:103E9000CDCCCCCC1B3F00082D41000800380040A1
:103EA00000340040704708B5426A03681288DA603F
:103EB000436A02334362438D9BB2013B9BB243850D
:103EC000438D9BB203B108BD0268536823F0A00381
:103ED0005360012380F84130FFF7E4FFF3E77047B8
:103EE00008B50368DA68C36A1A80C36A0233C3621A
:103EF000438E9BB2013B9BB24386438E9BB203B180
:103F000008BD0268536823F060035360012380F802
:103F10004130FFF7E4FFF3E7704710B584B0044683
:103F200002689368039390F84130DBB2042B06D00B
:103F300094F84130DBB2032B2CD004B010BD039BAE
:103F400013F0010F03D0536813F0400F1FD1039BF0
:103F500013F0400FECD023685A6812F0200FE7D01E
:103F60005A6822F060025A60002301932368DA68DD
:103F700001929B680193019B012384F84130636C9B
:103F800043F0020363642046FFF7C6FFD0E7FFF764
:103F9000A7FFDCE7039B13F0020F04D023685B68E4
:103FA00013F0800F1DD1039B13F0080FC5D02368B9
:103FB0005A6812F0200FC0D05A6822F0A0025A604E
:103FC0000023029323689B680293029B012384F8D9
:103FD0004130636C43F0040363642046FFF79CFFA9
:103FE000ABE72046FFF75FFFDDE7704708B5436AA0
:103FF0009A1C426202681B88D360438D9BB2013BCE
:104000009BB24385438D9BB23BB90268536823F052
:10401000A0035360438E9BB203B108BD012380F817
:104020004130FFF7E2FFF8E708B50268154B9A4206
:104030001CD04FF04023DA68C36A991CC1621A8011
:10404000438E9BB2013B9BB24386438E9BB263B9C6
:1040500002680C4B9A420CD04FF04022536823F078
:1040600060035360438D9BB22BB108BDA3F5806301
:10407000E1E7054AF2E7012380F84130FFF7B5FF99
:10408000F3E700BF003800400034004008B5436A41
:104090009A1C42621A880168134B994218D04FF05B
:1040A0004023DA60438D9BB2013B9BB24385438D35
:1040B0009BB263B902680C4B9A420CD04FF040227D
:1040C000536823F0A0035360438E9BB22BB108BD0D
:1040D000A3F58063E5E7054AF2E7012380F8413064
:1040E000FFF783FFF3E700BF0038004000340040D3
:1040F00008B50368DA68C36A991CC1621A80438EE6
:104100009BB2013B9BB24386438E9BB23BB9026894
:10411000536823F060035360438D9BB203B108BD25
:10412000012380F84130FFF760FFF8E710B586B053
:10413000044603689A680592704A93426FD04FF024
:104140004022916804915B6803935368029363680B
:10415000B3F5007F01D0002B70D1059B13F0020F47
:1041600003D0039B13F0800F5CD1049B13F0010F6D
:1041700003D0029B13F0400F58D1049B13F0400F63
:1041800024D0029B13F0200F20D022685B4B9A4270
:1041900050D04FF04022536823F0600353602268F0
:1041A000536823F0A0035360002300932368DA6868
:1041B00000929B680093009B012384F84130636C5C
:1041C00043F0020363642046FFF7A6FE059B13F04D
:1041D000080F22D0039B13F0200F1ED022685368D3
:1041E00023F0A00353602268444B9A4224D04FF03E
:1041F0004022536823F06003536000230193236837
:104200009B680193019B012384F84130636C43F068
:10421000040363642046FFF77FFE06B010BDA2F5DD
:1042200080628EE72046FFF7E1FE9EE72046FFF71B
:10423000FBFEA2E7324AAEE7314ADAE7049B13F00D
:10424000020F03D0029B13F0800F4AD1059B13F09D
:10425000010F03D0039B13F0400F46D1059B13F0D1
:10426000400F1CD0039B13F0200F18D02268536816
:1042700023F0600353602268204B9A4239D04FF0FC
:104280004022536823F0A0035360012384F8413097
:10429000636C43F0020363642046FFF73DFE049B1A
:1042A00013F0080FB9D0029B13F0200FB5D022688D
:1042B000124B9A421FD04FF04022536823F0A003C4
:1042C00053602268536823F060035360012384F82D
:1042D0004130636C43F0040363642046FFF71CFE27
:1042E0009BE72046FFF7D2FEB0E72046FFF700FF2E
:1042F000B4E7034AC5E7024ADFE700BF00380040E1
:104300000034004000285AD010B50446436A33B93F
:104310004368B3F5827F05D00023C36102E0002328
:10432000036143610023A36294F85130002B40D015
:10433000022384F851302268136823F0400313608D
:10434000636803F48273A26802F404421343E268D0
:1043500002F400621343226902F00202134362690D
:1043600002F001021343A26902F400721343E269EE
:1043700002F038021343226A02F080021343A26A59
:1043800002F40052216813430B60638B03F00403B3
:10439000626A02F01002216813434B602268D369FD
:1043A00023F40063D36100206065012384F8513059
:1043B00010BD84F850302046FCF7E8FCB8E7012037
:1043C0007047026802F10C0353E8003F23F4907336
:1043D0000C3242E800310029F3D1026802F11403E3
:1043E00053E8003F23F00103143242E80031002972
:1043F000F3D1036B012B05D0202380F8423000233A
:1044000003637047026802F10C0353E8003F23F096
:1044100010030C3242E800310029F3D1ECE790F8A8
:104420004130DBB2212B01D0022070478368B3F505
:10443000805F17D0036A5A1C02621A7803685A60B8
:10444000C38C9BB2013B9BB2C3844BB90268D36857
:1044500023F08003D3600268D36843F04003D36045
:10446000002070470369002BE4D1036A1B880268AF
:10447000C3F308035360036A02330362E0E70000FA
:1044800010B504460268136923F44053C1680B4316
:104490001361836802691A4343691A43C3691A4363
:1044A0000168CB6823F4164323F00C031343CB605D
:1044B0000268536923F4407381690B4353610368B5
:1044C000314A934206D002F58062934202D0FEF751
:1044D000F7FF01E0FFF704F8E369B3F5004F29D0D7
:1044E0000021031849411B1841F10001C90041EAAC
:1044F0005371DB00181863684FEA83024FEA937325
:1045000041F10001FBF7ACFE204AA2FB0031490952
:10451000642303FB11031B013233A2FB03235B095A
:1045200003F0F00202EB011203F00F0321681344C1
:104530008B6010BD0023021843EB0301121841F1F8
:104540000001C90041EA5271D200101841F1000186
:10455000626892185B41FBF783FE0C4AA2FB0031B4
:104560004909642303FB1103DB003233A2FB03235D
:104570005B095A0002F4F87202EB011203F0070320
:10458000216813448B60D4E7001001401F85EB5174
:104590002DE9F04383B005460E4617469946DDF8EF
:1045A00028802B681C6836EA04040CBF0124002410
:1045B000BC4228D1B8F1FF3FF3D0FFF7ADFAA0EB32
:1045C0000900404523D8B8F1000F22D02B68DA68E3
:1045D00012F0040FE5D0802EE3D0402EE1D01A680F
:1045E00012F0080FDDD0002401941A6801925B6874
:1045F0000193019B2846FFF7E4FE08236B6485F8CE
:104600004040012000E0002003B0BDE8F08303201B
:10461000FAE70320F8E760B310B5044690F841309C
:1046200013B3242384F841302268D36823F4005361
:10463000D3602046FFF724FF2268136923F49043D8
:1046400013612268536923F02A0353612268D368F7
:1046500043F40053D36000206064202384F8413089
:1046600084F84230606310BD80F84030FCF712FCE3
:10467000D7E701207047002831D010B5044690F8E4
:1046800041303BB3242384F841302268D36823F4BB
:104690000053D3602046FFF7F3FE2268136923F42A
:1046A000904313612268536923F022035361226807
:1046B000536943F0080353612268D36843F40053FD
:1046C000D36000206064202384F8413084F84230B5
:1046D000606310BD80F84030FCF7DCFBD2E70120BE
:1046E00070472DE9F04182B01E4690F84130DBB2B0
:1046F000202B56D104460D469046002955D00AB9C4
:1047000001204FE000234364212380F84130FFF76C
:1047100003FA0746A4F82480A4F82680A368B3F51A
:10472000805F02D04FF0000814E023692BB34FF0F4
:1047300000080FE0202384F84130032032E038F8ED
:10474000023B2268C3F308035360E28C92B2013A41
:1047500092B2E284E38C9BB293B100963B46002276
:1047600080212046FFF714FF0028E3D1002DE6D07A
:1047700015F8012B23685A60E7E7A8460025E9E70A
:1047800000963B46002240212046FFF701FF18B962
:10479000202384F8413005E0202384F841300320B1
:1047A00000E0022002B0BDE8F0810120FAE7704786
:1047B00008B50168CA6822F04002CA60202280F869
:1047C0004120FFF7F4FF002008BD704708B5806B5B
:1047D0000023C385C384FFF7F8FF08BD704790F836
:1047E0004230DBB2222B69D18368B3F5805F4FD0B2
:1047F000826AB3F5805F04D0002B56D10369002B89
:1048000053D103685B681370836A01338362C38D7D
:104810009BB2013B9BB2C385002B51D100B583B045
:104820000268D36823F02003D3600268D36823F4BE
:104830008073D3600268536923F00103536120231E
:1048400080F8423000234363036B012B33D10023F4
:104850000363026802F10C0353E8003F23F01003E6
:104860000C3242E800310029F3D103681A6812F0D3
:10487000100F06D0002201921A6801925B68019322
:10488000019B818DFFF7AAFF002003B05DF804FBB8
:104890000269002AACD1826A03685B68C3F308032B
:1048A0001380836A02338362B1E703685B6803F0B5
:1048B0007F031370A8E7FBF7C9FFE5E70220704705
:1048C0000020704710B582B0044602681368D068B3
:1048D000516913F00F0F09D113F0200F0CD010F015
:1048E000200F09D02046FFF77AFF16E011F00101F2
:1048F00015D110F4907F12D1216B012979D013F0DA
:10490000800F03D010F0800F40F0148113F0400F9F
:1049100003D010F0400F40F0118102B010BD13F031
:10492000010F06D010F4807F03D0626C42F00102C8
:10493000626413F0040F04D019B1626C42F00202F9
:10494000626413F0020F04D019B1626C42F00402E9
:10495000626413F0080F07D010F0200F00D119B1D6
:10496000626C42F008026264626C002AD5D013F0D7
:10497000200F02D010F0200F29D123685B6903F0CB
:104980004003626C12F0080F00D163B32046FFF7BA
:1049900018FD23685B6913F0400F20D0226802F1F4
:1049A000140353E8003F23F04003143242E800317F
:1049B0000029F3D1E36B73B1624A1A65E06BFEF72D
:1049C000D0FF0028A9D0E06B036D9847A5E72046EB
:1049D000FFF705FFD1E72046FFF7F7FE9DE72046EA
:1049E000FFF7F3FE99E72046FFF7EFFE002363642D
:1049F00093E713F0100F82D010F0100F3FF47FAF49
:104A0000002301931368019353680193019B536939
:104A100013F0400F52D0E26B13685B689BB2002B1F
:104A20003FF47BAFA18D99427FF677AFE385D369E1
:104A3000B3F5807F37D0226802F10C0353E8003FC2
:104A400023F480730C3242E800310029F3D122684C
:104A500002F1140353E8003F23F00103143242E84B
:104A600000310029F3D1226802F1140353E8003F1A
:104A700023F04003143242E800310029F3D120230F
:104A800084F8423000232363226802F10C0353E8C8
:104A9000003F23F010030C3242E800310029F3D12B
:104AA000E06BFEF714FF02236363A18DE38D9BB2DD
:104AB000C91A89B22046FFF791FE2EE7A18DE38D3A
:104AC0009BB2C91A89B2E38D9BB2002B3FF425AF8C
:104AD00000293FF422AF226802F10C0353E8003FA3
:104AE00023F490730C3242E800300028F3D122689E
:104AF00002F1140353E8003F23F00103143242E8AB
:104B000000300028F3D1202384F8423000232363AF
:104B1000226802F10C0353E8003F23F010030C322B
:104B200042E800300028F3D1022363632046FFF7F8
:104B300055FEF2E62046FFF772FCEEE62046FFF750
:104B400037FEEAE6CD47000881628285C2850023F0
:104B50004364222380F84230036923B10268D3689A
:104B600043F48073D3600268536943F001035361D7
:104B70000268D36843F02003D3600020704708B573
:104B800090F84230DBB2202B08D149B10AB901209C
:104B900008BD00230363FFF7D7FFF9E70220F7E71B
:104BA0000120F5E7034AD2F8883043F47003C2F8D5
:104BB0008830704700ED00E008B50378DBB20B2BBE
:104BC00000D008BDD0F87C33002BFAD09B69984701
:104BD000F7E738B50446002306E003F1E00204EBF2
:104BE00082020021516001330F2BF6D9002304E02B
:104BF000E218002182F81C110133B3F5007FF7D3CE
:104C00000025257065700123A370C4F8C453237672
:104C10004022A271657684F81C5384F81D3384F811
:104C20001F5384F81E534FF48072294604F11C0070
:104C300001F08AFC4FF40072294604F58E7001F0F1
:104C400083FCC4F82653C4F82A53C4F82E53C4F87E
:104C50003253A4F836533E22294604F54E7001F033
:104C600073FC284638BD70B584B004464578072DDE
:104C700000F22C81DFE815F00800480069009A0076
:104C8000BF00E500FE001701082100F015FE18B175
:104C9000032821D0012509E194F82D33A3710125C2
:104CA000657002930026019694F81D33009394F8E2
:104CB0001C3380222179204600F009FFA37902935A
:104CC000019694F81D33009394F81C3332466179B1
:104CD000204600F0FCFEE9E094F81E330133DBB21D
:104CE00084F81E33032B03D90D2323700125DDE047
:104CF0006179204600F013FF2179204600F00FFF74
:104D0000002323700125D1E0122100F0D5FD10B958
:104D100002236370CAE0032840F0C88094F81E3371
:104D20000133DBB284F81E33032B02D90D23237029
:104D3000BCE06179204600F0F2FE2179204600F0C7
:104D4000EEFE002363702370B0E0012100F00AFE44
:104D500018B1032824D00125A8E00220FCF7B5FAF9
:104D6000012584F81C5303236370A3790293002662
:104D7000019694F81D3300932B468022217920461A
:104D800000F0A5FEA3790293019694F81D330093D9
:104D900094F81C3332466179204600F098FE85E095
:104DA0000D2323700023637001257FE0092100F0AB
:104DB0009EFD18B904236370012577E0032801D014
:104DC000012573E094F81E330133DBB284F81E33FF
:104DD000032B03D90D232370012567E06179204659
:104DE00000F09DFE2179204600F099FE00236370BB
:104DF000237001255AE0B0F83A1300F078FD18B995
:104E000005236370012551E0032801D001254DE001
:104E100094F81E330133DBB284F81E33032B03D91D
:104E20000D232370012541E06179204600F077FED3
:104E30002179204600F073FE002363702370012562
:104E400034E090F8341319B90623437001252DE09E
:104E5000FF2300F58E7200F065FD18B9062363701C
:104E6000012523E0032801D001251FE006236370FC
:104E700001251BE090F8351319B90723437001256C
:104E800014E0FF2300F58E7200F04CFD18B90723E3
:104E9000637001250AE0032801D0012506E00723FD
:104EA0006370012502E090F8365315B9284604B026
:104EB00070BDFF2300F58E72294600F033FD0546D4
:104EC0000028F3D0032803D00125EFE70125EDE703
:104ED0000025EBE7D8B170B50E46044680F8CC2328
:104EE0000025C0F87C53C0F88053FFF772FE84F8A9
:104EF000235384F8205384F8215384F822530EB1AD
:104F0000C4F8D4632046FCF775F9002070BD022078
:104F100070470A4651B1D0F880334BB9591CC0F8DC
:104F20008013DE3340F823200020704702207047B2
:104F30000220704790F83C338B4203D980F8241349
:104F4000002070470220704710B5044600200BE097
:104F50004FF01A0C0CFB0E4E9EF849C39C451CD01A
:104F6000FF2B1AD00130C0B2012815D886464FF069
:104F70001A0C0CFB004C9CF847C38C4501D0FF2950
:104F8000F0D14FF01A0C0CFB0E4C9CF848C3944522
:104F9000DED0FF2AE6D1DBE7FF2010BD10B50446C6
:104FA000FCF7A1F901212046FCF76AF9002010BDA9
:104FB00030B587B0044602238DF8173090F82133BE
:104FC000DBB2012B11D02378DBB20B2B7BD8DFE8CF
:104FD00013F00F002100450011017A007D00EE0062
:104FE00092009C00A600C200080103230370EAE7B8
:104FF00094F82033002B66D001232370C820FCF7DF
:1050000064F92046FCF77FF9002384F81C33C4F8C8
:10501000C83358E094F82333012B0FD0D4F8C833A9
:10502000B3F57A7F13D994F81F330133DBB284F8D8
:105030001F33032B08D90D23237044E0002384F889
:105040001F33022323703EE0002323703BE00A332A
:10505000C4F8C8330A20FCF738F934E0D4F8D43364
:1050600013B10421204698476420FCF72EF920460E
:10507000FCF7EAF884F81D0305232370002120467D
:1050800000F03AFD60718021204600F035FD0146B8
:105090002071A37902930025019594F81D330093A4
:1050A00094F81C338022204600F011FDA37902936E
:1050B000019594F81D33009394F81C332A466179C6
:1050C000204600F004FD002007B030BD2046FFF769
:1050D000CAFD8DF817009DF81730002BF3D184F826
:1050E000243394F83733012B02D007232370EAE7E7
:1050F00008232370E7E7D4F8D433002BE3D0012151
:105100002046984708232370DDE794F83D13204696
:1051100000F039FC0028D6D109232370D3E794F896
:105120003F3313F0200F02D10A232370CBE7012174
:10513000204600F039FC8DF817009DF8173013B9A0
:105140000A232370BFE79DF81730DBB2032BBAD1D7
:105150000A232370B7E7D4F88033002BB3D00023A1
:10516000C4F87C3373B1D4F87C33EBB19B68204630
:105170009847B0B906232370D4F8D43303212046CE
:105180009847A0E703F1DE0254F82220107994F842
:105190004713884202D00133DBB2E3E7C4F87C2333
:1051A000E1E70D2323708EE70D2323708BE7D4F8FE
:1051B0007C339BB11B69204698478DF817009DF8FA
:1051C000173013B90B2323707DE79DF81730DBB23E
:1051D000022B7FF478AF0D23237074E70D23237027
:1051E00071E7D4F87C33002B3FF46DAF5B69204648
:1051F000984768E7002384F821332046FFF7E9FC4D
:10520000D4F87C332BB1DB68204698470023C4F8E0
:105210007C33D4F8D43313B105212046984794F851
:105220002233DBB2012B03D02046FCF75CF84AE7BF
:10523000002384F822332046FFF7B0FE43E7C0F88E
:10524000C413704708B5D0F8C4230132C0F8C42392
:10525000FFF7B2FC08BD012380F823337047002319
:1052600080F8233370470346012280F82023002072
:1052700083F8210383F82203704738B504460123DD
:1052800080F82133002580F8205380F82353FCF761
:1052900032F82179204600F042FC6179204600F086
:1052A0003EFC284638BD000003468C46002970D0DD
:1052B000097880F826139CF8011080F827139CF8D1
:1052C00002109CF8030041EA0021A3F828139CF87F
:1052D000041083F82A139CF8051083F82B139CF80C
:1052E000061083F82C139CF8071083F82D1393F8FD
:1052F0001D0301282DD9022840D00320082A49D9AE
:105300009CF808209CF8091042EA0122A3F82E23F9
:105310009CF80A209CF80B1042EA0122A3F83023E3
:105320009CF80C209CF80D1042EA0122A3F83223CD
:105330009CF80E2083F834239CF80F2083F8352343
:105340009CF8102083F836239CF8112083F837232B
:10535000704720290BD808290BD30839C9B20E4849
:1053600020FA01F111F0010F03D00020C6E7402917
:105370000BD0082183F82D130020BFE7082906D0A1
:10538000082183F82D130020B8E70020B6E700209D
:10539000B4E70220704700BF010100010B780370E1
:1053A0004B7843708B788370CB78C3700B79022B6A
:1053B00028BF022303714B7943718B798371CB79B9
:1053C000C3710B7A0372704710B5864613780B7061
:1053D00053784B7093788B7092F803C081F803C0B8
:1053E0001379507943EA00238B8094798C715A1E8B
:1053F00092B2B2F5007F0CD200209EF81D23CAB9EC
:105400000CF0030CBCF1030F46D8DFE80CF0090DDB
:10541000040D0320F1E7B3F5007F10D903200EE05F
:10542000402B0CD903200AE0013CE4B20F2C06D932
:10543000032004E0012A03D0022A1CD0032010BD5F
:105440000CF0030CBCF1030F28D8DFE80CF00206C7
:10545000020E402BF3D90320F1E7013CE4B20F2CFC
:105460001ED8402BEBD90320E9E7DCB1B3F5806F00
:10547000E5D36046E3E71CF0030C03D1082BDED034
:105480000320DCE7BCF1030F01D00320D7E75CB1B8
:10549000082BD4D96046D2E70320D0E70320CEE71B
:1054A0000320CCE76046CAE76046C8E74378032B91
:1054B00000D070470378023B9A4228BF1A4692B246
:1054C000002307E000EB030C9CF802C001F801CBBD
:1054D00002339BB29342F5D300230B70E9E730B55A
:1054E00083B00446057E6B1E0A2B00F2DC80DFE8E9
:1054F00003F00610354154617C889BA8BF004279B7
:1055000000F1100100F073FA02232376284603B05D
:1055100030BD4179FBF7AEFE0546012805D00428D1
:1055200018D0022816D00125F0E7237CE28A42B188
:1055300013F0800F02D105232376E7E703232376B8
:10554000E4E713F0800F02D107232376DEE7092377
:105550002376DBE70B2323760125D7E7D0F8C43386
:10556000C38103798289816800F068FA0423237675
:105570000125CBE70179FBF77DFE012806D0052840
:1055800000F09380042804D00125BFE70923237687
:10559000F8E70B2323760125B8E701250095437929
:1055A0008289816800F034FAD4F8C433E381062399
:1055B0002376ABE74179FBF75DFE0546431E042BDE
:1055C00075D8DFE803F0030A740E0600072323767C
:1055D0009CE70C232376032598E7052323760125F2
:1055E00094E70B232376022590E7037900221146E6
:1055F00000F024FAD4F8C433E3810823237601258C
:1056000084E70179FBF736FE012805D0042807D08E
:1056100005284ED0012579E70D232376002575E76F
:105620000B232376012571E701250095437900229C
:10563000114600F0EDF9D4F8C433E3810A23237650
:1056400064E74179FBF716FE012805D0022807D050
:10565000042809D0012559E70D232376002555E7B5
:1056600009232376012551E70B23237601254DE7F6
:10567000437E0133DBB24376022B03D80125057646
:10568000857043E7D0F8D433062198470025657626
:105690006179204600F043FA2179204600F03FFA74
:1056A0002570022532E7012530E703252EE7012585
:1056B0002CE703252AE70B88027813440B80037834
:1056C000184470472DE9F04383B0002900F0AA8008
:1056D00005460C460B78092B01D009230B70237863
:1056E00085F83833637885F83933A378E17843EA6D
:1056F0000123B3F5807F28BF4FF48073A5F83A33B8
:10570000237985F83C33637985F83D33A37985F8AF
:105710003E33E37985F83F33237A85F84033092A0D
:1057200040F282800923ADF8063000263746012E6C
:105730006FD8B5F83A23BDF806309A4269D90DF111
:1057400006012046FFF7B7FF04464378042BEED14D
:105750000378092B01D009230370B14605F54E707B
:105760001A2306FB03F30833184421460230FFF7DF
:1057700015FE4FF0000814E00723237005F54E7165
:1057800008F101081A2303FB09F303EBC8030833EC
:105790001944224604312846FFF716FE07465FFAF1
:1057A00088F81A2303FB095393F8463343452BD952
:1057B000B5F83A13BDF80620914225D90DF106013E
:1057C0002046FFF778FF04464378052BE9D11A23DA
:1057D00003FB095393F84733012BCDD11A2303FB65
:1057E000095393F84833023BDBB2012BC4D81A2388
:1057F00003FB095393F84933002BBFD10378092BDE
:10580000BCD009230370B9E7434512D80136F6B27C
:105810008DE795F83C33022B28BF0223B34204D90D
:10582000032702E0022700E00027384603B0BDE866
:10583000F0830327F9E710B504468078012803D0E8
:10584000022808D0012005E0A160A281012323766F
:105850000223A37010BD2046FFF741FE30B103289C
:1058600004D00228F6D10123A370F3E70123A3702B
:1058700000232376EEE708B58E4694461946BDF818
:1058800008208378012B02D0FFF7D5FF08BD6EF00A
:105890007F0E80F810E006234374A0F812C00CF4C9
:1058A0007F4CBCF5407F03D000238382C282EBE7AC
:1058B00040F209438382F9E7B1F5007F15D870B54E
:1058C00082B005460C4600F58E76009133464FF4C3
:1058D00080720021FFF7CFFF08B102B070BD2246F1
:1058E00031462846FFF7E0FCF7E703207047B1F5A3
:1058F000807F15D870B582B004460D4600F11C06B5
:10590000009133464FF400720021FFF7B4FF08B155
:1059100002B070BD2A4631462046FFF7D3FEF7E7B6
:1059200003207047F0B583B0B3F5007F16D8154655
:105930001C46AAB100F58E7700933B4641F44072B5
:105940000021FFF798FF064610B1304603B0F0BDC6
:10595000224629463846FFF7A9FDF6E70326F4E775
:105960000326F2E708B58378012B04D00022114604
:10597000FFF761FF08BD00230374052242744182D2
:105980008382C382F2E708B58378012B04D000221A
:105990001146FFF750FF08BD00230374092242742B
:1059A00041828382C382F2E708B58378012B04D059
:1059B00000221146FFF73FFF08BD002303740322B6
:1059C000427441828382C382F2E708B58378012B57
:1059D00004D000221146FFF72EFF08BD02230374F6
:1059E00001234374002343828182C382F1E710B50F
:1059F00084B00B46114600240394082202920193BE
:105A0000009423462246FBF7A1FC204604B010BDBB
:105A100030B585B00C4619469DF8203090F81D53DE
:105A200005B1002303930292019401230093002304
:105A30001A46FBF78BFC002005B030BD30B585B0B1
:105A40000D4619460024039402920195012200920A
:105A50002346FBF77BFC204605B030BD30B585B052
:105A60000C4619469DF8203090F81D5305B10023CF
:105A70000393029201940123009302230022FBF777
:105A800065FC002005B030BD30B585B00D46194627
:105A90000024039402920195012200920223FBF755
:105AA00055FC204605B030BD00230F2B0CD803F168
:105AB000E00200EB8202526812F4004F02D0013380
:105AC000DBB2F2E7184670474FF6FF70704710B52B
:105AD00084B0BDF8204002949DF81C4001949DF8CC
