:020000040800F2
:10000000000002205D460008E51E0008E71E00080B
:10001000E91E0008EB1E0008ED1E000800000000AD
:10002000000000000000000000000000EF1E0008BB
:10003000F11E000800000000F31E0008F51E000875
:10004000AD460008AD460008AD460008AD460008C4
:10005000AD460008AD460008FD1E0008AD4600088C
:10006000AD460008AD460008AD460008AD460008A4
:10007000AD460008AD460008AD460008AD46000894
:10008000AD460008AD460008AD460008AD46000884
:10009000AD460008AD460008AD460008AD46000874
:1000A000AD460008AD460008AD460008AD46000864
:1000B000AD460008AD460008AD460008AD46000854
:1000C000AD460008AD460008AD460008AD46000844
:1000D000AD460008391F0008491F0008591F0008D5
:1000E000AD460008AD460008AD460008AD46000824
:1000F000AD460008AD460008AD460008AD46000814
:10010000AD460008AD460008AD460008AD46000803
:10011000691F0008791F0008AD460008AD460008B9
:10012000AD460008AD460008AD460008AD460008E3
:10013000AD460008AD460008AD460008AD460008D3
:10014000AD460008AD460008AD460008AD460008C3
:10015000AD460008AD460008AD460008891F0008FE
:10016000AD460008AD460008AD460008AD460008A3
:10017000AD460008AD460008AD460008000000008E
:08018000AD460008AD46000881
:1001900010F8012B11F8013B012A28BF9A42F7D031
:1001A000D01A7047034613F8012B002AFBD1181A06
:1001B000013870470000000000000000000000004F
:1001C00001F0FF01102A2BDB10F0070F08D010F808
:1001D000013B013A8B422DD010F0070F42B3F6D10C
:1001E000F0B441EA012141EA014122F007047FF025
:1001F00000070023F0E80256083C85EA010586EA7C
:10020000010685FA47F5A3FA87F586FA47F6A5FAB7
:1002100087F68EB9EED1F0BC01F0FF0102F00702C3
:1002200032B110F8013B013A83EA010313B1F8D16E
:100230000020704701387047002D06BF354603384F
:10024000073815F0010F07D1013015F4807F02BF88
:10025000013015F4C03F0130F0BC0138704700BFD9
:1002600053B94AB9002908BF00281CBF4FF0FF311D
:100270004FF0FF3000F00CB8ADF1080C6DE904CE82
:1002800006F054F8DDF804E0DDE9022304B070471D
:10029000704700BF0348044B834202D0034B03B1B5
:1002A00018477047800000208000002000000000F8
:1002B0000548064B1B1AD90F01EBA301491002D0C8
:1002C000034B03B1184770478000002080000020D6
:1002D0000000000010B5064C237843B9FFF7DAFFA1
:1002E000044B13B10448AFF300800123237010BD09
:1002F0008000002000000000E865000808B5054BFC
:100300001BB105490548AFF30080BDE80840FFF781
:10031000CFBF00BF0000000084000020E865000897
:1003200000B583B001904FF6FF73012201A9034885
:1003300003F089FC019803B05DF804FB700600200F
:1003400000B583B001904FF6FF73012201A9034865
:1003500003F079FC019803B05DF804FB2806002047
:1003600000B583B001904FF6FF73012201A9034845
:1003700003F069FC019803B05DF804FBE005002080
:1003800000B583B001904FF6FF73012201A9034825
:1003900003F059FC019803B05DF804FB000700204E
:1003A00000B583B001904FF6FF73012201A9034805
:1003B00003F049FC019803B05DF804FBB806002087
:1003C00000B583B001904FF6FF73012201A90348E5
:1003D00003F039FC019803B05DF804FB9805002098
:1003E00030B5C1B00346094A4FF48071684604F045
:1003F0005FF90546002404E01DF80400FFF7E0FF64
:100400000134AC42F8DB41B030BD00BF8C6700085E
:1004100030B5C1B00346094A4FF48071684604F014
:1004200047F90546002404E01DF80400FFF788FFA3
:100430000134AC42F8DB41B030BD00BF0C660008AF
:1004400030B5C1B00346094A4FF48071684604F0E4
:100450002FF90546002404E01DF80400FFF780FF93
:100460000134AC42F8DB41B030BD00BF8C670008FE
:1004700030B5C1B00346094A4FF48071684604F0B4
:1004800017F90546002404E01DF80400FFF778FF83
:100490000134AC42F8DB41B030BD00BF8C670008CE
:1004A00030B5C1B00346094A4FF48071684604F084
:1004B000FFF80546002404E01DF80400FFF770FF74
:1004C0000134AC42F8DB41B030BD00BF8C6700089E
:1004D00010B500240E4B1C602046FFF781FF5A2008
:1004E0000C4B1860FFF794FFB4200B4B1860FFF71C
:1004F000A7FF0A4B1C602046FFF7BAFF2820084BD5
:100500001860FFF7CDFF074B02221A6010BD00BF35
:10051000CC0000201400002010000020C8000020A3
:100520000C0000200800002010B50A4C204601F005
:1005300015FE4FF0FF31204601F0D2FE28B1002415
:10054000044801F0ADFE204610BD204601F024FF16
:1005500084B2F5E7DC03002008B51220FFF7A0FF06
:100560001C20FFF785FF4620FFF76AFF0420FFF7F6
:100570004FFF08BD30B5C5B004460322A64904F0BC
:1005800079FA002800F0A2800622A449204604F04F
:1005900071FA002800F0FA800622A149204604F0F2
:1005A00069FA002800F0098106229E49204604F0DD
:1005B00061FA002800F0188106229B49204604F0C9
:1005C00059FA002800F0788106229849204604F064
:1005D00051FA002800F0878108229549204604F04E
:1005E00049FA002800F0968106229249204604F03C
:1005F00041FA0546002800F0A28106228E492046D5
:1006000004F038FA0546002800F0A48106228B4940
:10061000204604F02FFA0546002800F0A6810622A5
:100620008749204604F026FA0546002800F0A881F4
:1006300006228449204604F01DFA0546002800F0F1
:10064000AA8105228049204604F014FA002850D0DF
:1006500004227E49204604F00DFA002800F0A6810D
:1006600005227B49204604F005FA002800F0A48109
:1006700005227849204604F0FDF9002800F0A68103
:1006800006227549204604F0F5F9002800F0BD81E6
:1006900007227249204604F0EDF9002800F0BC81E1
:1006A00004226F49204604F0E5F9002800F0BB81E0
:1006B00008226C49204604F0DDF9002840F0BA8198
:1006C000694804F05FF9FFF747FF12E0674B0393B7
:1006D000674B0293674B0193674B0093674B684AE4
:1006E0006849201D04F01AF8062804D0664804F072
:1006F000B1F945B030BD624C5C4B1B6802935C4B5A
:100700001B6801935B4B1B6800935B4B1B685B4A48
:10071000126821685D4804F035F920685C4B1B685D
:10072000984224D1554B18685A4B1B68984223D1E4
:10073000514B1868584B1B68984222D14D4B1B688F
:10074000564A1268934201D0544A1360484B1B68C2
:10075000534A1268934201D0514A1360434B1B68BD
:10076000504A12689342C4D04E4A1360C1E7484BC6
:100770001860FFF735FED5E7464B1860FFF748FED7
:10078000D6E7454B1860FFF75BFED7E73C4A464982
:10079000E01D03F0C3FF012803D03B4804F05AF9E1
:1007A000A7E7374C2168414804F0ECF82068FFF7D0
:1007B00017FE2268364B1A609BE7304A3A49E01D23
:1007C00003F0ACFF012803D02F4804F043F990E771
:1007D0002A4C2168364804F0D5F82068FFF718FE47
:1007E00022682C4B1A6084E7234A2F49E01D03F04E
:1007F00095FF012803D0244804F02CF979E71E4C1A
:1008000021682C4804F0BEF82068FFF719FE226822
:10081000214B1A606DE700BF10660008686600088B
:1008200084660008A0660008BC660008D866000858
:10083000F4660008146700081C67000824670008B5
:100840002C670008346700083C670008446700080C
:10085000646700087C670008E4670008FC6700081C
:10086000146800082868000834680008C4000020E4
:100870000C000020C8000020100000201400002000
:10088000CC00002014660008546600082C6600089E
:10089000B8000020B4000020B0000020AC00002010
:1008A000A8000020A4000020286600087066000848
:1008B0008C660008A8660008614A6249E01D03F0E2
:1008C0002DFF012803D0604804F0C4F811E75C4C08
:1008D00021685E4804F056F82068FFF7C9FD2268D9
:1008E0005B4B1A6005E75B4A5649E01D03F016FFB3
:1008F000012803D0544804F0ADF8FAE6554C2168BD
:10090000554804F03FF82068FFF7CAFD2268534BB2
:100910001A60EEE6524A4B4904F1090003F0FEFE6C
:10092000012803D0484804F095F8E2E64C4C2168D1
:100930004C4804F027F822684B4B1A60D9E64B4B21
:10094000049304E004AB585DFFF73AFD0135022D36
:10095000F8DDCEE6454B049304E004AB585DFFF7A9
:10096000EFFC0135022DF8DDC3E6404B049304E0B3
:1009700004AB585DFFF7F4FC0135022DF8DDB8E655
:100980003A4B049304E004AB585DFFF7F9FC0135E2
:10099000022DF8DDADE6354B049304E004AB585D61
:1009A000FFF7FEFC0135022DF8DDA2E6FFF790FD12
:1009B0002F4804F04FF89CE62E4A1368B3FA83F3ED
:1009C0005B0913602C4804F045F892E62B4B19683C
:1009D0002B4803F0D7FF2B4B19682B4803F0D2FFAD
:1009E0002A4B19682A4803F0CDFF154B196829488E
:1009F00003F0C8FF174B1968274803F0C3FF184BD3
:100A00001968264803F0BEFF73E6254B01221A60E1
:100A1000244804F01FF86CE6214B02221A60224899
:100A200004F018F865E61E4B00221A601F4804F017
:100A300011F85EE621461E4803F0A4FF59E600BF08
:100A4000C80000202866000854660008C466000834
:100A5000AC0000200C000020E0660008A800002088
:100A6000C400002000670008A4000020720D0A00E6
:100A70004C670008C00000206C670008CC00002014
:100A8000846700081400002094670008100000200C
:100A9000A4670008B4670008C4670008D4670008AA
:100AA00008000020EC670008046800081C680008C3
:100AB0004C68000810B503689C4A93422DD09C4AAC
:100AC00093425AD09B4A934200F09F809A4A9342A5
:100AD00000F0E380994A934200F05481984A93428F
:100AE00034D1984B1B889BB2FE2B00F2BB819549F9
:100AF0000B889BB25A1C92B20A8093490A78D2B2F0
:100B00009248C2540B78DBB20A2B00F08381012299
:100B10008D498F4803F0E5FA18E08A4B1B889BB299
:100B2000FE2B23D887490B889BB25A1C92B20A80AD
:100B300088490A78D2B28548C2540B78DBB20A2BB6
:100B400005D001228349844803F0CBFA10BD7D4AC9
:100B500013889BB201460020C85410807F4C204669
:100B600004F00EF82046FFF705FDEAE7754B00227A
:100B70001A807B4803F06EFFE3E7724B1B889BB241
:100B8000FE2B3BD86F490B889BB25A1C92B20A804D
:100B900074490A78D2B26D48C2540B78DBB20A2B82
:100BA00005D001226F49704803F09BFACEE7654AF1
:100BB00013889BB201460020C8541080674C204621
:100BC00003F0DEFF21466948FFF7E2FA70B9684991
:100BD0006248FFF7DDFA0028E3D0604C2046FFF7BB
:100BE000C9FC2146624803F0CBFFDAE72046FFF755
:100BF000C1FC21465E4803F0C3FFD2E7514B0022FF
:100C00001A80574803F026FFCBE74E4B1B889BB258
:100C1000FE2B3BD84B490B889BB25A1C92B20A80E0
:100C200054490A78D2B24948C2540B78DBB20A2B35
:100C300005D001224F49504803F053FA86E7414A54
:100C400013889BB201460020C8541080434C2046B4
:100C500003F096FF21464548FFF79AFA70B94449D8
:100C60003E48FFF795FA0028E3D03C4C2046FFF7BA
:100C700081FC21463E4803F083FFDAE72046FFF778
:100C800079FC21463A4803F07BFFD2E72D4B002246
:100C90001A80334803F0DEFECBE72A4B1B889BB259
:100CA000FE2B3BD827490B889BB25A1C92B20A8074
:100CB00032490A78D2B22548C2540B78DBB20A2BEB
:100CC00005D001222D492E4803F00BFA3EE71D4ABC
:100CD00013889BB201460020C85410801F4C204648
:100CE00003F04EFF21462148FFF752FA70B9204920
:100CF0001A48FFF74DFA0028E3D0184C2046FFF7BA
:100D000039FC21461A4803F03BFFDAE72046FFF79B
:100D100031FC2146164803F033FFD2E7094B00228D
:100D20001A800F4803F096FECBE700BF0010014089
:100D3000001401400044004000480040004C0040C6
:100D400000500040D0020020D4030020D402002034
:100D5000B8060020D903002070060020D001002032
:100D60005C680008D8030020980500207C67000814
:100D7000D0000020D703002028060020D603002042
:100D8000E00500203B4B1B889BB2FE2B3BD839492A
:100D90000B889BB25A1C92B20A8037490A78D2B2A9
:100DA0003648C2540B78DBB20A2B05D001223249F7
:100DB000334803F096F9C9E62E4A13889BB20146E0
:100DC0000020C85410802F4C204603F0D9FE214645
:100DD0002D48FFF7DDF970B92C492A48FFF7D8F9FB
:100DE0000028E3D0274C2046FFF7C4FB21462748C4
:100DF00003F0C6FEDAE72046FFF7BCFB2146234896
:100E000003F0BEFED2E71B4B00221A80204803F0FD
:100E100021FECBE7174A13889BB201460020C85435
:100E20001080184C204603F0ABFE21461648FFF711
:100E3000AFF978B915491348FFF7AAF900283FF42C
:100E400066AE104C2046FFF795FB21460F4803F095
:100E500097FE5CE62046FFF78DFB21460B4803F02A
:100E60008FFE54E6034B00221A80094803F0F2FD7E
:100E70004DE600BFD0020020D5030020D4020020A0
:100E800000070020D00100207C670008D00000206F
:100E90005C680008012808D002281AD020B9174B36
:100EA0001B6800225A639A637047154B1B688B427C
:100EB00007DA124B1B6800225A634FF480429A6390
:100EC00070470E4B1A680023536393630D4A1360F7
:100ED00070470D4B1B688B4207DD084B1B684FF4B6
:100EE00080425A6300229A637047044B1A680023B9
:100EF00053639363034A1360704700BF7804002074
:100F000004000020080000200000002072B6FEE768
:100F100000B595B03022002108A803F0A3FD0023FE
:100F2000039304930593069307930193204A116C4E
:100F300041F080511164126C02F080520192019ACA
:100F400002931C4B1A6842F480421A601B6803F437
:100F500080430293029B012308934FF4803309934B
:100F600002230E934FF480020F9204221092A822C3
:100F7000119212930723139308A801F0DBFA98B992
:100F80000F23039302230493002305934FF4A053EC
:100F900006934FF480530793052103A801F034FD15
:100FA00020B915B05DF804FBFFF7B0FFFFF7AEFF07
:100FB000003802400070004070B502F00DF8FFF7F5
:100FC000A7FF00F0D7F800F0ABF900F015FA00F039
:100FD00069FB00F0F7FB00F02FFD00F047FD00F08B
:100FE0005FFD00F077FD00F08FFD00F027FF00F0BF
:100FF000AFFC00F05BFC00F0A1FD474803F02AFDC8
:10100000464C0021204602F0D3FB0421204602F08A
:10101000CFFB236800225A639A63FFF785FA012207
:101020003F49404803F05DF801223F493F4803F043
:1010300058F801223E493F4803F053F801223E4947
:101040003E4803F04EF801223D493E4803F049F87E
:1010500001223D493D4803F044F83AE03C4B01226F
:101060001A6001F0DFFF3B4B186002203A4B18601A
:101070002146FFF70FFF3FE00026354B1E60354B42
:101080001E6001F0CFFF0546344B1E603046FFF76F
:10109000A7F95A20324B1860FFF7BAF901F0C2FFE6
:1010A000431BB3F57A7FF9D3B4202E4B1860FFF7BA
:1010B000C7F900202C4B1860FFF7DAF928202B4BDA
:1010C0001860FFF7EDF90220234B18602146FFF767
:1010D000E1FEFFF729FA0446012001F0A9FF4FF4D1
:1010E0008051234801F05CFE0028C5D1FFF734FA97
:1010F000174B1B68002BB1D001F094FF154B1B68F8
:10110000C31A41F293129342E3D90120124B1860A3
:101110002146FFF7BFFEDCE7706800087804002076
:10112000D903002070060020D80300209805002075
:10113000D703002028060020D6030020E005002069
:10114000D503002000070020D4030020B8060020AB
:101150009C000020A000002008000020CC000020FF
:101160001400002010000020C80000200C00002007
:10117000000402402DE9F0478CB000240794089445
:1011800009940A940B9401945F4B1A6B42F010027D
:101190001A631A6B02F010020192019A02941A6B00
:1011A00042F004021A631A6B02F004020292029ADD
:1011B00003941A6B42F080021A631A6B02F08002E9
:1011C0000392039A04941A6B42F001021A631A6B99
:1011D00002F001020492049A05941A6B42F0020292
:1011E0001A631A6B02F002020592059A06941A6BB2
:1011F00042F008021A631B6B03F008030693069B78
:10120000DFF810A1224649F23C51504601F0CFFDD3
:10121000DFF80481224642F22001404601F0C7FD7A
:101220003A4F22464021384601F0C1FD384E224651
:101230004FF46041304601F0BAFDDFF8E0902246FD
:101240008021484601F0B3FD49F23C530793012544
:10125000089509940A9407A9504601F0ABFC42F2A4
:1012600020030793089509940A9407A9404601F0C2
:10127000A1FC40230793089509940A9407A93846CE
:1012800001F098FC07954FF404130893099507A9FA
:10129000304601F08FFC4FF4805307930894099572
:1012A00007A9304601F086FC4FF460430793089588
:1012B00009940A9407A9304601F07CFC4FF440736E
:1012C00007930894099407A9404601F073FC4FF472
:1012D000807307930894099407A9384601F06AFCC3
:1012E00080230793089509940A9407A9484601F0BA
:1012F00061FC22462146062001F020FE062001F076
:101300002DFE0CB0BDE8F08700380240000002401E
:10131000000402400010024000080240000C02409D
:1013200000B585B000230093019302930393154801
:10133000154A02604FF48032426083600361037695
:1013400080F82030C362114A8262C3600122C26108
:1013500080F83030426100F0D5FE60B90023009380
:101360000122019202936946064801F019F828B952
:1013700005B05DF804FBFFF7C9FDEFE7FFF7C6FD19
:10138000F6E700BFDC030020002001400100000F51
:1013900000B589B000230393049305930693079344
:1013A000026803F1804303F590339A4202D009B0FA
:1013B0005DF804FB0021019103F58C335A6C42F473
:1013C00080725A645A6C02F480720192019A0291FE
:1013D0001A6B42F001021A631B6B03F001030293C4
:1013E000029B072303930323049303A9014801F0FD
:1013F000E1FBDCE70000024008B50B480B4B036043
:101400000B4B436000238360C3604FF48042026152
:1014100043618361C361036201F01EFE00B908BD30
:10142000FFF774FDFBE700BF2404002000540040D8
:10143000A086010030B589B000230393049305937F
:10144000069307930268144B9A4201D009B030BD4D
:1014500000250195114C236B43F002032363236B9A
:1014600003F002030193019BC0230393122304930F
:10147000032306930423079303A9094801F09AFB69
:101480000295236C43F400132364236C03F40013CC
:101490000293029BDAE700BF00540040003802408C
:1014A0000004024084B00368184A934207D0B3F1A5
:1014B000804F11D0164A93421BD004B070470023CE
:1014C0000193144B5A6C42F001025A645B6C03F0B6
:1014D00001030193019BF0E7002302930D4B1A6C6B
:1014E00042F001021A641B6C03F001030293029B99
:1014F000E3E700230393074B1A6C42F004021A64DB
:101500001B6C03F004030393039BD6E70000014028
:1015100000080040003802400268094B9A4200D09F
:10152000704782B000230193064B1A6C42F002020E
:101530001A641B6C03F002030193019B02B0704715
:10154000000400400038024070B58CB000230793BF
:10155000089309930A930B9303684A4A93420AD06B
:10156000B3F1804F1FD0484A934249D0474A934233
:1015700070D00CB070BD00230193454B1A6B42F044
:1015800010021A631B6B03F010030193019B4FF4CD
:10159000D44307930223089301230B9307A93D48E3
:1015A00001F008FBE5E70024029403F50E331A6B03
:1015B00042F001021A631A6B02F001020292029ACF
:1015C00003941A6B42F002021A631B6B03F00203CE
:1015D0000393039B282307930226089601250B9566
:1015E00007A92D4801F0E6FA4FF4816307930896A6
:1015F00009940A940B9507A9284801F0DBFAB8E78B
:1016000000250495224B1A6B42F001021A631A6BF3
:1016100002F001020492049A05951A6B42F002024C
:101620001A631B6B03F002030593059B802307934A
:10163000022408940B9407A9174801F0BBFA12235F
:101640000793089409950A950B9407A9134801F08C
:10165000B1FA8EE7002306930D4B1A6B42F0080295
:101660001A631B6B03F008030693069B4FF4704349
:101670000793022308930B9307A9094801F09AFAEC
:1016800077E700BF00000140000400400008004070
:1016900000380240001002400000024000040240F6
:1016A000000C024010B596B00024129413941494C8
:1016B00015941094119409940A940B940C940D941D
:1016C0000E940F942022214601A803F0CBF93B4849
:1016D0003B4B0360446084604FF6FF73C36004615A
:1016E0004461846101F0CAFE00284BD14FF480535D
:1016F000129312A9314801F0CCFF002845D12F48A0
:1017000001F0E8FE002843D100231093119310A9A3
:101710002A4802F0CFF800283DD160230993002227
:101720000A920B920C920D920E920F9209A92348E5
:1017300001F034FF002831D1042209A91F4801F02B
:101740002DFF70BB082209A91C4801F027FF58BBD8
:101750000C2209A9194801F021FF40BB0023019385
:1017600002930393049305934FF400520692089357
:1017700001A9124802F0E4F8E0B91048FFF7E4FECE
:1017800016B010BDFFF7C2FBB0E7FFF7BFFBB6E72F
:10179000FFF7BCFBB8E7FFF7B9FBBEE7FFF7B6FB07
:1017A000CAE7FFF7B3FBCDE7FFF7B0FBD0E7FFF7E2
:1017B000ADFBD3E7FFF7AAFBDFE700BF5005002032
:1017C0000000014000B58FB000230A930B930C93E7
:1017D0000D93089309930193029303930493059344
:1017E0000693079330484FF0804202604360836065
:1017F0004FF0FF32C2600361836101F03FFE0028B9
:1018000039D14FF480530A930AA9274801F041FFC8
:10181000002833D1244801F05DFE002831D1002397
:101820000893099308A9204802F044F860BB60239C
:101830000193002202920392059201A91A4801F035
:10184000ADFE20BB04220DEB0201174801F0A6FEFD
:1018500000BB082201A9144801F0A0FEE8B90C223F
:1018600001A9114801F09AFED0B90F48FFF76CFEAC
:101870000FB05DF804FBFFF749FBC2E7FFF746FB3B
:10188000C8E7FFF743FBCAE7FFF740FBCFE7FFF7E7
:101890003DFBD7E7FFF73AFBDBE7FFF737FBDEE778
:1018A000FFF734FBE1E700BF0805002000B58BB06F
:1018B00000230893099301930293039304930593E0
:1018C000069307932048214A0260436083604FF6E5
:1018D000FF72C2600361836101F0FCFD28BB00233D
:1018E0000893099308A9184801F0E4FF00BB60239E
:1018F0000193002202920392059201A9124801F07D
:101900004DFEC0B904220DEB02010F4801F046FE66
:10191000A0B90C2201A90C4801F040FE88B90A4880
:10192000FFF712FE0BB05DF804FBFFF7EFFAD6E706
:10193000FFF7ECFADBE7FFF7E9FAE3E7FFF7E6FA90
:10194000E7E7FFF7E3FAEAE7C004002000040040FD
:1019500000B58FB000230A930B930C930D9308935B
:1019600009930193029303930493059306930793BA
:101970002F48304A0260436083604FF6FF72C260B6
:101980000361836101F07AFD002839D14FF480535F
:101990000A930AA9264801F07CFE002833D1244886
:1019A00001F098FD002831D100230893099308A97C
:1019B0001F4801F07FFF60BB602301930022029269
:1019C0000392059201A91A4801F0E8FD20BB042208
:1019D0000DEB0201164801F0E1FD00BB082201A950
:1019E000134801F0DBFDE8B90C2201A9104801F011
:1019F000D5FDD0B90E48FFF7A7FD0FB05DF804FB89
:101A0000FFF784FAC2E7FFF781FAC8E7FFF77EFA2B
:101A1000CAE7FFF77BFACFE7FFF778FAD7E7FFF7D8
:101A200075FADBE7FFF772FADEE7FFF76FFAE1E737
:101A3000780400200008004008B50A480A4B0360FB
:101A40004FF4E133436000238360C36003610C22E1
:101A500042618361C36102F0C6F800B908BDFFF7B7
:101A600055FAFBE700070020004C004008B50A4883
:101A70000A4B03604FF4E133436000238360C3608B
:101A800003610C2242618361C36102F0ACF800B9CA
:101A900008BDFFF73BFAFBE7B80600200050004006
:101AA00008B50A480A4B03604FF4E1334360002352
:101AB0008360C36003610C2242618361C36102F0F1
:101AC00092F800B908BDFFF721FAFBE77006002085
:101AD0000010014008B50A480A4B03604FF4E13397
:101AE000436000238360C36003610C224261836111
:101AF000C36102F078F800B908BDFFF707FAFBE709
:101B0000280600200044004008B50A480A4B03603C
:101B10004FF4E133436000238360C36003610C2210
:101B200042618361C36102F05EF800B908BDFFF74E
:101B3000EDF9FBE7E00500200048004008B50A4841
:101B40000A4B03604FF4E133436000238360C360BA
:101B500003610C2242618361C36102F044F800B961
:101B600008BDFFF7D3F9FBE79805002000140140FA
:101B7000F0B595B000230F93109311931293139324
:101B80000368A34A934213D0A24A93423CD0A24A8C
:101B9000934279D0A14A934200F0A280A04A934296
:101BA00000F0C9809F4A934200F0068115B0F0BD55
:101BB000002401949C4B1A6C42F400221A641A6CA3
:101BC00002F400220192019A02941A6B42F004027C
:101BD0001A631B6B03F004030293029B4FF44063F0
:101BE0000F930223109303231293082313930FA937
:101BF0008E4800F0DFFF22462146342001F09EF996
:101C0000342001F0ABF9D1E700240394864B1A6C21
:101C100042F480121A641A6C02F480120392039A3E
:101C200004941A6B42F004021A631A6B02F0040265
:101C30000492049A05941A6B42F008021A631B6B13
:101C400003F008030593059B4FF480530F9302277D
:101C5000109703261296082513950FA9734800F0D4
:101C6000A9FF04230F9310971194129613950FA9AF
:101C70006F4800F09FFF22462146352001F05EF9B3
:101C8000352001F06BF991E700240694664B5A6CFD
:101C900042F010025A645A6C02F010020692069A40
:101CA00007941A6B42F001021A631B6B03F00103E5
:101CB0000793079B4FF4C0630F93022310930323F2
:101CC0001293072313930FA95A4800F073FF22467B
:101CD0002146252001F032F9252001F03FF965E782
:101CE00000240894504B1A6C42F400321A641A6CA7
:101CF00002F400320892089A09941A6B42F0080222
:101D00001A631B6B03F008030993099B60230F936D
:101D10000223109303231293072313930FA944481C
:101D200000F048FF22462146262001F007F9262030
:101D300001F014F93AE700240A943B4B1A6C42F480
:101D400080221A641A6C02F480220A920A9A0B9476
:101D50001A6B42F002021A631A6B02F002020B9233
:101D60000B9A0C941A6B42F008021A631B6B03F077
:101D700008030C930C9B4FF400630F9302271097FA
:101D800003261296072513950FA92B4800F012FF82
:101D90004FF480730F9310971194129613950FA917
:101DA000234800F007FF22462146272001F0C6F80D
:101DB000272001F0D3F8F9E600240D941A4B5A6C51
:101DC00042F020025A645A6C02F020020D920D9AE1
:101DD0000E941A6B42F004021A631B6B03F00403A7
:101DE0000E930E9BC0230F93022310930323129391
:101DF000082313930FA90D4800F0DCFE224621466C
:101E0000472001F09BF8472001F0A8F8CEE600BF7C
:101E1000004C0040005000400010014000440040D1
:101E20000048004000140140003802400008024011
:101E3000000C0240000002400004024008B50B48BC
:101E40004FF0A0430360042303710222C2710023F8
:101E5000837142728372C37203738373C37302F01C
:101E600053F900B908BDFFF751F8FBE74807002018
:101E700030B589B000230393049305930693079329
:101E80000368B3F1A04F01D009B030BD0025019522
:101E9000124C236B43F001032363236B03F0010314
:101EA0000193019B4FF4C053039302230493032334
:101EB00006930A23079303A9094800F07BFE636B8E
:101EC00043F0800363630295636C43F4804363646F
:101ED000636C03F480430293029BD5E70038024011
:101EE00000000240FEE7FEE7FEE7FEE7FEE7704780
:101EF0007047704708B501F089F808BD08B501F0D2
:101F000091F80A4B5B6913F0010F0BD0074B0122CC
:101F10005A61074B1B68C31AC82B03D9054B1A70AB
:101F2000034B1860012000F049FF08BD003C014050
:101F30002C0C0020BC00002008B5024801F074FF02
:101F400008BD00BF7006002008B5024801F06CFF14
:101F500008BD00BF2806002008B5024801F064FF54
:101F600008BD00BFE005002008B5024801F05CFF95
:101F700008BD00BF0007002008B5024801F054FF6B
:101F800008BD00BFB806002008B5024801F04CFFAC
:101F900008BD00BF9805002082B0002100910B4BC6
:101FA0005A6C42F480425A645A6C02F480420092A5
:101FB000009A01911A6C42F080521A641B6C03F073
:101FC00080530193019B02B0704700BF003802406C
:101FD0004A4B5A6822F440325A605A6841680A43B0
:101FE0005A600268536823F4807353600268536830
:101FF000016943EA012353600268536823F0407388
:1020000053600268536881680B43536002689368A9
:1020100023F40063936002689368C1680B43936084
:10202000826A374B9A4257D00268936823F07063F4
:10203000936002689368816A0B43936002689368B7
:1020400023F04053936002689368C16A0B43936026
:102050000268936823F00203936002689368017E2C
:1020600043EA4103936090F82030002B3FD0026890
:10207000536843F4006353600268536823F4604379
:10208000536001684B68426A013A43EA42334B604D
:102090000268D36A23F47003D3620168CB6AC26911
:1020A000013A43EA0253CB620268936823F4007357
:1020B00093600268936890F8301043EA412393607C
:1020C0000268936823F480639360026893684169AF
:1020D00043EA8123936070470268936823F070633A
:1020E00093600268936823F040539360B0E70268FE
:1020F000536823F400635360CAE700BF0023014024
:102100000100000F38B310B50446036C43B1236CD3
:1021100013F0100F0BD00120002384F83C3010BDC9
:10212000FFF736F90023636484F83C30EFE7236C53
:1021300023F4885323F0020343F002032364204670
:10214000FFF746FF00206064236C23F0030343F095
:1021500001032364E0E701207047000082B0002300
:10216000019390F83C30012B00F08980012380F826
:102170003C3003689A6812F0010F13D19A6842F05C
:1021800001029A60414B1B68414AA2FB03239B0C4E
:1021900003EB4303019302E0019B013B0193019B8D
:1021A000002BF9D10268936813F0010F5CD0036C27
:1021B00023F4E06323F0010343F480730364536862
:1021C00013F4806F05D0036C23F4405343F4805321
:1021D0000364036C13F4805F1BD0436C23F006038D
:1021E0004364002380F83C306FF022031360294BD6
:1021F0005B6813F01F0F27D10368274A934211D061
:1022000002F58072934207D0244A934214D00020F2
:1022100033E000234364E4E702F50072526812F0F1
:102220001F0FF1D19A6812F0405F2AD19A6842F0EC
:1022300080429A60002020E002F58072526812F01D
:10224000100FEFD0002018E00368134A934201D02A
:10225000002012E09A6812F0405F14D19A6842F0B0
:1022600080429A60002008E0036C43F0100303648E
:10227000436C43F001034364002002B07047022026
:10228000FBE70020F9E70020F7E700BF200000206F
:1022900083DE1B4300230140002001400022014057
:1022A00090F83C30012B19D0012380F83C300268B3
:1022B000936823F00103936003689B6813F0010F98
:1022C00007D1036C23F4885323F0010343F0010387
:1022D0000364002380F83C301846704702207047A2
:1022E00070B504460D4603689A6812F4806F03D0F7
:1022F0009B6813F4807F19D100F094FE0646236892
:102300001A6812F0020F20D1B5F1FF3FF7D0B5B92E
:1023100023681B6813F0020FF1D1236C43F0040310
:102320002364002384F83C30032032E0036C43F044
:1023300020030364002380F83C30012029E000F0F2
:1023400071FE801BA842DAD9E2E76FF012021A6030
:10235000236C43F40073236423689A6812F0405F8F
:1023600016D1207EB0B9DA6A12F4700F03D09B68E0
:1023700013F4806F0DD1236C23F480732364236CDA
:1023800013F4805F05D1236C43F00103236400E064
:10239000002070BD0020FCE70368D86C7047000087
:1023A00030B482B00022019290F83C20012A00F063
:1023B000B6800346012280F83C200A68092A40D9E9
:1023C0000468E06892B202EB42021E3A4FF0070C3A
:1023D0000CFA02F220EA0202E2601C68E0680A8855
:1023E00002EB42021E3A8D6805FA02F20243E260F5
:1023F0004A68062A3CD81C68606B02EB8202053AE8
:102400004FF01F0C0CFA02F220EA020262631C6811
:10241000606B4A6802EB8202053AB1F800C00CFA20
:1024200002F20243626318683E4A904250D0186834
:102430003C4A904255D0002083F83C0002B030BCAA
:1024400070470468206992B202EB42024FF0070C19
:102450000CFA02F220EA020222611C6820690A8852
:1024600002EB42028D6805FA02F202432261BFE7E5
:102470000C2A16D81D68286B02EB8202233A1F240F
:1024800004FA02F220EA02022A631D68286B4A68F5
:1024900002EB8202233A0C8804FA02F202432A6316
:1024A000C1E71D68E86A02EB8202413A1F2404FA80
:1024B00002F220EA0202EA621D68E86A4A6802EB58
:1024C0008202413A0C8804FA02F20243EA62AAE765
:1024D0000A68122AABD11448426842F48002426072
:1024E000A5E70A68103A012AA5D80F48426842F4C5
:1024F000000242600A68102A9DD10C4A12680C49F9
:10250000A1FB0212920C02EB82025200019202E045
:10251000019A013A0192019A002AF9D18BE702202F
:102520008CE700BF00200140002301402000002074
:1025300083DE1B43002800F0E08170B582B00446C2
:10254000036813F0010F3BD09F4B9B6803F00C0313
:10255000042B2CD09C4B9B6803F00C03082B21D040
:102560006368B3F5803F4FD0B3F5A02F52D0964BA0
:102570001A6822F480321A601A6822F480221A60E3
:102580006368002B50D000F04DFD05468E4B1B6854
:1025900013F4003F14D100F045FD401B6428F5D929
:1025A0000320B1E1884B5B6813F4800FD8D0864BD1
:1025B0001B6813F4003F03D06368002B00F09F8179
:1025C000236813F0020F54D07F4B9B6813F00C0F5D
:1025D0003ED07D4B9B6803F00C03082B33D0E3689F
:1025E000002B68D0794B01221A6000F01BFD0546D4
:1025F000754B1B6813F0020F54D100F013FD401B04
:102600000228F5D903207FE16F4A136843F4803331
:102610001360B5E76C4B1A6842F480221A601A689E
:1026200042F480321A60ABE700F0FCFC0546664BD2
:102630001B6813F4003FC3D000F0F4FC401B642877
:10264000F5D9032060E1604B5B6813F4800FC6D1BD
:102650005D4B1B6813F0020F03D0E368012B40F0C1
:102660005081594A136823F0F803216943EAC103F2
:102670001360236813F0080F42D063696BB3534BA8
:102680000122C3F8802E00F0CDFC05464E4B5B6F57
:1026900013F0020F34D100F0C5FC401B0228F5D91D
:1026A000032031E1484A136823F0F803216943EA23
:1026B000C1031360DDE7454B00221A6000F0B2FC55
:1026C0000546414B1B6813F0020FD2D000F0AAFC64
:1026D000401B0228F5D9032016E13C4B0022C3F829
:1026E000802E00F09FFC0546374B5B6F13F0020F06
:1026F00006D000F097FC401B0228F5D9032003E127
:10270000236813F0040F77D02F4B1B6C13F0805FFE
:1027100033D1002301932C4B1A6C42F080521A647F
:102720001B6C03F080530193019B0125284B1B6810
:1027300013F4807F23D0A368012B34D0052B38D02D
:10274000214B1A6F22F001021A671A6F22F004025D
:102750001A67A368002B3DD000F064FC06461A4BB4
:102760001B6F13F0020F46D100F05CFC801B41F29E
:1027700088339842F3D90320C6E00025D6E7144AEF
:10278000136843F48073136000F04CFC0646104B52
:102790001B6813F4807FCED100F044FC801B02281C
:1027A000F5D90320B0E0084A136F43F00103136723
:1027B000CFE7054B1A6F42F004021A671A6F42F016
:1027C00001021A67C5E700BF003802400000474217
:1027D0000070004000F026FC0646524B1B6F13F0C1
:1027E000020F08D000F01EFC801B41F28833984293
:1027F000F3D9032088E0EDB9A369002B00F08380B2
:10280000484A926802F00C02082A51D0022B17D0D5
:10281000454B00221A6600F005FC0446414B1B683C
:1028200013F0007F42D000F0FDFB001B0228F5D919
:10283000032069E03B4A136C23F080531364DBE709
:10284000394B00221A6600F0EDFB0546354B1B683C
:1028500013F0007F06D000F0E5FB401B0228F5D9FD
:10286000032051E0E369226A1343626A43EA821358
:10287000A26A5208013A43EA0243E26A43EA026367
:10288000284A5360284B01221A6600F0CBFB04460D
:10289000244B1B6813F0007F06D100F0C3FB001B24
:1028A0000228F5D903202FE000202DE000202BE0A6
:1028B000012B2BD01B4B5B6803F48001E269914232
:1028C00026D103F03F02216A8A4223D1616A47F68A
:1028D000C0721A40B2EB811F1ED103F44031A26ACC
:1028E0005208013AB1EB024F18D103F07063E26A6B
:1028F000B3EB026F14D1002006E0012070470120E5
:1029000002E0012000E0002002B070BD0120FBE7E2
:102910000120F9E70120F7E70120F5E70120F3E7BF
:102920000120F1E7003802400000474208B5334B70
:102930009B6803F00C03042B5BD0082B5BD12F4B5F
:102940005A6802F03F025B6813F4800F2CD02B4BC7
:102950005868C0F388104FEA401CBCEB000C6EEBCB
:102960000E0E4FEA8E1343EA9C634FEA8C11B1EBD3
:102970000C0163EB0E03DB0043EA5173C90011EB5A
:10298000000C43F10003590200234FEA4C2041EAB6
:10299000DC51FDF765FC194B5B68C3F30143013360
:1029A0005B00B0FBF3F008BD144B5868C0F388100F
:1029B0004FEA401CBCEB000C6EEB0E0E4FEA8E1380
:1029C00043EA9C634FEA8C11B1EB0C0163EB0E03FD
:1029D000DB0043EA5173C90011EB000C43F1000323
:1029E000990200234FEA8C2041EA9C51FDF738FC04
:1029F000D1E70348D7E70348D5E700BF00380240D6
:102A000000127A000024F400002800F09B8070B5CA
:102A10000D4604464F4B1B6803F007038B4208D258
:102A2000CBB24C4A1370136803F007038B4240F09B
:102A30008B80236813F0020F17D013F0040F04D01B
:102A4000454A936843F4E0539360236813F0080FFA
:102A500004D0414A936843F4604393603E4A9368CC
:102A600023F0F003A1680B439360236813F0010F78
:102A700032D06368012B21D09A1E012A25D9364A0B
:102A8000126812F0020F61D033498A6822F0030203
:102A900013438B6000F0C6FA06462F4B9B6803F089
:102AA0000C036268B3EB820F16D000F0BBFA801BF8
:102AB00041F288339842F0D9032042E0264A126856
:102AC00012F4003FE0D101203BE0234A126812F0EB
:102AD000007FD9D1012034E01E4B1B6803F00703AF
:102AE000AB4207D9EAB21B4B1A701B6803F007030D
:102AF000AB422DD1236813F0040F06D0164A936819
:102B000023F4E053E1680B439360236813F0080F4C
:102B100007D0114A936823F46043216943EAC10353
:102B20009360FFF703FF0C4B9B68C3F303130B4A3F
:102B3000D35CD8400A4B18600A4B186800F026FA9C
:102B4000002070BD012070470120FAE70120F8E75E
:102B50000120F6E7003C0240003802408C68000883
:102B6000200000201C000020014B1868704700BFA7
:102B70002000002008B5FFF7F7FF044B9B68C3F364
:102B80008223034AD35CD84008BD00BF003802400E
:102B90008468000808B5FFF7E7FF044B9B68C3F3A0
:102BA0004233034AD35CD84008BD00BF003802401E
:102BB0008468000800230F2B00F2E98070B582B012
:102BC00065E085684FEA430E032404FA0EF425EA13
:102BD0000405CC6804FA0EF42C438460446824EAAB
:102BE00002044A68C2F300129A40224342605CE049
:102BF000DC08083450F8242003F00705AD004FF03E
:102C00000F0E0EFA05FE22EA0E0E0A69AA4042EAEB
:102C10000E0240F824205CE0072200E0002202FAC5
:102C20000EF22A4302345A4D45F82420594A94683A
:102C30006FEA0C0224EA0C054E6816F4801F01D0DE
:102C40004CEA0405534CA560E46802EA04054E68AA
:102C500016F4001F01D04CEA04054E4CE560646890
:102C600002EA04054E6816F4003F01D04CEA040560
:102C7000484C6560246822404D6815F4803F01D0BF
:102C80004CEA0402434C226001330F2B7DD8012211
:102C90009A400C6804EA020C32EA0404F4D14C684D
:102CA00004F00304013C012C8BD94A6802F00302B2
:102CB000032A09D0C4685D000322AA4024EA020462
:102CC0008A68AA402243C2604A6802F00302022ACC
:102CD0008ED004684FEA430E032202FA0EF224EA71
:102CE00002044A6802F0030202FA0EF22243026072
:102CF0004A6812F4403FC7D000220192264A546C21
:102D000044F480445464526C02F480420192019A6B
:102D10009C08A51C1E4A52F8255003F0030E4FEAEA
:102D20008E0E0F2202FA0EF225EA02051B4A90428D
:102D30003FF474AF02F5806290421AD002F58062CF
:102D4000904218D002F58062904216D002F580625F
:102D5000904214D002F58062904212D002F5806257
:102D6000904210D002F5806290423FF455AF0822A5
:102D700055E7012253E7022251E703224FE70422DD
:102D80004DE705224BE7062249E702B070BD7047C8
:102D900000380140003C0140003802400000024081
:102DA0000369194201D001207047002070470AB121
:102DB00081617047090481617047704708B5054B10
:102DC0005B69034200D108BD024B5861FFF7F5FF74
:102DD000F9E700BF003C014070B50446866D00F085
:102DE00021F994F83530DBB2022B06D080236365DD
:102DF000002384F83430012070BD05462268136832
:102E000023F0160313602268536923F08003536193
:102E1000236CE3B12268136823F00803136022686F
:102E2000136823F00103136023681B6813F0010F7C
:102E300011D000F0F7F8431B052BF5D9202363656B
:102E4000032084F83500002384F83430D4E7A36CE1
:102E5000002BDFD1E3E7E26D3F239340B360012312
:102E600084F83530002084F83400C5E790F8353018
:102E7000DBB2022B03D0802343650120704705237A
:102E800080F835300268136823F0010313600020D6
:102E900070470000002807DB00F01F0240090123F3
:102EA0009340024A42F82030704700BF00E100E042
:102EB000002808DB0901C9B200F1604000F561405B
:102EC00080F80013704700F00F000901C9B2014BF0
:102ED0001954704714ED00E000B500F00700C0F190
:102EE000070CBCF1040F28BF4FF0040C031D062B88
:102EF0000FD9C31E4FF0FF3E0EFA0CF021EA00017D
:102F000099400EFA03FE22EA0E0241EA02005DF841
:102F100004FB0023EEE70000074AD36823F4E063D4
:102F20001B041B0C000200F4E060034343F0BF638A
:102F300043F40033D360704700ED00E010B5044661
:102F4000054BD868C0F30220FFF7C6FF01462046B4
:102F5000FFF7AEFF10BD00BF00ED00E008B5FFF7C2
:102F600099FF08BD0138B0F1807F0BD24FF0E0230C
:102F70005861054AF02182F8231000209861072249
:102F80001A6170470120704700ED00E010B504465B
:102F90000E4B1A784FF47A73B3FBF2F30C4A1068B5
:102FA000B0FBF3F0FFF7DEFF68B90F2C01D9012069
:102FB0000AE0002221464FF0FF30FFF7BFFF054B2C
:102FC0001C60002000E0012010BD00BF18000020A0
:102FD000200000201C00002008B50B4B1A6842F4AA
:102FE00000721A601A6842F480621A601A6842F429
:102FF00080721A600320FFF78FFF0F20FFF7C6FFD4
:10300000FEF7CAFF002008BD003C0240034A1168D9
:10301000034B1B780B441360704700BF300C00203B
:1030200018000020014B1868704700BF300C0020CA
:1030300038B50446FFF7F6FF0546B4F1FF3F02D06E
:10304000044B1B781C44FFF7EDFF401BA042FAD352
:1030500038BD00BF18000020002800F0CC8070B5FB
:10306000044690F83D30002B77D0242384F83D307F
:103070002268136823F0010313602268136843F485
:10308000004313602268136823F400431360FFF7C2
:1030900071FD62685A4B9A4264D85A4B98428CBF71
:1030A00000230123002B40F0A8805749A1FB0031E9
:1030B0008B0C25686A6822F03F0242EA91426A60FE
:1030C00021680A6A22F03F0266684D4DAE424FD831
:1030D000013313430B622168CA6922F44F4222F084
:1030E000FF026568464B9D424CD8431E6D00B3FB02
:1030F000F5F3013340F6FC70034278D0C3F30B03C1
:103100001A43CA6121680B6823F0C003E269206A90
:10311000024313430B6021688B6823F4034323F0BD
:10312000FF032269E068024313438B602168CB6888
:1031300023F0FF036269A06902431343CB60226856
:10314000136843F00103136000202064202384F8F7
:103150003D30206384F83E0070BD80F83C30FEF7BF
:1031600069F982E7294B98428CBF0023012399E734
:103170004FF4967505FB03F3254DA5FB03539B09FF
:103180000133A6E7A668BEB9431E05EB450CB3FBA9
:10319000FCF30133C3F30B03B3FA83F35B0943BBC3
:1031A000C6B9431E05EB4505B3FBF5F30133C3F385
:1031B0000B0343F40043A3E7431E05EB850C0CEB24
:1031C0008C0CB3FBFCF30133C3F30B03B3FA83F3AF
:1031D0005B09E4E7431E05EB850505EB8505B3FBBD
:1031E000F5F30133C3F30B0343F4404388E70423AF
:1031F00086E7012384E7012070470120ACE700BF88
:10320000A08601007F841E0083DE1B43FF083D0073
:10321000D34D621030B4036A026A22F001020262E6
:103220004268846924F0730C0C6844EA0C0423F0AF
:10323000020C8B6843EA0C03114DA84203D005F53C
:103240008065A84205D123F00803CD682B4323F005
:1032500004030B4DA84203D005F58065A84207D1B1
:1032600022F440724D6945EA020C8A6942EA0C0276
:10327000426084614A684263036230BC704700BFA9
:103280000000014030B4036A026A22F480720262D4
:103290004268C46924F0730C0C6844EA0C0523F4FA
:1032A00000738C6843EA0423114CA04203D004F558
:1032B0008064A04206D123F40063CC6843EA04236F
:1032C00023F480630A4CA04203D004F58064A0423A
:1032D00007D122F440524C6942EA04128C6942EA56
:1032E00004124260C5614A68C263036230BC704721
:1032F0000000014030B4036A026A22F48052026284
:103300004468C26922F4E6420D6842EA052223F4C9
:1033100000538D6843EA0533094DA84203D005F5F3
:103320008065A84204D124F480444D6944EA8514A0
:103330004460C2614A680264036230BC704700BFE7
:103340000000014010B4036A046A24F0010404621E
:10335000846924F0F00C4CEA021223F00A030B43B8
:10336000826103625DF8044B704710B4036A046A1B
:1033700024F010040462846924F4704C4CEA023294
:1033800023F0A00343EA0113826103625DF8044B5A
:103390007047836823F070030B4343F00703836097
:1033A000704700000368344A904212D0B0F1804F59
:1033B0000FD0A2F57C4290420BD002F58062904281
:1033C00007D002F58062904203D002F57842904225
:1033D00003D123F070034A681343274A90422AD04E
:1033E000B0F1804F27D0A2F57C42904223D002F565
:1033F000806290421FD002F5806290421BD002F59D
:103400007842904217D002F57052904213D002F5E4
:10341000806290420FD002F5806290420BD0A2F5FC
:103420009832904207D002F58062904203D002F5B4
:103430008062904203D123F44073CA68134323F09F
:1034400080034A69134303608B68C3620B6883621D
:10345000094B984203D003F58063984201D10B6970
:10346000036301234361036913F0010F03D0036970
:1034700023F00103036170470000014040B310B521
:10348000044690F83D30F3B1022384F83D302146E4
:1034900051F8040BFFF786FF012384F8463084F8C7
:1034A0003E3084F83F3084F8403084F8413084F86E
:1034B000423084F8433084F8443084F8453084F84E
:1034C0003D30002010BD80F83C30FDF7EBFFDBE71E
:1034D0000120704740B310B5044690F83D30F3B179
:1034E000022384F83D30214651F8040BFFF75AFFC0
:1034F000012384F8463084F83E3084F83F3084F865
:10350000403084F8413084F8423084F8433084F805
:10351000443084F8453084F83D30002010BD80F8F8
:103520003C30FDF7F9FFDBE70120704730B4036A58
:10353000026A22F0100202624468826922F4E642C2
:103540000D6842EA052223F020038D6843EA051343
:10355000114DA84203D005F58065A84206D123F09D
:103560008003CD6843EA051323F040030A4DA842C7
:1035700003D005F58065A84207D124F440644D6965
:1035800044EA85048D6944EA8504446082614A689E
:103590008263036230BC70470000014038B590F888
:1035A0003C30012B66D004460D46012380F83C30A8
:1035B0000C2A5AD8DFE802F0075959591B595959B2
:1035C0003059595944000068FFF724FE2268936976
:1035D00043F0080393612268936923F00403936125
:1035E0002268936929690B43936100203EE00068DB
:1035F000FFF79CFF2268936943F40063936122689C
:10360000936923F48063936122689369296943EA8B
:1036100001239361002029E00068FFF733FE226850
:10362000D36943F00803D3612268D36923F004030C
:10363000D3612268D36929690B43D361002015E067
:103640000068FFF757FE2268D36943F40063D36133
:103650002268D36923F48063D3612268D36929691E
:1036600043EA0123D361002000E00120002384F815
:103670003C3038BD0220FCE710B4846824F47F4C51
:1036800042EA03220A4342EA0C0282605DF8044BDC
:10369000704790F83C30012B78D010B504460123D8
:1036A00080F83C30022380F83D300268936823F4B0
:1036B0007F4323F0770393600B68602B4CD023D8B3
:1036C000402B54D011D8202B03D00AD80BB1102B8B
:1036D00005D119462068FFF75CFE002028E0012094
:1036E00026E0302BF5D0012022E0502B0AD1CA6809
:1036F00049680068FFF726FE50212068FFF749FE61
:10370000002015E0012013E0B3F5805F3AD0B3F557
:10371000005F14D0702B37D1CB684A688968006885
:10372000FFF7AAFF2268936843F0770393600020B5
:10373000012384F83D30002384F83C3010BDCB6871
:103740004A6889680068FFF797FF2268936843F426
:10375000804393600020EBE7CA6849680068FFF780
:1037600004FE60212068FFF714FE0020E0E7CA682D
:1037700049680068FFF7E6FD40212068FFF709FE71
:103780000020D5E70020D3E70120D1E702207047D1
:1037900001F01F014FF0010C0CFA01FC036A23EA4F
:1037A0000C030362036A8A401343036270470000FC
:1037B00010B504460846002942D194F83E30DBB2E9
:1037C000013B18BF0123002B6ED1002851D10223E9
:1037D00084F83E30012201462068FFF7D9FF2368B4
:1037E000334A934203D002F58062934203D15A6C6C
:1037F00042F400425A6423682D4A934249D0B3F1FF
:10380000804F46D0A2F57C42934242D002F58062BE
:1038100093423ED002F5806293423AD002F578425C
:10382000934236D002F57052934232D0A2F59432D0
:1038300093422ED01A6842F001021A60002032E052
:10384000042908D008290DD094F84130DBB2013B9F
:1038500018BF0123B7E794F83F30DBB2013B18BF34
:103860000123B0E794F84030DBB2013B18BF0123DD
:10387000A9E7042805D0082807D0022384F841309E
:10388000A8E7022384F83F30A4E7022384F84030FD
:10389000A0E79A6802F00702062A07D01A6842F0E9
:1038A00001021A60002010BD0120FCE70020FAE7A9
:1038B0000000014090F83C20012A3DD010B403469E
:1038C000012280F83C20022280F83D2002685068E6
:1038D000946820F0700C086840EA0C0050601A6888
:1038E000164882421AD0B2F1804F17D0A0F57C4022
:1038F000824213D000F5806082420FD000F58060D4
:1039000082420BD000F57840824207D000F570501B
:10391000824203D0A0F59430824204D124F0800486
:10392000496821439160012283F83D20002083F8FB
:103930003C005DF8044B70470220704700000140D6
:10394000024690F83C30012B21D0012380F83C3016
:10395000CB6823F440738868034323F4806348688A
:10396000034323F400630868034323F48053086986
:10397000034323F400534869034323F48043C96994
:103980000B4311684B64002082F83C007047022012
:103990007047026802F10C0353E8003F23F4907370
:1039A0000C3242E800310029F3D1026802F114031D
:1039B00053E8003F23F00103143242E800310029AC
:1039C000F3D1036B012B05D0202380F84230002374
:1039D00003637047026802F10C0353E8003F23F0D1
:1039E00010030C3242E800310029F3D1ECE790F8E3
:1039F0004130DBB2212B01D0022070478368B3F540
:103A0000805F17D0036A5A1C02621A7803685A60F2
:103A1000C38C9BB2013B9BB2C3844BB90268D36891
:103A200023F08003D3600268D36843F04003D3607F
:103A3000002070470369002BE4D1036A1B880268E9
:103A4000C3F308035360036A02330362E0E7000034
:103A500010B504460268136923F44053C1680B4350
:103A60001361836802691A4343691A43C3691A439D
:103A70000168CB6823F4164323F00C031343CB6097
:103A80000268536923F4407381690B4353610368EF
:103A9000314A934206D002F58062934202D0FFF78A
:103AA00069F801E0FFF776F8E369B3F5004F29D034
:103AB0000021031849411B1841F10001C90041EAE6
:103AC0005371DB00181863684FEA83024FEA93735F
:103AD00041F10001FCF7C4FB204AA2FB0031490977
:103AE000642303FB11031B013233A2FB03235B0995
:103AF00003F0F00202EB011203F00F0321681344FC
:103B00008B6010BD0023021843EB0301121841F132
:103B10000001C90041EA5271D200101841F10001C0
:103B2000626892185B41FCF79BFB0C4AA2FB0031D8
:103B30004909642303FB1103DB003233A2FB032397
:103B40005B095A0002F4F87202EB011203F007035A
:103B5000216813448B60D4E7001001401F85EB51AE
:103B60002DE9F04383B005460E4617469946DDF829
:103B700028802B681C6836EA04040CBF012400244A
:103B8000BC4228D1B8F1FF3FF3D0FFF74BFAA0EBCE
:103B90000900404523D8B8F1000F22D02B68DA681D
:103BA00012F0040FE5D0802EE3D0402EE1D01A6849
:103BB00012F0080FDDD0002401941A6801925B68AE
:103BC0000193019B2846FFF7E4FE08236B6485F808
:103BD0004040012000E0002003B0BDE8F083032056
:103BE000FAE70320F8E760B310B5044690F84130D7
:103BF00013B3242384F841302268D36823F400539C
:103C0000D3602046FFF724FF2268136923F4904312
:103C100013612268536923F02A0353612268D36831
:103C200043F40053D36000206064202384F84130C3
:103C300084F84230606310BD80F84030FDF798FF93
:103C4000D7E7012070472DE9F04182B01E4690F879
:103C50004130DBB2202B56D104460D469046002958
:103C600055D00AB901204FE000234364212380F896
:103C70004130FFF7D7F90746A4F82480A4F826803E
:103C8000A368B3F5805F02D04FF0000814E0236909
:103C90002BB34FF000080FE0202384F841300320BD
:103CA00032E038F8023B2268C3F308035360E28C29
:103CB00092B2013A92B2E284E38C9BB293B1009645
:103CC0003B46002280212046FFF74AFF0028E3D12F
:103CD000002DE6D015F8012B23685A60E7E7A846C7
:103CE0000025E9E700963B46002240212046FFF7E9
:103CF00037FF18B9202384F8413005E0202384F8E9
:103D00004130032000E0022002B0BDE8F081012034
:103D1000FAE7704708B50168CA6822F04002CA6035
:103D2000202280F84120FFF7F4FF002008BD7047F3
:103D300008B5806B0023C385C384FFF7F8FF08BD77
:103D4000704790F84230DBB2222B69D18368B3F51B
:103D5000805F4FD0826AB3F5805F04D0002B56D1CC
:103D60000369002B53D103685B681370836A0133C6
:103D70008362C38D9BB2013B9BB2C385002B51D1A3
:103D800000B583B00268D36823F02003D3600268D3
:103D9000D36823F48073D3600268536923F001036E
:103DA0005361202380F8423000234363036B012BCF
:103DB00033D100230363026802F10C0353E8003F90
:103DC00023F010030C3242E800310029F3D10368DC
:103DD0001A6812F0100F06D0002201921A680192A0
:103DE0005B680193019B818DFFF7AAFF002003B060
:103DF0005DF804FB0269002AACD1826A03685B6843
:103E0000C3F308031380836A02338362B1E7036854
:103E10005B6803F07F031370A8E7FCF74BFEE5E750
:103E2000022070470020704710B582B00446026837
:103E30001368D068516913F00F0F09D113F0200FE8
:103E40000CD010F0200F09D02046FFF77AFF16E0C3
:103E500011F0010115D110F4907F12D1216B0129CD
:103E600079D013F0800F03D010F0800F40F0148150
:103E700013F0400F03D010F0400F40F0118102B05A
:103E800010BD13F0010F06D010F4807F03D0626CD8
:103E900042F00102626413F0040F04D019B1626CA5
:103EA00042F00202626413F0020F04D019B1626C96
:103EB00042F00402626413F0080F07D010F0200FE4
:103EC00000D119B1626C42F008026264626C002A8F
:103ED000D5D013F0200F02D010F0200F29D1236885
:103EE0005B6903F04003626C12F0080F00D163B30A
:103EF0002046FFF74EFD23685B6913F0400F20D08A
:103F0000226802F1140353E8003F23F04003143207
:103F100042E800310029F3D1E36B73B1624A1A65BC
:103F2000E06BFEF7A3FF0028A9D0E06B036D984774
:103F3000A5E72046FFF705FFD1E72046FFF7F7FE8C
:103F40009DE72046FFF7F3FE99E72046FFF7EFFED7
:103F50000023636493E713F0100F82D010F0100F6A
:103F60003FF47FAF002301931368019353680193DB
:103F7000019B536913F0400F52D0E26B13685B68EA
:103F80009BB2002B3FF47BAFA18D99427FF677AFB8
:103F9000E385D369B3F5807F37D0226802F10C0343
:103FA00053E8003F23F480730C3242E800310029CB
:103FB000F3D1226802F1140353E8003F23F0010318
:103FC000143242E800310029F3D1226802F11403CF
:103FD00053E8003F23F04003143242E80031002947
:103FE000F3D1202384F8423000232363226802F1B6
:103FF0000C0353E8003F23F010030C3242E8003179
:104000000029F3D1E06BFEF7E7FE02236363A18D85
:10401000E38D9BB2C91A89B22046FFF791FE2EE7C5
:10402000A18DE38D9BB2C91A89B2E38D9BB2002B9F
:104030003FF425AF00293FF422AF226802F10C03C0
:1040400053E8003F23F490730C3242E8003000281C
:10405000F3D1226802F1140353E8003F23F0010377
:10406000143242E800300028F3D1202384F8423093
:1040700000232363226802F10C0353E8003F23F07E
:1040800010030C3242E800300028F3D102236363AE
:104090002046FFF755FEF2E62046FFF7A8FCEEE6C5
:1040A0002046FFF737FEEAE6313D0008816282854F
:1040B000C28500234364222380F84230036923B180
:1040C0000268D36843F48073D3600268536943F095
:1040D000010353610268D36843F02003D3600020DA
:1040E000704708B590F84230DBB2202B08D149B1B7
:1040F0000AB9012008BD00230363FFF7D7FFF9E7E2
:104100000220F7E70120F5E730B583B000287AD028
:104110000446056890F89534C3B1032384F89534B8
:10412000B5F1A04F17D0206800F0DDF8237C8DF8A2
:104130000030231D0ECB206800F08CF870B10223F4
:1041400084F895340125284603B030BD80F89434B6
:10415000FDF78EFEE1E70023A371E4E7002120686C
:1041600000F0F2F9024608B9034617E0022384F88A
:1041700095340125E7E703EBC30104EB810101203E
:1041800048750B75CB8500200876C861086203EB83
:10419000C30104EB810148620133DBB2207998420C
:1041A000E9D816E002EBC20304EB8303002183F895
:1041B000551283F8542283F85812C3F85C12C3F8DE
:1041C000601202EBC20304EB8303C3F864120132F2
:1041D000D2B29042E6D8237C8DF80030231D0ECB5E
:1041E000206800F0D5F8054620B1022384F8953404
:1041F0000125A8E700236374012384F8953420681F
:1042000000F090F99FE701259DE782B0002301931C
:10421000019B01330193019BB3F1706F15D80369C2
:10422000002BF5DA00230193036943F001030361D6
:10423000019B01330193019BB3F1706F08D80369AF
:1042400013F0010FF4D1002000E0032002B070470A
:104250000320FBE784B010B5044603A880E80E00F5
:104260009DF81130012B21D1A36B23F48033A3637C
:10427000E36823F4840323F04003E360E36823F45A
:104280004013E3609DF81830012B0AD02046FFF759
:10429000BCFF9DF80E30012B1CD0BDE8104004B0CF
:1042A0007047E36843F48013E360EFE7E36843F0AB
:1042B0004003E3602046FFF7A8FF9DF8153023B9BF
:1042C000A36B43F48033A363E3E7A36B23F480334E
:1042D000A363DEE7A36843F00603A360A36843F08B
:1042E0002003A360D9E7836823F0010383600020E3
:1042F000704782B000230193019B01330193019B1E
:10430000B3F1706F15D80369002BF5DA0023019320
:10431000890141F020010161019B01330193019B5F
:10432000B3F1706F08D8036913F0200FF4D10020A7
:1043300000E0032002B070470320FBE782B00023B7
:104340000193019B01330193019BB3F1706F13D86B
:104350000369002BF5DA0023019310230361019B0D
:1043600001330193019BB3F1706F08D8036913F017
:10437000100FF4D1002000E0032002B070470320AA
:10438000FBE7D0F800381943C0F800180020704748
:1043900084B0F8B5044607A880E80E00002306E0C4
:1043A00003F1400204EB82020021516001330E2B25
:1043B000F6D99DF8266006BBD4F8043843F0020312
:1043C000C4F80438A36B43F40013A363A36B23F472
:1043D0000023A363A36B23F48023A3630023C4F807
:1043E000003E9DF82130012B15D19DF81F306BB98F
:1043F00000212046FFF7C5FF11E0A36B23F4001353
:10440000A363A36B43F40023A363E7E701212046E2
:10441000FFF7B7FF03E003212046FFF7B2FF1021AB
:104420002046FFF766FF054600B101252046FFF74D
:1044300085FF00B1012504F5006C0023CCF8103095
:10444000CCF81430CCF81C300AE0CBB94FF0006047
:10445000C2F8000900220A614FF67F328A600133F8
:104460009DF81C10994210D904EB431202F510611B
:10447000D2F800090028E8DB0020C2F80009E9E7CB
:104480004FF09040C2F80009E4E700230AE0BBB116
:104490004FF09047C2F8007B002202614FF67F3256
:1044A00082600133994210D904EB431202F5306067
:1044B000D2F8007B002FEADB0027C2F8007BEBE795
:1044C0004FF00067C2F8007BE6E7DCF8103023F419
:1044D0008073CCF810300023A3616FF080436361D8
:1044E0009DF81E301BB9A36943F01003A361A269B4
:1044F0000B4B1343A3619DF822301BB1A36943F01A
:104500000803A361012E04D02846BDE8F84004B09A
:104510007047A36943F0804343F00403A361F3E7CA
:1045200000383C80D0F8003E23F00303C0F8003E82
:10453000D0F8043843F00203C0F804380020704774
:10454000406900F00100704738B50546C36823F0A4
:10455000C043C360012913D019BBC36843F0804333
:10456000C36000240A20FEF763FD0A342846FFF7E3
:10457000E7FF08B1C72CF5D9C82C14D0002038BDEE
:10458000C36843F00053C36000240A20FEF750FDC7
:104590000A342846FFF7D4FF0128EDD0C72CF4D900
:1045A000EAE70120EBE70120E9E70000034AD2F83F
:1045B000883043F47003C2F88830704700ED00E0A3
:1045C00010B503460C4A0D490D48006840B10C482F
:1045D00000680344521A934206D8094A136010BD7A
:1045E0000748084C0460F2E700F08CFA0C230360E3
:1045F0004FF0FF30F3E700BF00000220000400008E
:10460000340C0020880D002070B50C46164600259D
:1046100006E0AFF30080214601F8010B01350C469E
:10462000B542F6DB304670BD70B50C461646002527
:1046300004E014F8010BFBF773FE0135B542F8DB1B
:10464000304670BD4FF0FF3070474FF400534B6061
:10465000002070470120704700207047DFF834D0F9
:10466000FFF7A4FF0C480D490D4A002302E0D4587F
:10467000C4500433C4188C42F9D30A4A0A4C0023AC
:1046800001E013600432A242FBD300F041FAFCF7D0
:1046900093FC7047000002200000002080000020F2
:1046A000FC69000880000020840D0020FEE7000067
:1046B0000CB430B5184B0C1E1D689DB008DA8B2366
:1046C0002B604FF0FF301DB0BDE8304002B07047A6
:1046D0004FF40273ADF814304FF000031B9314BF76
:1046E00004F1FF332346049307934FF6FF730290C0
:1046F0000690ADF81630209A21AB02A92846019306
:1047000000F0ECFA431CBCBF8B232B60002CDAD0EA
:10471000029B00221A70D6E7300000200EB470B55C
:104720009DB021AC00254FF4017254F8046BADF834
:1047300014201B9502900690FBF734FD0B4B039061
:1047400007900B480B934FF6FF73ADF816303246C7
:10475000234602A900680F951495019400F014FCFB
:104760001DB0BDE8704003B0704700BF9747000818
:104770003000002010B50C46B1F90E1000F09EF983
:104780000028ABBF636DA3891B1823F48053ACBF13
:104790006365A38110BD002070472DE9F0411F46DD
:1047A0008B89DB0505460C46164605D5B1F90E107A
:1047B0000223002200F070F9A389B4F90E1023F44B
:1047C0008053A38132463B462846BDE8F04100F0C5
:1047D00087B910B50C46B1F90E1000F05DF9431C15
:1047E000A38915BF606523F4805343F48053A381EC
:1047F00018BFA38110BDB1F90E1000F0B1B90000CF
:10480000002310B50446C0E90033C0E904338360D7
:1048100081814366C2818361194608225C3000F0C1
:1048200021F90D4B63620D4BA3620D4BE3620D4BFF
:1048300023630D4B24629C4206D003F1680294422C
:1048400002D0D0339C4205D104F15800BDE810409D
:1048500000F082B910BD00BF754700089B470008F3
:10486000D3470008F7470008380C0020024A0349E4
:10487000034800F069B800BF240000206D5D000807
:104880003400002041680C4B994210B5044601D019
:1048900001F06CFAA168094B994202D0204601F060
:1048A00065FAE168064B994204D02046BDE8104005
:1048B00001F05CBA10BD00BF380C0020A00C002035
:1048C000080D002010B50B4B0B4C0C4A1A6020460B
:1048D00000220421FFF794FF04F16800012209215E
:1048E000FFF78EFF04F1D0000222BDE81040122134
:1048F000FFF786BF700D0020380C00206D480008BF
:10490000014800F02AB900BF750D0020014800F0F1
:1049100025B900BF750D002010B50446FFF7F0FF64
:10492000236A1BB1BDE81040FFF7F0BF044B2362C0
:10493000044B1B68002BF5D1FFF7C4FFF2E700BF63
:1049400085480008700D00202DE9F8430746884689
:1049500014460026D4E90195B9F1010905D524686A
:10496000002CF7D13046BDE8F883AB89012B07D97D
:10497000B5F90E30013303D029463846C047064307
:104980006835E9E70FB407B5064904AB086853F882
:10499000042B8168019300F097FC03B05DF804EBF1
:1049A00004B0704730000020036A70B58468054683
:1049B0000E460BB9FFF7B0FF636EDB0705D4A38982
:1049C000980502D4A06D00F0C8F8A389190702D594
:1049D0002369002B35D12146284601F08DFB80B399
:1049E0004FF0FF35636EDA0705D4A3899B0502D427
:1049F000A06D00F0B3F8284670BD002B04DAA26960
:104A00009A4217DC0A2915D023685A1C22601970B3
:104A1000A36816F8011F013BA3600029EDD1002B0C
:104A200011DA22460A21284601F03CFA0130D7D09B
:104A30000A25D7E72246284601F034FA0130E7D1AB
:104A4000CEE7013EE4E723685A1C22600A221A706E
:104A5000EEE70000024B01461868FFF7A5BF00BF54
:104A60003000002002440346934200D1704703F80F
:104A7000011BF9E710B56AB10139841810F8012B50
:104A800011F8013F9A4203D1A04201D0002AF5D18A
:104A9000D01A10BD1046FCE738B5074D044608464D
:104AA000114600222A601A46FFF7D6FD431C02D1A8
:104AB0002B6803B1236038BD780D002038B5074D51
:104AC00004460846114600222A601A46FFF79CFD5C
:104AD000431C02D12B6803B1236038BD780D002040
:104AE00038B5074D04460846114600222A601A468A
:104AF000FFF79AFD431C02D12B6803B1236038BD38
:104B0000780D0020014B1868704700BF300000206E
:104B100070B50D4D0D4C641BA4100026A64209D1A2
:104B20000B4D0C4C01F060FD641BA4100026A64246
:104B300005D170BD55F8043B98470136EEE755F8AE
:104B4000043B98470136F2E7F4690008F46900086D
:104B5000F4690008F8690008704770477047000062
:104B600038B5064D0023044608462B60FFF76AFD62
:104B7000431C02D12B6803B1236038BD780D00209F
:104B8000034611F8012B03F8012B002AF9D17047D5
:104B900038B50546002941D051F8043C0C1F002BC4
:104BA000B8BFE41801F00AF91D4A136833B963600D
:104BB00014602846BDE8384001F006B9A34208D980
:104BC000206821188B4201BF19685B6809182160B1
:104BD000EDE71A465B680BB1A342FAD91168501889
:104BE000A0420BD120680144501883421160E0D1EB
:104BF00018685B68536008441060DAE702D90C2338
:104C00002B60D6E7206821188B4204BF19685B68C7
:104C1000636004BF091821605460CAE738BD00BF53
:104C2000800D00202DE9F0478E681F46BE420B68BC
:104C300082460C4690462DD8B1F90C2012F4906FA4
:104C400026D06569096905EB4505A3EB010905EB6C
:104C5000D5757B1C4B446D109D4238BF1D465305D6
:104C600027D5294600F06AFC064660B321694A460A
:104C700001F046FBA38923F4906343F08003A381F2
:104C8000266165614E44A5EB09052660A5603E4698
:104C9000BE4200D93E4620683246414601F0E4FA61
:104CA000A3689B1BA3602368334423600020BDE8F6
:104CB000F0872A4601F0C8F806460028E0D12169AD
:104CC0005046FFF765FF0C23CAF80030A38943F074
:104CD0004003A3814FF0FF30E9E700002DE9F04FDA
:104CE00098468B891B069DB007460D46144610D585
:104CF0000B6973B9402100F021FC2860286130B9AC
:104D00000C233B604FF0FF301DB0BDE8F08F402317
:104D10006B610023099320238DF82930CDF80C8096
:104D20003023DFF89C818DF82A304FF001092346AB
:104D30009A4613F8012B0AB1252AF9D1BAEB040BD4
:104D40000BD05B46224629463846FFF76BFF013001
:104D500000F0A780099A5A4409929AF80030002B73
:104D600000F09F8000234FF0FF32CDE905230AF1C8
:104D7000010A049307938DF853301A935446052281
:104D800014F8011B4E48FBF71BFA049AD8B9D00659
:104D900044BF20238DF85330110744BF2B238DF8D7
:104DA00053309AF800302A2B15D0079A5446002029
:104DB0004FF00A0C214611F8013B303B092B4BD92F
:104DC000B0B1079214E0A0EB080309FA03F3134310
:104DD0000493A246D2E7039B191D1B680391002B85
:104DE000BBBF5B4242F0020207930793B8BF049235
:104DF00023782E2B0AD163782A2B32D1039B1A1DDC
:104E00001B68039243EAE37302340593DFF8C0A002
:104E1000217803225046FBF7D3F938B1049BA0EB6D
:104E20000A004022824013430134049314F8011B0A
:104E300024488DF828100622FBF7C2F9002836D046
:104E4000214B1BBB039B073323F00703083303935A
:104E5000099B334409936AE70CFB02320C4601209C
:104E6000A8E700230134059319464FF00A0C2046A9
:104E700010F8012B303A092A03D9002BC6D005912E
:104E8000C4E70CFB012104460123F0E703AB0093C8
:104E90002A460E4B04A93846AFF30080421C064652
:104EA000D6D1AB895B063FF52DAF09982CE703AB54
:104EB00000932A46054B04A9384600F02DFCEDE787
:104EC0009C680008A668000800000000254C000847
:104ED000A268000838B54B1C144603D14FF0FF35CB
:104EE000284638BD938923F020039381636B526871
:104EF000CDB28BB1A36B934208DD23685A1E2260AA
:104F000003F8015C636801336360E9E7214600F060
:104F100061FF0028F1D0E1E72169236851B199428E
:104F200008D213F8011CA94204D1013B01322360CD
:104F30006260D5E7C4E90F3204F1440363630323DD
:104F4000A363234603F8465F23600123DCE710B523
:104F50000C46496B69B104F14403994201D0FFF753
:104F600017FE236C63600020606313B1E36B236062
:104F700010BD2369236000236360A38943F02003ED
:104F8000A3814FF0FF30F3E72DE9F04F0C46ADF56C
:104F9000237D0021CDE94411A649A0910DF104081B
:104FA000A549A64FCDF818810646A191009392F825
:104FB0000090B9F1000F00F0588117F8093013F094
:104FC000080302F1010519D06368002B0FDD236887
:104FD0001A78BA5C120701D42A46E8E7459A0132EA
:104FE000459262680133013A62602360ECE7A19B5D
:104FF0002146304698470028E9D0EDE7B9F1250F62
:1050000040F085804193439353782A2B02BF1023AD
:10501000951C41930A22AA461AF8011BA1F13003FC
:10502000092B1ED9DFF818B203225846FBF7C8F83F
:1050300038B1419AA0EB0B00012383401343419305
:10504000554615F8013B782B06D8572B10D8252B41
:105050005DD057D8002B75D0032347930A23429382
:1050600088E0439B02FB0311303943915546D2E758
:10507000A3F15802202AEFD801A151F822F000BF75
:10508000535100085950000859500008AD5100080C
:10509000595000085950000859500008595000084C
:1050A000595000085950000859500008C3510008D1
:1050B000A95100080B5100080B5100080B510008C2
:1050C000595000086551000859500008595000080F
:1050D0005950000859500008D35100086D5100087C
:1050E0004B5100085950000859500008CF51000892
:1050F00059500008A951000859500008595000089B
:1051000053510008453B022BA6D8052331E06368C4
:10511000002B0DDD23681A784A4540F0A680013344
:1051200062682360459B013A01336260459353E70F
:10513000A19B2146304698470028EBD04498002890
:1051400040F08B804FF0FF308BE0419A42F020021C
:105150004192419A42F40072419210226E2B429287
:1051600002D905E000234293032302E0082342937F
:10517000042347936368002B39DD419B590604D40F
:1051800023681A78BA5C120738D4479B022B47DC95
:105190006B46224641A9304600F0DCFB012864D072
:1051A00002287FF419AFC9E70A22D7E7294640460B
:1051B00000F01EFD419B43F040034193054601234F
:1051C000D7E7419B43F0400341930023D1E70223FB
:1051D000CFE74198C3063FF5FFAE009B459A191DE6
:1051E00000911B68C0074CBF1A801A60F4E6A19BAF
:1051F0002146304698470028BFD09FE7459A0132A4
:1052000045926268013A002A626002DD0133236040
:10521000B6E7A19B2146304698470028B0D08DE7DD
:10522000042B0FDC6B46224641A9304600F0ECFB14
:10523000B4E700BFD54E00084F4F0008EB680008E8
:10524000A26800080A4B002B3FF4C6AE6B4622460C
:1052500041A93046AFF30080A0E7A3895B063FF584
:1052600071AF0DF5237DBDE8F08F4498F9E700BFDD
:10527000000000009368013B002B10B4936008DA33
:105280009469A34201DB0A2903D15DF8044B00F0C5
:1052900009BE1368581C1060197008465DF8044B6D
:1052A0007047F8B506460F461446D518AC4201D1F2
:1052B000002007E014F8011B3A463046FFF7DAFFFA
:1052C000431CF3D1F8BD00002DE9F04F0D469DB011
:1052D00014469846064618B1036A0BB9FFF71CFB43
:1052E0006B6ED90705D4AB899A0502D4A86DFFF778
:1052F00034FCAB891B0701D52B699BB92946304685
:1053000000F0FAFE70B16B6EDC0704D54FF0FF3091
:105310001DB0BDE8F08FAB899805F7D4A86DFFF7F5
:105320001DFCF3E70023099320238DF82930CDF8E5
:105330000C803023DFF8AC818DF82A304FF0010962
:1053400023469A4613F8012B0AB1252AF9D1BAEB64
:10535000040B0BD05B46224629463046FFF7A1FFDF
:10536000013000F0A780099A5A4409929AF8003057
:10537000002B00F09F8000234FF0FF32CDE9052382
:105380000AF1010A049307938DF853301A93544697
:10539000052214F8011B5348FAF712FF049AD8B9F2
:1053A000D10644BF20238DF85330130744BF2B236D
:1053B0008DF853309AF800302A2B15D0079A5446AE
:1053C00000204FF00A0C214611F8013B303B092B1D
:1053D0004BD9B0B1079214E0A0EB080309FA03F32C
:1053E00013430493A246D2E7039B191D1B68039144
:1053F000002BBBBF5B4242F0020207930793B8BF8A
:10540000049223782E2B0AD163782A2B32D1039B66
:105410001A1D1B68039243EAE37302340593DFF815
:10542000D4A0217803225046FAF7CAFE38B1049B73
:10543000A0EB0A004022824013430134049314F885
:10544000011B29488DF828100622FAF7B9FE00281A
:105450003FD0264B1BBB039B073323F007030833C6
:105460000393099B3B4409936AE70CFB02320C4609
:105470000120A8E700230134059319464FF00A0CD8
:10548000204610F8012B303A092A03D9002BC6D048
:105490000591C4E70CFB012104460123F0E703ABAF
:1054A00000932A46124B04A93046AFF3008007460A
:1054B000781CD6D16B6ED90705D4AB899A0502D476
:1054C000A86DFFF74BFBAB895B063FF51FAF099853
:1054D0001EE703AB00932A46054B04A9304600F0B3
:1054E0001BF9E4E79C680008A668000800000000BB
:1054F000A3520008A268000870B50F4E0C46316830
:10550000054611B900F0DAFE30602146284600F069
:10551000D5FE431C03D14FF0FF34204670BDC41CA0
:1055200024F00304A042F8D0211A284600F0C6FE59
:105530000130F2D1EFE700BF7C0D00202DE9F843E8
:10554000CD1C25F0030508350C2D38BF0C25002D8A
:10555000064601DBA94204D90C2333600020BDE8D4
:10556000F883DFF8D48000F029FCD8F800301C461E
:1055700044BB29463046FFF7BFFF431C044658D1C1
:10558000D8F800402746002F43D1002C4BD0236889
:105590003946304604EB030900F090FE814542D1C4
:1055A00021686D1A29463046FFF7A6FF01303AD030
:1055B00023682B442360D8F800305A6862BBC8F8CF
:1055C00000700FE02268521B20D40B2A17D96119F2
:1055D000A342256018BF5960636808BFC8F800106F
:1055E00062514B60304600F0EFFB04F10B00231DCD
:1055F00020F00700C21A1CBF1B1AA350AFE7626855
:10560000A3420CBFC8F800205A60EBE72346646849
:10561000AEE73C467F68B6E71A465B68A342FBD11B
:1056200000235360DEE70C233360304600F0CCFBF0
:1056300094E70560D6E700BF800D00202DE9F04714
:10564000164698468A680B69DDF820909342B8BFE9
:105650001346336091F8432007460C460AB10133E4
:1056600033602368990642BF33680233336025688C
:1056700015F0060506D104F1190AE36832689B1A91
:10568000AB4226DC94F843302268003B18BF01236C
:1056900092062BD404F1430241463846C8470130F4
:1056A0001ED02368226903F00603042B02BFE568BD
:1056B0003368ED1AA3680CBF25EAE575002593420F
:1056C000C4BF9B1AED1800261A34B5421AD1002027
:1056D00008E00123524641463846C847013003D10D
:1056E0004FF0FF30BDE8F0870135C6E7E1185A1CDE
:1056F000302081F84300224494F8451082F843108A
:105700000233C7E70123224641463846C8470130E5
:10571000E6D00136D9E700002DE9FF470F7E0C9E49
:10572000782F914680460C469A4601F1430207D8ED
:10573000622F0AD8002F00F0D180582F00F0B880D7
:1057400004F1420684F842703AE0A7F16303152B96
:10575000F6D801A151F823F0B1570008C557000849
:1057600041570008415700084157000841570008B9
:10577000C557000841570008415700084157000825
:1057800041570008C3580008EF5700087D5800082B
:105790004157000841570008E558000841570008E4
:1057A000EF57000841570008415700088558000886
:1057B00033681A1D1B68326004F1420684F84230D7
:1057C00001239CE033682068191D3160060601D56D
:1057D0001D6803E04506FBD5B3F90050002D03DA40
:1057E0002D236D4284F8433058480A2311E0216884
:1057F0003368080653F8045B02D4490648BFADB2CB
:105800006F2F5248336014BF0A230823002184F805
:1058100043106668A660002E05DB21682E4321F048
:10582000040121604BD01646B5FBF3F103FB115781
:10583000C75D06F8017D2F46BB420D46F4D9082B03
:105840000BD12368DF0708D5236961689942DEBF61
:10585000302306F8013C06F1FF36921B2261CDF899
:1058600000A04B4603AA21464046FFF7E7FE013061
:105870004AD14FF0FF3004B0BDE8F087236843F011
:10588000200323603248782784F845702368316804
:105890001F0651F8045B02D45F0648BFADB2316009
:1058A000D90744BF43F0200323601DB11023ADE7A7
:1058B0002648E9E7236823F020032360F6E716462D
:1058C000BDE7336825686169181D30602E061B68C6
:1058D00001D5196002E06806FBD519800023236119
:1058E0001646BCE733681A1D32601E6862680021E4
:1058F0003046FAF765FC08B1801B6060636823617D
:10590000002384F84330AAE72369324649464046DB
:10591000D0470130ADD023689B0713D4E068039BC8
:105920009842B8BF1846A6E701233246494640468A
:10593000D04701309DD00135E36803995B1AAB4233
:10594000F2DCEBE7002504F11906F5E7AD68000885
:10595000BE6800082DE9F84315468A6880460C4663
:1059600032B98A69002A14BF4FF0FF3201228A60DF
:105970002268DFF89090D1065FBF1A68111D196088
:1059800016680027A06988B1012807D12B681A780A
:1059900063699B5C53B9002F31D022E0022820D1EB
:1059A0002B681B7819F803301B071AD42368DA0612
:1059B0005EBF2B681B7806F8013B2A686B680132D2
:1059C0002A60A268013B013A6B600137A26042B1D4
:1059D000002BD7DCD4F88031294640469847002870
:1059E000D0D0236813F0100305D1E2680132E260E1
:1059F000A26902B1337023693B4423610020BDE8F2
:105A0000F88300BFEB6800082DE9F04F9846744B0F
:105A10000C468246164693E8070087B003AB83E83E
:105A20000700704BA169704A032908BF1A46A36892
:105A300001925A1EB2F5AE7F88BF6FF4AE7527464D
:105A400082BF03EB050940F25D13A36057F81C3BCE
:105A500043F4506398BF4FF0000923603D464FF078
:105A6000000B316803AB097853F82B000222FAF7D8
:105A7000A7FB28B3BBF1010F59D162682AB922688C
:105A8000082142F4007261602260226822F4A06260
:105A90002260A268511EA16092B13268511C31602F
:105AA000127805F8012B7268013A002A726007DC4F
:105AB000D4F88021314650469047002840F0858038
:105AC0000BF1010BBBF1030FCBD163680BB90A23B8
:105AD0006360636845496069C91A00F089F84FF04E
