:020000040800F2
:10000000000002206D400008C51C0008C71C000845
:10001000C91C0008CB1C0008CD1C00080000000013
:10002000000000000000000000000000CF1C0008DD
:10003000D11C000800000000D31C0008D51C0008DB
:10004000BD400008BD400008BD400008BD4000089C
:10005000BD400008BD400008BD400008BD4000088C
:10006000BD400008BD400008BD400008BD4000087C
:10007000BD400008BD400008BD400008BD4000086C
:10008000BD400008BD400008BD400008BD4000085C
:10009000BD400008BD400008BD400008BD4000084C
:1000A000BD400008BD400008BD400008BD4000083C
:1000B000BD400008BD400008BD400008BD4000082C
:1000C000BD400008BD400008BD400008BD4000081C
:1000D000BD400008DD1C0008ED1C0008FD1C0008E8
:1000E000BD400008BD400008BD400008BD400008FC
:1000F000BD400008BD400008BD400008BD400008EC
:10010000BD400008BD400008BD400008BD400008DB
:100110000D1D00081D1D0008BD400008BD40000861
:10012000BD400008BD400008BD400008BD400008BB
:10013000BD400008BD400008BD400008BD400008AB
:10014000BD400008BD400008BD400008BD4000089B
:10015000BD400008BD400008BD4000082D1D00083E
:10016000BD400008BD400008BD400008BD4000087B
:10017000BD400008BD400008BD4000080000000070
:08018000BD400008BD4000086D
:1001900010F8012B11F8013B012A28BF9A42F7D031
:1001A000D01A7047034613F8012B002AFBD1181A06
:1001B000013870470000000000000000000000004F
:1001C00001F0FF01102A2BDB10F0070F08D010F808
:1001D000013B013A8B422DD010F0070F42B3F6D10C
:1001E000F0B441EA012141EA014122F007047FF025
:1001F00000070023F0E80256083C85EA010586EA7C
:10020000010685FA47F5A3FA87F586FA47F6A5FAB7
:1002100087F68EB9EED1F0BC01F0FF0102F00702C3
:1002200032B110F8013B013A83EA010313B1F8D16E
:100230000020704701387047002D06BF354603384F
:10024000073815F0010F07D1013015F4807F02BF88
:10025000013015F4C03F0130F0BC0138704700BFD9
:1002600053B94AB9002908BF00281CBF4FF0FF311D
:100270004FF0FF3000F00CB8ADF1080C6DE904CE82
:1002800005F05CFDDDF804E0DDE9022304B0704711
:10029000704700BF0348044B834202D0034B03B1B5
:1002A000184770477C0000207C0000200000000000
:1002B0000548064B1B1AD90F01EBA301491002D0C8
:1002C000034B03B1184770477C0000207C000020DE
:1002D0000000000010B5064C237843B9FFF7DAFFA1
:1002E000044B13B10448AFF300800123237010BD09
:1002F0007C00002000000000F85F000808B5054BF6
:100300001BB105490548AFF30080BDE80840FFF781
:10031000CFBF00BF0000000080000020F85F000891
:1003200000B583B001904FF6FF73012201A9034885
:1003300003F091F9019803B05DF804FB5806002022
:1003400000B583B001904FF6FF73012201A9034865
:1003500003F081F9019803B05DF804FB100600205A
:1003600000B583B001904FF6FF73012201A9034845
:1003700003F071F9019803B05DF804FBC805002093
:1003800000B583B001904FF6FF73012201A9034825
:1003900003F061F9019803B05DF804FBE806002062
:1003A00000B583B001904FF6FF73012201A9034805
:1003B00003F051F9019803B05DF804FBA00600209A
:1003C00000B583B001904FF6FF73012201A90348E5
:1003D00003F041F9019803B05DF804FB80050020AB
:1003E00030B5C1B00346094A4FF48071684603F046
:1003F00067FE0546002404E01DF80400FFF7E0FF57
:100400000134AC42F8DB41B030BD00BF9C61000854
:1004100030B5C1B00346094A4FF48071684603F015
:100420004FFE0546002404E01DF80400FFF788FF96
:100430000134AC42F8DB41B030BD00BF1C600008A5
:1004400030B5C1B00346094A4FF48071684603F0E5
:1004500037FE0546002404E01DF80400FFF780FF86
:100460000134AC42F8DB41B030BD00BF9C610008F4
:1004700030B5C1B00346094A4FF48071684603F0B5
:100480001FFE0546002404E01DF80400FFF778FF76
:100490000134AC42F8DB41B030BD00BF9C610008C4
:1004A00030B5C1B00346094A4FF48071684603F085
:1004B00007FE0546002404E01DF80400FFF770FF66
:1004C0000134AC42F8DB41B030BD00BF9C61000894
:1004D00010B55A240E4B1C602046FFF781FF0D4BD0
:1004E0001C602046FFF794FF0B4B1C602046FFF773
:1004F000A7FF0A4B1C602046FFF7BAFF084B1C60A1
:100500002046FFF7CDFF074B00221A6010BD00BF49
:10051000100000200C000020080000200400002033
:1005200000000020B400002030B5C5B0044603220E
:10053000A04903F0A7FF002800F09B8006229E49F7
:10054000204603F09FFF002800F0F38006229B491D
:10055000204603F097FF002800F006810622984904
:10056000204603F08FFF002800F0198106229549EC
:10057000204603F087FF002800F07D810622924983
:10058000204603F07FFF002800F0918108228F4968
:10059000204603F077FF002800F0A58106228C4951
:1005A000204603F06FFF0546002800F0AE810622CA
:1005B0008849204603F066FF0546002800F0B08118
:1005C00006228549204603F05DFF0546002800F01D
:1005D000B28106228149204603F054FF05460028D7
:1005E00000F0B48106227E49204603F04BFF054609
:1005F000002800F0B68105227A49204603F042FF28
:10060000002849D004227849204603F03BFF002807
:1006100000F0B28105227549204603F033FF00281F
:1006200000F0B08105227249204603F02BFF00281C
:1006300040F0B2816F4B19686F4803F0ABFE6F4B0F
:1006400019686F4803F0A6FE6E4B19686E4803F0F8
:10065000A1FE6E4B19686E4803F09CFE6D4B196845
:100660006D4803F097FE6D4B19686D4803F092FEDC
:1006700012E06A4B0393674B0293644B0193614B07
:1006800000935E4B5B4A6749201D03F04FFD06282F
:1006900004D0654803F0E6FE45B030BD554C5F4BD5
:1006A0001B6802935B4B1B680193584B1B680093BC
:1006B000544B1B68514A126821685C4803F06AFE7B
:1006C00020685B4B1B68984224D14C4B1868594BEF
:1006D0001B68984223D14B4B1868574B1B689842B4
:1006E00022D14A4B1B68554A1268934201D0534AA3
:1006F0001360484B1B68524A1268934201D0504A1B
:100700001360464B1B684F4A12689342C4D04D4A4F
:100710001360C1E7464B1860FFF762FED5E7454B13
:100720001860FFF775FED6E7434B1860FFF788FEA9
:10073000D7E7304A4449E01D03F0F8FC012803D014
:10074000394803F08FFEA7E72A4C21683F4803F0A1
:1007500021FE2068364B1B6898429DD0FFF740FE73
:100760002268334B1A6097E7244A3749E01D03F0AB
:10077000DDFC012803D02C4803F074FE8CE71F4CED
:100780002168334803F006FE20682A4B1B68984214
:1007900082D0FFF73DFE2268264B1A607CE7194A9B
:1007A0002949E01D03F0C2FC012853D01E4803F084
:1007B00059FE71E720600008786000089460000826
:1007C000B0600008CC600008E86000080461000820
:1007D000246100082C610008346100083C610008B5
:1007E000446100084C61000854610008746100080D
:1007F0008C61000810000020946100080C000020AB
:10080000A461000808000020B46100080400002072
:10081000C461000800000020D4610008B40000207A
:10082000E461000824600008646000083C6000087F
:10083000AC000020A8000020A4000020A0000020A0
:100840009C000020980000203860000880600008AC
:100850009C600008534C2168534803F09BFD2068BE
:10086000524B1B6898423FF417AFFFF7E9FD22682F
:100870004E4B1A6010E74E4A4E49E01D03F056FCFD
:10088000012803D04C4803F0EDFD05E7484C2168F2
:100890004A4803F07FFD2068494B1B6898423FF4AB
:1008A000FBAEFFF7E5FD2268454B1A60F4E6454ACA
:1008B0004049E01D03F03AFC012803D03E4803F014
:1008C000D1FDE9E63F4C21683F4803F063FD206815
:1008D0003E4B1B6898423FF4DFAEFFF7E1FD226814
:1008E0003A4B1A60D8E63A4A324904F1090003F05B
:1008F0001DFC012803D0304803F0B4FDCCE6344B96
:100900001968344803F046FDC6E6334B049304E00F
:1009100004AB585DFFF754FD0135022DF8DDBBE651
:100920002D4B049304E004AB585DFFF709FD01353E
:10093000022DF8DDB0E6284B049304E004AB585DCB
:10094000FFF70EFD0135022DF8DDA5E6224B0493DD
:1009500004E004AB585DFFF713FD0135022DF8DD0F
:100960009AE61D4B049304E004AB585DFFF718FDB5
:100970000135022DF8DD8FE6FFF7AAFD174803F0D9
:1009800071FD89E6164A1368B3FA83F35B091360B5
:10099000144803F067FD7FE62146134803F0FAFC94
:1009A0007AE600BF08000020B8600008A40000201C
:1009B000040000203860000864600008D46000086B
:1009C000A000002000000020F06000089C00002033
:1009D000B400002010610008720D0A005C6100087C
:1009E000B00000207C610008F461000810B50368C5
:1009F000914A93422DD0914A934272D0904A9342A9
:100A000000F0B7808F4A934200F0FB808E4A9342F9
:100A100000F06C818D4A934234D18D4B1B889BB280
:100A2000FE2B00F2D3818A490B889BB25A1C92B2EA
:100A30000A8088490A78D2B28748C2540B78DBB260
:100A40000A2B00F09B8101228249844803F051F86F
:100A500018E07F4B1B889BB2FE2B3BD87C490B8850
:100A60009BB25A1C92B20A807D490A78D2B27A4867
:100A7000C2540B78DBB20A2B05D0012278497948A1
:100A800003F037F810BD724A13889BB2014600206C
:100A9000C8541080744C204603F07AFD21467348F8
:100AA000FFF776FB70B972496F48FFF771FB0028BA
:100AB000E3D06D4C2046FFF737FD21466C4803F02C
:100AC00067FDDAE72046FFF72FFD2146684803F06F
:100AD0005FFDD2E75E4B00221A80664803F0C2FC3D
:100AE000CBE75B4B1B889BB2FE2B3BD858490B884E
:100AF0009BB25A1C92B20A805F490A78D2B2564819
:100B0000C2540B78DBB20A2B05D001225A495B484C
:100B100002F0EFFFB6E74E4A13889BB20146002071
:100B2000C8541080504C204603F032FD21464F48F7
:100B3000FFF72EFB70B94E494B48FFF729FB002801
:100B4000E3D0494C2046FFF7EFFC2146484803F02C
:100B50001FFDDAE72046FFF7E7FC2146444803F093
:100B600017FDD2E73A4B00221A80424803F07AFC84
:100B7000CBE7374B1B889BB2FE2B3BD834490B8805
:100B80009BB25A1C92B20A803D490A78D2B23248CE
:100B9000C2540B78DBB20A2B05D001223849394800
:100BA00002F0A7FF6EE72A4A13889BB20146002095
:100BB000C85410802C4C204603F0EAFC21462B48F8
:100BC000FFF7E6FA70B92A492748FFF7E1FA00284B
:100BD000E3D0254C2046FFF7A7FC2146244803F02C
:100BE000D7FCDAE72046FFF79FFC2146204803F0B8
:100BF000CFFCD2E7164B00221A801E4803F032FCCD
:100C0000CBE7134B1B889BB2FE2B68D810490B888F
:100C10009BB25A1C92B20A801B490A78D2B20E4883
:100C2000C2540B78DBB20A2B32D001221649174886
:100C300002F05FFF26E700BF0010014000140140F2
:100C40000044004000480040004C0040005000407C
:100C5000B8020020BC030020BC020020A006002037
:100C6000C103002058060020B80100208C61000854
:100C7000B800002004620008C003002080050020A6
:100C8000BF03002010060020BE030020C80500207E
:100C9000524A13889BB201460020C8541080504C21
:100CA000204603F075FC21464E48FFF771FA70B9F3
:100CB0004D494B48FFF76CFA0028B6D0484C204607
:100CC000FFF732FC2146484803F062FCADE72046BE
:100CD000FFF72AFC2146444803F05AFCA5E73F4BA6
:100CE00000221A80414803F0BDFB9EE73B4B1B8866
:100CF0009BB2FE2B3BD839490B889BB25A1C92B24F
:100D00000A803B490A78D2B23A48C2540B78DBB227
:100D10000A2B05D001223649374802F0EAFEB1E637
:100D20002E4A13889BB201460020C85410802C4CD8
:100D3000204603F02DFC21462A48FFF729FA70B916
:100D400029492748FFF724FA0028E3D0244C2046FD
:100D5000FFF7EAFB2146244803F01AFCDAE72046B5
:100D6000FFF7E2FB2146204803F012FCD2E71B4BC1
:100D700000221A801D4803F075FBCBE7174A138841
:100D80009BB201460020C8541080154C204603F049
:100D9000FFFB21461348FFF7FBF978B912491048C9
:100DA000FFF7F6F900283FF44EAE0D4C2046FFF752
:100DB000BBFB21460C4803F0EBFB44E62046FFF763
:100DC000B3FB2146084803F0E3FB3CE6034B00225B
:100DD0001A80064803F046FB35E600BFB802002043
:100DE000B80100208C610008B800002004620008EF
:100DF000BD030020BC020020E806002072B6FEE71A
:100E000000B595B03022002108A803F033FB002381
:100E10000393049305930693079301931F4A116C60
:100E200041F080511164126C02F080520192019ADB
:100E300002931B4B1A6842F480421A601B6803F449
:100E400080430293029B012308934FF4803309935C
:100E500002230E934FF480020F9204221092482234
:100E6000119212930323139308A801F013F980B988
:100E70000F23039302210491002305934FF4805222
:100E80000692079303A801F06FFB20B915B05DF837
:100E900004FBFFF7B3FFFFF7B1FF00BF00380240CC
:100EA0000070004008B501F031FEFFF7A9FF00F027
:100EB00059F800F013F900F07BF900F0EDFA00F0BA
:100EC0007BFB00F0A9FC00F0C1FC00F0D9FC00F0B5
:100ED000F1FC00F009FD00F0A1FE00F033FC00F091
:100EE000DFFB00F01BFD124803F0BCFAFFF7F0FA3D
:100EF00001221049104802F0FCFD01220F49104860
:100F000002F0F7FD01220F490F4802F0F2FD012225
:100F10000E490F4802F0EDFD01220E490E4802F085
:100F2000E8FD01220D490E4802F0E3FDFEE700BF97
:100F300018620008C103002058060020C0030020EA
:100F400080050020BF03002010060020BE03002003
:100F5000C8050020BD030020E8060020BC030020D7
:100F6000A00600202DE9F0478CB0002407940894D7
:100F700009940A940B940194524B1A6B42F010029C
:100F80001A631A6B02F010020192019A02941A6B12
:100F900042F004021A631A6B02F004020292029AEF
:100FA00003941A6B42F080021A631A6B02F08002FB
:100FB0000392039A04941A6B42F001021A631A6BAB
:100FC00002F001020492049A05941A6B42F00202A4
:100FD0001A631A6B02F002020592059A06941A6BC4
:100FE00042F008021A631B6B03F008030693069B8A
:100FF000DFF8DCA0224649F23C51504601F080FC6B
:10100000314F224642F22001384601F079FC2F4E42
:1010100022464021304601F073FCDFF8B8902246AA
:101020004FF20101484601F06BFCDFF8AC8022462C
:101030008021404601F064FC49F23C5307930125AE
:10104000089509940A9407A9504601F063FB42F2FF
:1010500020030793089509940A9407A9384601F0DC
:1010600059FB40230793089509940A9407A9304631
:1010700001F050FB4FF201030793089509940A947D
:1010800007A9484601F046FB4FF4407307930894C4
:10109000099407A9384601F03DFB4FF4807307938C
:1010A0000894099407A9304601F034FB8023079384
:1010B000089509940A9407A9404601F02BFB0CB04F
:1010C000BDE8F087003802400008024000000240FE
:1010D0000010024000040240000C024000B585B040
:1010E000002300930193029303931448144A02606F
:1010F000436083600361037680F82030C362114A45
:101100008262C3600122C26180F83030426100F027
:10111000CBFE60B90023009301220192029369463D
:10112000064800F0EDFE28B905B05DF804FBFFF7B6
:1011300065FEEFE7FFF762FEF6E700BFC40300209D
:10114000002001400100000F00B589B00023039387
:101150000493059306930793026803F1804303F514
:1011600090339A4202D009B05DF804FB002101914E
:1011700003F58C335A6C42F480725A645A6C02F450
:1011800080720192019A02911A6B42F001021A6375
:101190001B6B03F001030293029B072303930323BA
:1011A000049303A9014801F0B5FADCE7000002400E
:1011B00008B50B480B4B03600B4B43600023836067
:1011C000C3604FF48042026143618361C361036283
:1011D00001F0DCFC00B908BDFFF710FEFBE700BF23
:1011E0000C04002000540040A086010030B589B0F6
:1011F0000023039304930593069307930268144B0B
:101200009A4201D009B030BD00250195114C236BE5
:1012100043F002032363236B03F002030193019B5A
:10122000C0230393122304930323069304230793F9
:1012300003A9094801F06EFA0295236C43F40013E8
:101240002364236C03F400130293029BDAE700BFCC
:1012500000540040003802400004024000B58BB04A
:101260000023059306930793089309930368234A81
:10127000934208D0B3F1804F12D0214A93421CD040
:101280000BB05DF804FB002301931E4B5A6C42F037
:1012900001025A645B6C03F001030193019BEFE7C9
:1012A00000230293174B1A6C42F001021A641B6C64
:1012B00003F001030293029BE2E700210391114B2B
:1012C0001A6C42F004021A641A6C02F004020392CF
:1012D000039A04911A6B42F008021A631B6B03F025
:1012E00008030493049B4FF4805305930223069351
:1012F000099305A9044801F00DFAC1E70000014077
:101300000008004000380240000C02400268094B0F
:101310009A4200D0704782B000230193064B1A6CAA
:1013200042F002021A641B6C03F002030193019B5A
:1013300002B07047000400400038024070B58CB025
:1013400000230793089309930A930B9303684A4A6F
:1013500093420AD0B3F1804F1FD0484A934249D0FC
:10136000474A934270D00CB070BD00230193454BA7
:101370001A6B42F010021A631B6B03F01003019307
:10138000019B4FF4D44307930223089301230B934B
:1013900007A93D4801F0BEF9E5E70024029403F5F2
:1013A0000E331A6B42F001021A631A6B02F001024B
:1013B0000292029A03941A6B42F002021A631B6BA8
:1013C00003F002030393039B282307930226089646
:1013D00001250B9507A92D4801F09CF94FF4816375
:1013E0000793089609940A940B9507A9284801F0D9
:1013F00091F9B8E700250495224B1A6B42F00102DF
:101400001A631A6B02F001020492049A05951A6B92
:1014100042F002021A631B6B03F002030593059B63
:1014200080230793022408940B9407A9174801F01E
:1014300071F912230793089409950A950B9407A94B
:10144000134801F067F98EE7002306930D4B1A6BE2
:1014500042F008021A631B6B03F008030693069B15
:101460004FF460430793022308930B9307A909489D
:1014700001F050F977E700BF000001400004004090
:101480000008004000380240001002400000024006
:1014900000040240000C024010B596B000241294E3
:1014A0001394149415941094119409940A940B9421
:1014B0000C940D940E940F942022214601A802F062
:1014C000D9FF3B483B4B0360446084604FF6FF7399
:1014D000C36004614461846101F06AFD00284BD15E
:1014E0004FF48053129312A9314801F06CFE00288A
:1014F00045D12F4801F088FD002843D100231093E7
:10150000119310A92A4801F0DDFE00283DD1602387
:10151000099300220A920B920C920D920E920F9256
:1015200009A9234801F0D4FD002831D1042209A9DA
:101530001F4801F0CDFD70BB082209A91C4801F02D
:10154000C7FD58BB0C2209A9194801F0C1FD40BBD9
:101550000023019302930393049305934FF40052E5
:101560000692089301A9124801F0F2FEE0B9104872
:10157000FFF7E4FE16B010BDFFF740FCB0E7FFF741
:101580003DFCB6E7FFF73AFCB8E7FFF737FCBEE7EC
:10159000FFF734FCCAE7FFF731FCCDE7FFF72EFC7D
:1015A000D0E7FFF72BFCD3E7FFF728FCDFE700BF0E
:1015B000380500200000014000B58FB000230A93D9
:1015C0000B930C930D930893099301930293039348
:1015D000049305930693079330484FF080420260CE
:1015E000436083604FF0FF32C2600361836101F0AA
:1015F000DFFC002839D14FF480530A930AA9274809
:1016000001F0E1FD002833D1244801F0FDFC002861
:1016100031D100230893099308A9204801F052FE14
:1016200060BB60230193002202920392059201A9FC
:101630001A4801F04DFD20BB04220DEB02011748B2
:1016400001F046FD00BB082201A9144801F040FD4D
:10165000E8B90C2201A9114801F03AFDD0B90F48B0
:10166000FFF76CFE0FB05DF804FBFFF7C7FBC2E7A6
:10167000FFF7C4FBC8E7FFF7C1FBCAE7FFF7BEFBF4
:10168000CFE7FFF7BBFBD7E7FFF7B8FBDBE7FFF7D9
:10169000B5FBDEE7FFF7B2FBE1E700BFF004002097
:1016A00000B58BB000230893099301930293039331
:1016B00004930593069307932048214A02604360F0
:1016C00083604FF6FF72C2600361836101F09CFC8E
:1016D00028BB00230893099308A9184801F0F2FDDC
:1016E00000BB60230193002202920392059201A99C
:1016F000124801F0EDFCC0B904220DEB02010F48C5
:1017000001F0E6FCA0B90C2201A90C4801F0E0FCB4
:1017100088B90A48FFF712FE0BB05DF804FBFFF72B
:101720006DFBD6E7FFF76AFBDBE7FFF767FBE3E755
:10173000FFF764FBE7E7FFF761FBEAE7A804002097
:101740000004004000B58FB000230A930B930C9364
:101750000D930893099301930293039304930593C4
:10176000069307932A482B4A0260436083604FF632
:10177000FF72C2600361836101F01AFC002832D15C
:101780004FF480530A930AA9214801F01CFD68BB5D
:101790001F4801F039FC60BB00230893099308A996
:1017A0001B4801F08FFD38BB602301930023029397
:1017B0000393059304220DEB0201154801F088FC08
:1017C000E8B9082201A9124801F082FCD0B90C2224
:1017D00001A90F4801F07CFCB8B90D48FFF7AEFD38
:1017E0000FB05DF804FBFFF709FBC9E7FFF706FB45
:1017F000CEE7FFF703FBCFE7FFF700FBD4E7FFF7E8
:10180000FDFADEE7FFF7FAFAE1E7FFF7F7FAE4E7B8
:10181000600400200008004008B50A480A4B036035
:101820004FF4E133436000238360C36003610C2203
:1018300042618361C36101F0DEFE00B908BDFFF7BC
:10184000DDFAFBE7E8060020004C004008B50A4836
:101850000A4B03604FF4E133436000238360C360AD
:1018600003610C2242618361C36101F0C4FE00B9CF
:1018700008BDFFF7C3FAFBE7A006002000500040B8
:1018800008B50A480A4B03604FF4E1334360002374
:101890008360C36003610C2242618361C36101F014
:1018A000AAFE00B908BDFFF7A9FAFBE75806002019
:1018B0000010014008B50A480A4B03604FF4E133B9
:1018C000436000238360C36003610C224261836133
:1018D000C36101F090FE00B908BDFFF78FFAFBE786
:1018E000100600200044004008B50A480A4B036077
:1018F0004FF4E133436000238360C36003610C2233
:1019000042618361C36101F076FE00B908BDFFF753
:1019100075FAFBE7C80500200048004008B50A48F2
:101920000A4B03604FF4E133436000238360C360DC
:1019300003610C2242618361C36101F05CFE00B966
:1019400008BDFFF75BFAFBE78005002000140140AB
:10195000F0B595B000230F93109311931293139346
:101960000368A34A934213D0A24A93423CD0A24AAE
:10197000934279D0A14A934200F0A280A04A9342B8
:1019800000F0C9809F4A934200F0068115B0F0BD77
:10199000002401949C4B1A6C42F400221A641A6CC5
:1019A00002F400220192019A02941A6B42F004029E
:1019B0001A631B6B03F004030293029B4FF4406312
:1019C0000F930223109303231293082313930FA959
:1019D0008E4800F09FFE22462146342001F048F850
:1019E000342001F055F8D1E700240394864B1A6C9B
:1019F00042F480121A641A6C02F480120392039A61
:101A000004941A6B42F004021A631A6B02F0040287
:101A10000492049A05941A6B42F008021A631B6B35
:101A200003F008030593059B4FF480530F9302279F
:101A3000109703261296082513950FA9734800F0F6
:101A400069FE04230F9310971194129613950FA912
:101A50006F4800F05FFE22462146352001F008F86D
:101A6000352001F015F891E700240694664B5A6C76
:101A700042F010025A645A6C02F010020692069A62
:101A800007941A6B42F001021A631B6B03F0010307
:101A90000793079B4FF4C0630F9302231093032314
:101AA0001293072313930FA95A4800F033FE2246DE
:101AB0002146252000F0DCFF252000F0E9FF65E746
:101AC00000240894504B1A6C42F400321A641A6CC9
:101AD00002F400320892089A09941A6B42F0080244
:101AE0001A631B6B03F008030993099B60230F9390
:101AF0000223109303231293072313930FA944483F
:101B000000F008FE22462146262000F0B1FF2620E4
:101B100000F0BEFF3AE700240A943B4B1A6C42F4F3
:101B200080221A641A6C02F480220A920A9A0B9498
:101B30001A6B42F002021A631A6B02F002020B9255
:101B40000B9A0C941A6B42F008021A631B6B03F099
:101B500008030C930C9B4FF400630F93022710971C
:101B600003261296072513950FA92B4800F0D2FDE6
:101B70004FF480730F9310971194129613950FA939
:101B8000234800F0C7FD22462146272000F070FFC1
:101B9000272000F07DFFF9E600240D941A4B5A6CC3
:101BA00042F020025A645A6C02F020020D920D9A03
:101BB0000E941A6B42F004021A631B6B03F00403C9
:101BC0000E930E9BC0230F930223109303231293B3
:101BD000082313930FA90D4800F09CFD22462146CF
:101BE000472000F045FF472000F052FFCEE600BF3F
:101BF000004C0040005000400010014000440040F4
:101C00000048004000140140003802400008024033
:101C1000000C0240000002400004024008B50B48DE
:101C20004FF0A0430360042303710222C27100231A
:101C3000837142728372C37203738373C37301F03F
:101C40006BFF00B908BDFFF7D9F8FBE730070020AC
:101C500030B589B00023039304930593069307934B
:101C60000368B3F1A04F01D009B030BD0025019544
:101C7000124C236B43F001032363236B03F0010336
:101C80000193019B4FF4C053039302230493032356
:101C900006930A23079303A9094800F03BFD636BF1
:101CA00043F0800363630295636C43F48043636491
:101CB000636C03F480430293029BD5E70038024033
:101CC00000000240FEE7FEE7FEE7FEE7FEE77047A2
:101CD0007047704708B500F033FF08BD08B50248EB
:101CE00001F0AAFD08BD00BF5806002008B5024853
:101CF00001F0A2FD08BD00BF1006002008B5024893
:101D000001F09AFD08BD00BFC805002008B50248D3
:101D100001F092FD08BD00BFE806002008B50248AA
:101D200001F08AFD08BD00BFA006002008B50248EA
:101D300001F082FD08BD00BF8005002082B00021B7
:101D400000910B4B5A6C42F480425A645A6C02F474
:101D500080420092009A01911A6C42F080521A64FB
:101D60001B6C03F080530193019B02B0704700BFCE
:101D7000003802404A4B5A6822F440325A605A688E
:101D800041680A435A600268536823F480735360C1
:101D900002685368016943EA01235360026853688B
:101DA00023F0407353600268536881680B435360AB
:101DB0000268936823F40063936002689368C168C3
:101DC0000B439360826A374B9A4257D002689368FC
:101DD00023F07063936002689368816A0B43936099
:101DE0000268936823F04053936002689368C16A65
:101DF0000B4393600268936823F0020393600268C8
:101E00009368017E43EA4103936090F82030002BF1
:101E10003FD00268536843F400635360026853681C
:101E200023F46043536001684B68426A013A43EA15
:101E300042334B600268D36A23F47003D3620168B3
:101E4000CB6AC269013A43EA0253CB6202689368E3
:101E500023F4007393600268936890F8301043EAAB
:101E6000412393600268936823F48063936002685F
:101E70009368416943EA81239360704702689368DD
:101E800023F0706393600268936823F0405393607B
:101E9000B0E70268536823F400635360CAE700BFE9
:101EA000002301400100000F38B310B50446036C55
:101EB00043B1236C13F0100F0BD00120002384F8E2
:101EC0003C3010BDFFF740F90023636484F83C30D8
:101ED000EFE7236C23F4885323F0020343F002035B
:101EE00023642046FFF746FF00206064236C23F044
:101EF000030343F001032364E0E70120704700007F
:101F000030B482B00022019290F83C20012A00F007
:101F1000B6800346012280F83C200A68092A40D98D
:101F20000468E06892B202EB42021E3A4FF0070CDE
:101F30000CFA02F220EA0202E2601C68E0680A88F9
:101F400002EB42021E3A8D6805FA02F20243E26099
:101F50004A68062A3CD81C68606B02EB8202053A8C
:101F60004FF01F0C0CFA02F220EA020262631C68B6
:101F7000606B4A6802EB8202053AB1F800C00CFAC5
:101F800002F20243626318683E4A904250D01868D9
:101F90003C4A904255D0002083F83C0002B030BC4F
:101FA00070470468206992B202EB42024FF0070CBE
:101FB0000CFA02F220EA020222611C6820690A88F7
:101FC00002EB42028D6805FA02F202432261BFE78A
:101FD0000C2A16D81D68286B02EB8202233A1F24B4
:101FE00004FA02F220EA02022A631D68286B4A689A
:101FF00002EB8202233A0C8804FA02F202432A63BB
:10200000C1E71D68E86A02EB8202413A1F2404FA24
:1020100002F220EA0202EA621D68E86A4A6802EBFC
:102020008202413A0C8804FA02F20243EA62AAE709
:102030000A68122AABD11448426842F48002426016
:10204000A5E70A68103A012AA5D80F48426842F469
:10205000000242600A68102A9DD10C4A12680C499D
:10206000A1FB0212920C02EB82025200019202E0EA
:10207000019A013A0192019A002AF9D18BE70220D4
:102080008CE700BF00200140002301401C0000201D
:1020900083DE1B43002800F0E08170B582B0044667
:1020A000036813F0010F3BD09F4B9B6803F00C03B8
:1020B000042B2CD09C4B9B6803F00C03082B21D0E5
:1020C0006368B3F5803F4FD0B3F5A02F52D0964B45
:1020D0001A6822F480321A601A6822F480221A6088
:1020E0006368002B50D000F037FD05468E4B1B680F
:1020F00013F4003F14D100F02FFD401B6428F5D9E4
:102100000320B1E1884B5B6813F4800FD8D0864B75
:102110001B6813F4003F03D06368002B00F09F811D
:10212000236813F0020F54D07F4B9B6813F00C0F01
:102130003ED07D4B9B6803F00C03082B33D0E36843
:10214000002B68D0794B01221A6000F005FD05468E
:10215000754B1B6813F0020F54D100F0FDFC401BBF
:102160000228F5D903207FE16F4A136843F48033D6
:102170001360B5E76C4B1A6842F480221A601A6843
:1021800042F480321A60ABE700F0E6FC0546664B8D
:102190001B6813F4003FC3D000F0DEFC401B642832
:1021A000F5D9032060E1604B5B6813F4800FC6D162
:1021B0005D4B1B6813F0020F03D0E368012B40F066
:1021C0005081594A136823F0F803216943EAC10397
:1021D0001360236813F0080F42D063696BB3534B4D
:1021E0000122C3F8802E00F0B7FC05464E4B5B6F12
:1021F00013F0020F34D100F0AFFC401B0228F5D9D8
:10220000032031E1484A136823F0F803216943EAC7
:10221000C1031360DDE7454B00221A6000F09CFC0F
:102220000546414B1B6813F0020FD2D000F094FC1E
:10223000401B0228F5D9032016E13C4B0022C3F8CD
:10224000802E00F089FC0546374B5B6F13F0020FC0
:1022500006D000F081FC401B0228F5D9032003E1E1
:10226000236813F0040F77D02F4B1B6C13F0805FA3
:1022700033D1002301932C4B1A6C42F080521A6424
:102280001B6C03F080530193019B0125284B1B68B5
:1022900013F4807F23D0A368012B34D0052B38D0D2
:1022A000214B1A6F22F001021A671A6F22F0040202
:1022B0001A67A368002B3DD000F04EFC06461A4B6F
:1022C0001B6F13F0020F46D100F046FC801B41F259
:1022D00088339842F3D90320C6E00025D6E7144A94
:1022E000136843F48073136000F036FC0646104B0D
:1022F0001B6813F4807FCED100F02EFC801B0228D7
:10230000F5D90320B0E0084A136F43F001031367C7
:10231000CFE7054B1A6F42F004021A671A6F42F0BA
:1023200001021A67C5E700BF0038024000004742BB
:102330000070004000F010FC0646524B1B6F13F07B
:10234000020F08D000F008FC801B41F2883398424D
:10235000F3D9032088E0EDB9A369002B00F0838056
:10236000484A926802F00C02082A51D0022B17D07A
:10237000454B00221A6600F0EFFB0446414B1B68F8
:1023800013F0007F42D000F0E7FB001B0228F5D9D4
:10239000032069E03B4A136C23F080531364DBE7AE
:1023A000394B00221A6600F0D7FB0546354B1B68F7
:1023B00013F0007F06D000F0CFFB401B0228F5D9B8
:1023C000032051E0E369226A1343626A43EA8213FD
:1023D000A26A5208013A43EA0243E26A43EA02630C
:1023E000284A5360284B01221A6600F0B5FB0446C8
:1023F000244B1B6813F0007F06D100F0ADFB001BDF
:102400000228F5D903202FE000202DE000202BE04A
:10241000012B2BD01B4B5B6803F48001E2699142D6
:1024200026D103F03F02216A8A4223D1616A47F62E
:10243000C0721A40B2EB811F1ED103F44031A26A70
:102440005208013AB1EB024F18D103F07063E26A0F
:10245000B3EB026F14D1002006E001207047012089
:1024600002E0012000E0002002B070BD0120FBE787
:102470000120F9E70120F7E70120F5E70120F3E764
:102480000120F1E7003802400000474208B5334B15
:102490009B6803F00C03042B5BD0082B5BD12F4B04
:1024A0005A6802F03F025B6813F4800F2CD02B4B6C
:1024B0005868C0F388104FEA401CBCEB000C6EEB70
:1024C0000E0E4FEA8E1343EA9C634FEA8C11B1EB78
:1024D0000C0163EB0E03DB0043EA5173C90011EBFF
:1024E000000C43F10003590200234FEA4C2041EA5B
:1024F000DC51FDF7B5FE194B5B68C3F301430133B3
:102500005B00B0FBF3F008BD144B5868C0F38810B3
:102510004FEA401CBCEB000C6EEB0E0E4FEA8E1324
:1025200043EA9C634FEA8C11B1EB0C0163EB0E03A1
:10253000DB0043EA5173C90011EB000C43F10003C7
:10254000990200234FEA8C2041EA9C51FDF788FE56
:10255000D1E70348D7E70348D5E700BF003802407A
:1025600000127A000024F400002800F09B8070B56F
:102570000D4604464F4B1B6803F007038B4208D2FD
:10258000CBB24C4A1370136803F007038B4240F040
:102590008B80236813F0020F17D013F0040F04D0C0
:1025A000454A936843F4E0539360236813F0080F9F
:1025B00004D0414A936843F4604393603E4A936871
:1025C00023F0F003A1680B439360236813F0010F1D
:1025D00032D06368012B21D09A1E012A25D9364AB0
:1025E000126812F0020F61D033498A6822F00302A8
:1025F00013438B6000F0B0FA06462F4B9B6803F044
:102600000C036268B3EB820F16D000F0A5FA801BB2
:1026100041F288339842F0D9032042E0264A1268FA
:1026200012F4003FE0D101203BE0234A126812F08F
:10263000007FD9D1012034E01E4B1B6803F0070353
:10264000AB4207D9EAB21B4B1A701B6803F00703B1
:10265000AB422DD1236813F0040F06D0164A9368BD
:1026600023F4E053E1680B439360236813F0080FF1
:1026700007D0114A936823F46043216943EAC103F8
:102680009360FFF703FF0C4B9B68C3F303130B4AE4
:10269000D35CD8400A4B18600A4B186800F010FA57
:1026A000002070BD012070470120FAE70120F8E703
:1026B0000120F6E7003C0240003802403462000886
:1026C0001C00002018000020014B1868704700BF54
:1026D0001C00002008B5FFF7F7FF044B9B68C3F30D
:1026E0008223034AD35CD84008BD00BF00380240B3
:1026F0002C62000808B5FFF7E7FF044B9B68C3F3A3
:102700004233034AD35CD84008BD00BF00380240C2
:102710002C62000800230F2B00F2E98070B582B014
:1027200065E085684FEA430E032404FA0EF425EAB7
:102730000405CC6804FA0EF42C438460446824EA4F
:1027400002044A68C2F300129A40224342605CE0ED
:10275000DC08083450F8242003F00705AD004FF0E2
:102760000F0E0EFA05FE22EA0E0E0A69AA4042EA90
:102770000E0240F824205CE0072200E0002202FA6A
:102780000EF22A4302345A4D45F82420594A9468DF
:102790006FEA0C0224EA0C054E6816F4801F01D083
:1027A0004CEA0405534CA560E46802EA04054E684F
:1027B00016F4001F01D04CEA04054E4CE560646835
:1027C00002EA04054E6816F4003F01D04CEA040505
:1027D000484C6560246822404D6815F4803F01D064
:1027E0004CEA0402434C226001330F2B7DD80122B6
:1027F0009A400C6804EA020C32EA0404F4D14C68F2
:1028000004F00304013C012C8BD94A6802F0030256
:10281000032A09D0C4685D000322AA4024EA020406
:102820008A68AA402243C2604A6802F00302022A70
:102830008ED004684FEA430E032202FA0EF224EA15
:1028400002044A6802F0030202FA0EF22243026016
:102850004A6812F4403FC7D000220192264A546CC5
:1028600044F480445464526C02F480420192019A10
:102870009C08A51C1E4A52F8255003F0030E4FEA8F
:102880008E0E0F2202FA0EF225EA02051B4A904232
:102890003FF474AF02F5806290421AD002F5806274
:1028A000904218D002F58062904216D002F5806204
:1028B000904214D002F58062904212D002F58062FC
:1028C000904210D002F5806290423FF455AF08224A
:1028D00055E7012253E7022251E703224FE7042282
:1028E0004DE705224BE7062249E702B070BD70476D
:1028F00000380140003C0140003802400000024026
:102900000AB18161704709048161704770B504465E
:10291000866D00F021F994F83530DBB2022B06D039
:1029200080236365002384F83430012070BD0546A0
:102930002268136823F0160313602268536923F09A
:1029400080035361236CE3B12268136823F008030A
:1029500013602268136823F00103136023681B6867
:1029600013F0010F11D000F0F7F8431B052BF5D938
:1029700020236365032084F83500002384F8343075
:10298000D4E7A36C002BDFD1E3E7E26D3F23934054
:10299000B360012384F83530002084F83400C5E7A3
:1029A00090F83530DBB2022B03D080234365012041
:1029B0007047052380F835300268136823F001035F
:1029C0001360002070470000002807DB00F01F02A2
:1029D000400901239340024A42F82030704700BF6B
:1029E00000E100E0002808DB0901C9B200F1604005
:1029F00000F5614080F80013704700F00F000901F6
:102A0000C9B2014B1954704714ED00E000B500F055
:102A10000700C0F1070CBCF1040F28BF4FF0040CF5
:102A2000031D062B0FD9C31E4FF0FF3E0EFA0CF00C
:102A300021EA000199400EFA03FE22EA0E0241EA61
:102A400002005DF804FB0023EEE70000074AD368AC
:102A500023F4E0631B041B0C000200F4E06003435A
:102A600043F0BF6343F40033D360704700ED00E0F0
:102A700010B50446054BD868C0F30220FFF7C6FF27
:102A800001462046FFF7AEFF10BD00BF00ED00E09D
:102A900008B5FFF799FF08BD0138B0F1807F0BD270
:102AA0004FF0E0235861054AF02182F823100020FE
:102AB000986107221A6170470120704700ED00E01D
:102AC00010B504460E4B1A784FF47A73B3FBF2F349
:102AD0000C4A1068B0FBF3F0FFF7DEFF68B90F2C6B
:102AE00001D901200AE0002221464FF0FF30FFF714
:102AF000BFFF054B1C60002000E0012010BD00BF9F
:102B0000140000201C0000201800002008B50B4B0A
:102B10001A6842F400721A601A6842F480621A60FD
:102B20001A6842F480721A600320FFF78FFF0F20AB
:102B3000FFF7C6FFFFF702F9002008BD003C024086
:102B4000034A1168034B1B780B441360704700BFA6
:102B5000140C002014000020014B1868704700BFBF
:102B6000140C002038B50446FFF7F6FF0546B4F113
:102B7000FF3F02D0044B1B781C44FFF7EDFF401BC6
:102B8000A042FAD338BD00BF14000020002800F096
:102B9000CC8070B5044690F83D30002B77D02423CC
:102BA00084F83D302268136823F001031360226823
:102BB000136843F4004313602268136823F400434E
:102BC0001360FFF787FD62685A4B9A4264D85A4BEC
:102BD00098428CBF00230123002B40F0A880574966
:102BE000A1FB00318B0C25686A6822F03F0242EAA3
:102BF00091426A6021680A6A22F03F0266684D4D80
:102C0000AE424FD8013313430B622168CA6922F4E4
:102C10004F4222F0FF026568464B9D424CD8431E4E
:102C20006D00B3FBF5F3013340F6FC70034278D03E
:102C3000C3F30B031A43CA6121680B6823F0C00376
:102C4000E269206A024313430B6021688B6823F416
:102C5000034323F0FF032269E068024313438B60C0
:102C60002168CB6823F0FF036269A0690243134324
:102C7000CB602268136843F00103136000202064D6
:102C8000202384F83D30206384F83E0070BD80F836
:102C90003C30FEF7ABFA82E7294B98428CBF002309
:102CA000012399E74FF4967505FB03F3254DA5FB2A
:102CB00003539B090133A6E7A668BEB9431E05EB83
:102CC000450CB3FBFCF30133C3F30B03B3FA83F3FB
:102CD0005B0943BBC6B9431E05EB4505B3FBF5F3E2
:102CE0000133C3F30B0343F40043A3E7431E05EB97
:102CF000850C0CEB8C0CB3FBFCF30133C3F30B031F
:102D0000B3FA83F35B09E4E7431E05EB850505EBA6
:102D10008505B3FBF5F30133C3F30B0343F44043E1
:102D200088E7042386E7012384E701207047012018
:102D3000ACE700BFA08601007F841E0083DE1B433A
:102D4000FF083D00D34D621030B4036A026A22F0DE
:102D5000010202624268846924F0730C0C6844EA40
:102D60000C0423F0020C8B6843EA0C03114DA842BB
:102D700003D005F58065A84205D123F00803CD688E
:102D80002B4323F004030B4DA84203D005F58065C7
:102D9000A84207D122F440724D6945EA020C8A69C3
:102DA00042EA0C02426084614A684263036230BCBA
:102DB000704700BF0000014030B4036A026A22F489
:102DC000807202624268C46924F0730C0C6844EAA1
:102DD0000C0523F400738C6843EA0423114CA042D1
:102DE00003D004F58064A04206D123F40063CC68CC
:102DF00043EA042323F480630A4CA04203D004F581
:102E00008064A04207D122F440524C6942EA041285
:102E10008C6942EA04124260C5614A68C263036277
:102E200030BC70470000014030B4036A026A22F4EB
:102E3000805202624468C26922F4E6420D6842EAA6
:102E4000052223F400538D6843EA0533094DA84257
:102E500003D005F58065A84204D124F480444D696F
:102E600044EA85144460C2614A680264036230BC6B
:102E7000704700BF0000014010B4036A046A24F0E8
:102E800001040462846924F0F00C4CEA021223F07D
:102E90000A030B43826103625DF8044B704710B470
:102EA000036A046A24F010040462846924F4704CF8
:102EB0004CEA023223F0A00343EA01138261036269
:102EC0005DF8044B7047836823F070030B4343F0B5
:102ED00007038360704700000368344A904212D0B1
:102EE000B0F1804F0FD0A2F57C4290420BD002F59A
:102EF0008062904207D002F58062904203D002F5D2
:102F00007842904203D123F070034A681343274A62
:102F100090422AD0B0F1804F27D0A2F57C42904257
:102F200023D002F5806290421FD002F58062904269
:102F30001BD002F57842904217D002F570529042B1
:102F400013D002F5806290420FD002F58062904269
:102F50000BD0A2F59832904207D002F580629042E1
:102F600003D002F58062904203D123F44073CA6813
:102F7000134323F080034A69134303608B68C362E1
:102F80000B688362094B984203D003F58063984233
:102F900001D10B69036301234361036913F0010F3E
:102FA00003D0036923F0010303617047000001406F
:102FB00040B310B5044690F83D30F3B1022384F8D5
:102FC0003D30214651F8040BFFF786FF012384F8BA
:102FD000463084F83E3084F83F3084F8403084F83E
:102FE000413084F8423084F8433084F8443084F827
:102FF000453084F83D30002010BD80F83C30FEF7AD
:103000002DF9DBE70120704740B310B5044690F876
:103010003D30F3B1022384F83D30214651F8040BD2
:10302000FFF75AFF012384F8463084F83E3084F8D5
:103030003F3084F8403084F8413084F8423084F8DE
:10304000433084F8443084F8453084F83D30002023
:1030500010BD80F83C30FEF759F9DBE701207047DE
:1030600030B4036A026A22F0100202624468826984
:1030700022F4E6420D6842EA052223F020038D681F
:1030800043EA0513114DA84203D005F58065A84217
:1030900006D123F08003CD6843EA051323F04003F3
:1030A0000A4DA84203D005F58065A84207D124F453
:1030B00040644D6944EA85048D6944EA85044460AE
:1030C00082614A688263036230BC7047000001403D
:1030D00038B590F83C30012B66D004460D460123EC
:1030E00080F83C300C2A5AD8DFE802F007595959C9
:1030F0001B5959593059595944000068FFF724FEAB
:103100002268936943F0080393612268936923F06E
:10311000040393612268936929690B43936100203A
:103120003EE00068FFF79CFF2268936943F4006368
:1031300093612268936923F48063936122689369A1
:10314000296943EA01239361002029E00068FFF721
:1031500033FE2268D36943F00803D3612268D36940
:1031600023F00403D3612268D36929690B43D36137
:10317000002015E00068FFF757FE2268D36943F48A
:103180000063D3612268D36923F48063D36122682A
:10319000D369296943EA0123D361002000E00120BB
:1031A000002384F83C3038BD0220FCE710B484686A
:1031B00024F47F4C42EA03220A4342EA0C02826072
:1031C0005DF8044B704790F83C30012B78D010B577
:1031D0000446012380F83C30022380F83D30026829
:1031E000936823F47F4323F0770393600B68602B8D
:1031F0004CD023D8402B54D011D8202B03D00AD840
:103200000BB1102B05D119462068FFF75CFE00209A
:1032100028E0012026E0302BF5D0012022E0502BC1
:103220000AD1CA6849680068FFF726FE5021206865
:10323000FFF749FE002015E0012013E0B3F5805FA1
:103240003AD0B3F5005F14D0702B37D1CB684A6801
:1032500089680068FFF7AAFF2268936843F0770344
:1032600093600020012384F83D30002384F83C3033
:1032700010BDCB684A6889680068FFF797FF22682D
:10328000936843F4804393600020EBE7CA68496881
:103290000068FFF704FE60212068FFF714FE00209D
:1032A000E0E7CA6849680068FFF7E6FD402120684A
:1032B000FFF709FE0020D5E70020D3E70120D1E782
:1032C0000220704790F83C20012A3DD010B40346FC
:1032D000012280F83C20022280F83D2002685068DC
:1032E000946820F0700C086840EA0C0050601A687E
:1032F000164882421AD0B2F1804F17D0A0F57C4018
:10330000824213D000F5806082420FD000F58060C9
:1033100082420BD000F57840824207D000F5705011
:10332000824203D0A0F59430824204D124F080047C
:10333000496821439160012283F83D20002083F8F1
:103340003C005DF8044B70470220704700000140CC
:10335000024690F83C30012B21D0012380F83C300C
:10336000CB6823F440738868034323F48063486880
:10337000034323F400630868034323F4805308697C
:10338000034323F400534869034323F48043C9698A
:103390000B4311684B64002082F83C007047022008
:1033A0007047026802F10C0353E8003F23F4907366
:1033B0000C3242E800310029F3D1026802F1140313
:1033C00053E8003F23F00103143242E800310029A2
:1033D000F3D1036B012B05D0202380F8423000236A
:1033E00003637047026802F10C0353E8003F23F0C7
:1033F00010030C3242E800310029F3D1ECE790F8D9
:103400004130DBB2212B01D0022070478368B3F535
:10341000805F17D0036A5A1C02621A7803685A60E8
:10342000C38C9BB2013B9BB2C3844BB90268D36887
:1034300023F08003D3600268D36843F04003D36075
:10344000002070470369002BE4D1036A1B880268DF
:10345000C3F308035360036A02330362E0E700002A
:1034600010B504460268136923F44053C1680B4346
:103470001361836802691A4343691A43C3691A4393
:103480000168CB6823F4164323F00C031343CB608D
:103490000268536923F4407381690B4353610368E5
:1034A000314A934206D002F58062934202D0FFF780
:1034B00011F901E0FFF71EF9E369B3F5004F29D0D8
:1034C0000021031849411B1841F10001C90041EADC
:1034D0005371DB00181863684FEA83024FEA937355
:1034E00041F10001FCF7BCFE204AA2FB0031490972
:1034F000642303FB11031B013233A2FB03235B098B
:1035000003F0F00202EB011203F00F0321681344F1
:103510008B6010BD0023021843EB0301121841F128
:103520000001C90041EA5271D200101841F10001B6
:10353000626892185B41FCF793FE0C4AA2FB0031D3
:103540004909642303FB1103DB003233A2FB03238D
:103550005B095A0002F4F87202EB011203F0070350
:10356000216813448B60D4E7001001401F85EB51A4
:103570002DE9F04383B005460E4617469946DDF81F
:1035800028802B681C6836EA04040CBF0124002440
:10359000BC4228D1B8F1FF3FF3D0FFF7DDFAA0EB32
:1035A0000900404523D8B8F1000F22D02B68DA6813
:1035B00012F0040FE5D0802EE3D0402EE1D01A683F
:1035C00012F0080FDDD0002401941A6801925B68A4
:1035D0000193019B2846FFF7E4FE08236B6485F8FE
:1035E0004040012000E0002003B0BDE8F08303204C
:1035F000FAE70320F8E760B310B5044690F84130CD
:1036000013B3242384F841302268D36823F4005391
:10361000D3602046FFF724FF2268136923F4904308
:1036200013612268536923F02A0353612268D36827
:1036300043F40053D36000206064202384F84130B9
:1036400084F84230606310BD80F84030FEF780F9A6
:10365000D7E7012070472DE9F04182B01E4690F86F
:103660004130DBB2202B56D104460D46904600294E
:1036700055D00AB901204FE000234364212380F88C
:103680004130FFF769FA0746A4F82480A4F82680A1
:10369000A368B3F5805F02D04FF0000814E02369FF
:1036A0002BB34FF000080FE0202384F841300320B3
:1036B00032E038F8023B2268C3F308035360E28C1F
:1036C00092B2013A92B2E284E38C9BB293B100963B
:1036D0003B46002280212046FFF74AFF0028E3D125
:1036E000002DE6D015F8012B23685A60E7E7A846BD
:1036F0000025E9E700963B46002240212046FFF7DF
:1037000037FF18B9202384F8413005E0202384F8DE
:103710004130032000E0022002B0BDE8F08101202A
:10372000FAE7704708B50168CA6822F04002CA602B
:10373000202280F84120FFF7F4FF002008BD7047E9
:1037400008B5806B0023C385C384FFF7F8FF08BD6D
:10375000704790F84230DBB2222B69D18368B3F511
:10376000805F4FD0826AB3F5805F04D0002B56D1C2
:103770000369002B53D103685B681370836A0133BC
:103780008362C38D9BB2013B9BB2C385002B51D199
:1037900000B583B00268D36823F02003D3600268C9
:1037A000D36823F48073D3600268536923F0010364
:1037B0005361202380F8423000234363036B012BC5
:1037C00033D100230363026802F10C0353E8003F86
:1037D00023F010030C3242E800310029F3D10368D2
:1037E0001A6812F0100F06D0002201921A68019296
:1037F0005B680193019B818DFFF7AAFF002003B056
:103800005DF804FB0269002AACD1826A03685B6838
:10381000C3F308031380836A02338362B1E703684A
:103820005B6803F07F031370A8E7FDF7DFF8E5E7B7
:10383000022070470020704710B582B0044602682D
:103840001368D068516913F00F0F09D113F0200FDE
:103850000CD010F0200F09D02046FFF77AFF16E0B9
:1038600011F0010115D110F4907F12D1216B0129C3
:1038700079D013F0800F03D010F0800F40F0148146
:1038800013F0400F03D010F0400F40F0118102B050
:1038900010BD13F0010F06D010F4807F03D0626CCE
:1038A00042F00102626413F0040F04D019B1626C9B
:1038B00042F00202626413F0020F04D019B1626C8C
:1038C00042F00402626413F0080F07D010F0200FDA
:1038D00000D119B1626C42F008026264626C002A85
:1038E000D5D013F0200F02D010F0200F29D123687B
:1038F0005B6903F04003626C12F0080F00D163B300
:103900002046FFF74EFD23685B6913F0400F20D07F
:10391000226802F1140353E8003F23F040031432FD
:1039200042E800310029F3D1E36B73B1624A1A65B2
:10393000E06BFFF735F80028A9D0E06B036D9847DE
:10394000A5E72046FFF705FFD1E72046FFF7F7FE82
:103950009DE72046FFF7F3FE99E72046FFF7EFFECD
:103960000023636493E713F0100F82D010F0100F60
:103970003FF47FAF002301931368019353680193D1
:10398000019B536913F0400F52D0E26B13685B68E0
:103990009BB2002B3FF47BAFA18D99427FF677AFAE
:1039A000E385D369B3F5807F37D0226802F10C0339
:1039B00053E8003F23F480730C3242E800310029C1
:1039C000F3D1226802F1140353E8003F23F001030E
:1039D000143242E800310029F3D1226802F11403C5
:1039E00053E8003F23F04003143242E8003100293D
:1039F000F3D1202384F8423000232363226802F1AC
:103A00000C0353E8003F23F010030C3242E800316E
:103A10000029F3D1E06BFEF779FF02236363A18DE8
:103A2000E38D9BB2C91A89B22046FFF791FE2EE7BB
:103A3000A18DE38D9BB2C91A89B2E38D9BB2002B95
:103A40003FF425AF00293FF422AF226802F10C03B6
:103A500053E8003F23F490730C3242E80030002812
:103A6000F3D1226802F1140353E8003F23F001036D
:103A7000143242E800300028F3D1202384F8423089
:103A800000232363226802F10C0353E8003F23F074
:103A900010030C3242E800300028F3D102236363A4
:103AA0002046FFF755FEF2E62046FFF7A8FCEEE6BB
:103AB0002046FFF737FEEAE641370008816282853B
:103AC000C28500234364222380F84230036923B176
:103AD0000268D36843F48073D3600268536943F08B
:103AE000010353610268D36843F02003D3600020D0
:103AF000704708B590F84230DBB2202B08D149B1AD
:103B00000AB9012008BD00230363FFF7D7FFF9E7D7
:103B10000220F7E70120F5E730B583B000287AD01E
:103B20000446056890F89534C3B1032384F89534AE
:103B3000B5F1A04F17D0206800F0DDF8237C8DF898
:103B40000030231D0ECB206800F08CF870B10223EA
:103B500084F895340125284603B030BD80F89434AC
:103B6000FEF776F8E1E70023A371E4E7002120687F
:103B700000F0F2F9024608B9034617E0022384F880
:103B800095340125E7E703EBC30104EB8101012034
:103B900048750B75CB8500200876C861086203EB79
:103BA000C30104EB810148620133DBB22079984202
:103BB000E9D816E002EBC20304EB8303002183F88B
:103BC000551283F8542283F85812C3F85C12C3F8D4
:103BD000601202EBC20304EB8303C3F864120132E8
:103BE000D2B29042E6D8237C8DF80030231D0ECB54
:103BF000206800F0D5F8054620B1022384F89534FA
:103C00000125A8E700236374012384F89534206814
:103C100000F090F99FE701259DE782B00023019312
:103C2000019B01330193019BB3F1706F15D80369B8
:103C3000002BF5DA00230193036943F001030361CC
:103C4000019B01330193019BB3F1706F08D80369A5
:103C500013F0010FF4D1002000E0032002B0704700
:103C60000320FBE784B010B5044603A880E80E00EB
:103C70009DF81130012B21D1A36B23F48033A36372
:103C8000E36823F4840323F04003E360E36823F450
:103C90004013E3609DF81830012B0AD02046FFF74F
:103CA000BCFF9DF80E30012B1CD0BDE8104004B0C5
:103CB0007047E36843F48013E360EFE7E36843F0A1
:103CC0004003E3602046FFF7A8FF9DF8153023B9B5
:103CD000A36B43F48033A363E3E7A36B23F4803344
:103CE000A363DEE7A36843F00603A360A36843F081
:103CF0002003A360D9E7836823F0010383600020D9
:103D0000704782B000230193019B01330193019B13
:103D1000B3F1706F15D80369002BF5DA0023019316
:103D2000890141F020010161019B01330193019B55
:103D3000B3F1706F08D8036913F0200FF4D100209D
:103D400000E0032002B070470320FBE782B00023AD
:103D50000193019B01330193019BB3F1706F13D861
:103D60000369002BF5DA0023019310230361019B03
:103D700001330193019BB3F1706F08D8036913F00D
:103D8000100FF4D1002000E0032002B070470320A0
:103D9000FBE7D0F800381943C0F80018002070473E
:103DA00084B0F8B5044607A880E80E00002306E0BA
:103DB00003F1400204EB82020021516001330E2B1B
:103DC000F6D99DF8266006BBD4F8043843F0020308
:103DD000C4F80438A36B43F40013A363A36B23F468
:103DE0000023A363A36B23F48023A3630023C4F8FD
:103DF000003E9DF82130012B15D19DF81F306BB985
:103E000000212046FFF7C5FF11E0A36B23F4001348
:103E1000A363A36B43F40023A363E7E701212046D8
:103E2000FFF7B7FF03E003212046FFF7B2FF1021A1
:103E30002046FFF766FF054600B101252046FFF743
:103E400085FF00B1012504F5006C0023CCF810308B
:103E5000CCF81430CCF81C300AE0CBB94FF000603D
:103E6000C2F8000900220A614FF67F328A600133EE
:103E70009DF81C10994210D904EB431202F5106111
:103E8000D2F800090028E8DB0020C2F80009E9E7C1
:103E90004FF09040C2F80009E4E700230AE0BBB10C
:103EA0004FF09047C2F8007B002202614FF67F324C
:103EB00082600133994210D904EB431202F530605D
:103EC000D2F8007B002FEADB0027C2F8007BEBE78B
:103ED0004FF00067C2F8007BE6E7DCF8103023F40F
:103EE0008073CCF810300023A3616FF080436361CE
:103EF0009DF81E301BB9A36943F01003A361A269AA
:103F00000B4B1343A3619DF822301BB1A36943F00F
:103F10000803A361012E04D02846BDE8F84004B090
:103F20007047A36943F0804343F00403A361F3E7C0
:103F300000383C80D0F8003E23F00303C0F8003E78
:103F4000D0F8043843F00203C0F80438002070476A
:103F5000406900F00100704738B50546C36823F09A
:103F6000C043C360012913D019BBC36843F0804329
:103F7000C36000240A20FEF7F5FD0A342846FFF747
:103F8000E7FF08B1C72CF5D9C82C14D0002038BDE4
:103F9000C36843F00053C36000240A20FEF7E2FD2B
:103FA0000A342846FFF7D4FF0128EDD0C72CF4D9F6
:103FB000EAE70120EBE70120E9E70000034AD2F835
:103FC000883043F47003C2F88830704700ED00E099
:103FD00010B503460C4A0D490D48006840B10C4825
:103FE00000680344521A934206D8094A136010BD70
:103FF0000748084C0460F2E700F08CFA0C230360D9
:104000004FF0FF30F3E700BF000002200004000083
:10401000180C0020680D002070B50C4616460025CF
:1040200006E0AFF30080214601F8010B01350C4694
:10403000B542F6DB304670BD70B50C46164600251D
:1040400004E014F8010BFCF76BF90135B542F8DB1D
:10405000304670BD4FF0FF3070474FF400534B6057
:10406000002070470120704700207047DFF834D0EF
:10407000FFF7A4FF0C480D490D4A002302E0D45875
:10408000C4500433C4188C42F9D30A4A0A4C0023A2
:1040900001E013600432A242FBD300F041FAFCF7C6
:1040A00001FF704700000220000000207C0000207B
:1040B000A46300087C000020680D0020FEE70000DB
:1040C0000CB430B5184B0C1E1D689DB008DA8B235C
:1040D0002B604FF0FF301DB0BDE8304002B070479C
:1040E0004FF40273ADF814304FF000031B9314BF6C
:1040F00004F1FF332346049307934FF6FF730290B6
:104100000690ADF81630209A21AB02A928460193FB
:1041100000F0ECFA431CBCBF8B232B60002CDAD0E0
:10412000029B00221A70D6E72C0000200EB470B556
:104130009DB021AC00254FF4017254F8046BADF82A
:1041400014201B9502900690FCF72CF80B4B039063
:1041500007900B480B934FF6FF73ADF816303246BD
:10416000234602A900680F951495019400F014FCF1
:104170001DB0BDE8704003B0704700BFA741000804
:104180002C00002010B50C46B1F90E1000F09EF97D
:104190000028ABBF636DA3891B1823F48053ACBF09
:1041A0006365A38110BD002070472DE9F0411F46D3
:1041B0008B89DB0505460C46164605D5B1F90E1070
:1041C0000223002200F070F9A389B4F90E1023F441
:1041D0008053A38132463B462846BDE8F04100F0BB
:1041E00087B910B50C46B1F90E1000F05DF9431C0B
:1041F000A38915BF606523F4805343F48053A381E2
:1042000018BFA38110BDB1F90E1000F0B1B90000C4
:10421000002310B50446C0E90033C0E904338360CD
:1042200081814366C2818361194608225C3000F0B7
:1042300021F90D4B63620D4BA3620D4BE3620D4BF5
:1042400023630D4B24629C4206D003F16802944222
:1042500002D0D0339C4205D104F15800BDE8104093
:1042600000F082B910BD00BF85410008AB410008D5
:10427000E3410008074200081C0C0020024A0349E1
:10428000034800F069B800BF200000207D570008F7
:104290003000002041680C4B994210B5044601D013
:1042A00001F06CFAA168094B994202D0204601F056
:1042B00065FAE168064B994204D02046BDE81040FB
:1042C00001F05CBA10BD00BF1C0C0020840C002063
:1042D000EC0C002010B50B4B0B4C0C4A1A6020461E
:1042E00000220421FFF794FF04F168000122092154
:1042F000FFF78EFF04F1D0000222BDE8104012212A
:10430000FFF786BF540D00201C0C00207D420008E2
:10431000014800F02AB900BF590D0020014800F003
:1043200025B900BF590D002010B50446FFF7F0FF76
:10433000236A1BB1BDE81040FFF7F0BF044B2362B6
:10434000044B1B68002BF5D1FFF7C4FFF2E700BF59
:1043500095420008540D00202DE9F8430746884691
:1043600014460026D4E90195B9F1010905D5246860
:10437000002CF7D13046BDE8F883AB89012B07D973
:10438000B5F90E30013303D029463846C0470643FD
:104390006835E9E70FB407B5064904AB086853F878
:1043A000042B8168019300F097FC03B05DF804EBE7
:1043B00004B070472C000020036A70B5846805467D
:1043C0000E460BB9FFF7B0FF636EDB0705D4A38978
:1043D000980502D4A06D00F0C8F8A389190702D58A
:1043E0002369002B35D12146284601F08DFB80B38F
:1043F0004FF0FF35636EDA0705D4A3899B0502D41D
:10440000A06D00F0B3F8284670BD002B04DAA26955
:104410009A4217DC0A2915D023685A1C22601970A9
:10442000A36816F8011F013BA3600029EDD1002B02
:1044300011DA22460A21284601F03CFA0130D7D091
:104440000A25D7E72246284601F034FA0130E7D1A1
:10445000CEE7013EE4E723685A1C22600A221A7064
:10446000EEE70000024B01461868FFF7A5BF00BF4A
:104470002C00002002440346934200D1704703F809
:10448000011BF9E710B56AB10139841810F8012B46
:1044900011F8013F9A4203D1A04201D0002AF5D180
:1044A000D01A10BD1046FCE738B5074D0446084643
:1044B000114600222A601A46FFF7D6FD431C02D19E
:1044C0002B6803B1236038BD5C0D002038B5074D63
:1044D00004460846114600222A601A46FFF79CFD52
:1044E000431C02D12B6803B1236038BD5C0D002052
:1044F00038B5074D04460846114600222A601A4680
:10450000FFF79AFD431C02D12B6803B1236038BD2D
:104510005C0D0020014B1868704700BF2C00002084
:1045200070B50D4D0D4C641BA4100026A64209D198
:104530000B4D0C4C01F060FD641BA4100026A6423C
:1045400005D170BD55F8043B98470136EEE755F8A4
:10455000043B98470136F2E79C6300089C6300081F
:104560009C630008A0630008704770477047000014
:1045700038B5064D0023044608462B60FFF76AFD58
:10458000431C02D12B6803B1236038BD5C0D0020B1
:10459000034611F8012B03F8012B002AF9D17047CB
:1045A00038B50546002941D051F8043C0C1F002BBA
:1045B000B8BFE41801F00AF91D4A136833B9636003
:1045C00014602846BDE8384001F006B9A34208D976
:1045D000206821188B4201BF19685B6809182160A7
:1045E000EDE71A465B680BB1A342FAD9116850187F
:1045F000A0420BD120680144501883421160E0D1E1
:1046000018685B68536008441060DAE702D90C232D
:104610002B60D6E7206821188B4204BF19685B68BD
:10462000636004BF091821605460CAE738BD00BF49
:10463000640D00202DE9F0478E681F46BE420B68CE
:1046400082460C4690462DD8B1F90C2012F4906F9A
:1046500026D06569096905EB4505A3EB010905EB62
:10466000D5757B1C4B446D109D4238BF1D465305CC
:1046700027D5294600F06AFC064660B321694A4600
:1046800001F046FBA38923F4906343F08003A381E8
:10469000266165614E44A5EB09052660A5603E468E
:1046A000BE4200D93E4620683246414601F0E4FA57
:1046B000A3689B1BA3602368334423600020BDE8EC
:1046C000F0872A4601F0C8F806460028E0D12169A3
:1046D0005046FFF765FF0C23CAF80030A38943F06A
:1046E0004003A3814FF0FF30E9E700002DE9F04FD0
:1046F00098468B891B069DB007460D46144610D57B
:104700000B6973B9402100F021FC2860286130B9A1
:104710000C233B604FF0FF301DB0BDE8F08F40230D
:104720006B610023099320238DF82930CDF80C808C
:104730003023DFF89C818DF82A304FF001092346A1
:104740009A4613F8012B0AB1252AF9D1BAEB040BCA
:104750000BD05B46224629463846FFF76BFF0130F7
:1047600000F0A780099A5A4409929AF80030002B69
:1047700000F09F8000234FF0FF32CDE905230AF1BE
:10478000010A049307938DF853301A935446052277
:1047900014F8011B4E48FBF713FD049AD8B9D00654
:1047A00044BF20238DF85330110744BF2B238DF8CD
:1047B00053309AF800302A2B15D0079A544600201F
:1047C0004FF00A0C214611F8013B303B092B4BD925
:1047D000B0B1079214E0A0EB080309FA03F3134306
:1047E0000493A246D2E7039B191D1B680391002B7B
:1047F000BBBF5B4242F0020207930793B8BF04922B
:1048000023782E2B0AD163782A2B32D1039B1A1DD1
:104810001B68039243EAE37302340593DFF8C0A0F8
:10482000217803225046FBF7CBFC38B1049BA0EB68
:104830000A004022824013430134049314F8011B00
:1048400024488DF828100622FBF7BAFC002836D041
:10485000214B1BBB039B073323F007030833039350
:10486000099B334409936AE70CFB02320C46012092
:10487000A8E700230134059319464FF00A0C20469F
:1048800010F8012B303A092A03D9002BC6D0059124
:10489000C4E70CFB012104460123F0E703AB0093BE
:1048A0002A460E4B04A93846AFF30080421C064648
:1048B000D6D1AB895B063FF52DAF09982CE703AB4A
:1048C00000932A46054B04A9384600F02DFCEDE77D
:1048D000446200084E6200080000000035460008EF
:1048E0004A62000838B54B1C144603D14FF0FF351F
:1048F000284638BD938923F020039381636B526867
:10490000CDB28BB1A36B934208DD23685A1E22609F
:1049100003F8015C636801336360E9E7214600F056
:1049200061FF0028F1D0E1E72169236851B1994284
:1049300008D213F8011CA94204D1013B01322360C3
:104940006260D5E7C4E90F3204F1440363630323D3
:10495000A363234603F8465F23600123DCE710B519
:104960000C46496B69B104F14403994201D0FFF749
:1049700017FE236C63600020606313B1E36B236058
:1049800010BD2369236000236360A38943F02003E3
:10499000A3814FF0FF30F3E72DE9F04F0C46ADF562
:1049A000237D0021CDE94411A649A0910DF1040811
:1049B000A549A64FCDF818810646A191009392F81B
:1049C0000090B9F1000F00F0588117F8093013F08A
:1049D000080302F1010519D06368002B0FDD23687D
:1049E0001A78BA5C120701D42A46E8E7459A0132E0
:1049F000459262680133013A62602360ECE7A19B53
:104A00002146304698470028E9D0EDE7B9F1250F57
:104A100040F085804193439353782A2B02BF1023A3
:104A2000951C41930A22AA461AF8011BA1F13003F2
:104A3000092B1ED9DFF818B203225846FBF7C0FB3A
:104A400038B1419AA0EB0B000123834013434193FB
:104A5000554615F8013B782B06D8572B10D8252B37
:104A60005DD057D8002B75D0032347930A23429378
:104A700088E0439B02FB0311303943915546D2E74E
:104A8000A3F15802202AEFD801A151F822F000BF6B
:104A9000634B0008694A0008694A0008BD4B0008DA
:104AA000694A0008694A0008694A0008694A00081A
:104AB000694A0008694A0008694A0008D34B00089F
:104AC000B94B00081B4B00081B4B00081B4B000890
:104AD000694A0008754B0008694A0008694A0008DD
:104AE000694A0008694A0008E34B00087D4B00084A
:104AF0005B4B0008694A0008694A0008DF4B000860
:104B0000694A0008B94B0008694A0008694A000868
:104B1000634B0008453B022BA6D8052331E06368B0
:104B2000002B0DDD23681A784A4540F0A68001333A
:104B300062682360459B013A01336260459353E705
:104B4000A19B2146304698470028EBD04498002886
:104B500040F08B804FF0FF308BE0419A42F0200212
:104B60004192419A42F40072419210226E2B42927D
:104B700002D905E000234293032302E00823429375
:104B8000042347936368002B39DD419B590604D405
:104B900023681A78BA5C120738D4479B022B47DC8B
:104BA0006B46224641A9304600F0DCFB012864D068
:104BB00002287FF419AFC9E70A22D7E72946404601
:104BC00000F01EFD419B43F0400341930546012345
:104BD000D7E7419B43F0400341930023D1E70223F1
:104BE000CFE74198C3063FF5FFAE009B459A191DDC
:104BF00000911B68C0074CBF1A801A60F4E6A19BA5
:104C00002146304698470028BFD09FE7459A013299
:104C100045926268013A002A626002DD0133236036
:104C2000B6E7A19B2146304698470028B0D08DE7D3
:104C3000042B0FDC6B46224641A9304600F0ECFB0A
:104C4000B4E700BFE54800085F4900089362000828
:104C50004A6200080A4B002B3FF4C6AE6B46224660
:104C600041A93046AFF30080A0E7A3895B063FF57A
:104C700071AF0DF5237DBDE8F08F4498F9E700BFD3
:104C8000000000009368013B002B10B4936008DA29
:104C90009469A34201DB0A2903D15DF8044B00F0BB
:104CA00009BE1368581C1060197008465DF8044B63
:104CB0007047F8B506460F461446D518AC4201D1E8
:104CC000002007E014F8011B3A463046FFF7DAFFF0
:104CD000431CF3D1F8BD00002DE9F04F0D469DB007
:104CE00014469846064618B1036A0BB9FFF71CFB39
:104CF0006B6ED90705D4AB899A0502D4A86DFFF76E
:104D000034FCAB891B0701D52B699BB9294630467A
:104D100000F0FAFE70B16B6EDC0704D54FF0FF3087
:104D20001DB0BDE8F08FAB899805F7D4A86DFFF7EB
:104D30001DFCF3E70023099320238DF82930CDF8DB
:104D40000C803023DFF8AC818DF82A304FF0010958
:104D500023469A4613F8012B0AB1252AF9D1BAEB5A
:104D6000040B0BD05B46224629463046FFF7A1FFD5
:104D7000013000F0A780099A5A4409929AF800304D
:104D8000002B00F09F8000234FF0FF32CDE9052378
:104D90000AF1010A049307938DF853301A9354468D
:104DA000052214F8011B5348FBF70AFA049AD8B9F4
:104DB000D10644BF20238DF85330130744BF2B2363
:104DC0008DF853309AF800302A2B15D0079A5446A4
:104DD00000204FF00A0C214611F8013B303B092B13
:104DE0004BD9B0B1079214E0A0EB080309FA03F322
:104DF00013430493A246D2E7039B191D1B6803913A
:104E0000002BBBBF5B4242F0020207930793B8BF7F
:104E1000049223782E2B0AD163782A2B32D1039B5C
:104E20001A1D1B68039243EAE37302340593DFF80B
:104E3000D4A0217803225046FBF7C2F938B1049B75
:104E4000A0EB0A004022824013430134049314F87B
:104E5000011B29488DF828100622FBF7B1F900281C
:104E60003FD0264B1BBB039B073323F007030833BC
:104E70000393099B3B4409936AE70CFB02320C46FF
:104E80000120A8E700230134059319464FF00A0CCE
:104E9000204610F8012B303A092A03D9002BC6D03E
:104EA0000591C4E70CFB012104460123F0E703ABA5
:104EB00000932A46124B04A93046AFF30080074600
:104EC000781CD6D16B6ED90705D4AB899A0502D46C
:104ED000A86DFFF74BFBAB895B063FF51FAF099849
:104EE0001EE703AB00932A46054B04A9304600F0A9
:104EF0001BF9E4E7446200084E620008000000006D
:104F0000B34C00084A62000870B50F4E0C46316879
:104F1000054611B900F0DAFE30602146284600F05F
:104F2000D5FE431C03D14FF0FF34204670BDC41C96
:104F300024F00304A042F8D0211A284600F0C6FE4F
:104F40000130F2D1EFE700BF600D00202DE9F843FA
:104F5000CD1C25F0030508350C2D38BF0C25002D80
:104F6000064601DBA94204D90C2333600020BDE8CA
:104F7000F883DFF8D48000F029FCD8F800301C4614
:104F800044BB29463046FFF7BFFF431C044658D1B7
:104F9000D8F800402746002F43D1002C4BD023687F
:104FA0003946304604EB030900F090FE814542D1BA
:104FB00021686D1A29463046FFF7A6FF01303AD026
:104FC00023682B442360D8F800305A6862BBC8F8C5
:104FD00000700FE02268521B20D40B2A17D96119E8
:104FE000A342256018BF5960636808BFC8F8001065
:104FF00062514B60304600F0EFFB04F10B00231DC3
:1050000020F00700C21A1CBF1B1AA350AFE762684A
:10501000A3420CBFC8F800205A60EBE7234664683F
:10502000AEE73C467F68B6E71A465B68A342FBD111
:1050300000235360DEE70C233360304600F0CCFBE6
:1050400094E70560D6E700BF640D00202DE9F04726
:10505000164698468A680B69DDF820909342B8BFDF
:105060001346336091F8432007460C460AB10133DA
:1050700033602368990642BF336802333360256882
:1050800015F0060506D104F1190AE36832689B1A87
:10509000AB4226DC94F843302268003B18BF012362
:1050A00092062BD404F1430241463846C8470130EA
:1050B0001ED02368226903F00603042B02BFE568B3
:1050C0003368ED1AA3680CBF25EAE5750025934205
:1050D000C4BF9B1AED1800261A34B5421AD100201D
:1050E00008E00123524641463846C847013003D103
:1050F0004FF0FF30BDE8F0870135C6E7E1185A1CD4
:10510000302081F84300224494F8451082F843107F
:105110000233C7E70123224641463846C8470130DB
:10512000E6D00136D9E700002DE9FF470F7E0C9E3F
:10513000782F914680460C469A4601F1430207D8E3
:10514000622F0AD8002F00F0D180582F00F0B880CD
:1051500004F1420684F842703AE0A7F16303152B8C
:10516000F6D801A151F823F0C1510008D55100082B
:105170005151000851510008515100085151000887
:10518000D5510008515100085151000851510008F3
:1051900051510008D3520008FF5100088D520008F9
:1051A0005151000851510008F552000851510008B2
:1051B000FF51000851510008515100089552000854
:1051C00033681A1D1B68326004F1420684F84230CD
:1051D00001239CE033682068191D3160060601D563
:1051E0001D6803E04506FBD5B3F90050002D03DA36
:1051F0002D236D4284F8433058480A2311E021687A
:105200003368080653F8045B02D4490648BFADB2C0
:105210006F2F5248336014BF0A230823002184F8FB
:1052200043106668A660002E05DB21682E4321F03E
:10523000040121604BD01646B5FBF3F103FB115777
:10524000C75D06F8017D2F46BB420D46F4D9082BF9
:105250000BD12368DF0708D5236961689942DEBF57
:10526000302306F8013C06F1FF36921B2261CDF88F
:1052700000A04B4603AA21464046FFF7E7FE013057
:105280004AD14FF0FF3004B0BDE8F087236843F007
:10529000200323603248782784F8457023683168FA
:1052A0001F0651F8045B02D45F0648BFADB23160FF
:1052B000D90744BF43F0200323601DB11023ADE79D
:1052C0002648E9E7236823F020032360F6E7164623
:1052D000BDE7336825686169181D30602E061B68BC
:1052E00001D5196002E06806FBD51980002323610F
:1052F0001646BCE733681A1D32601E6862680021DA
:105300003046FAF75DFF08B1801B60606368236177
:10531000002384F84330AAE72369324649464046D1
:10532000D0470130ADD023689B0713D4E068039BBE
:105330009842B8BF1846A6E7012332464946404680
:10534000D04701309DD00135E36803995B1AAB4229
:10535000F2DCEBE7002504F11906F5E755620008D9
:10536000666200082DE9F84315468A6880460C46B7
:1053700032B98A69002A14BF4FF0FF3201228A60D5
:105380002268DFF89090D1065FBF1A68111D19607E
:1053900016680027A06988B1012807D12B681A7800
:1053A00063699B5C53B9002F31D022E0022820D1E1
:1053B0002B681B7819F803301B071AD42368DA0608
:1053C0005EBF2B681B7806F8013B2A686B680132C8
:1053D0002A60A268013B013A6B600137A26042B1CA
:1053E000002BD7DCD4F88031294640469847002866
:1053F000D0D0236813F0100305D1E2680132E260D7
:10540000A26902B1337023693B4423610020BDE8E7
:10541000F88300BF936200082DE9F04F9846744B63
:105420000C468246164693E8070087B003AB83E834
:105430000700704BA169704A032908BF1A46A36888
:1054400001925A1EB2F5AE7F88BF6FF4AE75274643
:1054500082BF03EB050940F25D13A36057F81C3BC4
:1054600043F4506398BF4FF0000923603D464FF06E
:10547000000B316803AB097853F82B000222FAF7CE
:105480009FFE28B3BBF1010F59D162682AB9226887
:10549000082142F4007261602260226822F4A06256
:1054A0002260A268511EA16092B13268511C316025
:1054B000127805F8012B7268013A002A726007DC45
:1054C000D4F88021314650469047002840F085802E
:1054D0000BF1010BBBF1030FCBD163680BB90A23AE
:1054E0006360636845496069C91A00F089F84FF044
:1054F000000BA3682268002B3DD03168606991F8E9
:1055000000C010F80C00002835D0BCF1300F24D1B9
:10551000100522D50BF1010BB9F1000F03D00133B7
:1055200009F1FF39A3607368013B002B73601BDD39
:10553000336801333360A368013BA360D9E7BBF153
:10554000020FAED1226802F4C061B1F5007FBFD175
:105550001021616042F48072A2E722F4106222609E
:105560000B7805F8013BDEE7D4F880313146504630
:1055700098470028DFD02368D9050DD5BD4209D949
:1055800015F8011CD4F87C3132465046984705F195
:10559000FF394D46BD4228D0226812F0100213D1C7
:1055A0002A706368019E39465046B047D8F80030EB
:1055B00021681A1DC8F8002011F0200F1B680FD0B9
:1055C0001860E3680133E3602369ED1B5D442B44FD
:1055D0002361002007B0BDE8F08F4FF0000BCAE751
:1055E000CA074CBF18801860EBE70120F2E700BF44
:1055F00010600008255A0008055B00088762000853
:1056000070B50B7804465E2B0BBF4B784A1C8A1C86
:10561000002108BF0121013804F1FF0500F8011F36
:10562000A842FBD10BB9501E70BD81F00101E154BD
:105630001046024612F8015B2D2D05D05D2D16D0C7
:10564000002DF1D02B46F2E746785D2EFAD0B3421A
:10565000F8DC02301A4601329642A154FBDCF21A01
:10566000013A5D1CB342A8BF0022AB18E1E7104627
:10567000DAE70000B1F90C202DE9F04116070546E4
:105680000C4654D44B68002B02DC0B6C002B48DD1D
:10569000E66A002E45D0002312F480522F68216A5A
:1056A0002B6030D0626DA389590705D56368D21A83
:1056B000636B0BB1236CD21A0023E66A216A284679
:1056C000B047431CA38906D129681D292BD82A4A33
:1056D000CA40D60727D500226260D9042269226019
:1056E00004D5421C01D12B6803B96065616B2F6042
:1056F000B9B104F14403994202D02846FEF750FFA5
:10570000002363630DE001232846B0470246501C86
:10571000C9D12B68002BC6D01D2B01D0162B1ED152
:105720002F60002022E043F040031BB21BE00F6912
:10573000002FF6D093070E6808BF4B690F6018BFA3
:105740000023A6EB07088B60B8F1000FE9DD216AA2
:10575000A66A43463A462846B047002808DCB4F912
:105760000C3043F04003A3814FF0FF30BDE8F081DF
:105770000744A8EB0008E7E70100402038B50B69B3
:1057800005460C4613B90025284638BD18B1036AF2
:105790000BB9FEF7C9FDB4F90C30002BF3D0626EE3
:1057A000D00704D4990502D4A06DFEF7DEFE28468A
:1057B0002146FFF75FFF636EDA070546E4D4A3894D
:1057C0009B05E1D4A06DFEF7D1FEDDE70148FEF7B1
:1057D000CCBE00BF580D00200148FEF7C7BE00BF79
:1057E000580D00202DE9F0410C46496B04F14403AB
:1057F00099421DD14FF48061FFF7A8FB18B94FF013
:10580000FF30BDE8F0814FF48063A36394F8463025
:10581000606380F8FF3394F8453080F8FE3394F8E5
:10582000443080F8FD3300F2FD3020600020E8E7CE
:10583000A66B77003A4600F00FF805460028DED048
:1058400000EB060801463246404600F061FAC4E922
:105850000D57C4F80080E9E72DE9F04107461446EA
:105860000D4621B9BDE8F0411146FFF76FBB2AB9DB
:10587000FEF796FE25462846BDE8F08100F056FA70
:105880008442064602D8B4EB500FF4D8214638467D
:10589000FFF75CFB804608B94546ECE7B442224678
:1058A000294628BF324600F033FA29463846FEF72B
:1058B00077FEF1E7F8B50E461446054618B1036ABF
:1058C0000BB9FEF731FDA369A360A3891A0701D5BF
:1058D000236943B92146284600F016F918B14FF064
:1058E000FF373846F8BD23682269981A6369F6B213
:1058F0008342374605DC21462846FFF73FFF002854
:10590000EDD1A368013BA36023685A1C22601E707E
:105910006269431C9A4204D0A389DB07E1D50A2EB1
:10592000DFD121462846FFF729FF0028D9D0D6E746
:10593000242B2DE9F0478646904601D8012B06D14D
:10594000FEF7E8FD162303600020BDE8F087344829
:105950000D462A4615F8014B065D16F00806F8D1EB
:105960002D2C10D12C780126951C33F0100215D166
:10597000302C0DD12A7802F0DF02582A08D16C7839
:10598000023510230AE02B2C04BF2C78951CECE781
:10599000002BF6D1302C14BF0A23082306F1004C4B
:1059A0000CF1FF3C0022BCFBF3F9104603FB19CAC3
:1059B000A4F13007092F0FD83C46A3421BDD571C2A
:1059C00007D0814514D301D1A24511DB00FB034070
:1059D000012215F8014BEBE7A4F14107192F01D87B
:1059E000373CEAE7A4F16107192F04D8573CE4E7F4
:1059F0004FF0FF32EDE7531C08D12223CEF80030E0
:105A00006046B8F1000FA0D0691E06E006B1404222
:105A1000B8F1000F99D0002AF6D1C8F8001094E729
:105A200093620008FFF784BF2DE9F043344E8646A9
:105A30000D46284615F8014B375D17F00807F8D1D9
:105A40002D2C10D12C780127851C33F0100015D196
:105A5000302C0DD1287800F0DF00582808D16C7860
:105A6000023510230AE02B2C04BF2C78851CECE7B0
:105A7000002BF6D1302C14BF0A2308234FF0FF3837
:105A80000026B8FBF3F803FB08F96FEA0909304672
:105A9000A4F1300CBCF1090F10D86446A3421EDDFE
:105AA000B6F1FF3F07D0804516D301D1A14513DBE6
:105AB00000FB0340012615F8014BE9E7A4F1410C76
:105AC000BCF1190F01D8373CE8E7A4F1610CBCF137
:105AD000190F04D8573CE1E74FF0FF36EBE7731C92
