:020000040800F2
:1000000000000220FD2E0008091100080B11000855
:100010000D1100080F110008111100080000000068
:1000200000000000000000000000000013110008A4
:100030001511000800000000171100081911000830
:100040004D2F00084D2F00084D2F00084D2F0008A0
:100050004D2F00084D2F00084D2F00084D2F000890
:100060004D2F00084D2F00084D2F00084D2F000880
:100070004D2F00084D2F00084D2F00084D2F000870
:100080004D2F00084D2F00084D2F00084D2F000860
:100090004D2F00084D2F00084D2F00084D2F000850
:1000A0004D2F00084D2F00084D2F00084D2F000840
:1000B0004D2F00084D2F00084D2F00084D2F000830
:1000C0004D2F00084D2F00084D2F00084D2F000820
:1000D0004D2F00084D2F00084D2F00084D2F000810
:1000E0004D2F00084D2F00084D2F00084D2F000800
:1000F0004D2F00084D2F00084D2F00084D2F0008F0
:100100004D2F00084D2F00084D2F00084D2F0008DF
:100110004D2F00084D2F00084D2F00084D2F0008CF
:100120004D2F00084D2F00084D2F00084D2F0008BF
:100130004D2F00084D2F00084D2F00084D2F0008AF
:100140004D2F00084D2F00084D2F00084D2F00089F
:100150004D2F00084D2F00084D2F00084D2F00088F
:100160004D2F00084D2F00084D2F00084D2F00087F
:100170004D2F00084D2F00084D2F000800000000F3
:080180004D2F00084D2F00086F
:1001900001F0FF01102A2BDB10F0070F08D010F838
:1001A000013B013A8B422DD010F0070F42B3F6D13C
:1001B000F0B441EA012141EA014122F007047FF055
:1001C00000070023F0E80256083C85EA010586EAAC
:1001D000010685FA47F5A3FA87F586FA47F6A5FAE8
:1001E00087F68EB9EED1F0BC01F0FF0102F00702F4
:1001F00032B110F8013B013A83EA010313B1F8D19F
:100200000020704701387047002D06BF354603387F
:10021000073815F0010F07D1013015F4807F02BFB8
:10022000013015F4C03F0130F0BC0138704700BF09
:1002300053B94AB9002908BF00281CBF4FF0FF314D
:100240004FF0FF3000F00CB8ADF1080C6DE904CEB2
:1002500003F0AAFDDDF804E0DDE9022304B07047F5
:10026000704700BF0348044B834202D0034B03B1E5
:100270001847704768000020680000200000000058
:100280000548064B1B1AD90F01EBA301491002D0F8
:10029000034B03B118477047680000206800002036
:1002A0000000000010B5064C237843B9FFF7DAFFD1
:1002B000044B13B10448AFF300800123237010BD39
:1002C00068000020000000006440000808B5054BED
:1002D0001BB105490548AFF30080BDE80840FFF7B2
:1002E000CFBF00BF000000006C0000206440000889
:1002F00000B583B001904FF6FF73012201A90348B6
:1003000002F0EBFA019803B05DF804FB1C03002037
:1003100072B6FEE700B595B03022002108A802F0C1
:10032000EBFE002303930493059306930793019335
:10033000204A116C41F080511164126C02F080521D
:100340000192019A02931C4B1A6842F480421A608F
:100350001B6803F480430293029B012308934FF42C
:100360008033099302230E934FF480020F920F22E1
:1003700010929022119212930523139308A801F072
:100380007BF898B90F23039302230493002305936A
:100390004FF4A05306934FF480530793032103A80F
:1003A00001F0BAFA20B915B05DF804FBFFF7B0FF11
:1003B000FFF7AEFF003802400070004008B501F0C2
:1003C00017FDFFF7A7FF00F03BF800F0F7F800F08B
:1003D0005FF900F0B3FA00F041FB00F06FFC00F0B1
:1003E00087FC00F09FFC00F0B7FC00F0CFFC00F0B1
:1003F00037FE00F0F9FB00F0A5FB00F0E1FC13E094
:100400000C4B00221A600B4C21680B4802F062FE74
:100410004FF48051094801F051FC4FF4FA7001F09B
:1004200013FD236801332360024B1B680A2BE7DCB2
:10043000E9E700BF840000207C400008000C024077
:100440002DE9F0478CB000240794089409940A948D
:100450000B940194534B1A6B42F010021A631A6BFF
:1004600002F010020192019A02941A6B42F0040207
:100470001A631A6B02F004020292029A03941A6B36
:1004800042F080021A631A6B02F080020392039A10
:1004900004941A6B42F001021A631A6B02F0010213
:1004A0000492049A05941A6B42F002021A631A6BC2
:1004B00002F002020592059A06941A6B42F00802B5
:1004C0001A631B6B03F008030693069BDFF8E0A09A
:1004D000224649F23C51504601F0EAFB324F224697
:1004E00042F22001384601F0E3FB304E2246402123
:1004F000304601F0DDFBDFF8BC9022464FF20101EF
:10050000484601F0D5FBDFF8B08022464FF4845115
:10051000404601F0CDFB49F23C5307930125089575
:1005200009940A9407A9504601F0CCFA42F220033C
:100530000793089509940A9407A9384601F0C2FA6E
:1005400040230793089509940A9407A9304601F0BF
:10055000B9FA4FF201030793089509940A9407A981
:10056000484601F0AFFA4FF4845307930895099475
:100570000A9407A9404601F0A5FA4FF44073079387
:100580000894099407A9384601F09CFA4FF4807347
:1005900007930894099407A9304601F093FA0CB028
:1005A000BDE8F08700380240000802400000024029
:1005B0000010024000040240000C024000B585B06B
:1005C000002300930193029303931448144A02609A
:1005D000436083600361037680F82030C362114A70
:1005E0008262C3600122C26180F83030426100F053
:1005F0004DFE60B9002300930122019202936946E7
:10060000064800F06FFE28B905B05DF804FBFFF75F
:100610007FFEEFE7FFF77CFEF6E700BF88000020D3
:10062000002001400100000F00B589B000230393B2
:100630000493059306930793026803F1804303F53F
:1006400090339A4202D009B05DF804FB0021019179
:1006500003F58C335A6C42F480725A645A6C02F47B
:1006600080720192019A02911A6B42F001021A63A0
:100670001B6B03F001030293029B072303930323E5
:10068000049303A9014801F01DFADCE700000240D1
:1006900008B50B480B4B03600B4B43600023836092
:1006A000C3604FF48042026143618361C3610362AE
:1006B00001F0DEFB00B908BDFFF72AFEFBE700BF33
:1006C000D000002000540040A086010030B589B061
:1006D0000023039304930593069307930268144B36
:1006E0009A4201D009B030BD00250195114C236B11
:1006F00043F002032363236B03F002030193019B86
:10070000C023039312230493032306930423079324
:1007100003A9094801F0D6F90295236C43F40013AC
:100720002364236C03F400130293029BDAE700BFF7
:1007300000540040003802400004024084B00368C6
:10074000184A934207D0B3F1804F11D0164A934212
:100750001BD004B0704700230193144B5A6C42F035
:1007600001025A645B6C03F001030193019BF0E703
:10077000002302930D4B1A6C42F001021A641B6CA9
:1007800003F001030293029BE3E700230393074B6B
:100790001A6C42F004021A641B6C03F00403039306
:1007A000039BD6E7000001400008004000380240EB
:1007B0000268094B9A4200D0704782B0002301932F
:1007C000064B1A6C42F002021A641B6C03F002031F
:1007D0000193019B02B070470004004000380240C2
:1007E00070B58CB000230793089309930A930B9379
:1007F00003684A4A93420AD0B3F1804F1FD0484A57
:10080000934249D0474A934270D00CB070BD002348
:100810000193454B1A6B42F010021A631B6B03F0F5
:1008200010030193019B4FF4D443079302230893D1
:1008300001230B9307A93D4801F044F9E5E70024A3
:10084000029403F50E331A6B42F001021A631A6B1D
:1008500002F001020292029A03941A6B42F0020221
:100860001A631B6B03F002030393039B2823079374
:100870000226089601250B9507A92D4801F022F9BB
:100880004FF481630793089609940A940B9507A97E
:10089000284801F017F9B8E700250495224B1A6B98
:1008A00042F001021A631A6B02F001020492049AE8
:1008B00005951A6B42F002021A631B6B03F00203E8
:1008C0000593059B80230793022408940B9407A9A2
:1008D000174801F0F7F812230793089409950A9531
:1008E0000B9407A9134801F0EDF88EE70023069357
:1008F0000D4B1A6B42F008021A631B6B03F00803DE
:100900000693069B4FF460430793022308930B93CF
:1009100007A9094801F0D6F877E700BF00000140B9
:10092000000400400008004000380240001002406F
:100930000000024000040240000C024010B596B0D6
:1009400000241294139414941594109411940994FF
:100950000A940B940C940D940E940F94202221462B
:1009600001A802F0C9FB3B483B4B03604460846034
:100970004FF6FF73C36004614461846101F08AFC37
:1009800000284BD14FF48053129312A9314801F043
:100990008CFD002845D12F4801F0A8FC002843D148
:1009A00000231093119310A92A4801F0FDFD00289F
:1009B0003DD16023099300220A920B920C920D9272
:1009C0000E920F9209A9234801F0F4FC002831D1BE
:1009D000042209A91F4801F0EDFC70BB082209A9F7
:1009E0001C4801F0E7FC58BB0C2209A9194801F08A
:1009F000E1FC40BB0023019302930393049305930E
:100A00004FF400520692089301A9124801F012FE19
:100A1000E0B91048FFF7E4FE16B010BDFFF778FC10
:100A2000B0E7FFF775FCB6E7FFF772FCB8E7FFF732
:100A30006FFCBEE7FFF76CFCCAE7FFF769FCCDE788
:100A4000FFF766FCD0E7FFF763FCD3E7FFF760FC36
:100A5000DFE700BFFC0100200000014000B58FB0BF
:100A600000230A930B930C930D930893099301931E
:100A700002930393049305930693079330484FF032
:100A800080420260436083604FF0FF32C2600361C6
:100A9000836101F0FFFB002839D14FF480530A93A2
:100AA0000AA9274801F001FD002833D1244801F0AC
:100AB0001DFC002831D100230893099308A9204880
:100AC00001F072FD60BB6023019300220292039249
:100AD000059201A91A4801F06DFC20BB04220DEB20
:100AE0000201174801F066FC00BB082201A9144866
:100AF00001F060FCE8B90C2201A9114801F05AFC90
:100B0000D0B90F48FFF76CFE0FB05DF804FBFFF79C
:100B1000FFFBC2E7FFF7FCFBC8E7FFF7F9FBCAE7FB
:100B2000FFF7F6FBCFE7FFF7F3FBD7E7FFF7F0FBA5
:100B3000DBE7FFF7EDFBDEE7FFF7EAFBE1E700BFEE
:100B4000B401002000B58BB00023089309930193F2
:100B50000293039304930593069307932048214A35
:100B60000260436083604FF6FF72C260036183617D
:100B700001F0BCFB28BB00230893099308A918487F
:100B800001F012FD00BB6023019300220292039248
:100B9000059201A9124801F00DFCC0B904220DEB29
:100BA00002010F4801F006FCA0B90C2201A90C4873
:100BB00001F000FC88B90A48FFF712FE0BB05DF89F
:100BC00004FBFFF7A5FBD6E7FFF7A2FBDBE7FFF788
:100BD0009FFBE3E7FFF79CFBE7E7FFF799FBEAE7FB
:100BE0006C0100200004004000B58FB000230A9380
:100BF0000B930C930D930893099301930293039322
:100C000004930593069307932A482B4A0260436096
:100C100083604FF6FF72C2600361836101F03AFBAB
:100C2000002832D14FF480530A930AA9214801F0D9
:100C30003CFC68BB1F4801F059FB60BB00230893D4
:100C4000099308A91B4801F0AFFC38BB602301934E
:100C5000002302930393059304220DEB0201154830
:100C600001F0A8FBE8B9082201A9124801F0A2FB93
:100C7000D0B90C2201A90F4801F09CFBB8B90D486E
:100C8000FFF7AEFD0FB05DF804FBFFF741FBC9E7CE
:100C9000FFF73EFBCEE7FFF73BFBCFE7FFF738FB65
:100CA000D4E7FFF735FBDEE7FFF732FBE1E7FFF7BD
:100CB0002FFBE4E7240100200008004008B50A48A3
:100CC0000A4B03604FF4E133436000238360C36049
:100CD00003610C2242618361C36101F0CEFD00B962
:100CE00008BDFFF715FBFBE7AC030020004C0040FC
:100CF00008B50A480A4B03604FF4E1334360002310
:100D00008360C36003610C2242618361C36101F0AF
:100D1000B4FD00B908BDFFF7FBFAFBE76403002050
:100D20000050004008B50A480A4B03604FF4E13315
:100D3000436000238360C36003610C2242618361CE
:100D4000C36101F09AFD00B908BDFFF7E1FAFBE7C6
:100D50001C0300200010014008B50A480A4B03603C
:100D60004FF4E133436000238360C36003610C22CE
:100D700042618361C36101F080FD00B908BDFFF7E6
:100D8000C7FAFBE7D40200200044004008B50A4837
:100D90000A4B03604FF4E133436000238360C36078
:100DA00003610C2242618361C36101F066FD00B9F9
:100DB00008BDFFF7ADFAFBE78C02002000480040B9
:100DC00008B50A480A4B03604FF4E133436000233F
:100DD0008360C36003610C2242618361C36101F0DF
:100DE0004CFD00B908BDFFF793FAFBE74402002071
:100DF00000140140F0B595B000230F9310931193A8
:100E00001293139303688B4A934213D08A4A9342F6
:100E100034D08A4A934269D0894A934200F08A804A
:100E2000884A934200F0A980874A934200F0DE800E
:100E300015B0F0BD00210191844B1A6C42F40022E0
:100E40001A641A6C02F400220192019A02911A6B40
:100E500042F004021A631B6B03F004030293029B2B
:100E60004FF440630F93022310930323129308233C
:100E700013930FA9764800F025FED9E700240394C8
:100E8000724B1A6C42F480121A641A6C02F48012CB
:100E90000392039A04941A6B42F004021A631A6BC9
:100EA00002F004020492049A05941A6B42F00802BC
:100EB0001A631B6B03F008030593059B4FF48053E3
:100EC0000F930227109703261296082513950FA952
:100ED0005F4800F0F7FD04230F93109711941296CA
:100EE00013950FA95B4800F0EDFDA1E700210691E5
:100EF000564B5A6C42F010025A645A6C02F01002BF
:100F00000692069A07911A6B42F001021A631B6B54
:100F100003F001030793079B4FF4C0630F93022371
:100F2000109303231293072313930FA94A4800F049
:100F3000C9FD7DE700210891444B1A6C42F4003250
:100F40001A641A6C02F400320892089A09911A6B1A
:100F500042F008021A631B6B03F008030993099B14
:100F600060230F93022310930323129307231393F9
:100F70000FA9384800F0A6FD5AE700240A94334B25
:100F80001A6C42F480221A641A6C02F480220A92CB
:100F90000A9A0B941A6B42F002021A631A6B02F05F
:100FA00002020B920B9A0C941A6B42F008021A631D
:100FB0001B6B03F008030C930C9B4FF400630F931F
:100FC0000227109703261296072513950FA9234889
:100FD00000F078FD4FF480730F93109711941296E0
:100FE00013950FA91B4800F06DFD21E700210D911D
:100FF000164B5A6C42F020025A645A6C02F02002DE
:101000000D920D9A0E911A6B42F004021A631B6B3B
:1010100003F004030E930E9BC0230F93022310933F
:1010200003231293082313930FA9094800F04AFDE4
:10103000FEE600BF004C00400050004000100140A0
:1010400000440040004800400014014000380240C5
:1010500000080240000C0240000002400004024070
:1010600008B50B484FF0A04303600423037102222C
:10107000C2710023837142728372C37203738373DC
:10108000C37301F090FC00B908BDFFF741F9FBE71D
:10109000F403002030B589B0002303930493059333
:1010A000069307930368B3F1A04F01D009B030BD98
:1010B00000250195124C236B43F001032363236B3E
:1010C00003F001030193019B4FF4C05303930223E8
:1010D0000493032306930A23079303A9094800F006
:1010E000F1FC636B43F0800363630295636C43F42C
:1010F00080436364636C03F480430293029BD5E7EF
:101100000038024000000240FEE7FEE7FEE7FEE78F
:10111000FEE770477047704708B500F083FE08BDD2
:1011200082B0002100910B4B5A6C42F480425A6409
:101130005A6C02F480420092009A01911A6C42F0BB
:1011400080521A641B6C03F080530193019B02B020
:10115000704700BF003802404A4B5A6822F44032C0
:101160005A605A6841680A435A600268536823F417
:101170008073536002685368016943EA0123536036
:101180000268536823F040735360026853688168B3
:101190000B4353600268936823F400639360026812
:1011A0009368C1680B439360826A374B9A4257D069
:1011B0000268936823F07063936002689368816AA1
:1011C0000B4393600268936823F040539360026876
:1011D0009368C16A0B4393600268936823F002032B
:1011E000936002689368017E43EA4103936090F83C
:1011F0002030002B3FD00268536843F400635360F3
:101200000268536823F46043536001684B68426A84
:10121000013A43EA42334B600268D36A23F4700315
:10122000D3620168CB6AC269013A43EA0253CB62D6
:101230000268936823F4007393600268936890F8DF
:10124000301043EA412393600268936823F480637B
:10125000936002689368416943EA81239360704711
:101260000268936823F0706393600268936823F0C8
:1012700040539360B0E70268536823F400635360FF
:10128000CAE700BF002301400100000F38B310B5CA
:101290000446036C43B1236C13F0100F0BD00120F4
:1012A000002384F83C3010BDFFF7BEF900236364CF
:1012B00084F83C30EFE7236C23F4885323F00203D7
:1012C00043F0020323642046FFF746FF00206064DA
:1012D000236C23F0030343F001032364E0E70120C0
:1012E0007047000030B482B00022019290F83C2098
:1012F000012A00F0B6800346012280F83C200A68EB
:10130000092A40D90468E06892B202EB42021E3A10
:101310004FF0070C0CFA02F220EA0202E2601C68AD
:10132000E0680A8802EB42021E3A8D6805FA02F272
:101330000243E2604A68062A3CD81C68606B02EBF4
:101340008202053A4FF01F0C0CFA02F220EA020268
:1013500062631C68606B4A6802EB8202053AB1F86E
:1013600000C00CFA02F20243626318683E4A9042DF
:1013700050D018683C4A904255D0002083F83C0079
:1013800002B030BC70470468206992B202EB42029E
:101390004FF0070C0CFA02F220EA020222611C68EC
:1013A00020690A8802EB42028D6805FA02F20243C4
:1013B0002261BFE70C2A16D81D68286B02EB820257
:1013C000233A1F2404FA02F220EA02022A631D686B
:1013D000286B4A6802EB8202233A0C8804FA02F274
:1013E00002432A63C1E71D68E86A02EB8202413AC0
:1013F0001F2404FA02F220EA0202EA621D68E86A87
:101400004A6802EB8202413A0C8804FA02F2024373
:10141000EA62AAE70A68122AABD11448426842F489
:1014200080024260A5E70A68103A012AA5D80F4851
:10143000426842F4000242600A68102A9DD10C4AB8
:1014400012680C49A1FB0212920C02EB82025200BC
:10145000019202E0019A013A0192019A002AF9D11F
:101460008BE702208CE700BF0020014000230140F1
:101470000800002083DE1B43002800F0E08170B5E7
:1014800082B00446036813F0010F3BD09F4B9B686A
:1014900003F00C03042B2CD09C4B9B6803F00C0333
:1014A000082B21D06368B3F5803F4FD0B3F5A02F50
:1014B00052D0964B1A6822F480321A601A6822F4CD
:1014C00080221A606368002B50D000F0B7FC0546FC
:1014D0008E4B1B6813F4003F14D100F0AFFC401B8F
:1014E0006428F5D90320B1E1884B5B6813F4800FC1
:1014F000D8D0864B1B6813F4003F03D06368002BE1
:1015000000F09F81236813F0020F54D07F4B9B683B
:1015100013F00C0F3ED07D4B9B6803F00C03082B9F
:1015200033D0E368002B68D0794B01221A6000F0B9
:1015300085FC0546754B1B6813F0020F54D100F073
:101540007DFC401B0228F5D903207FE16F4A136818
:1015500043F480331360B5E76C4B1A6842F4802281
:101560001A601A6842F480321A60ABE700F066FC39
:101570000546664B1B6813F4003FC3D000F05EFCC9
:10158000401B6428F5D9032060E1604B5B6813F4CD
:10159000800FC6D15D4B1B6813F0020F03D0E368C8
:1015A000012B40F05081594A136823F0F803216958
:1015B00043EAC1031360236813F0080F42D0636944
:1015C0006BB3534B0122C3F8802E00F037FC054665
:1015D0004E4B5B6F13F0020F34D100F02FFC401B19
:1015E0000228F5D9032031E1484A136823F0F803B3
:1015F000216943EAC1031360DDE7454B00221A600D
:1016000000F01CFC0546414B1B6813F0020FD2D0C2
:1016100000F014FC401B0228F5D9032016E13C4BD6
:101620000022C3F8802E00F009FC0546374B5B6FA3
:1016300013F0020F06D000F001FC401B0228F5D980
:10164000032003E1236813F0040F77D02F4B1B6CAA
:1016500013F0805F33D1002301932C4B1A6C42F0BE
:1016600080521A641B6C03F080530193019B012587
:10167000284B1B6813F4807F23D0A368012B34D040
:10168000052B38D0214B1A6F22F001021A671A6F0E
:1016900022F004021A67A368002B3DD000F0CEFBB5
:1016A00006461A4B1B6F13F0020F46D100F0C6FB23
:1016B000801B41F288339842F3D90320C6E000250D
:1016C000D6E7144A136843F48073136000F0B6FB46
:1016D0000646104B1B6813F4807FCED100F0AEFBA2
:1016E000801B0228F5D90320B0E0084A136F43F0AD
:1016F00001031367CFE7054B1A6F42F004021A6724
:101700001A6F42F001021A67C5E700BF00380240B5
:10171000000047420070004000F090FB0646524B2C
:101720001B6F13F0020F08D000F088FB801B41F202
:1017300088339842F3D9032088E0EDB9A369002BE0
:1017400000F08380484A926802F00C02082A51D0C7
:10175000022B17D0454B00221A6600F06FFB04469F
:10176000414B1B6813F0007F42D000F067FB001B69
:101770000228F5D9032069E03B4A136C23F080531B
:101780001364DBE7394B00221A6600F057FB05466D
:10179000354B1B6813F0007F06D000F04FFB401B59
:1017A0000228F5D9032051E0E369226A1343626AF3
:1017B00043EA8213A26A5208013A43EA0243E26A08
:1017C00043EA0263284A5360284B01221A6600F05C
:1017D00035FB0446244B1B6813F0007F06D100F054
:1017E0002DFB001B0228F5D903202FE000202DE05F
:1017F00000202BE0012B2BD01B4B5B6803F48001F6
:10180000E269914226D103F03F02216A8A4223D144
:10181000616A47F6C0721A40B2EB811F1ED103F411
:101820004031A26A5208013AB1EB024F18D103F0DD
:101830007063E26AB3EB026F14D1002006E001206E
:101840007047012002E0012000E0002002B070BDDE
:101850000120FBE70120F9E70120F7E70120F5E788
:101860000120F3E70120F1E7003802400000474281
:1018700008B5264B9B6803F00C03042B41D0082BC2
:1018800041D1224B5A6802F03F025B6813F4800F8B
:1018900012D01E4B5968C1F388111D480023A1FBCB
:1018A0000001FEF7C5FC194B5B68C3F3014301332C
:1018B0005B00B0FBF3F008BD144B5868C0F3881010
:1018C0004FEA401CBCEB000C6EEB0E0E4FEA8E1381
:1018D00043EA9C634FEA8C11B1EB0C0163EB0E03FE
:1018E000DB0043EA5173C90011EB000C43F1000324
:1018F000990200234FEA8C2041EA9C51FEF798FCA4
:10190000D1E70348D7E70348D5E700BF00380240D6
:1019100040787D010024F400002800F09B8070B521
:101920000D4604464F4B1B6803F007038B4208D259
:10193000CBB24C4A1370136803F007038B4240F09C
:101940008B80236813F0020F17D013F0040F04D01C
:10195000454A936843F4E0539360236813F0080FFB
:1019600004D0414A936843F4604393603E4A9368CD
:1019700023F0F003A1680B439360236813F0010F79
:1019800032D06368012B21D09A1E012A25D9364A0C
:10199000126812F0020F61D033498A6822F0030204
:1019A00013438B6000F04AFA06462F4B9B6803F006
:1019B0000C036268B3EB820F16D000F03FFA801B75
:1019C00041F288339842F0D9032042E0264A126857
:1019D00012F4003FE0D101203BE0234A126812F0EC
:1019E000007FD9D1012034E01E4B1B6803F00703B0
:1019F000AB4207D9EAB21B4B1A701B6803F007030E
:101A0000AB422DD1236813F0040F06D0164A936819
:101A100023F4E053E1680B439360236813F0080F4D
:101A200007D0114A936823F46043216943EAC10354
:101A30009360FFF71DFF0C4B9B68C3F303130B4A26
:101A4000D35CD8400A4B18600A4B186800F0AAF91A
:101A5000002070BD012070470120FAE70120F8E75F
:101A60000120F6E7003C024000380240A040000898
:101A70000800002004000020014B1868704700BFD8
:101A80000800002008B5FFF7F7FF044B9B68C3F37D
:101A90008223034AD35CD84008BD00BF003802400F
:101AA0009840000808B5FFF7E7FF044B9B68C3F3B5
:101AB0004233034AD35CD84008BD00BF003802401F
:101AC0009840000800230F2B00F2E98070B582B027
:101AD00065E085684FEA430E032404FA0EF425EA14
:101AE0000405CC6804FA0EF42C438460446824EAAC
:101AF00002044A68C2F300129A40224342605CE04A
:101B0000DC08083450F8242003F00705AD004FF03E
:101B10000F0E0EFA05FE22EA0E0E0A69AA4042EAEC
:101B20000E0240F824205CE0072200E0002202FAC6
:101B30000EF22A4302345A4D45F82420594A94683B
:101B40006FEA0C0224EA0C054E6816F4801F01D0DF
:101B50004CEA0405534CA560E46802EA04054E68AB
:101B600016F4001F01D04CEA04054E4CE560646891
:101B700002EA04054E6816F4003F01D04CEA040561
:101B8000484C6560246822404D6815F4803F01D0C0
:101B90004CEA0402434C226001330F2B7DD8012212
:101BA0009A400C6804EA020C32EA0404F4D14C684E
:101BB00004F00304013C012C8BD94A6802F00302B3
:101BC000032A09D0C4685D000322AA4024EA020463
:101BD0008A68AA402243C2604A6802F00302022ACD
:101BE0008ED004684FEA430E032202FA0EF224EA72
:101BF00002044A6802F0030202FA0EF22243026073
:101C00004A6812F4403FC7D000220192264A546C21
:101C100044F480445464526C02F480420192019A6C
:101C20009C08A51C1E4A52F8255003F0030E4FEAEB
:101C30008E0E0F2202FA0EF225EA02051B4A90428E
:101C40003FF474AF02F5806290421AD002F58062D0
:101C5000904218D002F58062904216D002F5806260
:101C6000904214D002F58062904212D002F5806258
:101C7000904210D002F5806290423FF455AF0822A6
:101C800055E7012253E7022251E703224FE70422DE
:101C90004DE705224BE7062249E702B070BD7047C9
:101CA00000380140003C0140003802400000024082
:101CB0000AB181617047090481617047436901EA93
:101CC000030221EA030141EA0241816170470000F9
:101CD000002808DB0901C9B200F1604000F561404D
:101CE00080F80013704700F00F000901C9B2014BE2
:101CF0001954704714ED00E000B500F00700C0F182
:101D0000070CBCF1040F28BF4FF0040C031D062B79
:101D10000FD9C31E4FF0FF3E0EFA0CF021EA00016E
:101D200099400EFA03FE22EA0E0241EA02005DF833
:101D300004FB0023EEE70000074AD36823F4E063C6
:101D40001B041B0C000200F4E060034343F0BF637C
:101D500043F40033D360704700ED00E010B5044653
:101D6000054BD868C0F30220FFF7C6FF01462046A6
:101D7000FFF7AEFF10BD00BF00ED00E00138B0F18D
:101D8000807F0BD24FF0E0235861054AF02182F8A2
:101D900023100020986107221A61704701207047C4
:101DA00000ED00E010B504460E4B1A784FF47A733C
:101DB000B3FBF2F30C4A1068B0FBF3F0FFF7DEFF61
:101DC00068B90F2C01D901200AE0002221464FF00A
:101DD000FF30FFF7C3FF054B1C60002000E001202F
:101DE00010BD00BF000000200800002004000020FB
:101DF00008B50B4B1A6842F400721A601A6842F474
:101E000080621A601A6842F480721A600320FFF739
:101E100093FF0F20FFF7C6FFFFF782F9002008BDF0
:101E2000003C0240034A1168034B1B780B441360CB
:101E3000704700BFD808002000000020014B186840
:101E4000704700BFD808002038B50446FFF7F6FFFA
:101E50000546B4F1FF3F02D0044B1B781C44FFF74A
:101E6000EDFF401BA042FAD338BD00BF00000020A8
:101E7000002800F0CC8070B5044690F83D30002B6F
:101E800077D0242384F83D302268136823F00103BF
:101E900013602268136843F40043136022681368D8
:101EA00023F400431360FFF7EDFD62685A4B9A423A
:101EB00064D85A4B98428CBF00230123002B40F07A
:101EC000A8805749A1FB00318B0C25686A6822F075
:101ED0003F0242EA91426A6021680A6A22F03F02A8
:101EE00066684D4DAE424FD8013313430B622168F3
:101EF000CA6922F44F4222F0FF026568464B9D42B8
:101F00004CD8431E6D00B3FBF5F3013340F6FC7073
:101F1000034278D0C3F30B031A43CA6121680B68EC
:101F200023F0C003E269206A024313430B60216877
:101F30008B6823F4034323F0FF032269E068024324
:101F400013438B602168CB6823F0FF036269A069AB
:101F500002431343CB602268136843F0010313600C
:101F600000202064202384F83D30206384F83E0064
:101F700070BD80F83C30FEF7A9FB82E7294B984200
:101F80008CBF0023012399E74FF4967505FB03F3FB
:101F9000254DA5FB03539B090133A6E7A668BEB9EF
:101FA000431E05EB450CB3FBFCF30133C3F30B03FA
:101FB000B3FA83F35B0943BBC6B9431E05EB450582
:101FC000B3FBF5F30133C3F30B0343F40043A3E77F
:101FD000431E05EB850C0CEB8C0CB3FBFCF30133BF
:101FE000C3F30B03B3FA83F35B09E4E7431E05EB8A
:101FF000850505EB8505B3FBF5F30133C3F30B034F
:1020000043F4404388E7042386E7012384E7012063
:1020100070470120ACE700BFA08601007F841E004E
:1020200083DE1B43FF083D00D34D621030B4036ACA
:10203000026A22F0010202624268846924F0730C91
:102040000C6844EA0C0423F0020C8B6843EA0C038E
:10205000114DA84203D005F58065A84205D123F0B3
:102060000803CD682B4323F004030B4DA84203D093
:1020700005F58065A84207D122F440724D6945EA12
:10208000020C8A6942EA0C02426084614A68426337
:10209000036230BC704700BF0000014030B4036AE7
:1020A000026A22F4807202624268C46924F0730CEE
:1020B0000C6844EA0C0523F400738C6843EA04239B
:1020C000114CA04203D004F58064A04206D123F451
:1020D0000063CC6843EA042323F480630A4CA042E3
:1020E00003D004F58064A04207D122F440524C6929
:1020F00042EA04128C6942EA04124260C5614A68ED
:10210000C263036230BC70470000014030B4036A10
:10211000026A22F4805202624468C26922F4E642F2
:102120000D6842EA052223F400538D6843EA053323
:10213000094DA84203D005F58065A84204D124F4D6
:1021400080444D6944EA85144460C2614A6802646F
:10215000036230BC704700BF0000014010B4036A46
:10216000046A24F001040462846924F0F00C4CEA4F
:10217000021223F00A030B43826103625DF8044BF1
:10218000704710B4036A046A24F01004046284697E
:1021900024F4704C4CEA023223F0A00343EA01130A
:1021A000826103625DF8044B7047836823F070031B
:1021B0000B4343F007038360704700000368344A11
:1021C000904212D0B0F1804F0FD0A2F57C429042E5
:1021D0000BD002F58062904207D002F580629042F7
:1021E00003D002F57842904203D123F070034A688D
:1021F0001343274A90422AD0B0F1804F27D0A2F54E
:102200007C42904223D002F5806290421FD002F5BA
:10221000806290421BD002F57842904217D002F5BE
:102220007052904213D002F5806290420FD002F5B6
:10223000806290420BD0A2F59832904207D002F50E
:102240008062904203D002F58062904203D123F471
:102250004073CA68134323F080034A691343036041
:102260008B68C3620B688362094B984203D003F505
:102270008063984201D10B690363012343610369C1
:1022800013F0010F03D0036923F0010303617047CA
:102290000000014040B310B5044690F83D30F3B162
:1022A000022384F83D30214651F8040BFFF786FFE6
:1022B000012384F8463084F83E3084F83F3084F8B7
:1022C000403084F8413084F8423084F8433084F858
:1022D000443084F8453084F83D30002010BD80F84B
:1022E0003C30FEF72BFADBE70120704740B310B516
:1022F000044690F83D30F3B1022384F83D30214686
:1023000051F8040BFFF75AFF012384F8463084F894
:102310003E3084F83F3084F8403084F8413084F80F
:10232000423084F8433084F8443084F8453084F8EF
:102330003D30002010BD80F83C30FEF739FADBE775
:102340000120704730B4036A026A22F01002026270
:102350004468826922F4E6420D6842EA052223F0CD
:1023600020038D6843EA0513114DA84203D005F5FB
:102370008065A84206D123F08003CD6843EA0513A7
:1023800023F040030A4DA84203D005F58065A8421A
:1023900007D124F440644D6944EA85048D6944EA18
:1023A0008504446082614A688263036230BC70477E
:1023B0000000014038B590F83C30012B66D004464F
:1023C0000D46012380F83C300C2A5AD8DFE802F091
:1023D000075959591B5959593059595944000068DE
:1023E000FFF724FE2268936943F008039361226893
:1023F000936923F0040393612268936929690B436D
:10240000936100203EE00068FFF79CFF226893691B
:1024100043F4006393612268936923F480639361BA
:1024200022689369296943EA01239361002029E026
:102430000068FFF733FE2268D36943F00803D361D5
:102440002268D36923F00403D3612268D369296920
:102450000B43D361002015E00068FFF757FE2268A8
:10246000D36943F40063D3612268D36923F48063A2
:10247000D3612268D369296943EA0123D36100202B
:1024800000E00120002384F83C3038BD0220FCE746
:1024900010B4846824F47F4C42EA03220A4342EADF
:1024A0000C0282605DF8044B704790F83C30012BC1
:1024B00078D010B50446012380F83C30022380F820
:1024C0003D300268936823F47F4323F077039360E1
:1024D0000B68602B4CD023D8402B54D011D8202B24
:1024E00003D00AD80BB1102B05D119462068FFF78D
:1024F0005CFE002028E0012026E0302BF5D00120F2
:1025000022E0502B0AD1CA6849680068FFF726FE0E
:1025100050212068FFF749FE002015E0012013E05C
:10252000B3F5805F3AD0B3F5005F14D0702B37D18C
:10253000CB684A6889680068FFF7AAFF2268936839
:1025400043F0770393600020012384F83D3000239B
:1025500084F83C3010BDCB684A6889680068FFF792
:1025600097FF2268936843F4804393600020EBE771
:10257000CA6849680068FFF704FE60212068FFF719
:1025800014FE0020E0E7CA6849680068FFF7E6FD2E
:1025900040212068FFF709FE0020D5E70020D3E79F
:1025A0000120D1E70220704790F83C20012A3DD05D
:1025B00010B40346012280F83C20022280F83D201E
:1025C00002685068946820F0700C086840EA0C00BB
:1025D00050601A68164882421AD0B2F1804F17D064
:1025E000A0F57C40824213D000F5806082420FD07B
:1025F00000F5806082420BD000F57840824207D01F
:1026000000F57050824203D0A0F59430824204D18C
:1026100024F08004496821439160012283F83D2021
:10262000002083F83C005DF8044B7047022070479F
:1026300000000140024690F83C30012B21D00123DC
:1026400080F83C30CB6823F440738868034323F45C
:1026500080634868034323F400630868034323F45A
:1026600080530869034323F400534869034323F468
:102670008043C9690B4311684B64002082F83C0019
:10268000704702207047026802F10C0353E8003FD4
:1026900023F490730C3242E800310029F3D1026830
:1026A00002F1140353E8003F23F00103143242E81F
:1026B00000310029F3D1036B012B05D0202380F8D2
:1026C0004230002303637047026802F10C0353E8B1
:1026D000003F23F010030C3242E800310029F3D10F
:1026E000ECE7000010B504460268136923F4405378
:1026F000C1680B431361836802691A4343691A4333
:10270000C3691A430168CB6823F4164323F00C0312
:102710001343CB600268536923F4407381690B4310
:1027200053610368314A934206D002F580629342B6
:1027300002D0FFF7A7F901E0FFF7B4F9E369B3F5B9
:10274000004F29D00021031849411B1841F1000115
:10275000C90041EA5371DB00181863684FEA83022D
:102760004FEA937341F10001FDF762FD204AA2FB9D
:1027700000314909642303FB11031B013233A2FB1F
:1027800003235B0903F0F00202EB011203F00F03D5
:10279000216813448B6010BD0023021843EB030132
:1027A000121841F10001C90041EA5271D20010181B
:1027B00041F10001626892185B41FDF739FD0C4A56
:1027C000A2FB00314909642303FB1103DB00323310
:1027D000A2FB03235B095A0002F4F87202EB011218
:1027E00003F00703216813448B60D4E70010014015
:1027F0001F85EB512DE9F04383B005460E46174681
:102800009946DDF828802B681C6836EA04040CBF62
:1028100001240024BC4228D1B8F1FF3FF3D0FFF7D8
:102820000DFBA0EB0900404523D8B8F1000F22D0E2
:102830002B68DA6812F0040FE5D0802EE3D0402E2A
:10284000E1D01A6812F0080FDDD0002401941A6854
:1028500001925B680193019B2846FFF714FF082350
:102860006B6485F84040012000E0002003B0BDE823
:10287000F0830320FAE70320F8E760B310B50446BD
:1028800090F8413013B3242384F841302268D36890
:1028900023F40053D3602046FFF724FF2268136916
:1028A00023F4904313612268536923F02A03536190
:1028B0002268D36843F40053D3600020606420236F
:1028C00084F8413084F84230606310BD80F84030B5
:1028D000FEF790FAD7E7012070472DE9F04182B06A
:1028E0001E4690F84130DBB2202B56D104460D46EF
:1028F0009046002955D00AB901204FE000234364D7
:10290000212380F84130FFF799FA0746A4F8248084
:10291000A4F82680A368B3F5805F02D04FF00008CA
:1029200014E023692BB34FF000080FE0202384F854
:102930004130032032E038F8023B2268C3F3080339
:102940005360E28C92B2013A92B2E284E38C9BB281
:1029500093B100963B46002280212046FFF74AFFB4
:102960000028E3D1002DE6D015F8012B23685A602A
:10297000E7E7A8460025E9E700963B46002240210C
:102980002046FFF737FF18B9202384F8413005E0CF
:10299000202384F84130032000E0022002B0BDE88B
:1029A000F0810120FAE730B583B000287AD00446E0
:1029B000056890F89534C3B1032384F89534B5F1D4
:1029C000A04F17D0206800F0DDF8237C8DF8003090
:1029D000231D0ECB206800F08CF870B1022384F820
:1029E00095340125284603B030BD80F89434FEF7B5
:1029F00051FBE1E70023A371E4E70021206800F028
:102A0000F3F9024608B9034617E0022384F8953427
:102A10000125E7E703EBC30104EB810101204875C1
:102A20000B75CB8500200876C861086203EBC301F3
:102A300004EB810148620133DBB220799842E9D886
:102A400016E002EBC20304EB8303002183F8551266
:102A500083F8542283F85812C3F85C12C3F860124A
:102A600002EBC20304EB8303C3F864120132D2B257
:102A70009042E6D8237C8DF80030231D0ECB2068D1
:102A800000F0D6F8054620B1022384F895340125DC
:102A9000A8E700236374012384F89534206800F0CC
:102AA00091F99FE701259DE782B000230193019BE7
:102AB00001330193019BB3F1706F15D80369002BAB
:102AC000F5DA00230193036943F001030361019BDD
:102AD00001330193019BB3F1706F08D8036913F0C0
:102AE000010FF4D1002000E0032002B07047032062
:102AF000FBE784B010B5044603A880E80E009DF8FB
:102B00001130012B21D1A36B23F48033A363E3683D
:102B100023F4840323F04003E360E36823F44013C9
:102B2000E3609DF81830012B0AD02046FFF7BCFF68
:102B30009DF80E30012B1CD0BDE8104004B070474A
:102B4000E36843F48013E360EFE7E36843F0400396
:102B5000E3602046FFF7A8FF9DF8153023B9A36B6B
:102B600043F48033A363E3E7A36B23F48033A363CD
:102B7000DEE7A36843F00603A360A36843F02003E5
:102B8000A360D9E7836823F00103836000207047C6
:102B900082B000230193019B01330193019BB3F1A8
:102BA000706F15D80369002BF5DA002301938901B2
:102BB00041F020010161019B01330193019BB3F1BD
:102BC000706F08D8036913F0200FF4D1002000E0E3
:102BD000032002B070470320FBE782B0002301937B
:102BE000019B01330193019BB3F1706F13D803690B
:102BF000002BF5DA0023019310230361019B0133BD
:102C00000193019BB3F1706F08D8036913F0100FA3
:102C1000F4D1002000E0032002B070470320FBE75E
:102C2000D0F800381943C0F80018002070470000A1
:102C300084B0F8B5044607A880E80E00002306E03B
:102C400003F1400204EB82020021516001330E2B9C
:102C5000F6D99DF8266006BBD4F8043843F0020389
:102C6000C4F80438A36B43F40013A363A36B23F4E9
:102C70000023A363A36B23F48023A3630023C4F87E
:102C8000003E9DF82130012B15D19DF81F306BB906
:102C900000212046FFF7C4FF11E0A36B23F40013CB
:102CA000A363A36B43F40023A363E7E7012120465A
:102CB000FFF7B6FF03E003212046FFF7B1FF102125
:102CC0002046FFF765FF054600B101252046FFF7C6
:102CD00084FF00B1012504F5006C0023CCF810300E
:102CE000CCF81430CCF81C300AE0CBB94FF00060BF
:102CF000C2F8000900220A614FF67F328A60013370
:102D00009DF81C10994210D904EB431202F5106192
:102D1000D2F800090028E8DB0020C2F80009E9E742
:102D20004FF09040C2F80009E4E700230AE0BBB18D
:102D30004FF09047C2F8007B002202614FF67F32CD
:102D400082600133994210D904EB431202F53060DE
:102D5000D2F8007B002FEADB0027C2F8007BEBE70C
:102D60004FF00067C2F8007BE6E7DCF8103023F490
:102D70008073CCF810300023A3616FF0804363614F
:102D80009DF81E301BB9A36943F01003A361A2692B
:102D90000B4B1343A3619DF822301BB1A36943F091
:102DA0000803A361012E04D02846BDE8F84004B012
:102DB0007047A36943F0804343F00403A361F3E742
:102DC00000383C80D0F8003E23F00303C0F8003EFA
:102DD000D0F8043843F00203C0F8043800207047EC
:102DE000406900F00100704738B50546C36823F01C
:102DF000C043C360012913D019BBC36843F08043AB
:102E0000C36000240A20FFF71FF80A342846FFF7A2
:102E1000E7FF08B1C72CF5D9C82C14D0002038BD65
:102E2000C36843F00053C36000240A20FFF70CF886
:102E30000A342846FFF7D4FF0128EDD0C72CF4D977
:102E4000EAE70120EBE70120E9E70000034AD2F8B6
:102E5000883043F47003C2F88830704700ED00E01A
:102E600010B503460C4A0D490D48006840B10C48A6
:102E700000680344521A934206D8094A136010BDF1
:102E80000748084C0460F2E700F03EF90C230360A9
:102E90004FF0FF30F3E700BF000002200004000005
:102EA000DC080020300A002070B50C4616460025CC
:102EB00006E0AFF30080214601F8010B01350C4616
:102EC000B542F6DB304670BD70B50C46164600259F
:102ED00004E014F8010BFDF70BFA0135B542F8DBFD
:102EE000304670BD4FF0FF3070474FF400534B60D9
:102EF000002070470120704700207047DFF834D071
:102F0000FFF7A4FF0C480D490D4A002302E0D458F6
:102F1000C4500433C4188C42F9D30A4A0A4C002323
:102F200001E013600432A242FBD300F0F3F8FDF796
:102F300045FA7047000002200000002068000020D1
:102F4000F4400008680000202C0A0020FEE7000082
:102F5000002310B50446C0E90033C0E904338360A0
:102F600081814366C2818361194608225C3000F08A
:102F7000C3F80D4B63620D4BA3620D4BE3620D4B27
:102F800023630D4B24629C4206D003F168029442F5
:102F900002D0D0339C4205D104F15800BDE8104066
:102FA00000F0DCB810BD00BFB1390008D33900080B
:102FB0000B3A00082F3A0008E0080020024A0349B3
:102FC000034800F069B800BF0C0000204939000830
:102FD0001C00002041680C4B994210B5044601D0FA
:102FE00000F0B2FCA168094B994202D0204600F0E3
:102FF000ABFCE168064B994204D02046BDE8104086
:1030000000F0A2BC10BD00BFE0080020480900206D
:10301000B009002010B50B4B0B4C0C4A1A6020462F
:1030200000220421FFF794FF04F168000122092126
:10303000FFF78EFF04F1D0000222BDE810401221FC
:10304000FFF786BF180A0020E0080020BD2F000807
:10305000014800F084B800BF1D0A0020014800F0BC
:103060007FB800BF1D0A002010B50446FFF7F0FF2F
:10307000236A1BB1BDE81040FFF7F0BF044B236289
:10308000044B1B68002BF5D1FFF7C4FFF2E700BF2C
:10309000D52F0008180A00202DE9F8430746884676
:1030A00014460026D4E90195B9F1010905D5246833
:1030B000002CF7D13046BDE8F883AB89012B07D946
:1030C000B5F90E30013303D029463846C0470643D0
:1030D0006835E9E70FB407B5064904AB086853F84B
:1030E000042B8168019300F065F803B05DF804EBF0
:1030F00004B070471800002002440346934200D1F8
:10310000704703F8011BF9E7014B1868704700BFCF
:103110001800002070B50D4D0D4C641BA410002646
:10312000A64209D10B4D0C4C00F09CFF641BA4106F
:103130000026A64205D170BD55F8043B98470136DC
:10314000EEE755F8043B98470136F2E7EC400008FB
:10315000EC400008EC400008F04000087047704761
:1031600070479368013B002B10B4936008DA9469B0
:10317000A34201DB0A2903D15DF8044B00F05BBCDC
:103180001368581C1060197008465DF8044B7047AE
:10319000F8B506460F461446D518AC4201D10020BA
:1031A00007E014F8011B3A463046FFF7DAFF431CEC
:1031B000F3D1F8BD2DE9F04F0D469DB01446984669
:1031C000064618B1036A0BB9FFF74EFF6B6ED907BD
:1031D00005D4AB899A0502D4A86DFFF7C0FFAB896F
:1031E0001B0701D52B699BB92946304600F062FCCC
:1031F00070B16B6EDC0704D54FF0FF301DB0BDE839
:10320000F08FAB899805F7D4A86DFFF7A9FFF3E716
:103210000023099320238DF82930CDF80C8030232A
:10322000DFF8AC818DF82A304FF0010923469A4629
:1032300013F8012B0AB1252AF9D1BAEB040B0BD0F4
:103240005B46224629463046FFF7A2FF013000F0D8
:10325000A780099A5A4409929AF80030002B00F08E
:103260009F8000234FF0FF32CDE905230AF1010AC8
:10327000049307938DF853301A935446052214F89B
:10328000011B5348FCF784FF049AD8B9D10644BF08
:1032900020238DF85330130744BF2B238DF8533070
:1032A0009AF800302A2B15D0079A544600204FF088
:1032B0000A0C214611F8013B303B092B4BD9B0B128
:1032C000079214E0A0EB080309FA03F313430493F5
:1032D000A246D2E7039B191D1B680391002BBBBFBD
:1032E0005B4242F0020207930793B8BF049223782F
:1032F0002E2B0AD163782A2B32D1039B1A1D1B680F
:10330000039243EAE37302340593DFF8D4A02178F3
:1033100003225046FCF73CFF38B1049BA0EB0A00A7
:103320004022824013430134049314F8011B2948BE
:103330008DF828100622FCF72BFF00283FD0264BE3
:103340001BBB039B073323F0070308330393099B3D
:103350003B4409936AE70CFB02320C460120A8E7C4
:1033600000230134059319464FF00A0C204610F84B
:10337000012B303A092A03D9002BC6D00591C4E7A6
:103380000CFB012104460123F0E703AB00932A461E
:10339000124B04A93046AFF300800746781CD6D103
:1033A0006B6ED90705D4AB899A0502D4A86DFFF7D7
:1033B000D7FEAB895B063FF51FAF09981EE703AB4D
:1033C00000932A46054B04A9304600F01BF9E4E7B8
:1033D000B0400008BA400008000000009131000829
:1033E000B640000870B50F4E0C463168054611B95D
:1033F00000F04CFC30602146284600F047FC431C9E
:1034000003D14FF0FF34204670BDC41C24F00304E8
:10341000A042F8D0211A284600F038FC0130F2D141
:10342000EFE700BF200A00202DE9F843CD1C25F06E
:10343000030508350C2D38BF0C25002D064601DB91
:10344000A94204D90C2333600020BDE8F883DFF8DB
:10345000D48000F0A1FAD8F800301C4644BB2946BD
:103460003046FFF7BFFF431C044658D1D8F8004050
:103470002746002F43D1002C4BD0236839463046D5
:1034800004EB030900F002FC814542D121686D1A6A
:1034900029463046FFF7A6FF01303AD023682B4477
:1034A0002360D8F800305A6862BBC8F800700FE09B
:1034B0002268521B20D40B2A17D96119A342256018
:1034C00018BF5960636808BFC8F8001062514B60AC
:1034D000304600F067FA04F10B00231D20F00700CE
:1034E000C21A1CBF1B1AA350AFE76268A3420CBFED
:1034F000C8F800205A60EBE723466468AEE73C4614
:103500007F68B6E71A465B68A342FBD1002353608D
:10351000DEE70C233360304600F044FA94E70560A0
:10352000D6E700BF240A00202DE9F047164698464A
:103530008A680B69DDF820909342B8BF1346336068
:1035400091F8432007460C460AB1013333602368E3
:10355000990642BF336802333360256815F00605CB
:1035600006D104F1190AE36832689B1AAB4226DCE3
:1035700094F843302268003B18BF012392062BD4F5
:1035800004F1430241463846C84701301ED0236843
:10359000226903F00603042B02BFE5683368ED1AC5
:1035A000A3680CBF25EAE57500259342C4BF9B1AAA
:1035B000ED1800261A34B5421AD1002008E0012384
:1035C000524641463846C847013003D14FF0FF30DC
:1035D000BDE8F0870135C6E7E1185A1C302081F8B4
:1035E0004300224494F8451082F843100233C7E7A1
:1035F0000123224641463846C8470130E6D001360D
:10360000D9E700002DE9FF470F7E0C9E782F9146E9
:1036100080460C469A4601F1430207D8622F0AD829
:10362000002F00F0D180582F00F0B88004F142063E
:1036300084F842703AE0A7F16303152BF6D801A194
:1036400051F823F09D360008B13600082D360008E9
:103650002D3600082D3600082D360008B13600083A
:103660002D3600082D3600082D3600082D360008AE
:10367000AF370008DB360008693700082D36000830
:103680002D360008D13700082D360008DB3600083B
:103690002D3600082D3600087137000833681A1DD2
:1036A0001B68326004F1420684F8423001239CE03A
:1036B00033682068191D3160060601D51D6803E0D6
:1036C0004506FBD5B3F90050002D03DA2D236D42DA
:1036D00084F8433058480A2311E02168336808060B
:1036E00053F8045B02D4490648BFADB26F2F52486D
:1036F000336014BF0A230823002184F8431066684E
:10370000A660002E05DB21682E4321F00401216014
:103710004BD01646B5FBF3F103FB1157C75D06F816
:10372000017D2F46BB420D46F4D9082B0BD12368EF
:10373000DF0708D5236961689942DEBF302306F8A8
:10374000013C06F1FF36921B2261CDF800A04B46EA
:1037500003AA21464046FFF7E7FE01304AD14FF069
:10376000FF3004B0BDE8F087236843F020032360F6
:103770003248782784F84570236831681F0651F86D
:10378000045B02D45F0648BFADB23160D90744BFC5
:1037900043F0200323601DB11023ADE72648E9E77D
:1037A000236823F020032360F6E71646BDE733685D
:1037B00025686169181D30602E061B6801D51960E7
:1037C00002E06806FBD51980002323611646BCE79A
:1037D00033681A1D32601E68626800213046FCF7AB
:1037E000D7FC08B1801B606063682361002384F804
:1037F0004330AAE72369324649464046D047013064
:10380000ADD023689B0713D4E068039B9842B8BFF0
:103810001846A6E70123324649464046D0470130C4
:103820009DD00135E36803995B1AAB42F2DCEBE70C
:10383000002504F11906F5E7C1400008D240000850
:10384000B1F90C202DE9F041160705460C4654D479
:103850004B68002B02DC0B6C002B48DDE66A002E67
:1038600045D0002312F480522F68216A2B6030D09B
:10387000626DA389590705D56368D21A636B0BB1D2
:10388000236CD21A0023E66A216A2846B047431CFB
:10389000A38906D129681D292BD82A4ACA40D607F0
:1038A00027D500226260D9042269226004D5421C17
:1038B00001D12B6803B96065616B2F60B9B104F168
:1038C0004403994202D0284600F024FA002363639F
:1038D0000DE001232846B0470246501CC9D12B6891
:1038E000002BC6D01D2B01D0162B1ED12F6000201F
:1038F00022E043F040031BB21BE00F69002FF6D01B
:1039000093070E6808BF4B690F6018BF0023A6EB32
:1039100007088B60B8F1000FE9DD216AA66A43460B
:103920003A462846B047002808DCB4F90C3043F08A
:103930004003A3814FF0FF30BDE8F0810744A8EBBE
:103940000008E7E70100402038B50B6905460C4642
:1039500013B90025284638BD18B1036A0BB9FFF723
:1039600083FBB4F90C30002BF3D0626ED00704D483
:10397000990502D4A06DFFF7F2FB28462146FFF718
:103980005FFF636EDA070546E4D4A3899B05E1D4A3
:10399000A06DFFF7E5FBDDE70148FFF7E0BB00BFE7
:1039A0001C0A00200148FFF7DBBB00BF1C0A0020F7
:1039B00010B50C46B1F90E1000F056F90028ABBF57
:1039C000636DA3891B1823F48053ACBF6365A38187
:1039D00010BD2DE9F0411F468B89DB0505460C46DD
:1039E000164605D5B1F90E100223002200F02AF97F
:1039F000A389B4F90E1023F48053A38132463B46C9
:103A00002846BDE8F04100F051B910B50C46B1F9B7
:103A10000E1000F017F9431CA38915BF606523F44D
:103A2000805343F48053A38118BFA38110BDB1F923
:103A30000E1000F04DB9F8B50E461446054618B103
:103A4000036A0BB9FFF710FBA369A360A3891A07E8
:103A500001D5236943B92146284600F02BF818B157
:103A60004FF0FF373846F8BD23682269981A63691A
:103A7000F6B28342374605DC21462846FFF764FF4D
:103A80000028EDD1A368013BA36023685A1C226083
:103A90001E706269431C9A4204D0A389DB07E1D5FA
:103AA0000A2EDFD121462846FFF74EFF0028D9D045
:103AB000D6E7000038B5294B054618680C4618B102
:103AC000036A0BB9FFF7D0FAB4F90C30190722D406
:103AD000DA0607D409222A6043F04003A3814FF09D
:103AE000FF3033E0580712D5616B41B104F1440354
:103AF000994202D0284600F00DF900236363A389A0
:103B000023F02403A3810023636023692360A38936
:103B100043F00803A38123694BB9A38903F42073FD
:103B2000B3F5007F03D02146284600F03FF8B4F9F2
:103B30000C3013F001020AD00022A26062695242E6
:103B4000A261226942B913F08000C5D138BD99073E
:103B500058BF6269A260F4E70020F7E71800002070
:103B600070B50C46B1F90E10002996B015461E46E8
:103B70000DDAA38913F0800F4FF0000114BF40232A
:103B80004FF48063002031602B6016B070BD6A4630
:103B900000F0AEF80028ECDB019901F47041A1F5CA
:103BA0000053594259414FF48063EBE78B89F7B5D5
:103BB0009D0706460C4607D504F1470323602361A1
:103BC0000123636103B0F0BD01AB6A46FFF7C8FF94
:103BD000009F054639463046FFF726FC48B9B4F940
:103BE0000C309A05EED423F0030343F00203A381C3
:103BF000E2E7A389206043F08003A381019BC4E92D
:103C000004075BB1B4F90E10304600F00BF828B190
:103C1000A38923F0030343F00103A381A3891D4378
:103C2000A581CFE738B5064D0023044608462B6032
:103C3000FFF760F9431C02D12B6803B1236038BD44
:103C4000280A002038B5074D0446084611460022D0
:103C50002A601A46FFF750F9431C02D12B6803B1C2
:103C6000236038BD280A002038B5074D04460846B1
:103C7000114600222A601A46FFF716F9431C02D1AA
:103C80002B6803B1236038BD280A002038B5064DE3
:103C90000023044608462B60FFF7E2F8431C02D1DC
:103CA0002B6803B1236038BD280A002038B5074DC2
:103CB00004460846114600222A601A46FFF704F916
:103CC000431C02D12B6803B1236038BD280A0020B1
:103CD00038B5064D0023044608462B60FFF702F96D
:103CE000431C02D12B6803B1236038BD280A002091
:103CF00038B5074D00230446084611462B60FFF7F0
:103D0000F4F8431C02D12B6803B1236038BD00BF17
:103D1000280A002038B50546002941D051F8043C56
:103D20000C1F002BB8BFE418FFF736FE1D4A1368BE
:103D300033B9636014602846BDE83840FFF732BEEF
:103D4000A34208D9206821188B4201BF19685B681B
:103D500009182160EDE71A465B680BB1A342FAD956
:103D600011685018A0420BD12068014450188342BA
:103D70001160E0D118685B68536008441060DAE7AE
:103D800002D90C232B60D6E7206821188B4204BF90
:103D900019685B68636004BF091821605460CAE752
:103DA00038BD00BF240A00202DE9F047089D0E46CB
:103DB00004460F46002B4AD194468C45B2FA82F253
:103DC00060D942B1C2F12003974020FA03F30CFA04
:103DD00002FC1F4394404FEA1C4E1FFA8CF6B7FBBF
:103DE000FEF1230C0EFB117743EA074301FB06F0BB
:103DF00098420AD91CEB030301F1FF3780F01581CB
:103E0000984240F21281023963441B1AA4B2B3FBF8
:103E1000FEF00EFB103344EA034400FB06F6A64214
:103E20000AD91CEB040400F1FF3380F00081A642A4
:103E300040F2FD806444023840EA0140A41B0021A6
:103E40001DB1D4400023C5E90043BDE8F0878B4293
:103E500005D90DB1C5E9000100210846F5E7B3FA1F
:103E600083F1002946D1B34202D3824200F2F580A9
:103E7000841A66EB030201201746002DE5D0C5E940
:103E80000047E2E7002A40F09380A1EB0C034FEAE1
:103E90001C471FFA8CFE0121B3FBF7F607FB163017
:103EA000230C43EA00430EFB06F0984208D91CEBB2
:103EB000030306F1FF3802D2984200F2D080464652
:103EC0001B1AA4B2B3FBF7F007FB103344EA034418
:103ED0000EFB00FEA64508D91CEB040400F1FF33DD
:103EE00002D2A64500F2B6801846A4EB0E0440EAC2
:103EF0000640A5E7C1F120078B4022FA07FC4CEAF7
:103F0000030C06FA01FE20FA07F426FA07F344EA46
:103F10000E0400FA01F84FEA1C404FEA1449B3FBC3
:103F2000F0FE1FFA8CF600FB1E3349EA03430EFB3A
:103F300006F9994502FA01F20BD91CEB03030EF1C5
:103F4000FF3A80F08580994540F28280AEF1020E02
:103F50006344A3EB0909A4B2B9FBF0F300FB139986
:103F600044EA094403FB06F6A64208D91CEB040404
:103F700003F1FF3068D2A64266D9023B644443EAAB
:103F80000E40A41BA0FB02E6B4427346B14652D3D6
:103F90004FD05DB1B8EB030264EB090404FA07F7F4
:103FA00022FA01F31F43CC40C5E9007400214CE71D
:103FB000C2F1200120FA01F30CFA02FC26FA01F109
:103FC000964033434FEA1C471FFA8CFEB1FBF7F0D3
:103FD00007FB1016190C41EA064100FB0EF68E4253
:103FE00004FA02F408D91CEB010100F1FF382DD2CC
:103FF0008E422BD902386144891B9BB2B1FBF7F684
:1040000007FB161143EA014306FB0EF1994208D95A
:104010001CEB030306F1FF3814D2994212D9023E79
:1040200063445B1A46EA004136E73946EDE6184636
:1040300002E7F045ADD2BEEB020366EB0C06013899
:10404000B146A6E74646ECE7034698E74046D3E785
:10405000D6467EE76444023847E708460DE7023E4D
:1040600063442DE7F8B500BFF8BC08BC9E46704716
:0C407000F8B500BFF8BC08BC9E467047C5
:10407C0048656C6C6F2120546573742076616C7587
:10408C00652069732025690A00000000000000000B
:10409C000102030400000000000000000102030400
:1040AC0006070809232D302B2000686C4C00656630
:1040BC00674546470030313233343536373839416D
:1040CC004243444546003031323334353637383983
:0840DC00616263646566000087
:0840E400ACC0FF7F01000000E9
:0440EC00CD020008F9
:0440F000A50200081D
:1040F40001000000100000000024F4000000000093
:1041040003000000E00800201C0000200000000064
:10411400E008002048090020B00900200000000049
:10412400000000000000000000000000000000008B
:10413400000000000000000000000000000000007B
:10414400000000000000000000000000000000006B
:08415400000000000000000063
:0400000508002EFDC4
:00000001FF
