:020000040800F2
:100000000000022021200008C5080008C7080008D9
:10001000C9080008CB080008CD080008000000004F
:10002000000000000000000000000000CF080008F1
:10003000D108000800000000D3080008D508000817
:10004000712000087120000871200008712000084C
:10005000712000087120000871200008712000083C
:10006000712000087120000871200008712000082C
:10007000712000087120000871200008712000081C
:10008000712000087120000871200008712000080C
:1000900071200008712000087120000871200008FC
:1000A00071200008712000087120000871200008EC
:1000B00071200008712000087120000871200008DC
:1000C00071200008712000087120000871200008CC
:1000D0007120000871200008DD0800087120000868
:1000E00071200008712000087120000871200008AC
:1000F000712000087120000871200008712000089C
:10010000712000087120000871200008712000088B
:10011000712000087120000871200008712000087B
:10012000712000087120000871200008712000086B
:10013000712000087120000871200008712000085B
:10014000712000087120000871200008712000084B
:10015000712000087120000871200008712000083B
:10016000712000087120000871200008712000082B
:1001700071200008712000087120000800000000B4
:08018000712000087120000845
:1001900010F8012B11F8013B012A28BF9A42F7D031
:1001A000D01A7047034613F8012B002AFBD1181A06
:1001B000013870470000000000000000000000004F
:1001C00001F0FF01102A2BDB10F0070F08D010F808
:1001D000013B013A8B422DD010F0070F42B3F6D10C
:1001E000F0B441EA012141EA014122F007047FF025
:1001F00000070023F0E80256083C85EA010586EA7C
:10020000010685FA47F5A3FA87F586FA47F6A5FAB7
:1002100087F68EB9EED1F0BC01F0FF0102F00702C3
:1002200032B110F8013B013A83EA010313B1F8D16E
:100230000020704701387047002D06BF354603384F
:10024000073815F0010F07D1013015F4807F02BF88
:10025000013015F4C03F0130F0BC0138704700BFD9
:1002600053B94AB9002908BF00281CBF4FF0FF311D
:100270004FF0FF3000F00CB8ADF1080C6DE904CE82
:1002800003F08EFBDDF804E0DDE9022304B07047E3
:10029000704700BF0348044B834202D0034B03B1B5
:1002A000184770476C0000206C0000200000000020
:1002B0000548064B1B1AD90F01EBA301491002D0C8
:1002C000034B03B1184770476C0000206C000020FE
:1002D0000000000010B5064C237843B9FFF7DAFFA1
:1002E000044B13B10448AFF300800123237010BD09
:1002F0006C000020000000005C3C000808B5054BC5
:100300001BB105490548AFF30080BDE80840FFF781
:10031000CFBF00BF00000000700000205C3C000860
:1003200000B583B001904FF6FF73012201A9034885
:1003300001F0B3FA019803B05DF804FB1804002043
:1003400010B5114C4FF48051204600F027FF642077
:1003500001F058F84FF40051204600F01FFF6420D0
:1003600001F050F84FF48041204600F017FF642060
:1003700001F048F84FF40041204600F00FFF6420E0
:1003800001F040F810BD00BF000C0240074B5A229C
:100390001A600023064A1360064A1360064A136077
:1003A000064A1360064A1360704700BF0000002031
:1003B000B0000020AC000020A8000020A400002015
:1003C000A000002010B584B004460322934901F038
:1003D000FDFF00285ED006229149204601F0F6FF7D
:1003E000002800F0AE8006228E49204601F0EEFF84
:1003F000002800F0BE8006228B49204601F0E6FF6F
:10040000002800F0CE8006228849204601F0DEFF59
:10041000002800F0DF8006228549204601F0D6FF43
:10042000002800F0F08008228249204601F0CEFF2B
:10043000002800F0478104227F49204601F0C6FFD2
:10044000002800F0518105227C49204601F0BEFFC2
:10045000002840F04F817A4B19687A4801F03EFF3E
:10046000794B1968794801F039FF794B1968794857
:1004700001F034FF784B1968784801F02FFF784B72
:100480001968784801F02AFF774B1968774801F01E
:1004900025FF12E0744B0393714B02936E4B019353
:1004A0006B4B0093684B664A7149201D01F0E2FDD9
:1004B000062804D06F4801F079FF04B010BD604CED
:1004C000694B1B680293664B1B680193624B1B6868
:1004D00000935F4B1B685C4A12682168664801F014
:1004E000FDFE2368654A1268934201D0634A136097
:1004F000554B1B68624A1268934201D0604A1360F0
:10050000534B1B685F4A1268934201D05D4A1360E7
:10051000514B1B685C4A1268934201D05A4A1360DF
:100520004F4B1B68594A1268934201D0574A1360D7
:100530004D4B1B68564A12689342BED0544A136012
:10054000BBE73F4A5349E01D01F094FD012803D069
:10055000484801F02BFFB0E7394C21684E4801F0C4
:10056000BDFE2368454A12689342A6D0434A1360F1
:10057000A3E7354A4749E01D01F07CFD012803D07F
:100580003C4801F013FF98E72F4C2168434801F0E5
:10059000A5FE23683A4A126893428ED0384A136007
:1005A0008BE72B4A3B49E01D01F064FD012803D095
:1005B000304801F0FBFE80E7254C2168384801F007
:1005C0008DFE23682F4A126893423FF476AF2D4A7E
:1005D000136072E7204A2F49E01D01F04BFD01280E
:1005E00003D0244801F0E2FE67E71B4C21682D4848
:1005F00001F074FE2368244A126893423FF45DAF11
:10060000214A136059E7164A2249E01D01F032FDE4
:10061000012849D0174801F0C9FE4EE7803C000888
:10062000D43C0008EC3C0008043D00081C3D0008D8
:10063000343D00084C3D00086C3D0008883D000832
:1006400000000020903D0008B00000209C3D000804
:10065000AC000020A83D0008A8000020B43D000820
:10066000A4000020C03D0008A0000020CC3D0008F0
:10067000843C0008C43C00089C3C00089C0000200E
:100680009800002094000020900000208C000020A2
:1006900088000020983C0008DC3C0008F43C00087E
:1006A0000C3D0008243D0008154C2168154801F058
:1006B00015FE2368144A126893423FF4FEAE124AB4
:1006C0001360FAE6114A124904F1090001F0D2FC64
:1006D000012803D00F4801F069FEEEE60B4B1968C4
:1006E0000D4801F0FBFDE8E6FFF750FE0B4801F076
:1006F0005DFEE2E621460A4801F0F0FDDDE600BFBE
:10070000A40000203C3D00088C000020A000002038
:10071000983C0008C43C0008583D0008743D00089F
:10072000DC3D00080268284B9A4200D0704710B5A3
:10073000264B1B889BB2FE2B3FD824490B889BB2CB
:100740005A1C92B20A8022490A78D2B22148C25475
:100750000B78DBB20A2B09D00B78DBB20D2B05D05E
:1007600001221B491C4801F0E6FA10BD174A138804
:100770009BB218490020C8541080184C204601F044
:10078000ABFE21461648FFF703FD70B91549134823
:10079000FFF7FEFC0028E3D0104C2046FFF712FEC6
:1007A0002146104801F098FEDAE72046FFF70AFEDE
:1007B00021460C4801F090FED2E7044B00221A803B
:1007C000094801F0F3FDCBE700440040B4020020EB
:1007D000B8030020B802002018040020B401002053
:1007E000883D0008B4000020EC3D000872B6FEE72A
:1007F00000B595B03022002108A801F0DFFD0023EC
:100800000393049305930693079301931E4A116C77
:1008100041F080511164126C02F080520192019AF1
:1008200002931A4B1A6842F480421A601B6803F460
:1008300080430293029B012308934FF48033099372
:1008400002220E924FF480030F9304231093482149
:1008500011911292139308A800F064F880B90F2345
:10086000039302210491002305934FF480520692D2
:10087000079303A800F0C0FA20B915B05DF804FB97
:10088000FFF7B4FFFFF7B2FF0038024000700040EE
:1008900008B500F08BFDFFF7ABFF01F0B7FA01F0F0
:1008A00011FB01F065FB01220449054801F043FA00
:1008B000FFF76CFDFFF744FDFCE700BFB803002025
:1008C00018040020FEE7FEE7FEE7FEE7FEE77047BC
:1008D0007047704708B500F083FD08BD08B50248B1
:1008E00001F0CCF808BD00BF1804002082B0002140
:1008F00000910B4B5A6C42F480425A645A6C02F4D9
:1009000080420092009A01911A6C42F080521A645F
:100910001B6C03F080530193019B02B0704700BF32
:1009200000380240002800F0E08170B582B0044633
:10093000036813F0010F3BD09F4B9B6803F00C033F
:10094000042B2CD09C4B9B6803F00C03082B21D06C
:100950006368B3F5803F4FD0B3F5A02F52D0964BCC
:100960001A6822F480321A601A6822F480221A600F
:100970006368002B50D000F03FFD05468E4B1B688E
:1009800013F4003F14D100F037FD401B6428F5D963
:100990000320B1E1884B5B6813F4800FD8D0864BFD
:1009A0001B6813F4003F03D06368002B00F09F81A5
:1009B000236813F0020F54D07F4B9B6813F00C0F89
:1009C0003ED07D4B9B6803F00C03082B33D0E368CB
:1009D000002B68D0794B01221A6000F00DFD05460E
:1009E000754B1B6813F0020F54D100F005FD401B3E
:1009F0000228F5D903207FE16F4A136843F480335E
:100A00001360B5E76C4B1A6842F480221A601A68CA
:100A100042F480321A60ABE700F0EEFC0546664B0C
:100A20001B6813F4003FC3D000F0E6FC401B6428B1
:100A3000F5D9032060E1604B5B6813F4800FC6D1E9
:100A40005D4B1B6813F0020F03D0E368012B40F0ED
:100A50005081594A136823F0F803216943EAC1031E
:100A60001360236813F0080F42D063696BB3534BD4
:100A70000122C3F8802E00F0BFFC05464E4B5B6F91
:100A800013F0020F34D100F0B7FC401B0228F5D957
:100A9000032031E1484A136823F0F803216943EA4F
:100AA000C1031360DDE7454B00221A6000F0A4FC8F
:100AB0000546414B1B6813F0020FD2D000F09CFC9E
:100AC000401B0228F5D9032016E13C4B0022C3F855
:100AD000802E00F091FC0546374B5B6F13F0020F40
:100AE00006D000F089FC401B0228F5D9032003E161
:100AF000236813F0040F77D02F4B1B6C13F0805F2B
:100B000033D1002301932C4B1A6C42F080521A64AB
:100B10001B6C03F080530193019B0125284B1B683C
:100B200013F4807F23D0A368012B34D0052B38D059
:100B3000214B1A6F22F001021A671A6F22F0040289
:100B40001A67A368002B3DD000F056FC06461A4BEE
:100B50001B6F13F0020F46D100F04EFC801B41F2D8
:100B600088339842F3D90320C6E00025D6E7144A1B
:100B7000136843F48073136000F03EFC0646104B8C
:100B80001B6813F4807FCED100F036FC801B022856
:100B9000F5D90320B0E0084A136F43F0010313674F
:100BA000CFE7054B1A6F42F004021A671A6F42F042
:100BB00001021A67C5E700BF003802400000474243
:100BC0000070004000F018FC0646524B1B6F13F0FB
:100BD000020F08D000F010FC801B41F288339842CD
:100BE000F3D9032088E0EDB9A369002B00F08380DE
:100BF000484A926802F00C02082A51D0022B17D002
:100C0000454B00221A6600F0F7FB0446414B1B6877
:100C100013F0007F42D000F0EFFB001B0228F5D953
:100C2000032069E03B4A136C23F080531364DBE735
:100C3000394B00221A6600F0DFFB0546354B1B6876
:100C400013F0007F06D000F0D7FB401B0228F5D937
:100C5000032051E0E369226A1343626A43EA821384
:100C6000A26A5208013A43EA0243E26A43EA026393
:100C7000284A5360284B01221A6600F0BDFB044647
:100C8000244B1B6813F0007F06D100F0B5FB001B5E
:100C90000228F5D903202FE000202DE000202BE0D2
:100CA000012B2BD01B4B5B6803F48001E26991425E
:100CB00026D103F03F02216A8A4223D1616A47F6B6
:100CC000C0721A40B2EB811F1ED103F44031A26AF8
:100CD0005208013AB1EB024F18D103F07063E26A97
:100CE000B3EB026F14D1002006E001207047012011
:100CF00002E0012000E0002002B070BD0120FBE70F
:100D00000120F9E70120F7E70120F5E70120F3E7EB
:100D10000120F1E7003802400000474208B5334B9C
:100D20009B6803F00C03042B5BD0082B5BD12F4B8B
:100D30005A6802F03F025B6813F4800F2CD02B4BF3
:100D40005868C0F388104FEA401CBCEB000C6EEBF7
:100D50000E0E4FEA8E1343EA9C634FEA8C11B1EBFF
:100D60000C0163EB0E03DB0043EA5173C90011EB86
:100D7000000C43F10003590200234FEA4C2041EAE2
:100D8000DC51FFF76DFA194B5B68C3F30143013384
:100D90005B00B0FBF3F008BD144B5868C0F388103B
:100DA0004FEA401CBCEB000C6EEB0E0E4FEA8E13AC
:100DB00043EA9C634FEA8C11B1EB0C0163EB0E0329
:100DC000DB0043EA5173C90011EB000C43F100034F
:100DD000990200234FEA8C2041EA9C51FFF740FA28
:100DE000D1E70348D7E70348D5E700BF0038024002
:100DF00000127A000024F400002800F09B8070B5F7
:100E00000D4604464F4B1B6803F007038B4208D284
:100E1000CBB24C4A1370136803F007038B4240F0C7
:100E20008B80236813F0020F17D013F0040F04D047
:100E3000454A936843F4E0539360236813F0080F26
:100E400004D0414A936843F4604393603E4A9368F8
:100E500023F0F003A1680B439360236813F0010FA4
:100E600032D06368012B21D09A1E012A25D9364A37
:100E7000126812F0020F61D033498A6822F003022F
:100E800013438B6000F0B8FA06462F4B9B6803F0C3
:100E90000C036268B3EB820F16D000F0ADFA801B32
:100EA00041F288339842F0D9032042E0264A126882
:100EB00012F4003FE0D101203BE0234A126812F017
:100EC000007FD9D1012034E01E4B1B6803F00703DB
:100ED000AB4207D9EAB21B4B1A701B6803F0070339
:100EE000AB422DD1236813F0040F06D0164A936845
:100EF00023F4E053E1680B439360236813F0080F79
:100F000007D0114A936823F46043216943EAC1037F
:100F10009360FFF703FF0C4B9B68C3F303130B4A6B
:100F2000D35CD8400A4B18600A4B186800F018FAD6
:100F3000002070BD012070470120FAE70120F8E78A
:100F40000120F6E7003C024000380240043E000861
:100F50000C00002008000020014B1868704700BFFB
:100F60000C00002008B5FFF7F7FF044B9B68C3F3A4
:100F70008223034AD35CD84008BD00BF003802403A
:100F8000FC3D000808B5FFF7E7FF044B9B68C3F37F
:100F90004233034AD35CD84008BD00BF003802404A
:100FA000FC3D000800230F2B00F2E98070B582B0F1
:100FB00065E085684FEA430E032404FA0EF425EA3F
:100FC0000405CC6804FA0EF42C438460446824EAD7
:100FD00002044A68C2F300129A40224342605CE075
:100FE000DC08083450F8242003F00705AD004FF06A
:100FF0000F0E0EFA05FE22EA0E0E0A69AA4042EA18
:101000000E0240F824205CE0072200E0002202FAF1
:101010000EF22A4302345A4D45F82420594A946866
:101020006FEA0C0224EA0C054E6816F4801F01D00A
:101030004CEA0405534CA560E46802EA04054E68D6
:1010400016F4001F01D04CEA04054E4CE5606468BC
:1010500002EA04054E6816F4003F01D04CEA04058C
:10106000484C6560246822404D6815F4803F01D0EB
:101070004CEA0402434C226001330F2B7DD801223D
:101080009A400C6804EA020C32EA0404F4D14C6879
:1010900004F00304013C012C8BD94A6802F00302DE
:1010A000032A09D0C4685D000322AA4024EA02048E
:1010B0008A68AA402243C2604A6802F00302022AF8
:1010C0008ED004684FEA430E032202FA0EF224EA9D
:1010D00002044A6802F0030202FA0EF2224302609E
:1010E0004A6812F4403FC7D000220192264A546C4D
:1010F00044F480445464526C02F480420192019A98
:101100009C08A51C1E4A52F8255003F0030E4FEA16
:101110008E0E0F2202FA0EF225EA02051B4A9042B9
:101120003FF474AF02F5806290421AD002F58062FB
:10113000904218D002F58062904216D002F580628B
:10114000904214D002F58062904212D002F5806283
:10115000904210D002F5806290423FF455AF0822D1
:1011600055E7012253E7022251E703224FE7042209
:101170004DE705224BE7062249E702B070BD7047F4
:1011800000380140003C01400038024000000240AD
:101190000AB181617047090481617047436901EABE
:1011A000030221EA030141EA02418161704770B5FF
:1011B0000446866D00F020F994F83530DBB2022B3E
:1011C00006D080236365002384F83430012070BD8D
:1011D00005462268136823F01603136022685369DA
:1011E00023F080035361236CE3B12268136823F07A
:1011F000080313602268136823F001031360236857
:101200001B6813F0010F11D000F0F6F8431B052BFB
:10121000F5D920236365032084F83500002384F882
:101220003430D4E7A36C002BDFD1E3E7E26D3F233A
:101230009340B360012384F83530002084F83400F3
:10124000C5E790F83530DBB2022B03D0802343652D
:1012500001207047052380F835300268136823F0B9
:101260000103136000207047002807DB00F01F0215
:10127000400901239340024A42F82030704700BFE2
:1012800000E100E0002808DB0901C9B200F160407C
:1012900000F5614080F80013704700F00F0009016D
:1012A000C9B2014B1954704714ED00E000B500F0CD
:1012B0000700C0F1070CBCF1040F28BF4FF0040C6D
:1012C000031D062B0FD9C31E4FF0FF3E0EFA0CF084
:1012D00021EA000199400EFA03FE22EA0E0241EAD9
:1012E00002005DF804FB0023EEE70000074AD36824
:1012F00023F4E0631B041B0C000200F4E0600343D2
:1013000043F0BF6343F40033D360704700ED00E067
:1013100010B50446054BD868C0F30220FFF7C6FF9E
:1013200001462046FFF7AEFF10BD00BF00ED00E014
:1013300008B5FFF799FF08BD0138B0F1807F0BD2E7
:101340004FF0E0235861054AF02182F82310002075
:10135000986107221A6170470120704700ED00E094
:1013600010B504460E4B1A784FF47A73B3FBF2F3C0
:101370000C4A1068B0FBF3F0FFF7DEFF68B90F2CE2
:1013800001D901200AE0002221464FF0FF30FFF78B
:10139000BFFF054B1C60002000E0012010BD00BF16
:1013A000040000200C0000200800002008B50B4BB2
:1013B0001A6842F400721A601A6842F480621A6075
:1013C0001A6842F480721A600320FFF78FFF0F2023
:1013D000FFF7C6FFFFF78AFA002008BD003C024075
:1013E000034A1168034B1B780B441360704700BF1E
:1013F000BC03002004000020014B1868704700BFA8
:10140000BC03002038B50446FFF7F6FF0546B4F1EB
:10141000FF3F02D0044B1B781C44FFF7EDFF401B3D
:10142000A042FAD338BD00BF04000020002800F01D
:10143000CC8070B5044690F83D30002B77D0242343
:1014400084F83D302268136823F00103136022689A
:10145000136843F4004313602268136823F40043C5
:101460001360FFF77FFD62685A4B9A4264D85A4B6B
:1014700098428CBF00230123002B40F0A8805749DD
:10148000A1FB00318B0C25686A6822F03F0242EA1A
:1014900091426A6021680A6A22F03F0266684D4DF7
:1014A000AE424FD8013313430B622168CA6922F45C
:1014B0004F4222F0FF026568464B9D424CD8431EC6
:1014C0006D00B3FBF5F3013340F6FC70034278D0B6
:1014D000C3F30B031A43CA6121680B6823F0C003EE
:1014E000E269206A024313430B6021688B6823F48E
:1014F000034323F0FF032269E068024313438B6038
:101500002168CB6823F0FF036269A069024313439B
:10151000CB602268136843F001031360002020644D
:10152000202384F83D30206384F83E0070BD80F8AD
:101530003C3000F0E5FC82E7294B98428CBF002349
:10154000012399E74FF4967505FB03F3254DA5FBA1
:1015500003539B090133A6E7A668BEB9431E05EBFA
:10156000450CB3FBFCF30133C3F30B03B3FA83F372
:101570005B0943BBC6B9431E05EB4505B3FBF5F359
:101580000133C3F30B0343F40043A3E7431E05EB0E
:10159000850C0CEB8C0CB3FBFCF30133C3F30B0396
:1015A000B3FA83F35B09E4E7431E05EB850505EB1E
:1015B0008505B3FBF5F30133C3F30B0343F4404359
:1015C00088E7042386E7012384E701207047012090
:1015D000ACE700BFA08601007F841E0083DE1B43B2
:1015E000FF083D00D34D6210026802F10C0353E87E
:1015F000003F23F490730C3242E800310029F3D10C
:10160000026802F1140353E8003F23F0010314328F
:1016100042E800310029F3D1036B012B05D02023D0
:1016200080F84230002303637047026802F10C0324
:1016300053E8003F23F010030C3242E80031002948
:10164000F3D1ECE790F84130DBB2212B01D002203E
:1016500070478368B3F5805F17D0036A5A1C026233
:101660001A7803685A60C38C9BB2013B9BB2C38457
:101670004BB90268D36823F08003D3600268D36853
:1016800043F04003D360002070470369002BE4D18E
:10169000036A1B880268C3F308035360036A0233BA
:1016A0000362E0E710B504460268136923F440536F
:1016B000C1680B431361836802691A4343691A4383
:1016C000C3691A430168CB6823F4164323F00C0363
:1016D0001343CB600268536923F4407381690B4361
:1016E00053610368314A934206D002F58062934207
:1016F00002D0FFF737FC01E0FFF744FCE369B3F5E4
:10170000004F29D00021031849411B1841F1000165
:10171000C90041EA5371DB00181863684FEA83027D
:101720004FEA937341F10001FEF79AFD204AA2FBB4
:1017300000314909642303FB11031B013233A2FB6F
:1017400003235B0903F0F00202EB011203F00F0325
:10175000216813448B6010BD0023021843EB030182
:10176000121841F10001C90041EA5271D20010186B
:1017700041F10001626892185B41FEF771FD0C4A6D
:10178000A2FB00314909642303FB1103DB00323360
:10179000A2FB03235B095A0002F4F87202EB011268
:1017A00003F00703216813448B60D4E70010014065
:1017B0001F85EB512DE9F04383B005460E461746D1
:1017C0009946DDF828802B681C6836EA04040CBFB3
:1017D00001240024BC4228D1B8F1FF3FF3D0FFF729
:1017E0000BFEA0EB0900404523D8B8F1000F22D032
:1017F0002B68DA6812F0040FE5D0802EE3D0402E7B
:10180000E1D01A6812F0080FDDD0002401941A68A4
:1018100001925B680193019B2846FFF7E5FE0823D0
:101820006B6485F84040012000E0002003B0BDE873
:10183000F0830320FAE70320F8E760B310B504460D
:1018400090F8413013B3242384F841302268D368E0
:1018500023F40053D3602046FFF724FF2268136966
:1018600023F4904313612268536923F02A035361E0
:101870002268D36843F40053D360002060642023BF
:1018800084F8413084F84230606310BD80F8403005
:1018900000F088FBD7E7012070472DE9F04182B0C6
:1018A0001E4690F84130DBB2202B56D104460D463F
:1018B0009046002955D00AB901204FE00023436427
:1018C000212380F84130FFF797FD0746A4F82480D4
:1018D000A4F82680A368B3F5805F02D04FF000081B
:1018E00014E023692BB34FF000080FE0202384F8A5
:1018F0004130032032E038F8023B2268C3F308038A
:101900005360E28C92B2013A92B2E284E38C9BB2D1
:1019100093B100963B46002280212046FFF74AFF04
:101920000028E3D1002DE6D015F8012B23685A607A
:10193000E7E7A8460025E9E700963B46002240215C
:101940002046FFF737FF18B9202384F8413005E01F
:10195000202384F84130032000E0022002B0BDE8DB
:10196000F0810120FAE7704708B50168CA6822F0E3
:101970004002CA60202280F84120FFF7F4FF0020D7
:1019800008BD704708B5806B0023C385C384FFF78B
:10199000F8FF08BD704790F84230DBB2222B69D1C6
:1019A0008368B3F5805F4FD0826AB3F5805F04D05F
:1019B000002B56D10369002B53D103685B68137069
:1019C000836A01338362C38D9BB2013B9BB2C385A3
:1019D000002B51D100B583B00268D36823F02003F7
:1019E000D3600268D36823F48073D36002685369BC
:1019F00023F001035361202380F842300023436326
:101A0000036B012B33D100230363026802F10C0343
:101A100053E8003F23F010030C3242E80031002964
:101A2000F3D103681A6812F0100F06D00022019259
:101A30001A6801925B680193019B818DFFF7AAFFF1
:101A4000002003B05DF804FB0269002AACD1826A71
:101A500003685B68C3F308031380836A02338362FD
:101A6000B1E703685B6803F07F031370A8E7FEF734
:101A700059FEE5E7022070470020704710B582B09C
:101A8000044602681368D068516913F00F0F09D13A
:101A900013F0200F0CD010F0200F09D02046FFF7D4
:101AA0007AFF16E011F0010115D110F4907F12D1E8
:101AB000216B012979D013F0800F03D010F0800F33
:101AC00040F0148113F0400F03D010F0400F40F0AD
:101AD000118102B010BD13F0010F06D010F4807F09
:101AE00003D0626C42F00102626413F0040F04D070
:101AF00019B1626C42F00202626413F0020F04D06A
:101B000019B1626C42F00402626413F0080F07D04E
:101B100010F0200F00D119B1626C42F0080262642B
:101B2000626C002AD5D013F0200F02D010F0200FE5
:101B300029D123685B6903F04003626C12F0080F3F
:101B400000D163B32046FFF74FFD23685B6913F0B4
:101B5000400F20D0226802F1140353E8003F23F025
:101B60004003143242E800310029F3D1E36B73B132
:101B7000624A1A65E06BFFF764FB0028A9D0E06BAE
:101B8000036D9847A5E72046FFF705FFD1E72046FC
:101B9000FFF7F7FE9DE72046FFF7F3FE99E72046A3
:101BA000FFF7EFFE0023636493E713F0100F82D07A
:101BB00010F0100F3FF47FAF0023019313680193DF
:101BC00053680193019B536913F0400F52D0E26BAD
:101BD00013685B689BB2002B3FF47BAFA18D9942E9
:101BE0007FF677AFE385D369B3F5807F37D022687E
:101BF00002F10C0353E8003F23F480730C3242E8F7
:101C000000310029F3D1226802F1140353E8003FA8
:101C100023F00103143242E800310029F3D1226895
:101C200002F1140353E8003F23F04003143242E86A
:101C300000310029F3D1202384F8423000232363AC
:101C4000226802F10C0353E8003F23F010030C322A
:101C500042E800310029F3D1E06BFFF7A8FA022334
:101C60006363A18DE38D9BB2C91A89B22046FFF749
:101C700091FE2EE7A18DE38D9BB2C91A89B2E38D47
:101C80009BB2002B3FF425AF00293FF422AF22681E
:101C900002F10C0353E8003F23F490730C3242E846
:101CA00000300028F3D1226802F1140353E8003F0A
:101CB00023F00103143242E800300028F3D120233E
:101CC00084F8423000232363226802F10C0353E8B6
:101CD000003F23F010030C3242E800300028F3D11B
:101CE000022363632046FFF755FEF2E62046FFF726
:101CF000A9FCEEE62046FFF737FEEAE68519000864
:101D000081628285C28500234364222380F84230A9
:101D1000036923B10268D36843F48073D360026817
:101D2000536943F0010353610268D36843F0200311
:101D3000D3600020704708B590F84230DBB2202B0A
:101D400008D149B10AB9012008BD00230363FFF798
:101D5000D7FFF9E70220F7E70120F5E7034AD2F8B9
:101D6000883043F47003C2F88830704700ED00E01B
:101D700010B503460C4A0D490D48006840B10C48A7
:101D800000680344521A934206D8094A136010BDF2
:101D90000748084C0460F2E700F060FB0C23036086
:101DA0004FF0FF30F3E700BF000002200004000006
:101DB000C0030020B005002070B50C461646002573
:101DC00006E0AFF30080214601F8010B01350C4617
:101DD000B542F6DB304670BD70B50C4616460025A0
:101DE00004E014F8010BFEF79BFA0135B542F8DB6D
:101DF000304670BD4FF0FF3070474FF400534B60DA
:101E0000002070470120704700207047F0B58BB06C
:101E10000024059406940794089409940194264B91
:101E20001A6B42F080021A631A6B02F08002019270
:101E3000019A02941A6B42F001021A631A6B02F0C3
:101E400001020292029A03941A6B42F008021A638A
:101E50001A6B02F008020392039A04941A6B42F080
:101E600002021A631B6B03F002030493049B134FDB
:101E700022464FF470413846FFF78AF9104D22464A
:101E80004FF400712846FFF783F94FF47043059330
:101E9000012606960794089405A93846FFF782F8AC
:101EA0004FF40073059306960794089405A92846F5
:101EB000FFF778F80BB0F0BD00380240000C02408C
:101EC0000000024008B50B480B4B03600B4B43600E
:101ED00000238360C3604FF48042026143618361E9
:101EE000C3610362FFF7A2FA00B908BDFEF77EFCEA
:101EF000FBE700BFC403002000540040A08601009F
:101F000030B589B000230393049305930693079398
:101F10000268144B9A4201D009B030BD00250195EA
:101F2000114C236B43F002032363236B03F0020382
:101F30000193019B4FF4C073039312230493032373
:101F400006930423079303A90848FFF72BF802958B
:101F5000236C43F400132364236C03F400130293F3
:101F6000029BD9E7005400400038024000040240C0
:101F700008B50A480A4B03604FF4E133436000237D
:101F80008360C36003610C2242618361C361FFF718
:101F900054FC00B908BDFEF729FCFBE7180400203B
:101FA0000044004010B588B00023039304930593C8
:101FB000069307930268184B9A4201D008B010BDEF
:101FC0000024019403F5FA331A6C42F400321A64C7
:101FD0001A6C02F400320192019A02941A6B42F0D8
:101FE00001021A631B6B03F001030293029B0C2393
:101FF000039302230493032306930723079303A960
:102000000648FEF7CFFF224621462620FFF780F93B
:102010002620FFF78DF9D1E7004400400000024080
:10202000DFF834D0FFF79AFE0C480D490D4A002323
:1020300002E0D458C4500433C4188C42F9D30A4A7D
:102040000A4C002301E013600432A242FBD300F0EB
:102050000BFAFEF71DFC7047000002200000002074
:102060006C000020743F00086C000020AC050020CC
:10207000FEE700000EB470B59DB021AC00254FF412
:10208000017254F8046BADF814201B950290069071
:10209000FEF788F80B4B039007900B480B934FF615
:1020A000FF73ADF816303246234602A900680F953B
:1020B0001495019400F0BCFA1DB0BDE8704003B067
:1020C000704700BFEF2000081C00002010B50C4630
:1020D000B1F90E1000F09EF90028ABBF636DA38923
:1020E0001B1823F48053ACBF6365A38110BD00208F
:1020F00070472DE9F0411F468B89DB0505460C46EC
:10210000164605D5B1F90E100223002200F070F931
:10211000A389B4F90E1023F48053A38132463B46C1
:102120002846BDE8F04100F087B910B50C46B1F97A
:102130000E1000F05DF9431CA38915BF606523F400
:10214000805343F48053A38118BFA38110BDB1F91C
:102150000E1000F0B1B90000002310B50446C0E92C
:102160000033C0E90433836081814366C2818361A7
:10217000194608225C3000F021F90D4B63620D4BCB
:10218000A3620D4BE3620D4B23630D4B24629C4213
:1021900006D003F16802944202D0D0339C4205D1AC
:1021A00004F15800BDE8104000F082B910BD00BF36
:1021B000CD200008F32000082B2100084F21000843
:1021C00060040020024A0349034800F069B800BFD8
:1021D00010000020153400082000002041680C4B3E
:1021E000994210B5044601D001F014F9A168094BD9
:1021F000994202D0204601F00DF9E168064B994260
:1022000004D02046BDE8104001F004B910BD00BF65
:1022100060040020C80400203005002010B50B4BDE
:102220000B4C0C4A1A60204600220421FFF794FF51
:1022300004F1680001220921FFF78EFF04F1D000AC
:102240000222BDE810401221FFF786BF980500204A
:1022500060040020C5210008014800F02AB900BF31
:102260009D050020014800F025B900BF9D05002014
:1022700010B50446FFF7F0FF236A1BB1BDE810401C
:10228000FFF7F0BF044B2362044B1B68002BF5D112
:10229000FFF7C4FFF2E700BFDD210008980500202A
:1022A0002DE9F8430746884614460026D4E90195EF
:1022B000B9F1010905D52468002CF7D13046BDE8F5
:1022C000F883AB89012B07D9B5F90E30013303D060
:1022D00029463846C04706436835E9E70FB407B5D5
:1022E000064904AB086853F8042B8168019300F099
:1022F0003FFB03B05DF804EB04B070471C00002006
:10230000036A70B5846805460E460BB9FFF7B0FF47
:10231000636EDB0705D4A389980502D4A06D00F095
:10232000C8F8A389190702D52369002B35D12146A6
:10233000284601F035FA80B34FF0FF35636EDA07B7
:1023400005D4A3899B0502D4A06D00F0B3F82846FC
:1023500070BD002B04DAA2699A4217DC0A2915D055
:1023600023685A1C22601970A36816F8011F013BEC
:10237000A3600029EDD1002B11DA22460A2128465C
:1023800001F0E4F80130D7D00A25D7E722462846E5
:1023900001F0DCF80130E7D1CEE7013EE4E7236845
:1023A0005A1C22600A221A70EEE70000024B014616
:1023B0001868FFF7A5BF00BF1C00002002440346B9
:1023C000934200D1704703F8011BF9E710B56AB1D9
:1023D0000139841810F8012B11F8013F9A4203D1FA
:1023E000A04201D0002AF5D1D01A10BD1046FCE75A
:1023F00038B5074D04460846114600222A601A46A1
:10240000FFF702FD431C02D12B6803B1236038BDE6
:10241000A005002038B5074D0446084611460022A5
:102420002A601A46FFF7C8FC431C02D12B6803B18F
:10243000236038BDA005002038B5074D0446084686
:10244000114600222A601A46FFF7C6FC431C02D13F
:102450002B6803B1236038BDA0050020014B18682C
:10246000704700BF1C00002070B50D4D0D4C641B63
:10247000A4100026A64209D10B4D0C4C01F0EEFB36
:10248000641BA4100026A64205D170BD55F8043B7C
:1024900098470136EEE755F8043B98470136F2E7D6
:1024A0006C3F00086C3F00086C3F0008703F00085C
:1024B000704770477047000038B5064D002304464A
:1024C00008462B60FFF796FC431C02D12B6803B132
:1024D000236038BDA0050020034611F8012B03F846
:1024E000012B002AF9D1704738B50546002941D0A3
:1024F00051F8043C0C1F002BB8BFE41800F0B2FFE9
:102500001D4A136833B9636014602846BDE838403B
:1025100000F0AEBFA34208D9206821188B4201BF4A
:1025200019685B6809182160EDE71A465B680BB112
:10253000A342FAD911685018A0420BD12068014477
:10254000501883421160E0D118685B6853600844FA
:102550001060DAE702D90C232B60D6E72068211837
:102560008B4204BF19685B68636004BF091821606F
:102570005460CAE738BD00BFA805002038B54B1C21
:10258000144603D14FF0FF35284638BD938923F018
:1025900020039381636B5268CDB28BB1A36B9342DE
:1025A00008DD23685A1E226003F8015C636801336A
:1025B0006360E9E7214600F061FF0028F1D0E1E720
:1025C0002169236851B1994208D213F8011CA9422C
:1025D00004D1013B013223606260D5E7C4E90F32C8
:1025E00004F1440363630323A363234603F8465FB4
:1025F00023600123DCE710B50C46496B69B104F197
:102600004403994201D0FFF76FFF236C6360002001
:10261000606313B1E36B236010BD23692360002363
:102620006360A38943F02003A3814FF0FF30F3E7F9
:102630002DE9F04F0C46ADF5237D0021CDE9441185
:10264000A649A0910DF10408A549A64FCDF818811F
:102650000646A191009392F80090B9F1000F00F0A6
:10266000588117F8093013F0080302F1010519D059
:102670006368002B0FDD23681A78BA5C120701D457
:102680002A46E8E7459A0132459262680133013AE9
:1026900062602360ECE7A19B214630469847002802
:1026A000E9D0EDE7B9F1250F40F0858041934393E0
:1026B00053782A2B02BF1023951C41930A22AA4665
:1026C0001AF8011BA1F13003092B1ED9DFF818B24B
:1026D00003225846FDF774FD38B1419AA0EB0B0078
:1026E0000123834013434193554615F8013B782B52
:1026F00006D8572B10D8252B5DD057D8002B75D076
:10270000032347930A23429388E0439B02FB031170
:10271000303943915546D2E7A3F15802202AEFD829
:1027200001A151F822F000BFFB2700080127000893
:102730000127000855280008012700080127000884
:1027400001270008012700080127000801270008C9
:10275000012700086B28000851280008B32700084B
:10276000B3270008B3270008012700080D28000838
:102770000127000801270008012700080127000899
:102780007B28000815280008F32700080127000807
:1027900001270008772800080127000851280008B1
:1027A0000127000801270008FB270008453B022BF2
:1027B000A6D8052331E06368002B0DDD23681A7865
:1027C0004A4540F0A680013362682360459B013A88
:1027D00001336260459353E7A19B214630469847F9
:1027E0000028EBD04498002840F08B804FF0FF3059
:1027F0008BE0419A42F020024192419A42F40072E9
:10280000419210226E2B429202D905E0002342939E
:10281000032302E008234293042347936368002BB9
:1028200039DD419B590604D423681A78BA5C120733
:1028300038D4479B022B47DC6B46224641A93046E1
:1028400000F0DCFB012864D002287FF419AFC9E74F
:102850000A22D7E72946404600F01EFD419B43F07F
:102860004003419305460123D7E7419B43F04003D2
:1028700041930023D1E70223CFE74198C3063FF5F8
:10288000FFAE009B459A191D00911B68C0074CBF05
:102890001A801A60F4E6A19B21463046984700282A
:1028A000BFD09FE7459A013245926268013A002AFB
:1028B000626002DD01332360B6E7A19B214630460A
:1028C00098470028B0D08DE7042B0FDC6B462246DA
:1028D00041A9304600F0ECFBB4E700BF7D250008BD
:1028E000F7250008633E0008143E00080A4B002B41
:1028F0003FF4C6AE6B46224641A93046AFF3008096
:10290000A0E7A3895B063FF571AF0DF5237DBDE818
:10291000F08F4498F9E700BF000000009368013B86
:10292000002B10B4936008DA9469A34201DB0A29F2
:1029300003D15DF8044B00F009BE1368581C106009
:10294000197008465DF8044B7047F8B506460F4607
:102950001446D518AC4201D1002007E014F8011B41
:102960003A463046FFF7DAFF431CF3D1F8BD0000CA
:102970002DE9F04F0D469DB014469846064618B115
:10298000036A0BB9FFF774FC6B6ED90705D4AB89EA
:102990009A0502D4A86DFFF78CFDAB891B0701D502
:1029A0002B699BB92946304600F0FAFE70B16B6E78
:1029B000DC0704D54FF0FF301DB0BDE8F08FAB89C8
:1029C0009805F7D4A86DFFF775FDF3E70023099389
:1029D00020238DF82930CDF80C803023DFF8AC812E
:1029E0008DF82A304FF0010923469A4613F8012B3F
:1029F0000AB1252AF9D1BAEB040B0BD05B4622466B
:102A000029463046FFF7A1FF013000F0A780099A60
:102A10005A4409929AF80030002B00F09F8000235E
:102A20004FF0FF32CDE905230AF1010A0493079321
:102A30008DF853301A935446052214F8011B53485D
:102A4000FDF7BEFB049AD8B9D10644BF20238DF808
:102A50005330130744BF2B238DF853309AF80030BE
:102A60002A2B15D0079A544600204FF00A0C214615
:102A700011F8013B303B092B4BD9B0B1079214E060
:102A8000A0EB080309FA03F313430493A246D2E729
:102A9000039B191D1B680391002BBBBF5B4242F0D7
:102AA000020207930793B8BF049223782E2B0AD112
:102AB00063782A2B32D1039B1A1D1B68039243EAC9
:102AC000E37302340593DFF8D4A021780322504643
:102AD000FDF776FB38B1049BA0EB0A004022824050
:102AE00013430134049314F8011B29488DF828106E
:102AF0000622FDF765FB00283FD0264B1BBB039B3E
:102B0000073323F0070308330393099B3B440993DE
:102B10006AE70CFB02320C460120A8E700230134CF
:102B2000059319464FF00A0C204610F8012B303A55
:102B3000092A03D9002BC6D00591C4E70CFB01215B
:102B400004460123F0E703AB00932A46124B04A985
:102B50003046AFF300800746781CD6D16B6ED9079C
:102B600005D4AB899A0502D4A86DFFF7A3FCAB8905
:102B70005B063FF51FAF09981EE703AB00932A469B
:102B8000054B04A9304600F01BF9E4E7183E0008A5
:102B90001E3E0008000000004B290008143E0008FB
:102BA00070B50F4E0C463168054611B900F0C0FEF5
:102BB00030602146284600F0BBFE431C03D14FF095
:102BC000FF34204670BDC41C24F00304A042F8D09A
:102BD000211A284600F0ACFE0130F2D1EFE700BF29
:102BE000A40500202DE9F843CD1C25F00305083588
:102BF0000C2D38BF0C25002D064601DBA94204D957
:102C00000C2333600020BDE8F883DFF8D48000F0A7
:102C100029FCD8F800301C4644BB29463046FFF753
:102C2000BFFF431C044658D1D8F800402746002F68
:102C300043D1002C4BD023683946304604EB0309BE
:102C400000F076FE814542D121686D1A2946304652
:102C5000FFF7A6FF01303AD023682B442360D8F851
:102C600000305A6862BBC8F800700FE02268521B3F
:102C700020D40B2A17D96119A342256018BF5960C7
:102C8000636808BFC8F8001062514B60304600F01E
:102C9000EFFB04F10B00231D20F00700C21A1CBF3C
:102CA0001B1AA350AFE76268A3420CBFC8F800200C
:102CB0005A60EBE723466468AEE73C467F68B6E7B8
:102CC0001A465B68A342FBD100235360DEE70C2366
:102CD0003360304600F0CCFB94E70560D6E700BFD8
:102CE000A80500202DE9F047164698468A680B692A
:102CF000DDF820909342B8BF1346336091F843202B
:102D000007460C460AB1013333602368990642BF77
:102D1000336802333360256815F0060506D104F1E7
:102D2000190AE36832689B1AAB4226DC94F84330F8
:102D30002268003B18BF012392062BD404F1430202
:102D400041463846C84701301ED02368226903F047
:102D50000603042B02BFE5683368ED1AA3680CBFB5
:102D600025EAE57500259342C4BF9B1AED1800269D
:102D70001A34B5421AD1002008E0012352464146D8
:102D80003846C847013003D14FF0FF30BDE8F08727
:102D90000135C6E7E1185A1C302081F8430022446F
:102DA00094F8451082F843100233C7E70123224606
:102DB00041463846C8470130E6D00136D9E7000021
:102DC0002DE9FF470F7E0C9E782F914680460C46DA
:102DD0009A4601F1430207D8622F0AD8002F00F06B
:102DE000D180582F00F0B88004F1420684F8427078
:102DF0003AE0A7F16303152BF6D801A151F823F0AF
:102E0000592E00086D2E0008E92D0008E92D000854
:102E1000E92D0008E92D00086D2E0008E92D0008B5
:102E2000E92D0008E92D0008E92D00086B2F0008A6
:102E3000972E0008252F0008E92D0008E92D00082D
:102E40008D2F0008E92D0008972E0008E92D0008B5
:102E5000E92D00082D2F000833681A1D1B68326009
:102E600004F1420684F8423001239CE03368206874
:102E7000191D3160060601D51D6803E04506FBD526
:102E8000B3F90050002D03DA2D236D4284F843304E
:102E900058480A2311E021683368080653F8045B98
:102EA00002D4490648BFADB26F2F5248336014BFF9
:102EB0000A230823002184F843106668A660002EC8
:102EC00005DB21682E4321F0040121604BD016461A
:102ED000B5FBF3F103FB1157C75D06F8017D2F46E3
:102EE000BB420D46F4D9082B0BD12368DF0708D568
:102EF000236961689942DEBF302306F8013C06F180
:102F0000FF36921B2261CDF800A04B4603AA214652
:102F10004046FFF7E7FE01304AD14FF0FF3004B0E2
:102F2000BDE8F087236843F0200323603248782708
:102F300084F84570236831681F0651F8045B02D499
:102F40005F0648BFADB23160D90744BF43F02003EC
:102F500023601DB11023ADE72648E9E7236823F07D
:102F600020032360F6E71646BDE7336825686169EC
:102F7000181D30602E061B6801D5196002E0680636
:102F8000FBD51980002323611646BCE733681A1D60
:102F900032601E68626800213046FDF711F908B101
:102FA000801B606063682361002384F84330AAE7D4
:102FB0002369324649464046D0470130ADD02368A8
:102FC0009B0713D4E068039B9842B8BF1846A6E756
:102FD0000123324649464046D04701309DD0013555
:102FE000E36803995B1AAB42F2DCEBE7002504F1DE
:102FF0001906F5E7253E0008363E00082DE9F8439E
:1030000015468A6880460C4632B98A69002A14BF80
:103010004FF0FF3201228A602268DFF89090D106DB
:103020005FBF1A68111D196016680027A06988B172
:10303000012807D12B681A7863699B5C53B9002F6C
:1030400031D022E0022820D12B681B7819F80330F8
:103050001B071AD42368DA065EBF2B681B7806F8B4
:10306000013B2A686B6801322A60A268013B013A81
:103070006B600137A26042B1002BD7DCD4F88031FD
:103080002946404698470028D0D0236813F0100303
:1030900005D1E2680132E260A26902B133702369AE
:1030A0003B4423610020BDE8F88300BF633E000875
:1030B0002DE9F04F9846744B0C468246164693E82D
:1030C000070087B003AB83E80700704BA169704A23
:1030D000032908BF1A46A36801925A1EB2F5AE7FB3
:1030E00088BF6FF4AE75274682BF03EB050940F237
:1030F0005D13A36057F81C3B43F4506398BF4FF037
:10310000000923603D464FF0000B316803AB09789E
:1031100053F82B000222FDF753F828B3BBF1010F3F
:1031200059D162682AB92268082142F400726160AC
:103130002260226822F4A0622260A268511EA1606F
:1031400092B13268511C3160127805F8012B726817
:10315000013A002A726007DCD4F8802131465046DB
:103160009047002840F085800BF1010BBBF1030F65
:10317000CBD163680BB90A23636063684549606912
:10318000C91A00F089F84FF0000BA3682268002BE1
:103190003DD03168606991F800C010F80C0000283B
:1031A00035D0BCF1300F24D1100522D50BF1010B25
:1031B000B9F1000F03D0013309F1FF39A36073683F
:1031C000013B002B73601BDD336801333360A36860
:1031D000013BA360D9E7BBF1020FAED1226802F434
:1031E000C061B1F5007FBFD11021616042F48072EF
:1031F000A2E722F4106222600B7805F8013BDEE7BB
:10320000D4F880313146504698470028DFD02368F3
:10321000D9050DD5BD4209D915F8011CD4F87C316A
:1032200032465046984705F1FF394D46BD4228D0F9
:10323000226812F0100213D12A706368019E394689
:103240005046B047D8F8003021681A1DC8F8002051
:1032500011F0200F1B680FD01860E3680133E360A2
:103260002369ED1B5D442B442361002007B0BDE8BA
:10327000F08F4FF0000BCAE7CA074CBF18801860E8
:10328000EBE70120F2E700BF743C0008BD36000800
:103290009D370008573E000870B50B7804465E2B3A
:1032A0000BBF4B784A1C8A1C002108BF0121013842
:1032B00004F1FF0500F8011FA842FBD10BB9501E15
:1032C00070BD81F00101E1541046024612F8015B25
:1032D0002D2D05D05D2D16D0002DF1D02B46F2E717
:1032E00046785D2EFAD0B342F8DC02301A4601323D
:1032F0009642A154FBDCF21A013A5D1CB342A8BF0E
:103300000022AB18E1E71046DAE70000B1F90C2023
:103310002DE9F041160705460C4654D44B68002BA6
:1033200002DC0B6C002B48DDE66A002E45D0002342
:1033300012F480522F68216A2B6030D0626DA3890D
:10334000590705D56368D21A636B0BB1236CD21A87
:103350000023E66A216A2846B047431CA38906D1A8
:1033600029681D292BD82A4ACA40D60727D500220A
:103370006260D9042269226004D5421C01D12B6805
:1033800003B96065616B2F60B9B104F144039942E0
:1033900002D02846FFF7A8F8002363630DE001235D
:1033A0002846B0470246501CC9D12B68002BC6D016
:1033B0001D2B01D0162B1ED12F60002022E043F0E0
:1033C00040031BB21BE00F69002FF6D093070E6875
:1033D00008BF4B690F6018BF0023A6EB07088B607E
:1033E000B8F1000FE9DD216AA66A43463A4628464D
:1033F000B047002808DCB4F90C3043F04003A38147
:103400004FF0FF30BDE8F0810744A8EB0008E7E784
:103410000100402038B50B6905460C4613B900255C
:10342000284638BD18B1036A0BB9FEF721FFB4F97D
:103430000C30002BF3D0626ED00704D4990502D46F
:10344000A06DFFF736F828462146FFF75FFF636E51
:10345000DA070546E4D4A3899B05E1D4A06DFFF704
:1034600029F8DDE70148FFF724B800BF9C050020DC
:103470000148FFF71FB800BF9C0500202DE9F0416F
:103480000C46496B04F1440399421DD14FF480610D
:10349000FFF7A8FB18B94FF0FF30BDE8F0814FF4FB
:1034A0008063A36394F84630606380F8FF3394F838
:1034B000453080F8FE3394F8443080F8FD3300F254
:1034C000FD3020600020E8E7A66B77003A4600F068
:1034D0000FF805460028DED000EB0608014632460C
:1034E000404600F047FAC4E90D57C4F80080E9E708
:1034F0002DE9F041074614460D4621B9BDE8F041DB
:103500001146FFF76FBB2AB9FEF7EEFF25462846A6
:10351000BDE8F08100F03CFA8442064602D8B4EBE4
:10352000500FF4D821463846FFF75CFB804608B9B7
:103530004546ECE7B4422246294628BF324600F011
:1035400019FA29463846FEF7CFFFF1E7F8B50E46DF
:103550001446054618B1036A0BB9FEF789FEA36944
:10356000A360A3891A0701D5236943B921462846D8
:1035700000F016F918B14FF0FF373846F8BD236850
:103580002269981A6369F6B28342374605DC214600
:103590002846FFF73FFF0028EDD1A368013BA36059
:1035A00023685A1C22601E706269431C9A4204D030
:1035B000A389DB07E1D50A2EDFD121462846FFF794
:1035C00029FF0028D9D0D6E7242B2DE9F0478646DD
:1035D000904601D8012B06D1FEF740FF1623036069
:1035E0000020BDE8F08734480D462A4615F8014B07
:1035F000065D16F00806F8D12D2C10D12C78012686
:10360000951C33F0100215D1302C0DD12A7802F020
:10361000DF02582A08D16C78023510230AE02B2CDF
:1036200004BF2C78951CECE7002BF6D1302C14BF8E
:103630000A23082306F1004C0CF1FF3C0022BCFBDE
:10364000F3F9104603FB19CAA4F13007092F0FD86C
:103650003C46A3421BDD571C07D0814514D301D142
:10366000A24511DB00FB0340012215F8014BEBE7FB
:10367000A4F14107192F01D8373CEAE7A4F161070B
:10368000192F04D8573CE4E74FF0FF32EDE7531C05
:1036900008D12223CEF800306046B8F1000FA0D048
:1036A000691E06E006B14042B8F1000F99D0002A29
:1036B000F6D1C8F8001094E7633E0008FFF784BF16
:1036C0002DE9F043344E86460D46284615F8014B49
:1036D000375D17F00807F8D12D2C10D12C78012771
:1036E000851C33F0100015D1302C0DD1287800F056
:1036F000DF00582808D16C78023510230AE02B2C03
:1037000004BF2C78851CECE7002BF6D1302C14BFBD
:103710000A2308234FF0FF380026B8FBF3F803FB19
:1037200008F96FEA09093046A4F1300CBCF1090F21
:1037300010D86446A3421EDDB6F1FF3F07D0804596
:1037400016D301D1A14513DB00FB0340012615F878
:10375000014BE9E7A4F1410CBCF1190F01D8373C4A
:10376000E8E7A4F1610CBCF1190F04D8573CE1E77C
:103770004FF0FF36EBE7731C06D12223CEF8003062
:10378000304632B9BDE8F08307B14042002AF9D093
:1037900006B1691E1160F5E7633E0008FFF790BFB0
:1037A00038B5294B054618680C4618B1036A0BB9A1
:1037B000FEF75EFDB4F90C30190722D4DA0607D4FF
:1037C00009222A6043F04003A3814FF0FF3033E029
:1037D000580712D5616B41B104F14403994202D0FC
:1037E0002846FEF781FE00236363A38923F02403A8
:1037F000A3810023636023692360A38943F0080346
:10380000A38123694BB9A38903F42073B3F5007F27
:1038100003D02146284600F03FF8B4F90C3013F0ED
:1038200001020AD00022A26062695242A2612269AA
:1038300042B913F08000C5D138BD990758BF6269FD
:10384000A260F4E70020F7E71C00002070B50C46EA
:10385000B1F90E10002996B015461E460DDAA3895F
:1038600013F0800F4FF0000114BF40234FF480632A
:10387000002031602B6016B070BD6A4600F068F819
:103880000028ECDB019901F47041A1F50053594285
:1038900059414FF48063EBE78B89F7B59D070646E6
:1038A0000C4607D504F147032360236101236361BC
:1038B00003B0F0BD01AB6A46FFF7C8FF009F0546A5
:1038C00039463046FFF78EF948B9B4F90C309A05FD
:1038D000EED423F0030343F00203A381E2E7A389BC
:1038E000206043F08003A381019BC4E904075BB11E
:1038F000B4F90E10304600F00BF828B1A38923F07C
:10390000030343F00103A381A3891D43A581CFE7EE
:1039100038B5064D0023044608462B60FEF772FAC0
:10392000431C02D12B6803B1236038BDA0050020E1
:1039300038B5064D0023044608462B60FEF718FAFA
:10394000431C02D12B6803B1236038BDA0050020C1
:1039500038B5074D00230446084611462B60FEF794
:103960004CFA431C02D12B6803B1236038BD00BF61
:10397000A00500200A44914200F1FF3300D17047B6
:1039800010B511F8014B03F8014F9142F9D110BD68
:1039900051F8043C181F002BBCBF0B58C0187047CF
:1039A0002DE9F047089D0E4604460F46002B4AD1EC
:1039B00094468C45B2FA82F260D942B1C2F120033A
:1039C000974020FA03F30CFA02FC1F4394404FEA9D
:1039D0001C4E1FFA8CF6B7FBFEF1230C0EFB117781
:1039E00043EA074301FB06F098420AD91CEB0303A4
:1039F00001F1FF3780F01581984240F212810239BF
:103A000063441B1AA4B2B3FBFEF00EFB103344EA6E
:103A1000034400FB06F6A6420AD91CEB040400F19D
:103A2000FF3380F00081A64240F2FD8064440238FA
:103A300040EA0140A41B00211DB1D4400023C5E988
:103A40000043BDE8F0878B4205D90DB1C5E90001FF
:103A500000210846F5E7B3FA83F1002946D1B342C5
:103A600002D3824200F2F580841A66EB0302012041
:103A70001746002DE5D0C5E90047E2E7002A40F0EF
:103A80009380A1EB0C034FEA1C471FFA8CFE012127
:103A9000B3FBF7F607FB1630230C43EA00430EFB9B
:103AA00006F0984208D91CEB030306F1FF3802D256
:103AB000984200F2D08046461B1AA4B2B3FBF7F03E
:103AC00007FB103344EA03440EFB00FEA64508D969
:103AD0001CEB040400F1FF3302D2A64500F2B680CD
:103AE0001846A4EB0E0440EA0640A5E7C1F1200702
:103AF0008B4022FA07FC4CEA030C06FA01FE20FA7E
:103B000007F426FA07F344EA0E0400FA01F84FEA34
:103B10001C404FEA1449B3FBF0FE1FFA8CF600FB81
:103B20001E3349EA03430EFB06F9994502FA01F2F6
:103B30000BD91CEB03030EF1FF3A80F08580994509
:103B400040F28280AEF1020E6344A3EB0909A4B2F5
:103B5000B9FBF0F300FB139944EA094403FB06F6B2
:103B6000A64208D91CEB040403F1FF3068D2A64238
:103B700066D9023B644443EA0E40A41BA0FB02E664
:103B8000B4427346B14652D34FD05DB1B8EB030295
:103B900064EB090404FA07F722FA01F31F43CC404F
:103BA000C5E9007400214CE7C2F1200120FA01F3BD
:103BB0000CFA02FC26FA01F1964033434FEA1C4707
:103BC0001FFA8CFEB1FBF7F007FB1016190C41EA47
:103BD000064100FB0EF68E4204FA02F408D91CEBF3
:103BE000010100F1FF382DD28E422BD902386144F9
:103BF000891B9BB2B1FBF7F607FB161143EA0143A1
:103C000006FB0EF1994208D91CEB030306F1FF38BD
:103C100014D2994212D9023E63445B1A46EA00412B
:103C200036E73946EDE6184602E7F045ADD2BEEB81
:103C3000020366EB0C060138B146A6E74646ECE700
:103C4000034698E74046D3E7D6467EE76444023809
:103C500047E708460DE7023E63442DE7F8B500BF8D
:103C6000F8BC08BC9E467047F8B500BFF8BC08BC5D
:043C70009E467047B5
:103C7400593E00085C3E00085F3E0008736574000E
:103C84002533642D2533642D2533642D2533642D8C
:103C94002533642D25336400526563656976656454
:103CA400206E756D626572733A2025642025642048
:103CB40025642025642025642025640A0000000072
:103CC400496E76616C696420666F726D617421005F
:103CD4006A6F696E743100004A6F696E74312073C3
:103CE40065743A2025640A006A6F696E74320000B4
:103CF4004A6F696E7432207365743A2025640A0031
:103D04006A6F696E743300004A6F696E743320738E
:103D140065743A2025640A006A6F696E7434000081
:103D24004A6F696E7434207365743A2025640A00FE
:103D34006A6F696E743500004A6F696E743520735A
:103D440065743A2025640A006163747561746F7246
:103D5400000000004163747561746F7220736574B0
:103D64003A2025640A000000686F6D6500000000B9
:103D740053657420616C6C206A6F696E747320687B
:103D84006F6D65007072696E740000004A6F696E31
:103D940074313A2025640A004A6F696E74323A20FD
:103DA40025640A004A6F696E74333A2025640A0058
:103DB4004A6F696E74343A2025640A004A6F696E4A
:103DC40074353A2025640A004163747561746F7216
:103DD4003A2025640A0000005265636569766564CB
:103DE4003A2025730A000000427566666572206FEA
:103DF400766572666C6F77000000000001020304B0
:103E04000000000000000000010203040607080986
:103E1400686C4C00232D302B2000656667454647AF
:103E24000030313233343536373839414243444532
:103E340046003031323334353637383961626364A1
:103E4400656600412D46612D663839303132333490
:103E54003536375D002B2D003030007858000020B7
:103E64002020202020202020282828282820202026
:103E740020202020202020202020202020202088D6
:103E8400101010101010101010101010101010043A
:103E9400040404040404040404101010101010108A
:103EA400414141414141010101010101010101017E
:103EB4000101010101010101010110101010101094
:103EC400424242424242020202020202020202024E
:103ED400020202020202020202021010101020006A
:103EE40000000000000000000000000000000000CE
:103EF40000000000000000000000000000000000BE
:103F040000000000000000000000000000000000AD
:103F1400000000000000000000000000000000009D
:103F2400000000000000000000000000000000008D
:103F3400000000000000000000000000000000007D
:103F4400000000000000000000000000000000006D
:103F5400000000000000000000000000000000005D
:083F64002CC2FF7F01000000E8
:043F6C00FD0200084A
:043F7000D50200086E
:103F74005A00000001000000100000000024F400BA
:103F84000000000003000000600400202000002066
:103F94000000000060040020C80400203005002058
:103FA400000000000000000000000000000000000D
:103FB40000000000000000000000000000000000FD
:103FC40000000000000000000000000000000000ED
:0C3FD400000000000000000000000000E1
:0400000508002021AE
:00000001FF
