:020000040800F2
:1000000000000220592A0008D50D0008D70D00086D
:10001000D90D0008DB0D0008DD0D00080000000010
:10002000000000000000000000000000DF0D0008DC
:10003000E10D000800000000E30D0008E50D0008D8
:10004000A92A0008A92A0008A92A0008A92A000844
:10005000A92A0008A92A0008A92A0008A92A000834
:10006000A92A0008A92A0008A92A0008A92A000824
:10007000A92A0008A92A0008A92A0008A92A000814
:10008000A92A0008A92A0008A92A0008A92A000804
:10009000A92A0008A92A0008A92A0008A92A0008F4
:1000A000A92A0008A92A0008A92A0008A92A0008E4
:1000B000A92A0008A92A0008A92A0008A92A0008D4
:1000C000A92A0008A92A0008A92A0008A92A0008C4
:1000D000A92A0008A92A0008A92A0008A92A0008B4
:1000E000A92A0008A92A0008A92A0008A92A0008A4
:1000F000A92A0008A92A0008A92A0008A92A000894
:10010000A92A0008A92A0008A92A0008A92A000883
:10011000A92A0008A92A0008A92A0008A92A000873
:10012000A92A0008A92A0008A92A0008A92A000863
:10013000A92A0008A92A0008A92A0008A92A000853
:10014000A92A0008A92A0008A92A0008A92A000843
:10015000A92A0008A92A0008A92A0008A92A000833
:10016000A92A0008A92A0008A92A0008A92A000823
:10017000A92A0008A92A0008A92A000800000000EE
:08018000A92A0008A92A0008C1
:1001880053B94AB9002908BF00281CBF4FF0FF31F6
:100198004FF0FF3000F00CB8ADF1080C6DE904CE5B
:1001A80002F0ACFCDDF804E0DDE9022304B070479E
:1001B800704700BF0348044B834202D0034B03B18E
:1001C800184770470C0000200C00002000000000B9
:1001D8000548064B1B1AD90F01EBA301491002D0A1
:1001E800034B03B1184770470C0000200C00002097
:1001F8000000000010B5064C237843B9FFF7DAFF7A
:10020800044B13B10448AFF300800123237010BDE1
:100218000C00002000000000C02D000808B5054BA8
:100228001BB105490548AFF30080BDE80840FFF75A
:10023800CFBF00BF0000000010000020C02D000844
:1002480072B6FEE700B595B03022002108A802F08A
:1002580028FC0023039304930593069307930193C3
:10026800204A116C41F080511164126C02F08052E6
:100278000192019A02931C4B1A6842F480421A6058
:100288001B6803F480430293029B032308934FF4F3
:100298008032099201220B9210220C9202220E92B5
:1002A8004FF480010F91042110914821119112926D
:1002B800139308A800F042FF78B90F230393002195
:1002C800049105914FF480530693079103A801F018
:1002D8009FF920B915B05DF804FBFFF7B1FFFFF7F0
:1002E800AFFF00BF003802400070004008B501F0C1
:1002F800FBFBFFF7A7FF00F03DF800F0F9F800F06E
:1003080061F900F085FA00F013FB00F079FB00F0CA
:1003180091FB00F0A9FB00F0C1FB00F0D9FB02F053
:1003280043FB00F0A5F900F0EDFB114C4FF48051B0
:10033800204601F03FFB642001F002FC4FF400511D
:10034800204601F037FB642001F0FAFB4FF48041AE
:10035800204601F02FFB642001F0F2FB4FF400412E
:10036800204601F027FB642001F0EAFBDDE700BF2F
:10037800000C02402DE9F0478CB000240794089443
:1003880009940A940B940194534B1A6B42F010028F
:100398001A631A6B02F010020192019A02941A6B06
:1003A80042F004021A631A6B02F004020292029AE3
:1003B80003941A6B42F080021A631A6B02F08002EF
:1003C8000392039A04941A6B42F001021A631A6B9F
:1003D80002F001020492049A05941A6B42F0020298
:1003E8001A631A6B02F002020592059A06941A6BB8
:1003F80042F008021A631B6B03F008030693069B7E
:10040800DFF8E0A0224649F23C51504601F0CCFA10
:10041800324F224642F22001384601F0C5FA304EEA
:1004280022464021304601F0BFFADFF8BC90224650
:100438004FF20101484601F0B7FADFF8B0802246D2
:100448004FF28001404601F0AFFA49F23C5307935E
:100458000125089509940A9407A9504601F0AEF9B8
:1004680042F220030793089509940A9407A938468D
:1004780001F0A4F940230793089509940A9407A961
:10048800304601F09BF94FF2010307930895099450
:100498000A9407A9484601F091F94FF2800307939F
:1004A800089509940A9407A9404601F087F94FF482
:1004B800407307930894099407A9384601F07EF918
:1004C8004FF4807307930894099407A9304601F004
:1004D80075F90CB0BDE8F08700380240000802400A
:1004E800000002400010024000040240000C0240DC
:1004F80000B585B000230093019302930393144839
:10050800144A0260436083600361037680F82030F8
:10051800C362114A8262C3600122C26180F830302E
:10052800426100F015FD60B9002300930122019299
:1005380002936946064800F037FD28B905B05DF812
:1005480004FBFFF77DFEEFE7FFF77AFEF6E700BF53
:1005580028000020002001400100000F00B589B0EC
:10056800002303930493059306930793026803F10A
:10057800804303F590339A4202D009B05DF804FB3A
:100588000021019103F58C335A6C42F480725A644D
:100598005A6C02F480720192019A02911A6B42F02D
:1005A80001021A631B6B03F001030293029B0723EA
:1005B80003930323049303A9014801F0FFF8DCE740
:1005C8000000024008B50B480B4B03600B4B43601F
:1005D80000238360C3604FF48042026143618361FA
:1005E800C361036201F0C0FA00B908BDFFF728FE35
:1005F800FBE700BF7000002000540040A086010007
:1006080030B589B0002303930493059306930793A9
:100618000268144B9A4201D009B030BD00250195FB
:10062800114C236B43F002032363236B03F0020393
:100638000193019B4FF4C073039312230493032384
:1006480006930423079303A9084801F0B7F8029515
:10065800236C43F400132364236C03F40013029304
:10066800029BD9E7005400400038024000040240D1
:1006780000B587B000230293039304930593009376
:1006880001931448144A0260436083604FF6FF7276
:10069800C2600361836101F079FC90B94FF4805323
:1006A800029302A90B4801F07CFD68B9002300936E
:1006B80001936946074801F0F3FD40B907B05DF8BA
:1006C80004FBFFF7BDFDE9E7FFF7BAFDEEE7FFF72B
:1006D800B7FDF3E7C40000200008004084B00368B9
:1006E800184A934207D0B3F1804F11D0164A93426B
:1006F8001BD004B0704700230193144B5A6C42F08E
:1007080001025A645B6C03F001030193019BF0E75B
:10071800002302930D4B1A6C42F001021A641B6C01
:1007280003F001030293029BE3E700230393074BC3
:100738001A6C42F004021A641B6C03F0040303935E
:10074800039BD6E700000140000800400038024043
:1007580070B588B000230393049305930693079319
:100768000368264A934204D0B3F1804F19D008B0E9
:1007780070BD00230093224B1A6B42F010021A63DB
:100788001B6B03F010030093009B4FF4D4430393B7
:10079800022304930123079303A91A4801F00EF8D2
:1007A800E5E70024019403F50E331A6B42F00102C9
:1007B8001A631A6B02F001020192019A02941A6BF1
:1007C80042F002021A631B6B03F002030293029BBE
:1007D80028230393022604960125079503A90A48AE
:1007E80000F0ECFF4FF4806303930496059406949D
:1007F800079503A9054800F0E1FFB8E700000140AC
:10080800003802400010024000000240000402408C
:1008180010B596B00024129413941494159410945F
:10082800119409940A940B940C940D940E940F94BB
:100838002022214601A802F034F93B483B4B0360D3
:10084800446084604FF6FF73C3600461446184614F
:1008580001F09CFB00284BD14FF48053129312A94E
:10086800314801F09EFC002845D12F4801F0BAFB21
:10087800002843D100231093119310A92A4801F0AE
:100888000FFD00283DD16023099300220A920B92A4
:100898000C920D920E920F9209A9234801F006FCC2
:1008A800002831D1042209A91F4801F0FFFB70BBC1
:1008B800082209A91C4801F0F9FB58BB0C2209A918
:1008C800194801F0F3FB40BB002301930293039303
:1008D800049305934FF400520692089301A9124815
:1008E80001F024FDE0B91048FFF732FF16B010BD43
:1008F800FFF7A6FCB0E7FFF7A3FCB6E7FFF7A0FCFD
:10090800B8E7FFF79DFCBEE7FFF79AFCCAE7FFF7D9
:1009180097FCCDE7FFF794FCD0E7FFF791FCD3E70E
:10092800FFF78EFCDFE700BF540100200000014004
:1009380000B58FB000230A930B930C930D93089383
:1009480009930193029303930493059306930793E2
:100958002A484FF080420260436083604FF0FF32C4
:10096800C2600361836101F011FB002830D14FF4AC
:1009780080530A930AA9214801F013FC58BB1F4869
:1009880001F030FB50BB00230893099308A91B48CA
:1009980001F086FC28BB6023019300220292039297
:1009A800059201A9154801F081FBE8B9082201A9BF
:1009B800124801F07BFBD0B90C2201A90F4801F0C5
:1009C80075FBB8B90D48FFF7C3FE0FB05DF804FB1F
:1009D800FFF736FCCBE7FFF733FCD0E7FFF730FC37
:1009E800D1E7FFF72DFCD6E7FFF72AFCDEE7FFF794
:1009F80027FCE1E7FFF724FCE4E700BF0C01002037
:100A080008B50A480A4B03604FF4E13343600023FA
:100A18008360C36003610C2242618361C36101F09A
:100A280037FD00B908BDFFF70BFCFBE70403002006
:100A3800004C004008B50A480A4B03604FF4E13304
:100A4800436000238360C36003610C2242618361B9
:100A5800C36101F01DFD00B908BDFFF7F1FBFBE71D
:100A6800BC0200200050004008B50A480A4B036049
:100A78004FF4E133436000238360C36003610C22B9
:100A880042618361C36101F003FD00B908BDFFF74E
:100A9800D7FBFBE7740200200010014008B50A48A4
:100AA8000A4B03604FF4E133436000238360C36063
:100AB80003610C2242618361C36101F0E9FC00B962
:100AC80008BDFFF7BDFBFBE72C02002000440040F7
:100AD80008B50A480A4B03604FF4E133436000232A
:100AE8008360C36003610C2242618361C36101F0CA
:100AF800CFFC00B908BDFFF7A3FBFBE7E40100202A
:100B08000048004008B50A480A4B03604FF4E13337
:100B1800436000238360C36003610C2242618361E8
:100B2800C36101F0B5FC00B908BDFFF789FBFBE71D
:100B38009C01002000140140F0B595B000230F93EC
:100B480010931193129313930368954A934213D009
:100B5800944A934234D0944A934269D0934A934238
:100B680000F09E80924A934200F0BD80914A9342E1
:100B780000F0F28015B0F0BD002100918E4B1A6C88
:100B880042F400221A641A6C02F400220092009ABD
:100B980001911A6B42F004021A631B6B03F0040301
:100BA8000193019B4FF440630F9302231093032397
:100BB8001293082313930FA9804800F0FFFDD9E78B
:100BC800002402947C4B1A6C42F480121A641A6C4A
:100BD80002F480120292029A03941A6B42F0040201
:100BE8001A631A6B02F004020392039A04941A6BB4
:100BF80042F008021A631B6B03F008030493049B7A
:100C08004FF480530F930227109703261296082556
:100C180013950FA9694800F0D1FD04230F9310978D
:100C28001194129613950FA9654800F0C7FDA1E726
:100C380000240594604B5A6C42F010025A645A6CB6
:100C480002F010020592059A06941A6B42F001020E
:100C58001A631A6B02F001020692069A07941A6B3D
:100C680042F002021A631B6B03F002030793079B0F
:100C78004FF480630F9302271097032612960725D7
:100C880013950FA94F4800F099FD40230F93109733
:100C98001194129613950FA94B4800F08FFD69E740
:100CA80000210891444B1A6C42F400321A641A6C01
:100CB80002F400320892089A09911A6B42F008026D
:100CC8001A631B6B03F008030993099B60230F93B6
:100CD8000223109303231293072313930FA9384871
:100CE80000F06CFD46E700240A94334B1A6C42F47A
:100CF80080221A641A6C02F480220A920A9A0B94CF
:100D08001A6B42F002021A631A6B02F002020B928B
:100D18000B9A0C941A6B42F008021A631B6B03F0CF
:100D280008030C930C9B4FF400630F930227109752
:100D380003261296072513950FA9234800F03EFDB8
:100D48004FF480730F9310971194129613950FA96F
:100D58001B4800F033FD0DE700210D91164B5A6C2E
:100D680042F020025A645A6C02F020020D920D9A49
:100D78000E911A6B42F004021A631B6B03F0040312
:100D88000E930E9BC0230F930223109303231293F9
:100D9800082313930FA9094800F010FDEAE600BFE5
:100DA800004C00400050004000100140004400404A
:100DB800004800400014014000380240000802408A
:100DC800000C02400000024000040240FEE7FEE77B
:100DD800FEE7FEE7FEE770477047704708B500F08A
:100DE8009DFE08BD82B0002100910B4B5A6C42F465
:100DF80080425A645A6C02F480420092009A01912F
:100E08001A6C42F080521A641B6C03F080530193F1
:100E1800019B02B0704700BF003802404A4B5A6835
:100E280022F440325A605A6841680A435A6002689C
:100E3800536823F48073536002685368016943EA76
:100E4800012353600268536823F0407353600268BB
:100E5800536881680B4353600268936823F4006306
:100E6800936002689368C1680B439360826A374B4A
:100E78009A4257D00268936823F0706393600268BF
:100E88009368816A0B4393600268936823F0405328
:100E9800936002689368C16A0B4393600268936821
:100EA80023F00203936002689368017E43EA4103DA
:100EB800936090F82030002B3FD00268536843F4C9
:100EC800006353600268536823F460435360016809
:100ED8004B68426A013A43EA42334B600268D36A7C
:100EE80023F47003D3620168CB6AC269013A43EA0A
:100EF8000253CB620268936823F40073936002681C
:100F0800936890F8301043EA41239360026893682D
:100F180023F48063936002689368416943EA8123FC
:100F2800936070470268936823F070639360026867
:100F3800936823F040539360B0E70268536823F442
:100F480000635360CAE700BF002301400100000F9F
:100F580038B310B50446036C43B1236C13F0100F7B
:100F68000BD00120002384F83C3010BDFFF7F6FABF
:100F78000023636484F83C30EFE7236C23F4885340
:100F880023F0020343F0020323642046FFF746FFE1
:100F980000206064236C23F0030343F001032364FF
:100FA800E0E701207047000030B482B000220192CF
:100FB80090F83C20012A00F0B6800346012280F810
:100FC8003C200A68092A40D90468E06892B202EB1A
:100FD80042021E3A4FF0070C0CFA02F220EA020213
:100FE800E2601C68E0680A8802EB42021E3A8D68DB
:100FF80005FA02F20243E2604A68062A3CD81C68F5
:10100800606B02EB8202053A4FF01F0C0CFA02F2F9
:1010180020EA020262631C68606B4A6802EB820283
:10102800053AB1F800C00CFA02F20243626318688C
:101038003E4A904250D018683C4A904255D0002011
:1010480083F83C0002B030BC70470468206992B253
:1010580002EB42024FF0070C0CFA02F220EA0202FD
:1010680022611C6820690A8802EB42028D6805FA31
:1010780002F202432261BFE70C2A16D81D68286BCA
:1010880002EB8202233A1F2404FA02F220EA020247
:101098002A631D68286B4A6802EB8202233A0C888F
:1010A80004FA02F202432A63C1E71D68E86A02EB08
:1010B8008202413A1F2404FA02F220EA0202EA629A
:1010C8001D68E86A4A6802EB8202413A0C8804FA11
:1010D80002F20243EA62AAE70A68122AABD114486C
:1010E800426842F480024260A5E70A68103A012A81
:1010F800A5D80F48426842F4000242600A68102AE4
:101108009DD10C4A12680C49A1FB0212920C02EB09
:1011180082025200019202E0019A013A0192019A78
:10112800002AF9D18BE702208CE700BF002001409C
:10113800002301400800002083DE1B43002800F044
:10114800E08170B582B00446036813F0010F3BD00C
:101158009F4B9B6803F00C03042B2CD09C4B9B6883
:1011680003F00C03082B21D06368B3F5803F4FD000
:10117800B3F5A02F52D0964B1A6822F480321A6029
:101188001A6822F480221A606368002B50D000F09D
:10119800D1FC05468E4B1B6813F4003F14D100F0B8
:1011A800C9FC401B6428F5D90320B1E1884B5B6872
:1011B80013F4800FD8D0864B1B6813F4003F03D07C
:1011C8006368002B00F09F81236813F0020F54D04E
:1011D8007F4B9B6813F00C0F3ED07D4B9B6803F050
:1011E8000C03082B33D0E368002B68D0794B01221D
:1011F8001A6000F09FFC0546754B1B6813F0020F40
:1012080054D100F097FC401B0228F5D903207FE158
:101218006F4A136843F480331360B5E76C4B1A6860
:1012280042F480221A601A6842F480321A60ABE7EE
:1012380000F080FC0546664B1B6813F4003FC3D0E2
:1012480000F078FC401B6428F5D9032060E1604B6E
:101258005B6813F4800FC6D15D4B1B6813F0020F57
:1012680003D0E368012B40F05081594A136823F0FA
:10127800F803216943EAC1031360236813F0080FD8
:1012880042D063696BB3534B0122C3F8802E00F040
:1012980051FC05464E4B5B6F13F0020F34D100F042
:1012A80049FC401B0228F5D9032031E1484A13685C
:1012B80023F0F803216943EAC1031360DDE7454BD6
:1012C80000221A6000F036FC0546414B1B6813F0FB
:1012D800020FD2D000F02EFC401B0228F5D90320C3
:1012E80016E13C4B0022C3F8802E00F023FC054693
:1012F800374B5B6F13F0020F06D000F01BFC401B4E
:101308000228F5D9032003E1236813F0040F77D0EE
:101318002F4B1B6C13F0805F33D1002301932C4BB0
:101328001A6C42F080521A641B6C03F080530193CC
:10133800019B0125284B1B6813F4807F23D0A368E9
:10134800012B34D0052B38D0214B1A6F22F0010223
:101358001A671A6F22F004021A67A368002B3DD09F
:1013680000F0E8FB06461A4B1B6F13F0020F46D13C
:1013780000F0E0FB801B41F288339842F3D9032048
:10138800C6E00025D6E7144A136843F48073136057
:1013980000F0D0FB0646104B1B6813F4807FCED1BB
:1013A80000F0C8FB801B0228F5D90320B0E0084AEA
:1013B800136F43F001031367CFE7054B1A6F42F031
:1013C80004021A671A6F42F001021A67C5E700BFE4
:1013D80000380240000047420070004000F0AAFBBD
:1013E8000646524B1B6F13F0020F08D000F0A2FB09
:1013F800801B41F288339842F3D9032088E0EDB985
:10140800A369002B00F08380484A926802F00C021E
:10141800082A51D0022B17D0454B00221A6600F03B
:1014280089FB0446414B1B6813F0007F42D000F053
:1014380081FB001B0228F5D9032069E03B4A136CA5
:1014480023F080531364DBE7394B00221A6600F05F
:1014580071FB0546354B1B6813F0007F06D000F082
:1014680069FB401B0228F5D9032051E0E369226A91
:101478001343626A43EA8213A26A5208013A43EAB2
:101488000243E26A43EA0263284A5360284B012276
:101498001A6600F04FFB0446244B1B6813F0007FCC
:1014A80006D100F047FB001B0228F5D903202FE0E6
:1014B80000202DE000202BE0012B2BD01B4B5B687C
:1014C80003F48001E269914226D103F03F02216AC8
:1014D8008A4223D1616A47F6C0721A40B2EB811F73
:1014E8001ED103F44031A26A5208013AB1EB024F0F
:1014F80018D103F07063E26AB3EB026F14D10020D5
:1015080006E001207047012002E0012000E00020F1
:1015180002B070BD0120FBE70120F9E70120F7E7E1
:101528000120F5E70120F3E70120F1E70038024048
:101538000000474208B5334B9B6803F00C03042BAB
:101548005BD0082B5BD12F4B5A6802F03F025B68D7
:1015580013F4800F2CD02B4B5868C0F388104FEA37
:10156800401CBCEB000C6EEB0E0E4FEA8E1343EAE8
:101578009C634FEA8C11B1EB0C0163EB0E03DB00AB
:1015880043EA5173C90011EB000C43F100035902FF
:1015980000234FEA4C2041EADC51FEF7F1FD194BDC
:1015A8005B68C3F3014301335B00B0FBF3F008BD94
:1015B800144B5868C0F388104FEA401CBCEB000C71
:1015C8006EEB0E0E4FEA8E1343EA9C634FEA8C11C2
:1015D800B1EB0C0163EB0E03DB0043EA5173C90066
:1015E80011EB000C43F10003990200234FEA8C2011
:1015F80041EA9C51FEF7C4FDD1E70348D7E7034809
:10160800D5E700BF0038024000127A000024F40039
:10161800002800F09B8070B50D4604464F4B1B68B0
:1016280003F007038B4208D2CBB24C4A13701368FD
:1016380003F007038B4240F08B80236813F0020FFE
:1016480017D013F0040F04D0454A936843F4E053CD
:101658009360236813F0080F04D0414A936843F459
:10166800604393603E4A936823F0F003A1680B43FC
:101678009360236813F0010F32D06368012B21D0E7
:101688009A1E012A25D9364A126812F0020F61D033
:1016980033498A6822F0030213438B6000F04AFA48
:1016A80006462F4B9B6803F00C036268B3EB820F6E
:1016B80016D000F03FFA801B41F288339842F0D9E7
:1016C800032042E0264A126812F4003FE0D10120CC
:1016D8003BE0234A126812F0007FD9D1012034E0A0
:1016E8001E4B1B6803F00703AB4207D9EAB21B4B3A
:1016F8001A701B6803F00703AB422DD1236813F05F
:10170800040F06D0164A936823F4E053E1680B43AC
:101718009360236813F0080F07D0114A936823F4E5
:101728006043216943EAC1039360FFF703FF0C4B51
:101738009B68C3F303130B4AD35CD8400A4B186069
:101748000A4B186800F0AAF9002070BD0120704704
:101758000120FAE70120F8E70120F6E7003C024003
:1017680000380240E02D0008080000200400002096
:10177800014B1868704700BF0800002008B5FFF744
:10178800F7FF044B9B68C3F38223034AD35CD8401A
:1017980008BD00BF00380240D82D000808B5FFF783
:1017A800E7FF044B9B68C3F34233034AD35CD8403A
:1017B80008BD00BF00380240D82D000800230F2BB9
:1017C80000F2E98070B582B065E085684FEA430EA3
:1017D800032404FA0EF425EA0405CC6804FA0EF48E
:1017E8002C438460446824EA02044A68C2F3001265
:1017F8009A40224342605CE0DC08083450F8242018
:1018080003F00705AD004FF00F0E0EFA05FE22EAB1
:101818000E0E0A69AA4042EA0E0240F824205CE053
:10182800072200E0002202FA0EF22A4302345A4D3F
:1018380045F82420594A94686FEA0C0224EA0C05FA
:101848004E6816F4801F01D04CEA0405534CA5607D
:10185800E46802EA04054E6816F4001F01D04CEA59
:1018680004054E4CE560646802EA04054E6816F407
:10187800003F01D04CEA0405484C656024682240CA
:101888004D6815F4803F01D04CEA0402434C2260B5
:1018980001330F2B7DD801229A400C6804EA020C10
:1018A80032EA0404F4D14C6804F00304013C012C2E
:1018B8008BD94A6802F00302032A09D0C4685D0084
:1018C8000322AA4024EA02048A68AA402243C2608A
:1018D8004A6802F00302022A8ED004684FEA430ED7
:1018E800032202FA0EF224EA02044A6802F0030212
:1018F80002FA0EF2224302604A6812F4403FC7D04F
:1019080000220192264A546C44F480445464526C78
:1019180002F480420192019A9C08A51C1E4A52F8C2
:10192800255003F0030E4FEA8E0E0F2202FA0EF234
:1019380025EA02051B4A90423FF474AF02F5806223
:1019480090421AD002F58062904218D002F5806267
:10195800904216D002F58062904214D002F580625F
:10196800904212D002F58062904210D002F5806257
:1019780090423FF455AF082255E7012253E702226F
:1019880051E703224FE704224DE705224BE70622E1
:1019980049E702B070BD704700380140003C014083
:1019A80000380240000002400AB181617047090412
:1019B80081617047436901EA030221EA030141EAB0
:1019C8000241816170470000002808DB0901C9B2A3
:1019D80000F1604000F5614080F80013704700F0A6
:1019E8000F000901C9B2014B1954704714ED00E00A
:1019F80000B500F00700C0F1070CBCF1040F28BFC8
:101A08004FF0040C031D062B0FD9C31E4FF0FF3EE9
:101A18000EFA0CF021EA000199400EFA03FE22EAC0
:101A28000E0241EA02005DF804FB0023EEE7000025
:101A3800074AD36823F4E0631B041B0C000200F47C
:101A4800E060034343F0BF6343F40033D36070475F
:101A580000ED00E010B50446054BD868C0F302203D
:101A6800FFF7C6FF01462046FFF7AEFF10BD00BFD7
:101A780000ED00E00138B0F1807F0BD24FF0E02399
:101A88005861054AF02182F8231000209861072246
:101A98001A6170470120704700ED00E010B5044658
:101AA8000E4B1A784FF47A73B3FBF2F30C4A1068B2
:101AB800B0FBF3F0FFF7DEFF68B90F2C01D9012066
:101AC8000AE0002221464FF0FF30FFF7C3FF054B25
:101AD8001C60002000E0012010BD00BF00000020B5
:101AE800080000200400002008B50B4B1A6842F4D7
:101AF80000721A601A6842F480621A601A6842F426
:101B080080721A600320FFF793FF0F20FFF7C6FFCC
:101B1800FFF768F9002008BD003C0240034A11683D
:101B2800034B1B780B441360704700BF4C03002025
:101B380000000020014B1868704700BF4C030020CC
:101B480038B50446FFF7F6FF0546B4F1FF3F02D06B
:101B5800044B1B781C44FFF7EDFF401BA042FAD34F
:101B680038BD00BF00000020002800F0CC8070B510
:101B7800044690F83D30002B77D0242384F83D307C
:101B88002268136823F0010313602268136843F482
:101B9800004313602268136823F400431360FFF7BF
:101BA800EDFD62685A4B9A4264D85A4B98428CBFF2
:101BB80000230123002B40F0A8805749A1FB0031E6
:101BC8008B0C25686A6822F03F0242EA91426A60FB
:101BD80021680A6A22F03F0266684D4DAE424FD82E
:101BE800013313430B622168CA6922F44F4222F081
:101BF800FF026568464B9D424CD8431E6D00B3FBFF
:101C0800F5F3013340F6FC70034278D0C3F30B03BD
:101C18001A43CA6121680B6823F0C003E269206A8D
:101C2800024313430B6021688B6823F4034323F0BA
:101C3800FF032269E068024313438B602168CB6885
:101C480023F0FF036269A06902431343CB60226853
:101C5800136843F00103136000202064202384F8F4
:101C68003D30206384F83E0070BD80F83C30FEF7BC
:101C7800C7FC82E7294B98428CBF0023012399E7D0
:101C88004FF4967505FB03F3254DA5FB03539B09FC
:101C98000133A6E7A668BEB9431E05EB450CB3FBA6
:101CA800FCF30133C3F30B03B3FA83F35B0943BBC0
:101CB800C6B9431E05EB4505B3FBF5F30133C3F382
:101CC8000B0343F40043A3E7431E05EB850C0CEB21
:101CD8008C0CB3FBFCF30133C3F30B03B3FA83F3AC
:101CE8005B09E4E7431E05EB850505EB8505B3FBBA
:101CF800F5F30133C3F30B0343F4404388E70423AC
:101D080086E7012384E7012070470120ACE700BF84
:101D1800A08601007F841E0083DE1B43FF083D0070
:101D2800D34D621030B4036A026A22F001020262E3
:101D38004268846924F0730C0C6844EA0C0423F0AC
:101D4800020C8B6843EA0C03114DA84203D005F539
:101D58008065A84205D123F00803CD682B4323F002
:101D680004030B4DA84203D005F58065A84207D1AE
:101D780022F440724D6945EA020C8A6942EA0C0273
:101D8800426084614A684263036230BC704700BFA6
:101D98000000014030B4036A026A22F480720262D1
:101DA8004268C46924F0730C0C6844EA0C0523F4F7
:101DB80000738C6843EA0423114CA04203D004F555
:101DC8008064A04206D123F40063CC6843EA04236C
:101DD80023F480630A4CA04203D004F58064A04237
:101DE80007D122F440524C6942EA04128C6942EA53
:101DF80004124260C5614A68C263036230BC70471E
:101E08000000014030B4036A026A22F48052026280
:101E18004468C26922F4E6420D6842EA052223F4C6
:101E280000538D6843EA0533094DA84203D005F5F0
:101E38008065A84204D124F480444D6944EA85149D
:101E48004460C2614A680264036230BC704700BFE4
:101E58000000014010B4036A046A24F0010404621B
:101E6800846924F0F00C4CEA021223F00A030B43B5
:101E7800826103625DF8044B704710B4036A046A18
:101E880024F010040462846924F4704C4CEA023291
:101E980023F0A00343EA0113826103625DF8044B57
:101EA8007047836823F070030B4343F00703836094
:101EB800704770470368344A904212D0B0F1804F9F
:101EC8000FD0A2F57C4290420BD002F5806290427E
:101ED80007D002F58062904203D002F57842904222
:101EE80003D123F070034A681343274A90422AD04B
:101EF800B0F1804F27D0A2F57C42904223D002F562
:101F0800806290421FD002F5806290421BD002F599
:101F18007842904217D002F57052904213D002F5E1
:101F2800806290420FD002F5806290420BD0A2F5F9
:101F38009832904207D002F58062904203D002F5B1
:101F48008062904203D123F44073CA68134323F09C
:101F580080034A69134303608B68C3620B6883621A
:101F6800094B984203D003F58063984201D10B696D
:101F7800036301234361036913F0010F03D003696D
:101F880023F00103036170470000014040B310B51E
:101F9800044690F83D30F3B1022384F83D302146E1
:101FA80051F8040BFFF786FF012384F8463084F8C4
:101FB8003E3084F83F3084F8403084F8413084F86B
:101FC800423084F8433084F8443084F8453084F84B
:101FD8003D30002010BD80F83C30FEF77FFBDBE78A
:101FE8000120704740B310B5044690F83D30F3B176
:101FF800022384F83D30214651F8040BFFF75AFFBD
:10200800012384F8463084F83E3084F83F3084F861
:10201800403084F8413084F8423084F8433084F802
:10202800443084F8453084F83D30002010BD80F8F5
:102038003C30FFF73EFFDBE70120704730B4036A0E
:10204800026A22F0100202624468826922F4E642BF
:102058000D6842EA052223F020038D6843EA051340
:10206800114DA84203D005F58065A84206D123F09A
:102078008003CD6843EA051323F040030A4DA842C4
:1020880003D005F58065A84207D124F440644D6962
:1020980044EA85048D6944EA8504446082614A689B
:1020A8008263036230BC70470000014038B590F885
:1020B8003C30012B66D004460D46012380F83C30A5
:1020C8000C2A5AD8DFE802F0075959591B595959AF
:1020D8003059595944000068FFF724FE2268936973
:1020E80043F0080393612268936923F00403936122
:1020F8002268936929690B43936100203EE00068D8
:10210800FFF79CFF2268936943F400639361226898
:10211800936923F48063936122689369296943EA88
:1021280001239361002029E00068FFF733FE22684D
:10213800D36943F00803D3612268D36923F0040309
:10214800D3612268D36929690B43D361002015E064
:102158000068FFF757FE2268D36943F40063D36130
:102168002268D36923F48063D3612268D36929691B
:1021780043EA0123D361002000E00120002384F812
:102188003C3038BD0220FCE710B4846824F47F4C4E
:1021980042EA03220A4342EA0C0282605DF8044BD9
:1021A800704790F83C30012B78D010B504460123D5
:1021B80080F83C30022380F83D300268936823F4AD
:1021C8007F4323F0770393600B68602B4CD023D8B0
:1021D800402B54D011D8202B03D00AD80BB1102B88
:1021E80005D119462068FFF75CFE002028E0012091
:1021F80026E0302BF5D0012022E0502B0AD1CA6806
:1022080049680068FFF726FE50212068FFF749FE5D
:10221800002015E0012013E0B3F5805F3AD0B3F554
:10222800005F14D0702B37D1CB684A688968006882
:10223800FFF7AAFF2268936843F0770393600020B2
:10224800012384F83D30002384F83C3010BDCB686E
:102258004A6889680068FFF797FF2268936843F423
:10226800804393600020EBE7CA6849680068FFF77D
:1022780004FE60212068FFF714FE0020E0E7CA682A
:1022880049680068FFF7E6FD40212068FFF709FE6E
:102298000020D5E70020D3E70120D1E702207047CE
:1022A80090F83C20012A3DD010B40346012280F862
:1022B8003C20022280F83D2002685068946820F093
:1022C800700C086840EA0C0050601A681648824290
:1022D8001AD0B2F1804F17D0A0F57C40824213D0BB
:1022E80000F5806082420FD000F5806082420BD0FA
:1022F80000F57840824207D000F57050824203D042
:10230800A0F59430824204D124F080044968214326
:102318009160012283F83D20002083F83C005DF89D
:10232800044B70470220704700000140024690F8B5
:102338003C30012B21D0012380F83C30CB6823F4BA
:1023480040738868034323F480634868034323F495
:1023580000630868034323F480530869034323F4A4
:1023680000534869034323F48043C9690B43116848
:102378004B64002082F83C00704702207047000040
:1023880010B504460268136923F44053C1680B432F
:102398001361836802691A4343691A43C3691A437C
:1023A8000168CB6823F4164323F00C031343CB6076
:1023B8000268536923F4407381690B4353610368CE
:1023C800314A934206D002F58062934202D0FFF769
:1023D800D5F901E0FFF7E2F9E369B3F5004F29D039
:1023E8000021031849411B1841F10001C90041EAC5
:1023F8005371DB00181863684FEA83024FEA93733E
:1024080041F10001FDF7BCFE204AA2FB0031490959
:10241800642303FB11031B013233A2FB03235B0973
:1024280003F0F00202EB011203F00F0321681344DA
:102438008B6010BD0023021843EB0301121841F111
:102448000001C90041EA5271D200101841F100019F
:10245800626892185B41FDF793FE0C4AA2FB0031BB
:102468004909642303FB1103DB003233A2FB032376
:102478005B095A0002F4F87202EB011203F0070339
:10248800216813448B60D4E7001001401F85EB518D
:1024980060B310B5044690F8413013B3242384F890
:1024A80041302268D36823F40053D3602046FFF7F5
:1024B80067FF2268136923F4904313612268536904
:1024C80023F02A0353612268D36843F40053D3608E
:1024D80000206064202384F8413084F8423060632F
:1024E80010BD80F84030FEF727FBD7E70120704782
:1024F80030B583B000287AD00446056890F8953442
:10250800C3B1032384F89534B5F1A04F17D02068E0
:1025180000F0DDF8237C8DF80030231D0ECB2068F9
:1025280000F08CF870B1022384F895340125284610
:1025380003B030BD80F8943400F050FAE1E700238E
:10254800A371E4E70021206800F0F2F9024608B917
:10255800034617E0022384F895340125E7E703EBE7
:10256800C30104EB8101012048750B75CB85002060
:102578000876C861086203EBC30104EB8101486275
:102588000133DBB220799842E9D816E002EBC203A6
:1025980004EB8303002183F8551283F8542283F84F
:1025A8005812C3F85C12C3F8601202EBC20304EBC2
:1025B8008303C3F864120132D2B29042E6D8237C76
:1025C8008DF80030231D0ECB206800F0D5F80546A5
:1025D80020B1022384F895340125A8E70023637409
:1025E800012384F89534206800F090F99FE70125CD
:1025F8009DE782B000230193019B01330193019B66
:10260800B3F1706F15D80369002BF5DA0023019335
:10261800036943F001030361019B01330193019BAB
:10262800B3F1706F08D8036913F0010FF4D10020DB
:1026380000E0032002B070470320FBE784B010B528
:10264800044603A880E80E009DF81130012B21D123
:10265800A36B23F48033A363E36823F4840323F098
:102668004003E360E36823F44013E3609DF8183007
:10267800012B0AD02046FFF7BCFF9DF80E30012B36
:102688001CD0BDE8104004B07047E36843F48013E1
:10269800E360EFE7E36843F04003E3602046FFF7B9
:1026A800A8FF9DF8153023B9A36B43F48033A363C7
:1026B800E3E7A36B23F48033A363DEE7A36843F067
:1026C8000603A360A36843F02003A360D9E78368E7
:1026D80023F0010383600020704782B00023019338
:1026E800019B01330193019BB3F1706F15D8036906
:1026F800002BF5DA00230193890141F020010161E3
:10270800019B01330193019BB3F1706F08D80369F2
:1027180013F0200FF4D1002000E0032002B070472E
:102728000320FBE782B000230193019B013301934F
:10273800019BB3F1706F13D80369002BF5DA0023FE
:10274800019310230361019B01330193019BB3F1B2
:10275800706F08D8036913F0100FF4D1002000E05F
:10276800032002B070470320FBE7D0F80038194374
:10277800C0F800180020704784B0F8B5044607A8D0
:1027880080E80E00002306E003F1400204EB820219
:102798000021516001330E2BF6D99DF8266006BB47
:1027A800D4F8043843F00203C4F80438A36B43F4A4
:1027B8000013A363A36B23F40023A363A36B23F485
:1027C8008023A3630023C4F8003E9DF82130012B29
:1027D80015D19DF81F306BB900212046FFF7C5FFC2
:1027E80011E0A36B23F40013A363A36B43F400234A
:1027F800A363E7E701212046FFF7B7FF03E00321C2
:102808002046FFF7B2FF10212046FFF766FF054676
:1028180000B101252046FFF785FF00B1012504F529
:10282800006C0023CCF81030CCF81430CCF81C30F5
:102838000AE0CBB94FF00060C2F8000900220A6133
:102848004FF67F328A6001339DF81C10994210D9E7
:1028580004EB431202F51061D2F800090028E8DB06
:102868000020C2F80009E9E74FF09040C2F80009DB
:10287800E4E700230AE0BBB14FF09047C2F8007BC1
:10288800002202614FF67F3282600133994210D9EB
:1028980004EB431202F53060D2F8007B002FEADB2C
:1028A8000027C2F8007BEBE74FF00067C2F8007B17
:1028B800E6E7DCF8103023F48073CCF810300023FE
:1028C800A3616FF0804363619DF81E301BB9A36953
:1028D80043F01003A361A2690B4B1343A3619DF856
:1028E80022301BB1A36943F00803A361012E04D071
:1028F8002846BDE8F84004B07047A36943F0804318
:1029080043F00403A361F3E700383C80D0F8003EAD
:1029180023F00303C0F8003ED0F8043843F0020364
:10292800C0F8043800207047406900F00100704783
:1029380038B50546C36823F0C043C360012913D0E6
:1029480019BBC36843F08043C36000240A20FFF723
:10295800F7F80A342846FFF7E7FF08B1C72CF5D97E
:10296800C82C14D0002038BDC36843F00053C3609E
:1029780000240A20FFF7E4F80A342846FFF7D4FFBA
:102988000128EDD0C72CF4D9EAE70120EBE70120B4
:10299800E9E70000034AD2F8883043F47003C2F82C
:1029A8008830704700ED00E008B50B484FF0A043B1
:1029B8000360042303710222C271002383714272EF
:1029C8008372C37203738373C373FFF791FD00B9F6
:1029D80008BDFDF735FCFBE75003002030B589B092
:1029E8000023039304930593069307930368B3F1B5
:1029F800A04F01D009B030BD00250195124C236BC2
:102A080043F001032363236B03F001030193019B4C
:102A18004FF4C053039302230493032306930A231A
:102A2800079303A90948FEF7C9FE636B43F08003C7
:102A380063630295636C43F480436364636C03F4DB
:102A480080430293029BD5E7003802400000024011
:102A5800DFF834D0FFF79EFF0C480D490D4A0023DC
:102A680002E0D458C4500433C4188C42F9D30A4A3B
:102A78000A4C002301E013600432A242FBD300F0A9
:102A880019F8FDF733FC7047000002200000002011
:102A98000C000020002E00080C0000203408002044
:102AA800FEE702440346934200D1704703F8011B36
:102AB800F9E7000070B50D4D0D4C641BA4100026FD
:102AC800A64209D10B4D0C4C00F076F9641BA410FA
:102AD8000026A64205D170BD55F8043B984701363B
:102AE800EEE755F8043B98470136F2E7F82D000861
:102AF800F82D0008F82D0008FC2D00082DE9F047F6
:102B0800089D0E4604460F46002B4AD194468C4534
:102B1800B2FA82F260D942B1C2F12003974020FA9A
:102B280003F30CFA02FC1F4394404FEA1C4E1FFAB1
:102B38008CF6B7FBFEF1230C0EFB117743EA074333
:102B480001FB06F098420AD91CEB030301F1FF3799
:102B580080F01581984240F21281023963441B1AB1
:102B6800A4B2B3FBFEF00EFB103344EA034400FBAF
:102B780006F6A6420AD91CEB040400F1FF3380F0E4
:102B88000081A64240F2FD806444023840EA0140D8
:102B9800A41B00211DB1D4400023C5E90043BDE8B2
:102BA800F0878B4205D90DB1C5E90001002108461F
:102BB800F5E7B3FA83F1002946D1B34202D3824242
:102BC80000F2F580841A66EB030201201746002DF7
:102BD800E5D0C5E90047E2E7002A40F09380A1EB81
:102BE8000C034FEA1C471FFA8CFE0121B3FBF7F6D2
:102BF80007FB1630230C43EA00430EFB06F098420D
:102C080008D91CEB030306F1FF3802D2984200F200
:102C1800D08046461B1AA4B2B3FBF7F007FB10336B
:102C280044EA03440EFB00FEA64508D91CEB040445
:102C380000F1FF3302D2A64500F2B6801846A4EB95
:102C48000E0440EA0640A5E7C1F120078B4022FAAE
:102C580007FC4CEA030C06FA01FE20FA07F426FAF0
:102C680007F344EA0E0400FA01F84FEA1C404FEA61
:102C78001449B3FBF0FE1FFA8CF600FB1E3349EA39
:102C880003430EFB06F9994502FA01F20BD91CEB36
:102C980003030EF1FF3A80F08580994540F2828067
:102CA800AEF1020E6344A3EB0909A4B2B9FBF0F339
:102CB80000FB139944EA094403FB06F6A64208D927
:102CC8001CEB040403F1FF3068D2A64266D9023B2C
:102CD800644443EA0E40A41BA0FB02E6B4427346D8
:102CE800B14652D34FD05DB1B8EB030264EB09048F
:102CF80004FA07F722FA01F31F43CC40C5E9007430
:102D080000214CE7C2F1200120FA01F30CFA02FC81
:102D180026FA01F1964033434FEA1C471FFA8CFE0E
:102D2800B1FBF7F007FB1016190C41EA064100FB4E
:102D38000EF68E4204FA02F408D91CEB010100F1E8
:102D4800FF382DD28E422BD902386144891B9BB2A1
:102D5800B1FBF7F607FB161143EA014306FB0EF138
:102D6800994208D91CEB030306F1FF3814D29942A3
:102D780012D9023E63445B1A46EA004136E73946F7
:102D8800EDE6184602E7F045ADD2BEEB020366EB6E
:102D98000C060138B146A6E74646ECE7034698E735
:102DA8004046D3E7D6467EE76444023847E70846FC
:102DB8000DE7023E63442DE7F8B500BFF8BC08BC38
:102DC8009E467047F8B500BFF8BC08BC9E467047E1
:102DD80000000000010203040000000000000000E1
:082DE8000102030406070809BB
:082DF00014FDFF7F010000004B
:042DF80025020008A8
:042DFC00FD010008CD
:0C2E000001000000100000000024F4009D
:0400000508002A596C
:00000001FF
